{
	"contracts/storage/LibSMEambStorage.sol": {
		"SMEambStorage": {
			"abi": [
				{
					"inputs": [],
					"name": "_burnCounter",
					"outputs": [
						{
							"internalType": "uint256",
							"name": "",
							"type": "uint256"
						}
					],
					"stateMutability": "view",
					"type": "function"
				},
				{
					"inputs": [],
					"name": "_currentIndex",
					"outputs": [
						{
							"internalType": "uint256",
							"name": "",
							"type": "uint256"
						}
					],
					"stateMutability": "view",
					"type": "function"
				},
				{
					"inputs": [
						{
							"internalType": "address",
							"name": "owner",
							"type": "address"
						},
						{
							"internalType": "address",
							"name": "operator",
							"type": "address"
						}
					],
					"name": "_operatorApprovals",
					"outputs": [
						{
							"internalType": "bool",
							"name": "",
							"type": "bool"
						}
					],
					"stateMutability": "view",
					"type": "function"
				},
				{
					"inputs": [
						{
							"internalType": "address",
							"name": "_owner",
							"type": "address"
						}
					],
					"name": "_packedAddressData",
					"outputs": [
						{
							"internalType": "uint256",
							"name": "",
							"type": "uint256"
						}
					],
					"stateMutability": "view",
					"type": "function"
				},
				{
					"inputs": [
						{
							"internalType": "uint256",
							"name": "_tokenId",
							"type": "uint256"
						}
					],
					"name": "_packedOwnerships",
					"outputs": [
						{
							"internalType": "uint256",
							"name": "",
							"type": "uint256"
						}
					],
					"stateMutability": "view",
					"type": "function"
				},
				{
					"inputs": [],
					"name": "_spotMinted",
					"outputs": [
						{
							"internalType": "uint256",
							"name": "",
							"type": "uint256"
						}
					],
					"stateMutability": "view",
					"type": "function"
				},
				{
					"inputs": [],
					"name": "_startTokenId",
					"outputs": [
						{
							"internalType": "uint256",
							"name": "",
							"type": "uint256"
						}
					],
					"stateMutability": "view",
					"type": "function"
				},
				{
					"inputs": [
						{
							"internalType": "uint256",
							"name": "_tokenId",
							"type": "uint256"
						}
					],
					"name": "_tokenApprovals",
					"outputs": [
						{
							"components": [
								{
									"internalType": "address",
									"name": "value",
									"type": "address"
								}
							],
							"internalType": "struct SMEambStorage.TokenApprovalRef",
							"name": "",
							"type": "tuple"
						}
					],
					"stateMutability": "view",
					"type": "function"
				},
				{
					"inputs": [],
					"name": "allTokens",
					"outputs": [
						{
							"internalType": "uint256[]",
							"name": "",
							"type": "uint256[]"
						}
					],
					"stateMutability": "view",
					"type": "function"
				},
				{
					"inputs": [],
					"name": "baseTokenURI",
					"outputs": [
						{
							"internalType": "string",
							"name": "",
							"type": "string"
						}
					],
					"stateMutability": "view",
					"type": "function"
				},
				{
					"inputs": [],
					"name": "defaultTokenURI",
					"outputs": [
						{
							"internalType": "string",
							"name": "",
							"type": "string"
						}
					],
					"stateMutability": "view",
					"type": "function"
				},
				{
					"inputs": [],
					"name": "epiclistRoot",
					"outputs": [
						{
							"internalType": "bytes32",
							"name": "",
							"type": "bytes32"
						}
					],
					"stateMutability": "view",
					"type": "function"
				},
				{
					"inputs": [],
					"name": "fee",
					"outputs": [
						{
							"internalType": "uint256",
							"name": "",
							"type": "uint256"
						}
					],
					"stateMutability": "view",
					"type": "function"
				},
				{
					"inputs": [],
					"name": "genesislistRoot",
					"outputs": [
						{
							"internalType": "bytes32",
							"name": "",
							"type": "bytes32"
						}
					],
					"stateMutability": "view",
					"type": "function"
				},
				{
					"inputs": [
						{
							"internalType": "address",
							"name": "owner",
							"type": "address"
						}
					],
					"name": "guaranteed_minted",
					"outputs": [
						{
							"internalType": "bool",
							"name": "",
							"type": "bool"
						}
					],
					"stateMutability": "view",
					"type": "function"
				},
				{
					"inputs": [],
					"name": "legendlistRoot",
					"outputs": [
						{
							"internalType": "bytes32",
							"name": "",
							"type": "bytes32"
						}
					],
					"stateMutability": "view",
					"type": "function"
				},
				{
					"inputs": [],
					"name": "name",
					"outputs": [
						{
							"internalType": "string",
							"name": "",
							"type": "string"
						}
					],
					"stateMutability": "view",
					"type": "function"
				},
				{
					"inputs": [
						{
							"internalType": "address",
							"name": "owner",
							"type": "address"
						},
						{
							"internalType": "uint256",
							"name": "index",
							"type": "uint256"
						}
					],
					"name": "ownedTokens",
					"outputs": [
						{
							"internalType": "uint256",
							"name": "",
							"type": "uint256"
						}
					],
					"stateMutability": "view",
					"type": "function"
				},
				{
					"inputs": [
						{
							"internalType": "uint256",
							"name": "tokenId",
							"type": "uint256"
						}
					],
					"name": "ownedTokensIndex",
					"outputs": [
						{
							"internalType": "uint256",
							"name": "",
							"type": "uint256"
						}
					],
					"stateMutability": "view",
					"type": "function"
				},
				{
					"inputs": [],
					"name": "symbol",
					"outputs": [
						{
							"internalType": "string",
							"name": "",
							"type": "string"
						}
					],
					"stateMutability": "view",
					"type": "function"
				},
				{
					"inputs": [
						{
							"internalType": "uint256",
							"name": "tokenId",
							"type": "uint256"
						}
					],
					"name": "tokenURIs",
					"outputs": [
						{
							"internalType": "string",
							"name": "",
							"type": "string"
						}
					],
					"stateMutability": "view",
					"type": "function"
				}
			],
			"devdoc": {
				"custom:version": "1.1.0",
				"details": "Логику смотри в модуле SMEamb",
				"kind": "dev",
				"methods": {
					"addTokenToAllTokensEnumeration(uint256)": {
						"details": "Добавление токена в структуры для отслеживания",
						"params": {
							"tokenId": "uint256 идентификатор токена"
						}
					},
					"addTokenToOwnerEnumeration(address,uint256,uint256)": {
						"details": "Private function to add a token to this extension's ownership-tracking data structures.",
						"params": {
							"to": "address representing the new owner of the given token ID",
							"tokenId": "uint256 ID of the token to be added to the tokens list of the given address"
						}
					},
					"baseTokenURI()": {
						"details": "геттеры"
					},
					"baseTokenURI(string)": {
						"details": "Сеттеры"
					},
					"name()": {
						"details": "ERC721"
					},
					"removeTokenFromAllTokensEnumeration(uint256)": {
						"details": "Private function to remove a token from this extension's token tracking data structures. This has O(1) time complexity, but alters the order of the _allTokens array.",
						"params": {
							"tokenId": "uint256 ID of the token to be removed from the tokens list"
						}
					},
					"removeTokenFromOwnerEnumeration(address,uint256,uint256)": {
						"details": "Private function to remove a token from this extension's ownership-tracking data structures. Note that while the token is not assigned a new owner, the `_ownedTokensIndex` mapping is _not_ updated: this allows for gas optimizations e.g. when performing a transfer operation (avoiding double writes). This has O(1) time complexity, but alters the order of the _ownedTokens array.",
						"params": {
							"from": "address representing the previous owner of the given token ID",
							"tokenId": "uint256 ID of the token to be removed from the tokens list of the given address"
						}
					}
				},
				"stateVariables": {
					"SLOT": {
						"details": "Слот хранилища"
					}
				},
				"title": "OwnableStorage",
				"version": 1
			},
			"evm": {
				"assembly": "    /* \"contracts/storage/LibSMEambStorage.sol\":279:12685  library SMEambStorage{... */\n  dataSize(sub_0)\n  dataOffset(sub_0)\n  0x0b\n  dup3\n  dup3\n  dup3\n  codecopy\n  dup1\n  mload\n  0x00\n  byte\n  0x73\n  eq\n  tag_1\n  jumpi\n  mstore(0x00, 0x4e487b7100000000000000000000000000000000000000000000000000000000)\n  mstore(0x04, 0x00)\n  revert(0x00, 0x24)\ntag_1:\n  mstore(0x00, address)\n  0x73\n  dup2\n  mstore8\n  dup3\n  dup2\n  return\nstop\n\nsub_0: assembly {\n        /* \"contracts/storage/LibSMEambStorage.sol\":279:12685  library SMEambStorage{... */\n      eq(address, deployTimeAddress())\n      mstore(0x40, 0x80)\n      jumpi(tag_1, lt(calldatasize, 0x04))\n      shr(0xe0, calldataload(0x00))\n      dup1\n      0x821abc2d\n      gt\n      tag_49\n      jumpi\n      dup1\n      0xb0d4ce25\n      gt\n      tag_50\n      jumpi\n      dup1\n      0xddca3f43\n      gt\n      tag_51\n      jumpi\n      dup1\n      0xddca3f43\n      eq\n      tag_43\n      jumpi\n      dup1\n      0xdec84db1\n      eq\n      tag_44\n      jumpi\n      dup1\n      0xe149f036\n      eq\n      tag_45\n      jumpi\n      dup1\n      0xe68fdee1\n      eq\n      tag_46\n      jumpi\n      dup1\n      0xedc3bc3f\n      eq\n      tag_47\n      jumpi\n      dup1\n      0xf589b754\n      eq\n      tag_48\n      jumpi\n      jump(tag_1)\n    tag_51:\n      dup1\n      0xb0d4ce25\n      eq\n      tag_37\n      jumpi\n      dup1\n      0xb62d8b91\n      eq\n      tag_38\n      jumpi\n      dup1\n      0xd0125152\n      eq\n      tag_39\n      jumpi\n      dup1\n      0xd20b6ee7\n      eq\n      tag_40\n      jumpi\n      dup1\n      0xd547cfb7\n      eq\n      tag_41\n      jumpi\n      dup1\n      0xdbe0b21c\n      eq\n      tag_42\n      jumpi\n      jump(tag_1)\n    tag_50:\n      dup1\n      0x963bfe12\n      gt\n      tag_52\n      jumpi\n      dup1\n      0x963bfe12\n      eq\n      tag_31\n      jumpi\n      dup1\n      0x98995f77\n      eq\n      tag_32\n      jumpi\n      dup1\n      0xa05cc559\n      eq\n      tag_33\n      jumpi\n      dup1\n      0xa3301173\n      eq\n      tag_34\n      jumpi\n      dup1\n      0xa7cc0136\n      eq\n      tag_35\n      jumpi\n      dup1\n      0xad715f2e\n      eq\n      tag_36\n      jumpi\n      jump(tag_1)\n    tag_52:\n      dup1\n      0x821abc2d\n      eq\n      tag_25\n      jumpi\n      dup1\n      0x830d4091\n      eq\n      tag_26\n      jumpi\n      dup1\n      0x854f9db9\n      eq\n      tag_27\n      jumpi\n      dup1\n      0x8fca4dbe\n      eq\n      tag_28\n      jumpi\n      dup1\n      0x9451c99a\n      eq\n      tag_29\n      jumpi\n      dup1\n      0x95d89b41\n      eq\n      tag_30\n      jumpi\n      jump(tag_1)\n    tag_49:\n      dup1\n      0x39b37ab0\n      gt\n      tag_53\n      jumpi\n      dup1\n      0x4f4979ed\n      gt\n      tag_54\n      jumpi\n      dup1\n      0x4f4979ed\n      eq\n      tag_19\n      jumpi\n      dup1\n      0x5b43bc99\n      eq\n      tag_20\n      jumpi\n      dup1\n      0x6c8b703f\n      eq\n      tag_21\n      jumpi\n      dup1\n      0x6ff97f1d\n      eq\n      tag_22\n      jumpi\n      dup1\n      0x74e24367\n      eq\n      tag_23\n      jumpi\n      dup1\n      0x810536ec\n      eq\n      tag_24\n      jumpi\n      jump(tag_1)\n    tag_54:\n      dup1\n      0x39b37ab0\n      eq\n      tag_13\n      jumpi\n      dup1\n      0x40e02f5c\n      eq\n      tag_14\n      jumpi\n      dup1\n      0x41bb0559\n      eq\n      tag_15\n      jumpi\n      dup1\n      0x44faf255\n      eq\n      tag_16\n      jumpi\n      dup1\n      0x47f69eba\n      eq\n      tag_17\n      jumpi\n      dup1\n      0x49a0a50e\n      eq\n      tag_18\n      jumpi\n      jump(tag_1)\n    tag_53:\n      dup1\n      0x247c6ce0\n      gt\n      tag_55\n      jumpi\n      dup1\n      0x247c6ce0\n      eq\n      tag_7\n      jumpi\n      dup1\n      0x31413efc\n      eq\n      tag_8\n      jumpi\n      dup1\n      0x32b07b43\n      eq\n      tag_9\n      jumpi\n      dup1\n      0x33171809\n      eq\n      tag_10\n      jumpi\n      dup1\n      0x345e7b28\n      eq\n      tag_11\n      jumpi\n      dup1\n      0x3802497b\n      eq\n      tag_12\n      jumpi\n      jump(tag_1)\n    tag_55:\n      dup1\n      0x06fdde03\n      eq\n      tag_2\n      jumpi\n      dup1\n      0x071bc71c\n      eq\n      tag_3\n      jumpi\n      dup1\n      0x13c19ff6\n      eq\n      tag_4\n      jumpi\n      dup1\n      0x19f86200\n      eq\n      tag_5\n      jumpi\n      dup1\n      0x21b0ed7d\n      eq\n      tag_6\n      jumpi\n    tag_1:\n      0x00\n      dup1\n      revert\n        /* \"contracts/storage/LibSMEambStorage.sol\":3216:3301  function name() external view returns(string memory){return _getStorage(SLOT)._name;} */\n    tag_2:\n      tag_56\n      tag_57\n      jump\t// in\n    tag_56:\n      mload(0x40)\n      tag_58\n      swap2\n      swap1\n      tag_59\n      jump\t// in\n    tag_58:\n      mload(0x40)\n      dup1\n      swap2\n      sub\n      swap1\n      return\n        /* \"contracts/storage/LibSMEambStorage.sol\":10882:11934  function removeTokenFromOwnerEnumeration(address from, uint256 tokenId, uint256 lastTokenIndex) external {... */\n    tag_3:\n      dup2\n      dup1\n      iszero\n      tag_60\n      jumpi\n      0x00\n      dup1\n      revert\n    tag_60:\n      pop\n      tag_61\n      0x04\n      dup1\n      calldatasize\n      sub\n      dup2\n      add\n      swap1\n      tag_62\n      swap2\n      swap1\n      tag_63\n      jump\t// in\n    tag_62:\n      tag_64\n      jump\t// in\n    tag_61:\n      stop\n        /* \"contracts/storage/LibSMEambStorage.sol\":5159:5291  function _tokenApprovals(uint256 _tokenId, address _address) external{_getStorage(SLOT)._tokenApprovals[_tokenId].value = _address;} */\n    tag_4:\n      dup2\n      dup1\n      iszero\n      tag_65\n      jumpi\n      0x00\n      dup1\n      revert\n    tag_65:\n      pop\n      tag_66\n      0x04\n      dup1\n      calldatasize\n      sub\n      dup2\n      add\n      swap1\n      tag_67\n      swap2\n      swap1\n      tag_68\n      jump\t// in\n    tag_67:\n      tag_69\n      jump\t// in\n    tag_66:\n      stop\n        /* \"contracts/storage/LibSMEambStorage.sol\":6604:6704  function genesislistRoot() external view returns(bytes32){return _getStorage(SLOT).genesislistRoot;} */\n    tag_5:\n      tag_70\n      tag_71\n      jump\t// in\n    tag_70:\n      mload(0x40)\n      tag_72\n      swap2\n      swap1\n      tag_73\n      jump\t// in\n    tag_72:\n      mload(0x40)\n      dup1\n      swap2\n      sub\n      swap1\n      return\n        /* \"contracts/storage/LibSMEambStorage.sol\":4427:4555  function _packedAddressData(address _owner) external view returns(uint256){return _getStorage(SLOT)._packedAddressData[_owner];} */\n    tag_6:\n      tag_74\n      0x04\n      dup1\n      calldatasize\n      sub\n      dup2\n      add\n      swap1\n      tag_75\n      swap2\n      swap1\n      tag_76\n      jump\t// in\n    tag_75:\n      tag_77\n      jump\t// in\n    tag_74:\n      mload(0x40)\n      tag_78\n      swap2\n      swap1\n      tag_79\n      jump\t// in\n    tag_78:\n      mload(0x40)\n      dup1\n      swap2\n      sub\n      swap1\n      return\n        /* \"contracts/storage/LibSMEambStorage.sol\":8040:8142  function epiclistRoot(bytes32 _epiclistRoot) external{_getStorage(SLOT).epiclistRoot = _epiclistRoot;} */\n    tag_7:\n      dup2\n      dup1\n      iszero\n      tag_80\n      jumpi\n      0x00\n      dup1\n      revert\n    tag_80:\n      pop\n      tag_81\n      0x04\n      dup1\n      calldatasize\n      sub\n      dup2\n      add\n      swap1\n      tag_82\n      swap2\n      swap1\n      tag_83\n      jump\t// in\n    tag_82:\n      tag_84\n      jump\t// in\n    tag_81:\n      stop\n        /* \"contracts/storage/LibSMEambStorage.sol\":4853:5005  function _packedAddressDataDecr(address _owner) external{_getStorage(SLOT)._packedAddressData[_owner] = _getStorage(SLOT)._packedAddressData[_owner]-1;} */\n    tag_8:\n      dup2\n      dup1\n      iszero\n      tag_85\n      jumpi\n      0x00\n      dup1\n      revert\n    tag_85:\n      pop\n      tag_86\n      0x04\n      dup1\n      calldatasize\n      sub\n      dup2\n      add\n      swap1\n      tag_87\n      swap2\n      swap1\n      tag_76\n      jump\t// in\n    tag_87:\n      tag_88\n      jump\t// in\n    tag_86:\n      stop\n        /* \"contracts/storage/LibSMEambStorage.sol\":3879:3964  function _startTokenId(uint256 _id) external {_getStorage(SLOT)._startTokenId = _id;} */\n    tag_9:\n      dup2\n      dup1\n      iszero\n      tag_89\n      jumpi\n      0x00\n      dup1\n      revert\n    tag_89:\n      pop\n      tag_90\n      0x04\n      dup1\n      calldatasize\n      sub\n      dup2\n      add\n      swap1\n      tag_91\n      swap2\n      swap1\n      tag_92\n      jump\t// in\n    tag_91:\n      tag_93\n      jump\t// in\n    tag_90:\n      stop\n        /* \"contracts/storage/LibSMEambStorage.sol\":6814:6908  function epiclistRoot() external view returns(bytes32){return _getStorage(SLOT).epiclistRoot;} */\n    tag_10:\n      tag_94\n      tag_95\n      jump\t// in\n    tag_94:\n      mload(0x40)\n      tag_96\n      swap2\n      swap1\n      tag_73\n      jump\t// in\n    tag_96:\n      mload(0x40)\n      dup1\n      swap2\n      sub\n      swap1\n      return\n        /* \"contracts/storage/LibSMEambStorage.sol\":3680:3771  function _currentIndex(uint256 _index) external {_getStorage(SLOT)._currentIndex = _index;} */\n    tag_11:\n      dup2\n      dup1\n      iszero\n      tag_97\n      jumpi\n      0x00\n      dup1\n      revert\n    tag_97:\n      pop\n      tag_98\n      0x04\n      dup1\n      calldatasize\n      sub\n      dup2\n      add\n      swap1\n      tag_99\n      swap2\n      swap1\n      tag_92\n      jump\t// in\n    tag_99:\n      tag_100\n      jump\t// in\n    tag_98:\n      stop\n        /* \"contracts/storage/LibSMEambStorage.sol\":7804:7918  function genesislistRoot(bytes32 _genesislistRoot) external{_getStorage(SLOT).genesislistRoot = _genesislistRoot;} */\n    tag_12:\n      dup2\n      dup1\n      iszero\n      tag_101\n      jumpi\n      0x00\n      dup1\n      revert\n    tag_101:\n      pop\n      tag_102\n      0x04\n      dup1\n      calldatasize\n      sub\n      dup2\n      add\n      swap1\n      tag_103\n      swap2\n      swap1\n      tag_83\n      jump\t// in\n    tag_103:\n      tag_104\n      jump\t// in\n    tag_102:\n      stop\n        /* \"contracts/storage/LibSMEambStorage.sol\":8148:8214  function fee(uint256 _fee) external{_getStorage(SLOT).fee = _fee;} */\n    tag_13:\n      dup2\n      dup1\n      iszero\n      tag_105\n      jumpi\n      0x00\n      dup1\n      revert\n    tag_105:\n      pop\n      tag_106\n      0x04\n      dup1\n      calldatasize\n      sub\n      dup2\n      add\n      swap1\n      tag_107\n      swap2\n      swap1\n      tag_92\n      jump\t// in\n    tag_107:\n      tag_108\n      jump\t// in\n    tag_106:\n      stop\n        /* \"contracts/storage/LibSMEambStorage.sol\":8636:9838  function removeTokenFromAllTokensEnumeration(uint256 tokenId) external {... */\n    tag_14:\n      dup2\n      dup1\n      iszero\n      tag_109\n      jumpi\n      0x00\n      dup1\n      revert\n    tag_109:\n      pop\n      tag_110\n      0x04\n      dup1\n      calldatasize\n      sub\n      dup2\n      add\n      swap1\n      tag_111\n      swap2\n      swap1\n      tag_92\n      jump\t// in\n    tag_111:\n      tag_112\n      jump\t// in\n    tag_110:\n      stop\n        /* \"contracts/storage/LibSMEambStorage.sol\":3486:3572  function symbol(string memory _symbol) external {_getStorage(SLOT)._symbol = _symbol;} */\n    tag_15:\n      dup2\n      dup1\n      iszero\n      tag_113\n      jumpi\n      0x00\n      dup1\n      revert\n    tag_113:\n      pop\n      tag_114\n      0x04\n      dup1\n      calldatasize\n      sub\n      dup2\n      add\n      swap1\n      tag_115\n      swap2\n      swap1\n      tag_116\n      jump\t// in\n    tag_115:\n      tag_117\n      jump\t// in\n    tag_114:\n      stop\n        /* \"contracts/storage/LibSMEambStorage.sol\":3970:4064  function _burnCounter() external view returns(uint256){return _getStorage(SLOT)._burnCounter;} */\n    tag_16:\n      tag_118\n      tag_119\n      jump\t// in\n    tag_118:\n      mload(0x40)\n      tag_120\n      swap2\n      swap1\n      tag_79\n      jump\t// in\n    tag_120:\n      mload(0x40)\n      dup1\n      swap2\n      sub\n      swap1\n      return\n        /* \"contracts/storage/LibSMEambStorage.sol\":4159:4289  function _packedOwnerships(uint256 _tokenId) external view returns(uint256){return _getStorage(SLOT)._packedOwnerships[_tokenId];} */\n    tag_17:\n      tag_121\n      0x04\n      dup1\n      calldatasize\n      sub\n      dup2\n      add\n      swap1\n      tag_122\n      swap2\n      swap1\n      tag_92\n      jump\t// in\n    tag_122:\n      tag_123\n      jump\t// in\n    tag_121:\n      mload(0x40)\n      tag_124\n      swap2\n      swap1\n      tag_79\n      jump\t// in\n    tag_124:\n      mload(0x40)\n      dup1\n      swap2\n      sub\n      swap1\n      return\n        /* \"contracts/storage/LibSMEambStorage.sol\":7530:7668  function ownedTokens(address _owner, uint256 _index, uint256 _tokenId) external{_getStorage(SLOT).ownedTokens[_owner][_index] = _tokenId;} */\n    tag_18:\n      dup2\n      dup1\n      iszero\n      tag_125\n      jumpi\n      0x00\n      dup1\n      revert\n    tag_125:\n      pop\n      tag_126\n      0x04\n      dup1\n      calldatasize\n      sub\n      dup2\n      add\n      swap1\n      tag_127\n      swap2\n      swap1\n      tag_63\n      jump\t// in\n    tag_127:\n      tag_128\n      jump\t// in\n    tag_126:\n      stop\n        /* \"contracts/storage/LibSMEambStorage.sol\":12235:12458  function addTokenToOwnerEnumeration(address to, uint256 tokenId, uint256 length) external {... */\n    tag_19:\n      dup2\n      dup1\n      iszero\n      tag_129\n      jumpi\n      0x00\n      dup1\n      revert\n    tag_129:\n      pop\n      tag_130\n      0x04\n      dup1\n      calldatasize\n      sub\n      dup2\n      add\n      swap1\n      tag_131\n      swap2\n      swap1\n      tag_63\n      jump\t// in\n    tag_131:\n      tag_132\n      jump\t// in\n    tag_130:\n      stop\n        /* \"contracts/storage/LibSMEambStorage.sol\":3307:3385  function name(string memory _name) external {_getStorage(SLOT)._name = _name;} */\n    tag_20:\n      dup2\n      dup1\n      iszero\n      tag_133\n      jumpi\n      0x00\n      dup1\n      revert\n    tag_133:\n      pop\n      tag_134\n      0x04\n      dup1\n      calldatasize\n      sub\n      dup2\n      add\n      swap1\n      tag_135\n      swap2\n      swap1\n      tag_116\n      jump\t// in\n    tag_135:\n      tag_136\n      jump\t// in\n    tag_134:\n      stop\n        /* \"contracts/storage/LibSMEambStorage.sol\":6105:6223  function tokenURIs(uint256 tokenId) external view returns(string memory){return _getStorage(SLOT).tokenURIs[tokenId];} */\n    tag_21:\n      tag_137\n      0x04\n      dup1\n      calldatasize\n      sub\n      dup2\n      add\n      swap1\n      tag_138\n      swap2\n      swap1\n      tag_92\n      jump\t// in\n    tag_138:\n      tag_139\n      jump\t// in\n    tag_137:\n      mload(0x40)\n      tag_140\n      swap2\n      swap1\n      tag_59\n      jump\t// in\n    tag_140:\n      mload(0x40)\n      dup1\n      swap2\n      sub\n      swap1\n      return\n        /* \"contracts/storage/LibSMEambStorage.sol\":6501:6598  function allTokens() external view returns(uint256[] memory){return _getStorage(SLOT).allTokens;} */\n    tag_22:\n      tag_141\n      tag_142\n      jump\t// in\n    tag_141:\n      mload(0x40)\n      tag_143\n      swap2\n      swap1\n      tag_144\n      jump\t// in\n    tag_143:\n      mload(0x40)\n      dup1\n      swap2\n      sub\n      swap1\n      return\n        /* \"contracts/storage/LibSMEambStorage.sol\":6369:6495  function ownedTokensIndex(uint256 tokenId) external view returns(uint256){return _getStorage(SLOT).ownedTokensIndex[tokenId];} */\n    tag_23:\n      tag_145\n      0x04\n      dup1\n      calldatasize\n      sub\n      dup2\n      add\n      swap1\n      tag_146\n      swap2\n      swap1\n      tag_92\n      jump\t// in\n    tag_146:\n      tag_147\n      jump\t// in\n    tag_145:\n      mload(0x40)\n      tag_148\n      swap2\n      swap1\n      tag_79\n      jump\t// in\n    tag_148:\n      mload(0x40)\n      dup1\n      swap2\n      sub\n      swap1\n      return\n        /* \"contracts/storage/LibSMEambStorage.sol\":5709:5846  function _spotMintedIncr() external {uint256 _spotMinted = _getStorage(SLOT)._spotMinted; _getStorage(SLOT)._spotMinted = _spotMinted+1;} */\n    tag_24:\n      dup2\n      dup1\n      iszero\n      tag_149\n      jumpi\n      0x00\n      dup1\n      revert\n    tag_149:\n      pop\n      tag_150\n      tag_151\n      jump\t// in\n    tag_150:\n      stop\n        /* \"contracts/storage/LibSMEambStorage.sol\":7274:7394  function defaultTokenURI(string memory _defaultTokenURI) external{_getStorage(SLOT).defaultTokenURI = _defaultTokenURI;} */\n    tag_25:\n      dup2\n      dup1\n      iszero\n      tag_152\n      jumpi\n      0x00\n      dup1\n      revert\n    tag_152:\n      pop\n      tag_153\n      0x04\n      dup1\n      calldatasize\n      sub\n      dup2\n      add\n      swap1\n      tag_154\n      swap2\n      swap1\n      tag_116\n      jump\t// in\n    tag_154:\n      tag_155\n      jump\t// in\n    tag_153:\n      stop\n        /* \"contracts/storage/LibSMEambStorage.sol\":5454:5605  function _operatorApprovals(address owner, address operator, bool approved) external{_getStorage(SLOT)._operatorApprovals[owner][operator] = approved;} */\n    tag_26:\n      dup2\n      dup1\n      iszero\n      tag_156\n      jumpi\n      0x00\n      dup1\n      revert\n    tag_156:\n      pop\n      tag_157\n      0x04\n      dup1\n      calldatasize\n      sub\n      dup2\n      add\n      swap1\n      tag_158\n      swap2\n      swap1\n      tag_159\n      jump\t// in\n    tag_158:\n      tag_160\n      jump\t// in\n    tag_157:\n      stop\n        /* \"contracts/storage/LibSMEambStorage.sol\":7924:8034  function legendlistRoot(bytes32 _legendlistRoot) external{_getStorage(SLOT).legendlistRoot = _legendlistRoot;} */\n    tag_27:\n      dup2\n      dup1\n      iszero\n      tag_161\n      jumpi\n      0x00\n      dup1\n      revert\n    tag_161:\n      pop\n      tag_162\n      0x04\n      dup1\n      calldatasize\n      sub\n      dup2\n      add\n      swap1\n      tag_163\n      swap2\n      swap1\n      tag_83\n      jump\t// in\n    tag_163:\n      tag_164\n      jump\t// in\n    tag_162:\n      stop\n        /* \"contracts/storage/LibSMEambStorage.sol\":4070:4153  function _burnCounter(uint256 _id) external {_getStorage(SLOT)._burnCounter = _id;} */\n    tag_28:\n      dup2\n      dup1\n      iszero\n      tag_165\n      jumpi\n      0x00\n      dup1\n      revert\n    tag_165:\n      pop\n      tag_166\n      0x04\n      dup1\n      calldatasize\n      sub\n      dup2\n      add\n      swap1\n      tag_167\n      swap2\n      swap1\n      tag_92\n      jump\t// in\n    tag_167:\n      tag_168\n      jump\t// in\n    tag_166:\n      stop\n        /* \"contracts/storage/LibSMEambStorage.sol\":3578:3674  function _currentIndex() external view returns(uint256){return _getStorage(SLOT)._currentIndex;} */\n    tag_29:\n      tag_169\n      tag_170\n      jump\t// in\n    tag_169:\n      mload(0x40)\n      tag_171\n      swap2\n      swap1\n      tag_79\n      jump\t// in\n    tag_171:\n      mload(0x40)\n      dup1\n      swap2\n      sub\n      swap1\n      return\n        /* \"contracts/storage/LibSMEambStorage.sol\":3391:3480  function symbol() external view returns(string memory){return _getStorage(SLOT)._symbol;} */\n    tag_30:\n      tag_172\n      tag_173\n      jump\t// in\n    tag_172:\n      mload(0x40)\n      tag_174\n      swap2\n      swap1\n      tag_59\n      jump\t// in\n    tag_174:\n      mload(0x40)\n      dup1\n      swap2\n      sub\n      swap1\n      return\n        /* \"contracts/storage/LibSMEambStorage.sol\":5993:6099  function defaultTokenURI() external view returns(string memory){return _getStorage(SLOT).defaultTokenURI;} */\n    tag_31:\n      tag_175\n      tag_176\n      jump\t// in\n    tag_175:\n      mload(0x40)\n      tag_177\n      swap2\n      swap1\n      tag_59\n      jump\t// in\n    tag_177:\n      mload(0x40)\n      dup1\n      swap2\n      sub\n      swap1\n      return\n        /* \"contracts/storage/LibSMEambStorage.sol\":3777:3873  function _startTokenId() external view returns(uint256){return _getStorage(SLOT)._startTokenId;} */\n    tag_32:\n      tag_178\n      tag_179\n      jump\t// in\n    tag_178:\n      mload(0x40)\n      tag_180\n      swap2\n      swap1\n      tag_79\n      jump\t// in\n    tag_180:\n      mload(0x40)\n      dup1\n      swap2\n      sub\n      swap1\n      return\n        /* \"contracts/storage/LibSMEambStorage.sol\":7160:7268  function baseTokenURI(string memory _baseTokenURI) external{_getStorage(SLOT).baseTokenURI = _baseTokenURI;} */\n    tag_33:\n      dup2\n      dup1\n      iszero\n      tag_181\n      jumpi\n      0x00\n      dup1\n      revert\n    tag_181:\n      pop\n      tag_182\n      0x04\n      dup1\n      calldatasize\n      sub\n      dup2\n      add\n      swap1\n      tag_183\n      swap2\n      swap1\n      tag_116\n      jump\t// in\n    tag_183:\n      tag_184\n      jump\t// in\n    tag_182:\n      stop\n        /* \"contracts/storage/LibSMEambStorage.sol\":4561:4689  function _packedAddressData(address _owner, uint256 _tokenId) external{_getStorage(SLOT)._packedAddressData[_owner] = _tokenId;} */\n    tag_34:\n      dup2\n      dup1\n      iszero\n      tag_185\n      jumpi\n      0x00\n      dup1\n      revert\n    tag_185:\n      pop\n      tag_186\n      0x04\n      dup1\n      calldatasize\n      sub\n      dup2\n      add\n      swap1\n      tag_187\n      swap2\n      swap1\n      tag_188\n      jump\t// in\n    tag_187:\n      tag_189\n      jump\t// in\n    tag_186:\n      stop\n        /* \"contracts/storage/LibSMEambStorage.sol\":5011:5153  function _tokenApprovals(uint256 _tokenId) external view returns(TokenApprovalRef memory){return _getStorage(SLOT)._tokenApprovals[_tokenId];} */\n    tag_35:\n      tag_190\n      0x04\n      dup1\n      calldatasize\n      sub\n      dup2\n      add\n      swap1\n      tag_191\n      swap2\n      swap1\n      tag_92\n      jump\t// in\n    tag_191:\n      tag_192\n      jump\t// in\n    tag_190:\n      mload(0x40)\n      tag_193\n      swap2\n      swap1\n      tag_194\n      jump\t// in\n    tag_193:\n      mload(0x40)\n      dup1\n      swap2\n      sub\n      swap1\n      return\n        /* \"contracts/storage/LibSMEambStorage.sol\":7674:7798  function ownedTokensIndex(uint256 _tokenId, uint256 _index) external{_getStorage(SLOT).ownedTokensIndex[_tokenId] = _index;} */\n    tag_36:\n      dup2\n      dup1\n      iszero\n      tag_195\n      jumpi\n      0x00\n      dup1\n      revert\n    tag_195:\n      pop\n      tag_196\n      0x04\n      dup1\n      calldatasize\n      sub\n      dup2\n      add\n      swap1\n      tag_197\n      swap2\n      swap1\n      tag_198\n      jump\t// in\n    tag_197:\n      tag_199\n      jump\t// in\n    tag_196:\n      stop\n        /* \"contracts/storage/LibSMEambStorage.sol\":8220:8337  function guaranteed_minted(address _owner, bool _bool) external{_getStorage(SLOT).guaranteed_minted[_owner] = _bool;} */\n    tag_37:\n      dup2\n      dup1\n      iszero\n      tag_200\n      jumpi\n      0x00\n      dup1\n      revert\n    tag_200:\n      pop\n      tag_201\n      0x04\n      dup1\n      calldatasize\n      sub\n      dup2\n      add\n      swap1\n      tag_202\n      swap2\n      swap1\n      tag_203\n      jump\t// in\n    tag_202:\n      tag_204\n      jump\t// in\n    tag_201:\n      stop\n        /* \"contracts/storage/LibSMEambStorage.sol\":6996:7117  function guaranteed_minted(address owner) external view returns(bool){return _getStorage(SLOT).guaranteed_minted[owner];} */\n    tag_38:\n      tag_205\n      0x04\n      dup1\n      calldatasize\n      sub\n      dup2\n      add\n      swap1\n      tag_206\n      swap2\n      swap1\n      tag_76\n      jump\t// in\n    tag_206:\n      tag_207\n      jump\t// in\n    tag_205:\n      mload(0x40)\n      tag_208\n      swap2\n      swap1\n      tag_209\n      jump\t// in\n    tag_208:\n      mload(0x40)\n      dup1\n      swap2\n      sub\n      swap1\n      return\n        /* \"contracts/storage/LibSMEambStorage.sol\":4695:4847  function _packedAddressDataIncr(address _owner) external{_getStorage(SLOT)._packedAddressData[_owner] = _getStorage(SLOT)._packedAddressData[_owner]+1;} */\n    tag_39:\n      dup2\n      dup1\n      iszero\n      tag_210\n      jumpi\n      0x00\n      dup1\n      revert\n    tag_210:\n      pop\n      tag_211\n      0x04\n      dup1\n      calldatasize\n      sub\n      dup2\n      add\n      swap1\n      tag_212\n      swap2\n      swap1\n      tag_76\n      jump\t// in\n    tag_212:\n      tag_213\n      jump\t// in\n    tag_211:\n      stop\n        /* \"contracts/storage/LibSMEambStorage.sol\":5611:5703  function _spotMinted() external view returns(uint256){return _getStorage(SLOT)._spotMinted;} */\n    tag_40:\n      tag_214\n      tag_215\n      jump\t// in\n    tag_214:\n      mload(0x40)\n      tag_216\n      swap2\n      swap1\n      tag_79\n      jump\t// in\n    tag_216:\n      mload(0x40)\n      dup1\n      swap2\n      sub\n      swap1\n      return\n        /* \"contracts/storage/LibSMEambStorage.sol\":5887:5987  function baseTokenURI() external view returns(string memory){return _getStorage(SLOT).baseTokenURI;} */\n    tag_41:\n      tag_217\n      tag_218\n      jump\t// in\n    tag_217:\n      mload(0x40)\n      tag_219\n      swap2\n      swap1\n      tag_59\n      jump\t// in\n    tag_219:\n      mload(0x40)\n      dup1\n      swap2\n      sub\n      swap1\n      return\n        /* \"contracts/storage/LibSMEambStorage.sol\":10040:10255  function addTokenToAllTokensEnumeration(uint256 tokenId) external {... */\n    tag_42:\n      dup2\n      dup1\n      iszero\n      tag_220\n      jumpi\n      0x00\n      dup1\n      revert\n    tag_220:\n      pop\n      tag_221\n      0x04\n      dup1\n      calldatasize\n      sub\n      dup2\n      add\n      swap1\n      tag_222\n      swap2\n      swap1\n      tag_92\n      jump\t// in\n    tag_222:\n      tag_223\n      jump\t// in\n    tag_221:\n      stop\n        /* \"contracts/storage/LibSMEambStorage.sol\":6914:6990  function fee() external view returns(uint256){return _getStorage(SLOT).fee;} */\n    tag_43:\n      tag_224\n      tag_225\n      jump\t// in\n    tag_224:\n      mload(0x40)\n      tag_226\n      swap2\n      swap1\n      tag_79\n      jump\t// in\n    tag_226:\n      mload(0x40)\n      dup1\n      swap2\n      sub\n      swap1\n      return\n        /* \"contracts/storage/LibSMEambStorage.sol\":7400:7524  function tokenURIs(string memory _tokenURIs, uint256 _tokenId) external{_getStorage(SLOT).tokenURIs[_tokenId] = _tokenURIs;} */\n    tag_44:\n      dup2\n      dup1\n      iszero\n      tag_227\n      jumpi\n      0x00\n      dup1\n      revert\n    tag_227:\n      pop\n      tag_228\n      0x04\n      dup1\n      calldatasize\n      sub\n      dup2\n      add\n      swap1\n      tag_229\n      swap2\n      swap1\n      tag_230\n      jump\t// in\n    tag_229:\n      tag_231\n      jump\t// in\n    tag_228:\n      stop\n        /* \"contracts/storage/LibSMEambStorage.sol\":6229:6363  function ownedTokens(address owner, uint256 index) external view returns(uint256){return _getStorage(SLOT).ownedTokens[owner][index];} */\n    tag_45:\n      tag_232\n      0x04\n      dup1\n      calldatasize\n      sub\n      dup2\n      add\n      swap1\n      tag_233\n      swap2\n      swap1\n      tag_188\n      jump\t// in\n    tag_233:\n      tag_234\n      jump\t// in\n    tag_232:\n      mload(0x40)\n      tag_235\n      swap2\n      swap1\n      tag_79\n      jump\t// in\n    tag_235:\n      mload(0x40)\n      dup1\n      swap2\n      sub\n      swap1\n      return\n        /* \"contracts/storage/LibSMEambStorage.sol\":4295:4421  function _packedOwnerships(uint256 _tokenId, uint256 _index) external{_getStorage(SLOT)._packedOwnerships[_tokenId] = _index;} */\n    tag_46:\n      dup2\n      dup1\n      iszero\n      tag_236\n      jumpi\n      0x00\n      dup1\n      revert\n    tag_236:\n      pop\n      tag_237\n      0x04\n      dup1\n      calldatasize\n      sub\n      dup2\n      add\n      swap1\n      tag_238\n      swap2\n      swap1\n      tag_198\n      jump\t// in\n    tag_238:\n      tag_239\n      jump\t// in\n    tag_237:\n      stop\n        /* \"contracts/storage/LibSMEambStorage.sol\":5297:5448  function _operatorApprovals(address owner, address operator) external view returns(bool){return _getStorage(SLOT)._operatorApprovals[owner][operator];} */\n    tag_47:\n      tag_240\n      0x04\n      dup1\n      calldatasize\n      sub\n      dup2\n      add\n      swap1\n      tag_241\n      swap2\n      swap1\n      tag_242\n      jump\t// in\n    tag_241:\n      tag_243\n      jump\t// in\n    tag_240:\n      mload(0x40)\n      tag_244\n      swap2\n      swap1\n      tag_209\n      jump\t// in\n    tag_244:\n      mload(0x40)\n      dup1\n      swap2\n      sub\n      swap1\n      return\n        /* \"contracts/storage/LibSMEambStorage.sol\":6710:6808  function legendlistRoot() external view returns(bytes32){return _getStorage(SLOT).legendlistRoot;} */\n    tag_48:\n      tag_245\n      tag_246\n      jump\t// in\n    tag_245:\n      mload(0x40)\n      tag_247\n      swap2\n      swap1\n      tag_73\n      jump\t// in\n    tag_247:\n      mload(0x40)\n      dup1\n      swap2\n      sub\n      swap1\n      return\n        /* \"contracts/storage/LibSMEambStorage.sol\":3216:3301  function name() external view returns(string memory){return _getStorage(SLOT)._name;} */\n    tag_57:\n        /* \"contracts/storage/LibSMEambStorage.sol\":3254:3267  string memory */\n      0x60\n        /* \"contracts/storage/LibSMEambStorage.sol\":3276:3293  _getStorage(SLOT) */\n      tag_249\n        /* \"contracts/storage/LibSMEambStorage.sol\":385:400  bytes('SMEamb') */\n      mload(0x40)\n      dup1\n      0x40\n      add\n      0x40\n      mstore\n      dup1\n      0x06\n      dup2\n      mstore\n      0x20\n      add\n      0x534d45616d620000000000000000000000000000000000000000000000000000\n      dup2\n      mstore\n      pop\n        /* \"contracts/storage/LibSMEambStorage.sol\":375:401  keccak256(bytes('SMEamb')) */\n      dup1\n      mload\n      swap1\n      0x20\n      add\n      keccak256\n        /* \"contracts/storage/LibSMEambStorage.sol\":3276:3287  _getStorage */\n      tag_250\n        /* \"contracts/storage/LibSMEambStorage.sol\":3276:3293  _getStorage(SLOT) */\n      jump\t// in\n    tag_249:\n        /* \"contracts/storage/LibSMEambStorage.sol\":3276:3299  _getStorage(SLOT)._name */\n      0x0e\n      add\n        /* \"contracts/storage/LibSMEambStorage.sol\":3269:3299  return _getStorage(SLOT)._name */\n      dup1\n      sload\n      tag_251\n      swap1\n      tag_252\n      jump\t// in\n    tag_251:\n      dup1\n      0x1f\n      add\n      0x20\n      dup1\n      swap2\n      div\n      mul\n      0x20\n      add\n      mload(0x40)\n      swap1\n      dup2\n      add\n      0x40\n      mstore\n      dup1\n      swap3\n      swap2\n      swap1\n      dup2\n      dup2\n      mstore\n      0x20\n      add\n      dup3\n      dup1\n      sload\n      tag_253\n      swap1\n      tag_252\n      jump\t// in\n    tag_253:\n      dup1\n      iszero\n      tag_254\n      jumpi\n      dup1\n      0x1f\n      lt\n      tag_255\n      jumpi\n      0x0100\n      dup1\n      dup4\n      sload\n      div\n      mul\n      dup4\n      mstore\n      swap2\n      0x20\n      add\n      swap2\n      jump(tag_254)\n    tag_255:\n      dup3\n      add\n      swap2\n      swap1\n      0x00\n      mstore\n      keccak256(0x00, 0x20)\n      swap1\n    tag_256:\n      dup2\n      sload\n      dup2\n      mstore\n      swap1\n      0x01\n      add\n      swap1\n      0x20\n      add\n      dup1\n      dup4\n      gt\n      tag_256\n      jumpi\n      dup3\n      swap1\n      sub\n      0x1f\n      and\n      dup3\n      add\n      swap2\n    tag_254:\n      pop\n      pop\n      pop\n      pop\n      pop\n      swap1\n      pop\n        /* \"contracts/storage/LibSMEambStorage.sol\":3216:3301  function name() external view returns(string memory){return _getStorage(SLOT)._name;} */\n      swap1\n      jump\t// out\n        /* \"contracts/storage/LibSMEambStorage.sol\":10882:11934  function removeTokenFromOwnerEnumeration(address from, uint256 tokenId, uint256 lastTokenIndex) external {... */\n    tag_64:\n        /* \"contracts/storage/LibSMEambStorage.sol\":11172:11190  uint256 tokenIndex */\n      0x00\n        /* \"contracts/storage/LibSMEambStorage.sol\":11193:11210  _getStorage(SLOT) */\n      tag_258\n        /* \"contracts/storage/LibSMEambStorage.sol\":385:400  bytes('SMEamb') */\n      mload(0x40)\n      dup1\n      0x40\n      add\n      0x40\n      mstore\n      dup1\n      0x06\n      dup2\n      mstore\n      0x20\n      add\n      0x534d45616d620000000000000000000000000000000000000000000000000000\n      dup2\n      mstore\n      pop\n        /* \"contracts/storage/LibSMEambStorage.sol\":375:401  keccak256(bytes('SMEamb')) */\n      dup1\n      mload\n      swap1\n      0x20\n      add\n      keccak256\n        /* \"contracts/storage/LibSMEambStorage.sol\":11193:11204  _getStorage */\n      tag_250\n        /* \"contracts/storage/LibSMEambStorage.sol\":11193:11210  _getStorage(SLOT) */\n      jump\t// in\n    tag_258:\n        /* \"contracts/storage/LibSMEambStorage.sol\":11193:11227  _getStorage(SLOT).ownedTokensIndex */\n      0x04\n      add\n        /* \"contracts/storage/LibSMEambStorage.sol\":11193:11236  _getStorage(SLOT).ownedTokensIndex[tokenId] */\n      0x00\n        /* \"contracts/storage/LibSMEambStorage.sol\":11228:11235  tokenId */\n      dup5\n        /* \"contracts/storage/LibSMEambStorage.sol\":11193:11236  _getStorage(SLOT).ownedTokensIndex[tokenId] */\n      dup2\n      mstore\n      0x20\n      add\n      swap1\n      dup2\n      mstore\n      0x20\n      add\n      0x00\n      keccak256\n      sload\n        /* \"contracts/storage/LibSMEambStorage.sol\":11172:11236  uint256 tokenIndex = _getStorage(SLOT).ownedTokensIndex[tokenId] */\n      swap1\n      pop\n        /* \"contracts/storage/LibSMEambStorage.sol\":11357:11371  lastTokenIndex */\n      dup2\n        /* \"contracts/storage/LibSMEambStorage.sol\":11343:11353  tokenIndex */\n      dup2\n        /* \"contracts/storage/LibSMEambStorage.sol\":11343:11371  tokenIndex != lastTokenIndex */\n      eq\n        /* \"contracts/storage/LibSMEambStorage.sol\":11339:11718  if (tokenIndex != lastTokenIndex) {... */\n      tag_259\n      jumpi\n        /* \"contracts/storage/LibSMEambStorage.sol\":11388:11407  uint256 lastTokenId */\n      0x00\n        /* \"contracts/storage/LibSMEambStorage.sol\":11410:11427  _getStorage(SLOT) */\n      tag_260\n        /* \"contracts/storage/LibSMEambStorage.sol\":385:400  bytes('SMEamb') */\n      mload(0x40)\n      dup1\n      0x40\n      add\n      0x40\n      mstore\n      dup1\n      0x06\n      dup2\n      mstore\n      0x20\n      add\n      0x534d45616d620000000000000000000000000000000000000000000000000000\n      dup2\n      mstore\n      pop\n        /* \"contracts/storage/LibSMEambStorage.sol\":375:401  keccak256(bytes('SMEamb')) */\n      dup1\n      mload\n      swap1\n      0x20\n      add\n      keccak256\n        /* \"contracts/storage/LibSMEambStorage.sol\":11410:11421  _getStorage */\n      tag_250\n        /* \"contracts/storage/LibSMEambStorage.sol\":11410:11427  _getStorage(SLOT) */\n      jump\t// in\n    tag_260:\n        /* \"contracts/storage/LibSMEambStorage.sol\":11410:11439  _getStorage(SLOT).ownedTokens */\n      0x03\n      add\n        /* \"contracts/storage/LibSMEambStorage.sol\":11410:11445  _getStorage(SLOT).ownedTokens[from] */\n      0x00\n        /* \"contracts/storage/LibSMEambStorage.sol\":11440:11444  from */\n      dup7\n        /* \"contracts/storage/LibSMEambStorage.sol\":11410:11445  _getStorage(SLOT).ownedTokens[from] */\n      0xffffffffffffffffffffffffffffffffffffffff\n      and\n      0xffffffffffffffffffffffffffffffffffffffff\n      and\n      dup2\n      mstore\n      0x20\n      add\n      swap1\n      dup2\n      mstore\n      0x20\n      add\n      0x00\n      keccak256\n        /* \"contracts/storage/LibSMEambStorage.sol\":11410:11461  _getStorage(SLOT).ownedTokens[from][lastTokenIndex] */\n      0x00\n        /* \"contracts/storage/LibSMEambStorage.sol\":11446:11460  lastTokenIndex */\n      dup5\n        /* \"contracts/storage/LibSMEambStorage.sol\":11410:11461  _getStorage(SLOT).ownedTokens[from][lastTokenIndex] */\n      dup2\n      mstore\n      0x20\n      add\n      swap1\n      dup2\n      mstore\n      0x20\n      add\n      0x00\n      keccak256\n      sload\n        /* \"contracts/storage/LibSMEambStorage.sol\":11388:11461  uint256 lastTokenId = _getStorage(SLOT).ownedTokens[from][lastTokenIndex] */\n      swap1\n      pop\n        /* \"contracts/storage/LibSMEambStorage.sol\":11528:11539  lastTokenId */\n      dup1\n        /* \"contracts/storage/LibSMEambStorage.sol\":11478:11495  _getStorage(SLOT) */\n      tag_261\n        /* \"contracts/storage/LibSMEambStorage.sol\":385:400  bytes('SMEamb') */\n      mload(0x40)\n      dup1\n      0x40\n      add\n      0x40\n      mstore\n      dup1\n      0x06\n      dup2\n      mstore\n      0x20\n      add\n      0x534d45616d620000000000000000000000000000000000000000000000000000\n      dup2\n      mstore\n      pop\n        /* \"contracts/storage/LibSMEambStorage.sol\":375:401  keccak256(bytes('SMEamb')) */\n      dup1\n      mload\n      swap1\n      0x20\n      add\n      keccak256\n        /* \"contracts/storage/LibSMEambStorage.sol\":11478:11489  _getStorage */\n      tag_250\n        /* \"contracts/storage/LibSMEambStorage.sol\":11478:11495  _getStorage(SLOT) */\n      jump\t// in\n    tag_261:\n        /* \"contracts/storage/LibSMEambStorage.sol\":11478:11507  _getStorage(SLOT).ownedTokens */\n      0x03\n      add\n        /* \"contracts/storage/LibSMEambStorage.sol\":11478:11513  _getStorage(SLOT).ownedTokens[from] */\n      0x00\n        /* \"contracts/storage/LibSMEambStorage.sol\":11508:11512  from */\n      dup8\n        /* \"contracts/storage/LibSMEambStorage.sol\":11478:11513  _getStorage(SLOT).ownedTokens[from] */\n      0xffffffffffffffffffffffffffffffffffffffff\n      and\n      0xffffffffffffffffffffffffffffffffffffffff\n      and\n      dup2\n      mstore\n      0x20\n      add\n      swap1\n      dup2\n      mstore\n      0x20\n      add\n      0x00\n      keccak256\n        /* \"contracts/storage/LibSMEambStorage.sol\":11478:11525  _getStorage(SLOT).ownedTokens[from][tokenIndex] */\n      0x00\n        /* \"contracts/storage/LibSMEambStorage.sol\":11514:11524  tokenIndex */\n      dup5\n        /* \"contracts/storage/LibSMEambStorage.sol\":11478:11525  _getStorage(SLOT).ownedTokens[from][tokenIndex] */\n      dup2\n      mstore\n      0x20\n      add\n      swap1\n      dup2\n      mstore\n      0x20\n      add\n      0x00\n      keccak256\n        /* \"contracts/storage/LibSMEambStorage.sol\":11478:11539  _getStorage(SLOT).ownedTokens[from][tokenIndex] = lastTokenId */\n      dup2\n      swap1\n      sstore\n      pop\n        /* \"contracts/storage/LibSMEambStorage.sol\":11662:11672  tokenIndex */\n      dup2\n        /* \"contracts/storage/LibSMEambStorage.sol\":11612:11629  _getStorage(SLOT) */\n      tag_262\n        /* \"contracts/storage/LibSMEambStorage.sol\":385:400  bytes('SMEamb') */\n      mload(0x40)\n      dup1\n      0x40\n      add\n      0x40\n      mstore\n      dup1\n      0x06\n      dup2\n      mstore\n      0x20\n      add\n      0x534d45616d620000000000000000000000000000000000000000000000000000\n      dup2\n      mstore\n      pop\n        /* \"contracts/storage/LibSMEambStorage.sol\":375:401  keccak256(bytes('SMEamb')) */\n      dup1\n      mload\n      swap1\n      0x20\n      add\n      keccak256\n        /* \"contracts/storage/LibSMEambStorage.sol\":11612:11623  _getStorage */\n      tag_250\n        /* \"contracts/storage/LibSMEambStorage.sol\":11612:11629  _getStorage(SLOT) */\n      jump\t// in\n    tag_262:\n        /* \"contracts/storage/LibSMEambStorage.sol\":11612:11646  _getStorage(SLOT).ownedTokensIndex */\n      0x04\n      add\n        /* \"contracts/storage/LibSMEambStorage.sol\":11612:11659  _getStorage(SLOT).ownedTokensIndex[lastTokenId] */\n      0x00\n        /* \"contracts/storage/LibSMEambStorage.sol\":11647:11658  lastTokenId */\n      dup4\n        /* \"contracts/storage/LibSMEambStorage.sol\":11612:11659  _getStorage(SLOT).ownedTokensIndex[lastTokenId] */\n      dup2\n      mstore\n      0x20\n      add\n      swap1\n      dup2\n      mstore\n      0x20\n      add\n      0x00\n      keccak256\n        /* \"contracts/storage/LibSMEambStorage.sol\":11612:11672  _getStorage(SLOT).ownedTokensIndex[lastTokenId] = tokenIndex */\n      dup2\n      swap1\n      sstore\n      pop\n        /* \"contracts/storage/LibSMEambStorage.sol\":11373:11718  {... */\n      pop\n        /* \"contracts/storage/LibSMEambStorage.sol\":11339:11718  if (tokenIndex != lastTokenIndex) {... */\n    tag_259:\n        /* \"contracts/storage/LibSMEambStorage.sol\":11814:11831  _getStorage(SLOT) */\n      tag_263\n        /* \"contracts/storage/LibSMEambStorage.sol\":385:400  bytes('SMEamb') */\n      mload(0x40)\n      dup1\n      0x40\n      add\n      0x40\n      mstore\n      dup1\n      0x06\n      dup2\n      mstore\n      0x20\n      add\n      0x534d45616d620000000000000000000000000000000000000000000000000000\n      dup2\n      mstore\n      pop\n        /* \"contracts/storage/LibSMEambStorage.sol\":375:401  keccak256(bytes('SMEamb')) */\n      dup1\n      mload\n      swap1\n      0x20\n      add\n      keccak256\n        /* \"contracts/storage/LibSMEambStorage.sol\":11814:11825  _getStorage */\n      tag_250\n        /* \"contracts/storage/LibSMEambStorage.sol\":11814:11831  _getStorage(SLOT) */\n      jump\t// in\n    tag_263:\n        /* \"contracts/storage/LibSMEambStorage.sol\":11814:11848  _getStorage(SLOT).ownedTokensIndex */\n      0x04\n      add\n        /* \"contracts/storage/LibSMEambStorage.sol\":11814:11857  _getStorage(SLOT).ownedTokensIndex[tokenId] */\n      0x00\n        /* \"contracts/storage/LibSMEambStorage.sol\":11849:11856  tokenId */\n      dup5\n        /* \"contracts/storage/LibSMEambStorage.sol\":11814:11857  _getStorage(SLOT).ownedTokensIndex[tokenId] */\n      dup2\n      mstore\n      0x20\n      add\n      swap1\n      dup2\n      mstore\n      0x20\n      add\n      0x00\n      keccak256\n        /* \"contracts/storage/LibSMEambStorage.sol\":11807:11857  delete _getStorage(SLOT).ownedTokensIndex[tokenId] */\n      0x00\n      swap1\n      sstore\n        /* \"contracts/storage/LibSMEambStorage.sol\":11875:11892  _getStorage(SLOT) */\n      tag_264\n        /* \"contracts/storage/LibSMEambStorage.sol\":385:400  bytes('SMEamb') */\n      mload(0x40)\n      dup1\n      0x40\n      add\n      0x40\n      mstore\n      dup1\n      0x06\n      dup2\n      mstore\n      0x20\n      add\n      0x534d45616d620000000000000000000000000000000000000000000000000000\n      dup2\n      mstore\n      pop\n        /* \"contracts/storage/LibSMEambStorage.sol\":375:401  keccak256(bytes('SMEamb')) */\n      dup1\n      mload\n      swap1\n      0x20\n      add\n      keccak256\n        /* \"contracts/storage/LibSMEambStorage.sol\":11875:11886  _getStorage */\n      tag_250\n        /* \"contracts/storage/LibSMEambStorage.sol\":11875:11892  _getStorage(SLOT) */\n      jump\t// in\n    tag_264:\n        /* \"contracts/storage/LibSMEambStorage.sol\":11875:11904  _getStorage(SLOT).ownedTokens */\n      0x03\n      add\n        /* \"contracts/storage/LibSMEambStorage.sol\":11875:11910  _getStorage(SLOT).ownedTokens[from] */\n      0x00\n        /* \"contracts/storage/LibSMEambStorage.sol\":11905:11909  from */\n      dup6\n        /* \"contracts/storage/LibSMEambStorage.sol\":11875:11910  _getStorage(SLOT).ownedTokens[from] */\n      0xffffffffffffffffffffffffffffffffffffffff\n      and\n      0xffffffffffffffffffffffffffffffffffffffff\n      and\n      dup2\n      mstore\n      0x20\n      add\n      swap1\n      dup2\n      mstore\n      0x20\n      add\n      0x00\n      keccak256\n        /* \"contracts/storage/LibSMEambStorage.sol\":11875:11926  _getStorage(SLOT).ownedTokens[from][lastTokenIndex] */\n      0x00\n        /* \"contracts/storage/LibSMEambStorage.sol\":11911:11925  lastTokenIndex */\n      dup4\n        /* \"contracts/storage/LibSMEambStorage.sol\":11875:11926  _getStorage(SLOT).ownedTokens[from][lastTokenIndex] */\n      dup2\n      mstore\n      0x20\n      add\n      swap1\n      dup2\n      mstore\n      0x20\n      add\n      0x00\n      keccak256\n        /* \"contracts/storage/LibSMEambStorage.sol\":11868:11926  delete _getStorage(SLOT).ownedTokens[from][lastTokenIndex] */\n      0x00\n      swap1\n      sstore\n        /* \"contracts/storage/LibSMEambStorage.sol\":10987:11934  {... */\n      pop\n        /* \"contracts/storage/LibSMEambStorage.sol\":10882:11934  function removeTokenFromOwnerEnumeration(address from, uint256 tokenId, uint256 lastTokenIndex) external {... */\n      pop\n      pop\n      pop\n      jump\t// out\n        /* \"contracts/storage/LibSMEambStorage.sol\":5159:5291  function _tokenApprovals(uint256 _tokenId, address _address) external{_getStorage(SLOT)._tokenApprovals[_tokenId].value = _address;} */\n    tag_69:\n        /* \"contracts/storage/LibSMEambStorage.sol\":5281:5289  _address */\n      dup1\n        /* \"contracts/storage/LibSMEambStorage.sol\":5229:5246  _getStorage(SLOT) */\n      tag_266\n        /* \"contracts/storage/LibSMEambStorage.sol\":385:400  bytes('SMEamb') */\n      mload(0x40)\n      dup1\n      0x40\n      add\n      0x40\n      mstore\n      dup1\n      0x06\n      dup2\n      mstore\n      0x20\n      add\n      0x534d45616d620000000000000000000000000000000000000000000000000000\n      dup2\n      mstore\n      pop\n        /* \"contracts/storage/LibSMEambStorage.sol\":375:401  keccak256(bytes('SMEamb')) */\n      dup1\n      mload\n      swap1\n      0x20\n      add\n      keccak256\n        /* \"contracts/storage/LibSMEambStorage.sol\":5229:5240  _getStorage */\n      tag_250\n        /* \"contracts/storage/LibSMEambStorage.sol\":5229:5246  _getStorage(SLOT) */\n      jump\t// in\n    tag_266:\n        /* \"contracts/storage/LibSMEambStorage.sol\":5229:5262  _getStorage(SLOT)._tokenApprovals */\n      0x12\n      add\n        /* \"contracts/storage/LibSMEambStorage.sol\":5229:5272  _getStorage(SLOT)._tokenApprovals[_tokenId] */\n      0x00\n        /* \"contracts/storage/LibSMEambStorage.sol\":5263:5271  _tokenId */\n      dup5\n        /* \"contracts/storage/LibSMEambStorage.sol\":5229:5272  _getStorage(SLOT)._tokenApprovals[_tokenId] */\n      dup2\n      mstore\n      0x20\n      add\n      swap1\n      dup2\n      mstore\n      0x20\n      add\n      0x00\n      keccak256\n        /* \"contracts/storage/LibSMEambStorage.sol\":5229:5278  _getStorage(SLOT)._tokenApprovals[_tokenId].value */\n      0x00\n      add\n      0x00\n        /* \"contracts/storage/LibSMEambStorage.sol\":5229:5289  _getStorage(SLOT)._tokenApprovals[_tokenId].value = _address */\n      0x0100\n      exp\n      dup2\n      sload\n      dup2\n      0xffffffffffffffffffffffffffffffffffffffff\n      mul\n      not\n      and\n      swap1\n      dup4\n      0xffffffffffffffffffffffffffffffffffffffff\n      and\n      mul\n      or\n      swap1\n      sstore\n      pop\n        /* \"contracts/storage/LibSMEambStorage.sol\":5159:5291  function _tokenApprovals(uint256 _tokenId, address _address) external{_getStorage(SLOT)._tokenApprovals[_tokenId].value = _address;} */\n      pop\n      pop\n      jump\t// out\n        /* \"contracts/storage/LibSMEambStorage.sol\":6604:6704  function genesislistRoot() external view returns(bytes32){return _getStorage(SLOT).genesislistRoot;} */\n    tag_71:\n        /* \"contracts/storage/LibSMEambStorage.sol\":6653:6660  bytes32 */\n      0x00\n        /* \"contracts/storage/LibSMEambStorage.sol\":6669:6686  _getStorage(SLOT) */\n      tag_268\n        /* \"contracts/storage/LibSMEambStorage.sol\":385:400  bytes('SMEamb') */\n      mload(0x40)\n      dup1\n      0x40\n      add\n      0x40\n      mstore\n      dup1\n      0x06\n      dup2\n      mstore\n      0x20\n      add\n      0x534d45616d620000000000000000000000000000000000000000000000000000\n      dup2\n      mstore\n      pop\n        /* \"contracts/storage/LibSMEambStorage.sol\":375:401  keccak256(bytes('SMEamb')) */\n      dup1\n      mload\n      swap1\n      0x20\n      add\n      keccak256\n        /* \"contracts/storage/LibSMEambStorage.sol\":6669:6680  _getStorage */\n      tag_250\n        /* \"contracts/storage/LibSMEambStorage.sol\":6669:6686  _getStorage(SLOT) */\n      jump\t// in\n    tag_268:\n        /* \"contracts/storage/LibSMEambStorage.sol\":6669:6702  _getStorage(SLOT).genesislistRoot */\n      0x07\n      add\n      sload\n        /* \"contracts/storage/LibSMEambStorage.sol\":6662:6702  return _getStorage(SLOT).genesislistRoot */\n      swap1\n      pop\n        /* \"contracts/storage/LibSMEambStorage.sol\":6604:6704  function genesislistRoot() external view returns(bytes32){return _getStorage(SLOT).genesislistRoot;} */\n      swap1\n      jump\t// out\n        /* \"contracts/storage/LibSMEambStorage.sol\":4427:4555  function _packedAddressData(address _owner) external view returns(uint256){return _getStorage(SLOT)._packedAddressData[_owner];} */\n    tag_77:\n        /* \"contracts/storage/LibSMEambStorage.sol\":4493:4500  uint256 */\n      0x00\n        /* \"contracts/storage/LibSMEambStorage.sol\":4509:4526  _getStorage(SLOT) */\n      tag_270\n        /* \"contracts/storage/LibSMEambStorage.sol\":385:400  bytes('SMEamb') */\n      mload(0x40)\n      dup1\n      0x40\n      add\n      0x40\n      mstore\n      dup1\n      0x06\n      dup2\n      mstore\n      0x20\n      add\n      0x534d45616d620000000000000000000000000000000000000000000000000000\n      dup2\n      mstore\n      pop\n        /* \"contracts/storage/LibSMEambStorage.sol\":375:401  keccak256(bytes('SMEamb')) */\n      dup1\n      mload\n      swap1\n      0x20\n      add\n      keccak256\n        /* \"contracts/storage/LibSMEambStorage.sol\":4509:4520  _getStorage */\n      tag_250\n        /* \"contracts/storage/LibSMEambStorage.sol\":4509:4526  _getStorage(SLOT) */\n      jump\t// in\n    tag_270:\n        /* \"contracts/storage/LibSMEambStorage.sol\":4509:4545  _getStorage(SLOT)._packedAddressData */\n      0x11\n      add\n        /* \"contracts/storage/LibSMEambStorage.sol\":4509:4553  _getStorage(SLOT)._packedAddressData[_owner] */\n      0x00\n        /* \"contracts/storage/LibSMEambStorage.sol\":4546:4552  _owner */\n      dup4\n        /* \"contracts/storage/LibSMEambStorage.sol\":4509:4553  _getStorage(SLOT)._packedAddressData[_owner] */\n      0xffffffffffffffffffffffffffffffffffffffff\n      and\n      0xffffffffffffffffffffffffffffffffffffffff\n      and\n      dup2\n      mstore\n      0x20\n      add\n      swap1\n      dup2\n      mstore\n      0x20\n      add\n      0x00\n      keccak256\n      sload\n        /* \"contracts/storage/LibSMEambStorage.sol\":4502:4553  return _getStorage(SLOT)._packedAddressData[_owner] */\n      swap1\n      pop\n        /* \"contracts/storage/LibSMEambStorage.sol\":4427:4555  function _packedAddressData(address _owner) external view returns(uint256){return _getStorage(SLOT)._packedAddressData[_owner];} */\n      swap2\n      swap1\n      pop\n      jump\t// out\n        /* \"contracts/storage/LibSMEambStorage.sol\":8040:8142  function epiclistRoot(bytes32 _epiclistRoot) external{_getStorage(SLOT).epiclistRoot = _epiclistRoot;} */\n    tag_84:\n        /* \"contracts/storage/LibSMEambStorage.sol\":8127:8140  _epiclistRoot */\n      dup1\n        /* \"contracts/storage/LibSMEambStorage.sol\":8094:8111  _getStorage(SLOT) */\n      tag_272\n        /* \"contracts/storage/LibSMEambStorage.sol\":385:400  bytes('SMEamb') */\n      mload(0x40)\n      dup1\n      0x40\n      add\n      0x40\n      mstore\n      dup1\n      0x06\n      dup2\n      mstore\n      0x20\n      add\n      0x534d45616d620000000000000000000000000000000000000000000000000000\n      dup2\n      mstore\n      pop\n        /* \"contracts/storage/LibSMEambStorage.sol\":375:401  keccak256(bytes('SMEamb')) */\n      dup1\n      mload\n      swap1\n      0x20\n      add\n      keccak256\n        /* \"contracts/storage/LibSMEambStorage.sol\":8094:8105  _getStorage */\n      tag_250\n        /* \"contracts/storage/LibSMEambStorage.sol\":8094:8111  _getStorage(SLOT) */\n      jump\t// in\n    tag_272:\n        /* \"contracts/storage/LibSMEambStorage.sol\":8094:8124  _getStorage(SLOT).epiclistRoot */\n      0x09\n      add\n        /* \"contracts/storage/LibSMEambStorage.sol\":8094:8140  _getStorage(SLOT).epiclistRoot = _epiclistRoot */\n      dup2\n      swap1\n      sstore\n      pop\n        /* \"contracts/storage/LibSMEambStorage.sol\":8040:8142  function epiclistRoot(bytes32 _epiclistRoot) external{_getStorage(SLOT).epiclistRoot = _epiclistRoot;} */\n      pop\n      jump\t// out\n        /* \"contracts/storage/LibSMEambStorage.sol\":4853:5005  function _packedAddressDataDecr(address _owner) external{_getStorage(SLOT)._packedAddressData[_owner] = _getStorage(SLOT)._packedAddressData[_owner]-1;} */\n    tag_88:\n        /* \"contracts/storage/LibSMEambStorage.sol\":5002:5003  1 */\n      0x01\n        /* \"contracts/storage/LibSMEambStorage.sol\":4957:4974  _getStorage(SLOT) */\n      tag_274\n        /* \"contracts/storage/LibSMEambStorage.sol\":385:400  bytes('SMEamb') */\n      mload(0x40)\n      dup1\n      0x40\n      add\n      0x40\n      mstore\n      dup1\n      0x06\n      dup2\n      mstore\n      0x20\n      add\n      0x534d45616d620000000000000000000000000000000000000000000000000000\n      dup2\n      mstore\n      pop\n        /* \"contracts/storage/LibSMEambStorage.sol\":375:401  keccak256(bytes('SMEamb')) */\n      dup1\n      mload\n      swap1\n      0x20\n      add\n      keccak256\n        /* \"contracts/storage/LibSMEambStorage.sol\":4957:4968  _getStorage */\n      tag_250\n        /* \"contracts/storage/LibSMEambStorage.sol\":4957:4974  _getStorage(SLOT) */\n      jump\t// in\n    tag_274:\n        /* \"contracts/storage/LibSMEambStorage.sol\":4957:4993  _getStorage(SLOT)._packedAddressData */\n      0x11\n      add\n        /* \"contracts/storage/LibSMEambStorage.sol\":4957:5001  _getStorage(SLOT)._packedAddressData[_owner] */\n      0x00\n        /* \"contracts/storage/LibSMEambStorage.sol\":4994:5000  _owner */\n      dup4\n        /* \"contracts/storage/LibSMEambStorage.sol\":4957:5001  _getStorage(SLOT)._packedAddressData[_owner] */\n      0xffffffffffffffffffffffffffffffffffffffff\n      and\n      0xffffffffffffffffffffffffffffffffffffffff\n      and\n      dup2\n      mstore\n      0x20\n      add\n      swap1\n      dup2\n      mstore\n      0x20\n      add\n      0x00\n      keccak256\n      sload\n        /* \"contracts/storage/LibSMEambStorage.sol\":4957:5003  _getStorage(SLOT)._packedAddressData[_owner]-1 */\n      tag_275\n      swap2\n      swap1\n      tag_276\n      jump\t// in\n    tag_275:\n        /* \"contracts/storage/LibSMEambStorage.sol\":4910:4927  _getStorage(SLOT) */\n      tag_277\n        /* \"contracts/storage/LibSMEambStorage.sol\":385:400  bytes('SMEamb') */\n      mload(0x40)\n      dup1\n      0x40\n      add\n      0x40\n      mstore\n      dup1\n      0x06\n      dup2\n      mstore\n      0x20\n      add\n      0x534d45616d620000000000000000000000000000000000000000000000000000\n      dup2\n      mstore\n      pop\n        /* \"contracts/storage/LibSMEambStorage.sol\":375:401  keccak256(bytes('SMEamb')) */\n      dup1\n      mload\n      swap1\n      0x20\n      add\n      keccak256\n        /* \"contracts/storage/LibSMEambStorage.sol\":4910:4921  _getStorage */\n      tag_250\n        /* \"contracts/storage/LibSMEambStorage.sol\":4910:4927  _getStorage(SLOT) */\n      jump\t// in\n    tag_277:\n        /* \"contracts/storage/LibSMEambStorage.sol\":4910:4946  _getStorage(SLOT)._packedAddressData */\n      0x11\n      add\n        /* \"contracts/storage/LibSMEambStorage.sol\":4910:4954  _getStorage(SLOT)._packedAddressData[_owner] */\n      0x00\n        /* \"contracts/storage/LibSMEambStorage.sol\":4947:4953  _owner */\n      dup4\n        /* \"contracts/storage/LibSMEambStorage.sol\":4910:4954  _getStorage(SLOT)._packedAddressData[_owner] */\n      0xffffffffffffffffffffffffffffffffffffffff\n      and\n      0xffffffffffffffffffffffffffffffffffffffff\n      and\n      dup2\n      mstore\n      0x20\n      add\n      swap1\n      dup2\n      mstore\n      0x20\n      add\n      0x00\n      keccak256\n        /* \"contracts/storage/LibSMEambStorage.sol\":4910:5003  _getStorage(SLOT)._packedAddressData[_owner] = _getStorage(SLOT)._packedAddressData[_owner]-1 */\n      dup2\n      swap1\n      sstore\n      pop\n        /* \"contracts/storage/LibSMEambStorage.sol\":4853:5005  function _packedAddressDataDecr(address _owner) external{_getStorage(SLOT)._packedAddressData[_owner] = _getStorage(SLOT)._packedAddressData[_owner]-1;} */\n      pop\n      jump\t// out\n        /* \"contracts/storage/LibSMEambStorage.sol\":3879:3964  function _startTokenId(uint256 _id) external {_getStorage(SLOT)._startTokenId = _id;} */\n    tag_93:\n        /* \"contracts/storage/LibSMEambStorage.sol\":3959:3962  _id */\n      dup1\n        /* \"contracts/storage/LibSMEambStorage.sol\":3925:3942  _getStorage(SLOT) */\n      tag_279\n        /* \"contracts/storage/LibSMEambStorage.sol\":385:400  bytes('SMEamb') */\n      mload(0x40)\n      dup1\n      0x40\n      add\n      0x40\n      mstore\n      dup1\n      0x06\n      dup2\n      mstore\n      0x20\n      add\n      0x534d45616d620000000000000000000000000000000000000000000000000000\n      dup2\n      mstore\n      pop\n        /* \"contracts/storage/LibSMEambStorage.sol\":375:401  keccak256(bytes('SMEamb')) */\n      dup1\n      mload\n      swap1\n      0x20\n      add\n      keccak256\n        /* \"contracts/storage/LibSMEambStorage.sol\":3925:3936  _getStorage */\n      tag_250\n        /* \"contracts/storage/LibSMEambStorage.sol\":3925:3942  _getStorage(SLOT) */\n      jump\t// in\n    tag_279:\n        /* \"contracts/storage/LibSMEambStorage.sol\":3925:3956  _getStorage(SLOT)._startTokenId */\n      0x15\n      add\n        /* \"contracts/storage/LibSMEambStorage.sol\":3925:3962  _getStorage(SLOT)._startTokenId = _id */\n      dup2\n      swap1\n      sstore\n      pop\n        /* \"contracts/storage/LibSMEambStorage.sol\":3879:3964  function _startTokenId(uint256 _id) external {_getStorage(SLOT)._startTokenId = _id;} */\n      pop\n      jump\t// out\n        /* \"contracts/storage/LibSMEambStorage.sol\":6814:6908  function epiclistRoot() external view returns(bytes32){return _getStorage(SLOT).epiclistRoot;} */\n    tag_95:\n        /* \"contracts/storage/LibSMEambStorage.sol\":6860:6867  bytes32 */\n      0x00\n        /* \"contracts/storage/LibSMEambStorage.sol\":6876:6893  _getStorage(SLOT) */\n      tag_281\n        /* \"contracts/storage/LibSMEambStorage.sol\":385:400  bytes('SMEamb') */\n      mload(0x40)\n      dup1\n      0x40\n      add\n      0x40\n      mstore\n      dup1\n      0x06\n      dup2\n      mstore\n      0x20\n      add\n      0x534d45616d620000000000000000000000000000000000000000000000000000\n      dup2\n      mstore\n      pop\n        /* \"contracts/storage/LibSMEambStorage.sol\":375:401  keccak256(bytes('SMEamb')) */\n      dup1\n      mload\n      swap1\n      0x20\n      add\n      keccak256\n        /* \"contracts/storage/LibSMEambStorage.sol\":6876:6887  _getStorage */\n      tag_250\n        /* \"contracts/storage/LibSMEambStorage.sol\":6876:6893  _getStorage(SLOT) */\n      jump\t// in\n    tag_281:\n        /* \"contracts/storage/LibSMEambStorage.sol\":6876:6906  _getStorage(SLOT).epiclistRoot */\n      0x09\n      add\n      sload\n        /* \"contracts/storage/LibSMEambStorage.sol\":6869:6906  return _getStorage(SLOT).epiclistRoot */\n      swap1\n      pop\n        /* \"contracts/storage/LibSMEambStorage.sol\":6814:6908  function epiclistRoot() external view returns(bytes32){return _getStorage(SLOT).epiclistRoot;} */\n      swap1\n      jump\t// out\n        /* \"contracts/storage/LibSMEambStorage.sol\":3680:3771  function _currentIndex(uint256 _index) external {_getStorage(SLOT)._currentIndex = _index;} */\n    tag_100:\n        /* \"contracts/storage/LibSMEambStorage.sol\":3763:3769  _index */\n      dup1\n        /* \"contracts/storage/LibSMEambStorage.sol\":3729:3746  _getStorage(SLOT) */\n      tag_283\n        /* \"contracts/storage/LibSMEambStorage.sol\":385:400  bytes('SMEamb') */\n      mload(0x40)\n      dup1\n      0x40\n      add\n      0x40\n      mstore\n      dup1\n      0x06\n      dup2\n      mstore\n      0x20\n      add\n      0x534d45616d620000000000000000000000000000000000000000000000000000\n      dup2\n      mstore\n      pop\n        /* \"contracts/storage/LibSMEambStorage.sol\":375:401  keccak256(bytes('SMEamb')) */\n      dup1\n      mload\n      swap1\n      0x20\n      add\n      keccak256\n        /* \"contracts/storage/LibSMEambStorage.sol\":3729:3740  _getStorage */\n      tag_250\n        /* \"contracts/storage/LibSMEambStorage.sol\":3729:3746  _getStorage(SLOT) */\n      jump\t// in\n    tag_283:\n        /* \"contracts/storage/LibSMEambStorage.sol\":3729:3760  _getStorage(SLOT)._currentIndex */\n      0x0c\n      add\n        /* \"contracts/storage/LibSMEambStorage.sol\":3729:3769  _getStorage(SLOT)._currentIndex = _index */\n      dup2\n      swap1\n      sstore\n      pop\n        /* \"contracts/storage/LibSMEambStorage.sol\":3680:3771  function _currentIndex(uint256 _index) external {_getStorage(SLOT)._currentIndex = _index;} */\n      pop\n      jump\t// out\n        /* \"contracts/storage/LibSMEambStorage.sol\":7804:7918  function genesislistRoot(bytes32 _genesislistRoot) external{_getStorage(SLOT).genesislistRoot = _genesislistRoot;} */\n    tag_104:\n        /* \"contracts/storage/LibSMEambStorage.sol\":7900:7916  _genesislistRoot */\n      dup1\n        /* \"contracts/storage/LibSMEambStorage.sol\":7864:7881  _getStorage(SLOT) */\n      tag_285\n        /* \"contracts/storage/LibSMEambStorage.sol\":385:400  bytes('SMEamb') */\n      mload(0x40)\n      dup1\n      0x40\n      add\n      0x40\n      mstore\n      dup1\n      0x06\n      dup2\n      mstore\n      0x20\n      add\n      0x534d45616d620000000000000000000000000000000000000000000000000000\n      dup2\n      mstore\n      pop\n        /* \"contracts/storage/LibSMEambStorage.sol\":375:401  keccak256(bytes('SMEamb')) */\n      dup1\n      mload\n      swap1\n      0x20\n      add\n      keccak256\n        /* \"contracts/storage/LibSMEambStorage.sol\":7864:7875  _getStorage */\n      tag_250\n        /* \"contracts/storage/LibSMEambStorage.sol\":7864:7881  _getStorage(SLOT) */\n      jump\t// in\n    tag_285:\n        /* \"contracts/storage/LibSMEambStorage.sol\":7864:7897  _getStorage(SLOT).genesislistRoot */\n      0x07\n      add\n        /* \"contracts/storage/LibSMEambStorage.sol\":7864:7916  _getStorage(SLOT).genesislistRoot = _genesislistRoot */\n      dup2\n      swap1\n      sstore\n      pop\n        /* \"contracts/storage/LibSMEambStorage.sol\":7804:7918  function genesislistRoot(bytes32 _genesislistRoot) external{_getStorage(SLOT).genesislistRoot = _genesislistRoot;} */\n      pop\n      jump\t// out\n        /* \"contracts/storage/LibSMEambStorage.sol\":8148:8214  function fee(uint256 _fee) external{_getStorage(SLOT).fee = _fee;} */\n    tag_108:\n        /* \"contracts/storage/LibSMEambStorage.sol\":8208:8212  _fee */\n      dup1\n        /* \"contracts/storage/LibSMEambStorage.sol\":8184:8201  _getStorage(SLOT) */\n      tag_287\n        /* \"contracts/storage/LibSMEambStorage.sol\":385:400  bytes('SMEamb') */\n      mload(0x40)\n      dup1\n      0x40\n      add\n      0x40\n      mstore\n      dup1\n      0x06\n      dup2\n      mstore\n      0x20\n      add\n      0x534d45616d620000000000000000000000000000000000000000000000000000\n      dup2\n      mstore\n      pop\n        /* \"contracts/storage/LibSMEambStorage.sol\":375:401  keccak256(bytes('SMEamb')) */\n      dup1\n      mload\n      swap1\n      0x20\n      add\n      keccak256\n        /* \"contracts/storage/LibSMEambStorage.sol\":8184:8195  _getStorage */\n      tag_250\n        /* \"contracts/storage/LibSMEambStorage.sol\":8184:8201  _getStorage(SLOT) */\n      jump\t// in\n    tag_287:\n        /* \"contracts/storage/LibSMEambStorage.sol\":8184:8205  _getStorage(SLOT).fee */\n      0x0a\n      add\n        /* \"contracts/storage/LibSMEambStorage.sol\":8184:8212  _getStorage(SLOT).fee = _fee */\n      dup2\n      swap1\n      sstore\n      pop\n        /* \"contracts/storage/LibSMEambStorage.sol\":8148:8214  function fee(uint256 _fee) external{_getStorage(SLOT).fee = _fee;} */\n      pop\n      jump\t// out\n        /* \"contracts/storage/LibSMEambStorage.sol\":8636:9838  function removeTokenFromAllTokensEnumeration(uint256 tokenId) external {... */\n    tag_112:\n        /* \"contracts/storage/LibSMEambStorage.sol\":8893:8915  uint256 lastTokenIndex */\n      0x00\n        /* \"contracts/storage/LibSMEambStorage.sol\":8955:8956  1 */\n      0x01\n        /* \"contracts/storage/LibSMEambStorage.sol\":8918:8935  _getStorage(SLOT) */\n      tag_289\n        /* \"contracts/storage/LibSMEambStorage.sol\":385:400  bytes('SMEamb') */\n      mload(0x40)\n      dup1\n      0x40\n      add\n      0x40\n      mstore\n      dup1\n      0x06\n      dup2\n      mstore\n      0x20\n      add\n      0x534d45616d620000000000000000000000000000000000000000000000000000\n      dup2\n      mstore\n      pop\n        /* \"contracts/storage/LibSMEambStorage.sol\":375:401  keccak256(bytes('SMEamb')) */\n      dup1\n      mload\n      swap1\n      0x20\n      add\n      keccak256\n        /* \"contracts/storage/LibSMEambStorage.sol\":8918:8929  _getStorage */\n      tag_250\n        /* \"contracts/storage/LibSMEambStorage.sol\":8918:8935  _getStorage(SLOT) */\n      jump\t// in\n    tag_289:\n        /* \"contracts/storage/LibSMEambStorage.sol\":8918:8945  _getStorage(SLOT).allTokens */\n      0x05\n      add\n        /* \"contracts/storage/LibSMEambStorage.sol\":8918:8952  _getStorage(SLOT).allTokens.length */\n      dup1\n      sload\n      swap1\n      pop\n        /* \"contracts/storage/LibSMEambStorage.sol\":8918:8956  _getStorage(SLOT).allTokens.length - 1 */\n      tag_290\n      swap2\n      swap1\n      tag_276\n      jump\t// in\n    tag_290:\n        /* \"contracts/storage/LibSMEambStorage.sol\":8893:8956  uint256 lastTokenIndex = _getStorage(SLOT).allTokens.length - 1 */\n      swap1\n      pop\n        /* \"contracts/storage/LibSMEambStorage.sol\":8967:8985  uint256 tokenIndex */\n      0x00\n        /* \"contracts/storage/LibSMEambStorage.sol\":8988:9005  _getStorage(SLOT) */\n      tag_291\n        /* \"contracts/storage/LibSMEambStorage.sol\":385:400  bytes('SMEamb') */\n      mload(0x40)\n      dup1\n      0x40\n      add\n      0x40\n      mstore\n      dup1\n      0x06\n      dup2\n      mstore\n      0x20\n      add\n      0x534d45616d620000000000000000000000000000000000000000000000000000\n      dup2\n      mstore\n      pop\n        /* \"contracts/storage/LibSMEambStorage.sol\":375:401  keccak256(bytes('SMEamb')) */\n      dup1\n      mload\n      swap1\n      0x20\n      add\n      keccak256\n        /* \"contracts/storage/LibSMEambStorage.sol\":8988:8999  _getStorage */\n      tag_250\n        /* \"contracts/storage/LibSMEambStorage.sol\":8988:9005  _getStorage(SLOT) */\n      jump\t// in\n    tag_291:\n        /* \"contracts/storage/LibSMEambStorage.sol\":8988:9020  _getStorage(SLOT).allTokensIndex */\n      0x06\n      add\n        /* \"contracts/storage/LibSMEambStorage.sol\":8988:9029  _getStorage(SLOT).allTokensIndex[tokenId] */\n      0x00\n        /* \"contracts/storage/LibSMEambStorage.sol\":9021:9028  tokenId */\n      dup5\n        /* \"contracts/storage/LibSMEambStorage.sol\":8988:9029  _getStorage(SLOT).allTokensIndex[tokenId] */\n      dup2\n      mstore\n      0x20\n      add\n      swap1\n      dup2\n      mstore\n      0x20\n      add\n      0x00\n      keccak256\n      sload\n        /* \"contracts/storage/LibSMEambStorage.sol\":8967:9029  uint256 tokenIndex = _getStorage(SLOT).allTokensIndex[tokenId] */\n      swap1\n      pop\n        /* \"contracts/storage/LibSMEambStorage.sol\":9356:9375  uint256 lastTokenId */\n      0x00\n        /* \"contracts/storage/LibSMEambStorage.sol\":9378:9395  _getStorage(SLOT) */\n      tag_292\n        /* \"contracts/storage/LibSMEambStorage.sol\":385:400  bytes('SMEamb') */\n      mload(0x40)\n      dup1\n      0x40\n      add\n      0x40\n      mstore\n      dup1\n      0x06\n      dup2\n      mstore\n      0x20\n      add\n      0x534d45616d620000000000000000000000000000000000000000000000000000\n      dup2\n      mstore\n      pop\n        /* \"contracts/storage/LibSMEambStorage.sol\":375:401  keccak256(bytes('SMEamb')) */\n      dup1\n      mload\n      swap1\n      0x20\n      add\n      keccak256\n        /* \"contracts/storage/LibSMEambStorage.sol\":9378:9389  _getStorage */\n      tag_250\n        /* \"contracts/storage/LibSMEambStorage.sol\":9378:9395  _getStorage(SLOT) */\n      jump\t// in\n    tag_292:\n        /* \"contracts/storage/LibSMEambStorage.sol\":9378:9405  _getStorage(SLOT).allTokens */\n      0x05\n      add\n        /* \"contracts/storage/LibSMEambStorage.sol\":9406:9420  lastTokenIndex */\n      dup4\n        /* \"contracts/storage/LibSMEambStorage.sol\":9378:9421  _getStorage(SLOT).allTokens[lastTokenIndex] */\n      dup2\n      sload\n      dup2\n      lt\n      tag_293\n      jumpi\n      tag_294\n      tag_295\n      jump\t// in\n    tag_294:\n    tag_293:\n      swap1\n      0x00\n      mstore\n      keccak256(0x00, 0x20)\n      add\n      sload\n        /* \"contracts/storage/LibSMEambStorage.sol\":9356:9421  uint256 lastTokenId = _getStorage(SLOT).allTokens[lastTokenIndex] */\n      swap1\n      pop\n        /* \"contracts/storage/LibSMEambStorage.sol\":9476:9487  lastTokenId */\n      dup1\n        /* \"contracts/storage/LibSMEambStorage.sol\":9434:9451  _getStorage(SLOT) */\n      tag_297\n        /* \"contracts/storage/LibSMEambStorage.sol\":385:400  bytes('SMEamb') */\n      mload(0x40)\n      dup1\n      0x40\n      add\n      0x40\n      mstore\n      dup1\n      0x06\n      dup2\n      mstore\n      0x20\n      add\n      0x534d45616d620000000000000000000000000000000000000000000000000000\n      dup2\n      mstore\n      pop\n        /* \"contracts/storage/LibSMEambStorage.sol\":375:401  keccak256(bytes('SMEamb')) */\n      dup1\n      mload\n      swap1\n      0x20\n      add\n      keccak256\n        /* \"contracts/storage/LibSMEambStorage.sol\":9434:9445  _getStorage */\n      tag_250\n        /* \"contracts/storage/LibSMEambStorage.sol\":9434:9451  _getStorage(SLOT) */\n      jump\t// in\n    tag_297:\n        /* \"contracts/storage/LibSMEambStorage.sol\":9434:9461  _getStorage(SLOT).allTokens */\n      0x05\n      add\n        /* \"contracts/storage/LibSMEambStorage.sol\":9462:9472  tokenIndex */\n      dup4\n        /* \"contracts/storage/LibSMEambStorage.sol\":9434:9473  _getStorage(SLOT).allTokens[tokenIndex] */\n      dup2\n      sload\n      dup2\n      lt\n      tag_298\n      jumpi\n      tag_299\n      tag_295\n      jump\t// in\n    tag_299:\n    tag_298:\n      swap1\n      0x00\n      mstore\n      keccak256(0x00, 0x20)\n      add\n        /* \"contracts/storage/LibSMEambStorage.sol\":9434:9487  _getStorage(SLOT).allTokens[tokenIndex] = lastTokenId */\n      dup2\n      swap1\n      sstore\n      pop\n        /* \"contracts/storage/LibSMEambStorage.sol\":9604:9614  tokenIndex */\n      dup2\n        /* \"contracts/storage/LibSMEambStorage.sol\":9556:9573  _getStorage(SLOT) */\n      tag_301\n        /* \"contracts/storage/LibSMEambStorage.sol\":385:400  bytes('SMEamb') */\n      mload(0x40)\n      dup1\n      0x40\n      add\n      0x40\n      mstore\n      dup1\n      0x06\n      dup2\n      mstore\n      0x20\n      add\n      0x534d45616d620000000000000000000000000000000000000000000000000000\n      dup2\n      mstore\n      pop\n        /* \"contracts/storage/LibSMEambStorage.sol\":375:401  keccak256(bytes('SMEamb')) */\n      dup1\n      mload\n      swap1\n      0x20\n      add\n      keccak256\n        /* \"contracts/storage/LibSMEambStorage.sol\":9556:9567  _getStorage */\n      tag_250\n        /* \"contracts/storage/LibSMEambStorage.sol\":9556:9573  _getStorage(SLOT) */\n      jump\t// in\n    tag_301:\n        /* \"contracts/storage/LibSMEambStorage.sol\":9556:9588  _getStorage(SLOT).allTokensIndex */\n      0x06\n      add\n        /* \"contracts/storage/LibSMEambStorage.sol\":9556:9601  _getStorage(SLOT).allTokensIndex[lastTokenId] */\n      0x00\n        /* \"contracts/storage/LibSMEambStorage.sol\":9589:9600  lastTokenId */\n      dup4\n        /* \"contracts/storage/LibSMEambStorage.sol\":9556:9601  _getStorage(SLOT).allTokensIndex[lastTokenId] */\n      dup2\n      mstore\n      0x20\n      add\n      swap1\n      dup2\n      mstore\n      0x20\n      add\n      0x00\n      keccak256\n        /* \"contracts/storage/LibSMEambStorage.sol\":9556:9614  _getStorage(SLOT).allTokensIndex[lastTokenId] = tokenIndex */\n      dup2\n      swap1\n      sstore\n      pop\n        /* \"contracts/storage/LibSMEambStorage.sol\":9745:9762  _getStorage(SLOT) */\n      tag_302\n        /* \"contracts/storage/LibSMEambStorage.sol\":385:400  bytes('SMEamb') */\n      mload(0x40)\n      dup1\n      0x40\n      add\n      0x40\n      mstore\n      dup1\n      0x06\n      dup2\n      mstore\n      0x20\n      add\n      0x534d45616d620000000000000000000000000000000000000000000000000000\n      dup2\n      mstore\n      pop\n        /* \"contracts/storage/LibSMEambStorage.sol\":375:401  keccak256(bytes('SMEamb')) */\n      dup1\n      mload\n      swap1\n      0x20\n      add\n      keccak256\n        /* \"contracts/storage/LibSMEambStorage.sol\":9745:9756  _getStorage */\n      tag_250\n        /* \"contracts/storage/LibSMEambStorage.sol\":9745:9762  _getStorage(SLOT) */\n      jump\t// in\n    tag_302:\n        /* \"contracts/storage/LibSMEambStorage.sol\":9745:9777  _getStorage(SLOT).allTokensIndex */\n      0x06\n      add\n        /* \"contracts/storage/LibSMEambStorage.sol\":9745:9786  _getStorage(SLOT).allTokensIndex[tokenId] */\n      0x00\n        /* \"contracts/storage/LibSMEambStorage.sol\":9778:9785  tokenId */\n      dup6\n        /* \"contracts/storage/LibSMEambStorage.sol\":9745:9786  _getStorage(SLOT).allTokensIndex[tokenId] */\n      dup2\n      mstore\n      0x20\n      add\n      swap1\n      dup2\n      mstore\n      0x20\n      add\n      0x00\n      keccak256\n        /* \"contracts/storage/LibSMEambStorage.sol\":9738:9786  delete _getStorage(SLOT).allTokensIndex[tokenId] */\n      0x00\n      swap1\n      sstore\n        /* \"contracts/storage/LibSMEambStorage.sol\":9797:9814  _getStorage(SLOT) */\n      tag_303\n        /* \"contracts/storage/LibSMEambStorage.sol\":385:400  bytes('SMEamb') */\n      mload(0x40)\n      dup1\n      0x40\n      add\n      0x40\n      mstore\n      dup1\n      0x06\n      dup2\n      mstore\n      0x20\n      add\n      0x534d45616d620000000000000000000000000000000000000000000000000000\n      dup2\n      mstore\n      pop\n        /* \"contracts/storage/LibSMEambStorage.sol\":375:401  keccak256(bytes('SMEamb')) */\n      dup1\n      mload\n      swap1\n      0x20\n      add\n      keccak256\n        /* \"contracts/storage/LibSMEambStorage.sol\":9797:9808  _getStorage */\n      tag_250\n        /* \"contracts/storage/LibSMEambStorage.sol\":9797:9814  _getStorage(SLOT) */\n      jump\t// in\n    tag_303:\n        /* \"contracts/storage/LibSMEambStorage.sol\":9797:9824  _getStorage(SLOT).allTokens */\n      0x05\n      add\n        /* \"contracts/storage/LibSMEambStorage.sol\":9797:9830  _getStorage(SLOT).allTokens.pop() */\n      dup1\n      sload\n      dup1\n      tag_304\n      jumpi\n      tag_305\n      tag_306\n      jump\t// in\n    tag_305:\n    tag_304:\n      0x01\n      swap1\n      sub\n      dup2\n      dup2\n      swap1\n      0x00\n      mstore\n      keccak256(0x00, 0x20)\n      add\n      0x00\n      swap1\n      sstore\n      swap1\n      sstore\n        /* \"contracts/storage/LibSMEambStorage.sol\":8707:9838  {... */\n      pop\n      pop\n      pop\n        /* \"contracts/storage/LibSMEambStorage.sol\":8636:9838  function removeTokenFromAllTokensEnumeration(uint256 tokenId) external {... */\n      pop\n      jump\t// out\n        /* \"contracts/storage/LibSMEambStorage.sol\":3486:3572  function symbol(string memory _symbol) external {_getStorage(SLOT)._symbol = _symbol;} */\n    tag_117:\n        /* \"contracts/storage/LibSMEambStorage.sol\":3563:3570  _symbol */\n      dup1\n        /* \"contracts/storage/LibSMEambStorage.sol\":3535:3552  _getStorage(SLOT) */\n      tag_309\n        /* \"contracts/storage/LibSMEambStorage.sol\":385:400  bytes('SMEamb') */\n      mload(0x40)\n      dup1\n      0x40\n      add\n      0x40\n      mstore\n      dup1\n      0x06\n      dup2\n      mstore\n      0x20\n      add\n      0x534d45616d620000000000000000000000000000000000000000000000000000\n      dup2\n      mstore\n      pop\n        /* \"contracts/storage/LibSMEambStorage.sol\":375:401  keccak256(bytes('SMEamb')) */\n      dup1\n      mload\n      swap1\n      0x20\n      add\n      keccak256\n        /* \"contracts/storage/LibSMEambStorage.sol\":3535:3546  _getStorage */\n      tag_250\n        /* \"contracts/storage/LibSMEambStorage.sol\":3535:3552  _getStorage(SLOT) */\n      jump\t// in\n    tag_309:\n        /* \"contracts/storage/LibSMEambStorage.sol\":3535:3560  _getStorage(SLOT)._symbol */\n      0x0f\n      add\n        /* \"contracts/storage/LibSMEambStorage.sol\":3535:3570  _getStorage(SLOT)._symbol = _symbol */\n      swap1\n      dup2\n      tag_310\n      swap2\n      swap1\n      tag_311\n      jump\t// in\n    tag_310:\n      pop\n        /* \"contracts/storage/LibSMEambStorage.sol\":3486:3572  function symbol(string memory _symbol) external {_getStorage(SLOT)._symbol = _symbol;} */\n      pop\n      jump\t// out\n        /* \"contracts/storage/LibSMEambStorage.sol\":3970:4064  function _burnCounter() external view returns(uint256){return _getStorage(SLOT)._burnCounter;} */\n    tag_119:\n        /* \"contracts/storage/LibSMEambStorage.sol\":4016:4023  uint256 */\n      0x00\n        /* \"contracts/storage/LibSMEambStorage.sol\":4032:4049  _getStorage(SLOT) */\n      tag_313\n        /* \"contracts/storage/LibSMEambStorage.sol\":385:400  bytes('SMEamb') */\n      mload(0x40)\n      dup1\n      0x40\n      add\n      0x40\n      mstore\n      dup1\n      0x06\n      dup2\n      mstore\n      0x20\n      add\n      0x534d45616d620000000000000000000000000000000000000000000000000000\n      dup2\n      mstore\n      pop\n        /* \"contracts/storage/LibSMEambStorage.sol\":375:401  keccak256(bytes('SMEamb')) */\n      dup1\n      mload\n      swap1\n      0x20\n      add\n      keccak256\n        /* \"contracts/storage/LibSMEambStorage.sol\":4032:4043  _getStorage */\n      tag_250\n        /* \"contracts/storage/LibSMEambStorage.sol\":4032:4049  _getStorage(SLOT) */\n      jump\t// in\n    tag_313:\n        /* \"contracts/storage/LibSMEambStorage.sol\":4032:4062  _getStorage(SLOT)._burnCounter */\n      0x0d\n      add\n      sload\n        /* \"contracts/storage/LibSMEambStorage.sol\":4025:4062  return _getStorage(SLOT)._burnCounter */\n      swap1\n      pop\n        /* \"contracts/storage/LibSMEambStorage.sol\":3970:4064  function _burnCounter() external view returns(uint256){return _getStorage(SLOT)._burnCounter;} */\n      swap1\n      jump\t// out\n        /* \"contracts/storage/LibSMEambStorage.sol\":4159:4289  function _packedOwnerships(uint256 _tokenId) external view returns(uint256){return _getStorage(SLOT)._packedOwnerships[_tokenId];} */\n    tag_123:\n        /* \"contracts/storage/LibSMEambStorage.sol\":4226:4233  uint256 */\n      0x00\n        /* \"contracts/storage/LibSMEambStorage.sol\":4242:4259  _getStorage(SLOT) */\n      tag_315\n        /* \"contracts/storage/LibSMEambStorage.sol\":385:400  bytes('SMEamb') */\n      mload(0x40)\n      dup1\n      0x40\n      add\n      0x40\n      mstore\n      dup1\n      0x06\n      dup2\n      mstore\n      0x20\n      add\n      0x534d45616d620000000000000000000000000000000000000000000000000000\n      dup2\n      mstore\n      pop\n        /* \"contracts/storage/LibSMEambStorage.sol\":375:401  keccak256(bytes('SMEamb')) */\n      dup1\n      mload\n      swap1\n      0x20\n      add\n      keccak256\n        /* \"contracts/storage/LibSMEambStorage.sol\":4242:4253  _getStorage */\n      tag_250\n        /* \"contracts/storage/LibSMEambStorage.sol\":4242:4259  _getStorage(SLOT) */\n      jump\t// in\n    tag_315:\n        /* \"contracts/storage/LibSMEambStorage.sol\":4242:4277  _getStorage(SLOT)._packedOwnerships */\n      0x10\n      add\n        /* \"contracts/storage/LibSMEambStorage.sol\":4242:4287  _getStorage(SLOT)._packedOwnerships[_tokenId] */\n      0x00\n        /* \"contracts/storage/LibSMEambStorage.sol\":4278:4286  _tokenId */\n      dup4\n        /* \"contracts/storage/LibSMEambStorage.sol\":4242:4287  _getStorage(SLOT)._packedOwnerships[_tokenId] */\n      dup2\n      mstore\n      0x20\n      add\n      swap1\n      dup2\n      mstore\n      0x20\n      add\n      0x00\n      keccak256\n      sload\n        /* \"contracts/storage/LibSMEambStorage.sol\":4235:4287  return _getStorage(SLOT)._packedOwnerships[_tokenId] */\n      swap1\n      pop\n        /* \"contracts/storage/LibSMEambStorage.sol\":4159:4289  function _packedOwnerships(uint256 _tokenId) external view returns(uint256){return _getStorage(SLOT)._packedOwnerships[_tokenId];} */\n      swap2\n      swap1\n      pop\n      jump\t// out\n        /* \"contracts/storage/LibSMEambStorage.sol\":7530:7668  function ownedTokens(address _owner, uint256 _index, uint256 _tokenId) external{_getStorage(SLOT).ownedTokens[_owner][_index] = _tokenId;} */\n    tag_128:\n        /* \"contracts/storage/LibSMEambStorage.sol\":7658:7666  _tokenId */\n      dup1\n        /* \"contracts/storage/LibSMEambStorage.sol\":7610:7627  _getStorage(SLOT) */\n      tag_317\n        /* \"contracts/storage/LibSMEambStorage.sol\":385:400  bytes('SMEamb') */\n      mload(0x40)\n      dup1\n      0x40\n      add\n      0x40\n      mstore\n      dup1\n      0x06\n      dup2\n      mstore\n      0x20\n      add\n      0x534d45616d620000000000000000000000000000000000000000000000000000\n      dup2\n      mstore\n      pop\n        /* \"contracts/storage/LibSMEambStorage.sol\":375:401  keccak256(bytes('SMEamb')) */\n      dup1\n      mload\n      swap1\n      0x20\n      add\n      keccak256\n        /* \"contracts/storage/LibSMEambStorage.sol\":7610:7621  _getStorage */\n      tag_250\n        /* \"contracts/storage/LibSMEambStorage.sol\":7610:7627  _getStorage(SLOT) */\n      jump\t// in\n    tag_317:\n        /* \"contracts/storage/LibSMEambStorage.sol\":7610:7639  _getStorage(SLOT).ownedTokens */\n      0x03\n      add\n        /* \"contracts/storage/LibSMEambStorage.sol\":7610:7647  _getStorage(SLOT).ownedTokens[_owner] */\n      0x00\n        /* \"contracts/storage/LibSMEambStorage.sol\":7640:7646  _owner */\n      dup6\n        /* \"contracts/storage/LibSMEambStorage.sol\":7610:7647  _getStorage(SLOT).ownedTokens[_owner] */\n      0xffffffffffffffffffffffffffffffffffffffff\n      and\n      0xffffffffffffffffffffffffffffffffffffffff\n      and\n      dup2\n      mstore\n      0x20\n      add\n      swap1\n      dup2\n      mstore\n      0x20\n      add\n      0x00\n      keccak256\n        /* \"contracts/storage/LibSMEambStorage.sol\":7610:7655  _getStorage(SLOT).ownedTokens[_owner][_index] */\n      0x00\n        /* \"contracts/storage/LibSMEambStorage.sol\":7648:7654  _index */\n      dup5\n        /* \"contracts/storage/LibSMEambStorage.sol\":7610:7655  _getStorage(SLOT).ownedTokens[_owner][_index] */\n      dup2\n      mstore\n      0x20\n      add\n      swap1\n      dup2\n      mstore\n      0x20\n      add\n      0x00\n      keccak256\n        /* \"contracts/storage/LibSMEambStorage.sol\":7610:7666  _getStorage(SLOT).ownedTokens[_owner][_index] = _tokenId */\n      dup2\n      swap1\n      sstore\n      pop\n        /* \"contracts/storage/LibSMEambStorage.sol\":7530:7668  function ownedTokens(address _owner, uint256 _index, uint256 _tokenId) external{_getStorage(SLOT).ownedTokens[_owner][_index] = _tokenId;} */\n      pop\n      pop\n      pop\n      jump\t// out\n        /* \"contracts/storage/LibSMEambStorage.sol\":12235:12458  function addTokenToOwnerEnumeration(address to, uint256 tokenId, uint256 length) external {... */\n    tag_132:\n        /* \"contracts/storage/LibSMEambStorage.sol\":12380:12387  tokenId */\n      dup2\n        /* \"contracts/storage/LibSMEambStorage.sol\":12336:12353  _getStorage(SLOT) */\n      tag_319\n        /* \"contracts/storage/LibSMEambStorage.sol\":385:400  bytes('SMEamb') */\n      mload(0x40)\n      dup1\n      0x40\n      add\n      0x40\n      mstore\n      dup1\n      0x06\n      dup2\n      mstore\n      0x20\n      add\n      0x534d45616d620000000000000000000000000000000000000000000000000000\n      dup2\n      mstore\n      pop\n        /* \"contracts/storage/LibSMEambStorage.sol\":375:401  keccak256(bytes('SMEamb')) */\n      dup1\n      mload\n      swap1\n      0x20\n      add\n      keccak256\n        /* \"contracts/storage/LibSMEambStorage.sol\":12336:12347  _getStorage */\n      tag_250\n        /* \"contracts/storage/LibSMEambStorage.sol\":12336:12353  _getStorage(SLOT) */\n      jump\t// in\n    tag_319:\n        /* \"contracts/storage/LibSMEambStorage.sol\":12336:12365  _getStorage(SLOT).ownedTokens */\n      0x03\n      add\n        /* \"contracts/storage/LibSMEambStorage.sol\":12336:12369  _getStorage(SLOT).ownedTokens[to] */\n      0x00\n        /* \"contracts/storage/LibSMEambStorage.sol\":12366:12368  to */\n      dup6\n        /* \"contracts/storage/LibSMEambStorage.sol\":12336:12369  _getStorage(SLOT).ownedTokens[to] */\n      0xffffffffffffffffffffffffffffffffffffffff\n      and\n      0xffffffffffffffffffffffffffffffffffffffff\n      and\n      dup2\n      mstore\n      0x20\n      add\n      swap1\n      dup2\n      mstore\n      0x20\n      add\n      0x00\n      keccak256\n        /* \"contracts/storage/LibSMEambStorage.sol\":12336:12377  _getStorage(SLOT).ownedTokens[to][length] */\n      0x00\n        /* \"contracts/storage/LibSMEambStorage.sol\":12370:12376  length */\n      dup4\n        /* \"contracts/storage/LibSMEambStorage.sol\":12336:12377  _getStorage(SLOT).ownedTokens[to][length] */\n      dup2\n      mstore\n      0x20\n      add\n      swap1\n      dup2\n      mstore\n      0x20\n      add\n      0x00\n      keccak256\n        /* \"contracts/storage/LibSMEambStorage.sol\":12336:12387  _getStorage(SLOT).ownedTokens[to][length] = tokenId */\n      dup2\n      swap1\n      sstore\n      pop\n        /* \"contracts/storage/LibSMEambStorage.sol\":12444:12450  length */\n      dup1\n        /* \"contracts/storage/LibSMEambStorage.sol\":12398:12415  _getStorage(SLOT) */\n      tag_320\n        /* \"contracts/storage/LibSMEambStorage.sol\":385:400  bytes('SMEamb') */\n      mload(0x40)\n      dup1\n      0x40\n      add\n      0x40\n      mstore\n      dup1\n      0x06\n      dup2\n      mstore\n      0x20\n      add\n      0x534d45616d620000000000000000000000000000000000000000000000000000\n      dup2\n      mstore\n      pop\n        /* \"contracts/storage/LibSMEambStorage.sol\":375:401  keccak256(bytes('SMEamb')) */\n      dup1\n      mload\n      swap1\n      0x20\n      add\n      keccak256\n        /* \"contracts/storage/LibSMEambStorage.sol\":12398:12409  _getStorage */\n      tag_250\n        /* \"contracts/storage/LibSMEambStorage.sol\":12398:12415  _getStorage(SLOT) */\n      jump\t// in\n    tag_320:\n        /* \"contracts/storage/LibSMEambStorage.sol\":12398:12432  _getStorage(SLOT).ownedTokensIndex */\n      0x04\n      add\n        /* \"contracts/storage/LibSMEambStorage.sol\":12398:12441  _getStorage(SLOT).ownedTokensIndex[tokenId] */\n      0x00\n        /* \"contracts/storage/LibSMEambStorage.sol\":12433:12440  tokenId */\n      dup5\n        /* \"contracts/storage/LibSMEambStorage.sol\":12398:12441  _getStorage(SLOT).ownedTokensIndex[tokenId] */\n      dup2\n      mstore\n      0x20\n      add\n      swap1\n      dup2\n      mstore\n      0x20\n      add\n      0x00\n      keccak256\n        /* \"contracts/storage/LibSMEambStorage.sol\":12398:12450  _getStorage(SLOT).ownedTokensIndex[tokenId] = length */\n      dup2\n      swap1\n      sstore\n      pop\n        /* \"contracts/storage/LibSMEambStorage.sol\":12235:12458  function addTokenToOwnerEnumeration(address to, uint256 tokenId, uint256 length) external {... */\n      pop\n      pop\n      pop\n      jump\t// out\n        /* \"contracts/storage/LibSMEambStorage.sol\":3307:3385  function name(string memory _name) external {_getStorage(SLOT)._name = _name;} */\n    tag_136:\n        /* \"contracts/storage/LibSMEambStorage.sol\":3378:3383  _name */\n      dup1\n        /* \"contracts/storage/LibSMEambStorage.sol\":3352:3369  _getStorage(SLOT) */\n      tag_322\n        /* \"contracts/storage/LibSMEambStorage.sol\":385:400  bytes('SMEamb') */\n      mload(0x40)\n      dup1\n      0x40\n      add\n      0x40\n      mstore\n      dup1\n      0x06\n      dup2\n      mstore\n      0x20\n      add\n      0x534d45616d620000000000000000000000000000000000000000000000000000\n      dup2\n      mstore\n      pop\n        /* \"contracts/storage/LibSMEambStorage.sol\":375:401  keccak256(bytes('SMEamb')) */\n      dup1\n      mload\n      swap1\n      0x20\n      add\n      keccak256\n        /* \"contracts/storage/LibSMEambStorage.sol\":3352:3363  _getStorage */\n      tag_250\n        /* \"contracts/storage/LibSMEambStorage.sol\":3352:3369  _getStorage(SLOT) */\n      jump\t// in\n    tag_322:\n        /* \"contracts/storage/LibSMEambStorage.sol\":3352:3375  _getStorage(SLOT)._name */\n      0x0e\n      add\n        /* \"contracts/storage/LibSMEambStorage.sol\":3352:3383  _getStorage(SLOT)._name = _name */\n      swap1\n      dup2\n      tag_323\n      swap2\n      swap1\n      tag_311\n      jump\t// in\n    tag_323:\n      pop\n        /* \"contracts/storage/LibSMEambStorage.sol\":3307:3385  function name(string memory _name) external {_getStorage(SLOT)._name = _name;} */\n      pop\n      jump\t// out\n        /* \"contracts/storage/LibSMEambStorage.sol\":6105:6223  function tokenURIs(uint256 tokenId) external view returns(string memory){return _getStorage(SLOT).tokenURIs[tokenId];} */\n    tag_139:\n        /* \"contracts/storage/LibSMEambStorage.sol\":6163:6176  string memory */\n      0x60\n        /* \"contracts/storage/LibSMEambStorage.sol\":6185:6202  _getStorage(SLOT) */\n      tag_325\n        /* \"contracts/storage/LibSMEambStorage.sol\":385:400  bytes('SMEamb') */\n      mload(0x40)\n      dup1\n      0x40\n      add\n      0x40\n      mstore\n      dup1\n      0x06\n      dup2\n      mstore\n      0x20\n      add\n      0x534d45616d620000000000000000000000000000000000000000000000000000\n      dup2\n      mstore\n      pop\n        /* \"contracts/storage/LibSMEambStorage.sol\":375:401  keccak256(bytes('SMEamb')) */\n      dup1\n      mload\n      swap1\n      0x20\n      add\n      keccak256\n        /* \"contracts/storage/LibSMEambStorage.sol\":6185:6196  _getStorage */\n      tag_250\n        /* \"contracts/storage/LibSMEambStorage.sol\":6185:6202  _getStorage(SLOT) */\n      jump\t// in\n    tag_325:\n        /* \"contracts/storage/LibSMEambStorage.sol\":6185:6212  _getStorage(SLOT).tokenURIs */\n      0x02\n      add\n        /* \"contracts/storage/LibSMEambStorage.sol\":6185:6221  _getStorage(SLOT).tokenURIs[tokenId] */\n      0x00\n        /* \"contracts/storage/LibSMEambStorage.sol\":6213:6220  tokenId */\n      dup4\n        /* \"contracts/storage/LibSMEambStorage.sol\":6185:6221  _getStorage(SLOT).tokenURIs[tokenId] */\n      dup2\n      mstore\n      0x20\n      add\n      swap1\n      dup2\n      mstore\n      0x20\n      add\n      0x00\n      keccak256\n        /* \"contracts/storage/LibSMEambStorage.sol\":6178:6221  return _getStorage(SLOT).tokenURIs[tokenId] */\n      dup1\n      sload\n      tag_326\n      swap1\n      tag_252\n      jump\t// in\n    tag_326:\n      dup1\n      0x1f\n      add\n      0x20\n      dup1\n      swap2\n      div\n      mul\n      0x20\n      add\n      mload(0x40)\n      swap1\n      dup2\n      add\n      0x40\n      mstore\n      dup1\n      swap3\n      swap2\n      swap1\n      dup2\n      dup2\n      mstore\n      0x20\n      add\n      dup3\n      dup1\n      sload\n      tag_327\n      swap1\n      tag_252\n      jump\t// in\n    tag_327:\n      dup1\n      iszero\n      tag_328\n      jumpi\n      dup1\n      0x1f\n      lt\n      tag_329\n      jumpi\n      0x0100\n      dup1\n      dup4\n      sload\n      div\n      mul\n      dup4\n      mstore\n      swap2\n      0x20\n      add\n      swap2\n      jump(tag_328)\n    tag_329:\n      dup3\n      add\n      swap2\n      swap1\n      0x00\n      mstore\n      keccak256(0x00, 0x20)\n      swap1\n    tag_330:\n      dup2\n      sload\n      dup2\n      mstore\n      swap1\n      0x01\n      add\n      swap1\n      0x20\n      add\n      dup1\n      dup4\n      gt\n      tag_330\n      jumpi\n      dup3\n      swap1\n      sub\n      0x1f\n      and\n      dup3\n      add\n      swap2\n    tag_328:\n      pop\n      pop\n      pop\n      pop\n      pop\n      swap1\n      pop\n        /* \"contracts/storage/LibSMEambStorage.sol\":6105:6223  function tokenURIs(uint256 tokenId) external view returns(string memory){return _getStorage(SLOT).tokenURIs[tokenId];} */\n      swap2\n      swap1\n      pop\n      jump\t// out\n        /* \"contracts/storage/LibSMEambStorage.sol\":6501:6598  function allTokens() external view returns(uint256[] memory){return _getStorage(SLOT).allTokens;} */\n    tag_142:\n        /* \"contracts/storage/LibSMEambStorage.sol\":6544:6560  uint256[] memory */\n      0x60\n        /* \"contracts/storage/LibSMEambStorage.sol\":6569:6586  _getStorage(SLOT) */\n      tag_332\n        /* \"contracts/storage/LibSMEambStorage.sol\":385:400  bytes('SMEamb') */\n      mload(0x40)\n      dup1\n      0x40\n      add\n      0x40\n      mstore\n      dup1\n      0x06\n      dup2\n      mstore\n      0x20\n      add\n      0x534d45616d620000000000000000000000000000000000000000000000000000\n      dup2\n      mstore\n      pop\n        /* \"contracts/storage/LibSMEambStorage.sol\":375:401  keccak256(bytes('SMEamb')) */\n      dup1\n      mload\n      swap1\n      0x20\n      add\n      keccak256\n        /* \"contracts/storage/LibSMEambStorage.sol\":6569:6580  _getStorage */\n      tag_250\n        /* \"contracts/storage/LibSMEambStorage.sol\":6569:6586  _getStorage(SLOT) */\n      jump\t// in\n    tag_332:\n        /* \"contracts/storage/LibSMEambStorage.sol\":6569:6596  _getStorage(SLOT).allTokens */\n      0x05\n      add\n        /* \"contracts/storage/LibSMEambStorage.sol\":6562:6596  return _getStorage(SLOT).allTokens */\n      dup1\n      sload\n      dup1\n      0x20\n      mul\n      0x20\n      add\n      mload(0x40)\n      swap1\n      dup2\n      add\n      0x40\n      mstore\n      dup1\n      swap3\n      swap2\n      swap1\n      dup2\n      dup2\n      mstore\n      0x20\n      add\n      dup3\n      dup1\n      sload\n      dup1\n      iszero\n      tag_333\n      jumpi\n      0x20\n      mul\n      dup3\n      add\n      swap2\n      swap1\n      0x00\n      mstore\n      keccak256(0x00, 0x20)\n      swap1\n    tag_334:\n      dup2\n      sload\n      dup2\n      mstore\n      0x20\n      add\n      swap1\n      0x01\n      add\n      swap1\n      dup1\n      dup4\n      gt\n      tag_334\n      jumpi\n    tag_333:\n      pop\n      pop\n      pop\n      pop\n      pop\n      swap1\n      pop\n        /* \"contracts/storage/LibSMEambStorage.sol\":6501:6598  function allTokens() external view returns(uint256[] memory){return _getStorage(SLOT).allTokens;} */\n      swap1\n      jump\t// out\n        /* \"contracts/storage/LibSMEambStorage.sol\":6369:6495  function ownedTokensIndex(uint256 tokenId) external view returns(uint256){return _getStorage(SLOT).ownedTokensIndex[tokenId];} */\n    tag_147:\n        /* \"contracts/storage/LibSMEambStorage.sol\":6434:6441  uint256 */\n      0x00\n        /* \"contracts/storage/LibSMEambStorage.sol\":6450:6467  _getStorage(SLOT) */\n      tag_336\n        /* \"contracts/storage/LibSMEambStorage.sol\":385:400  bytes('SMEamb') */\n      mload(0x40)\n      dup1\n      0x40\n      add\n      0x40\n      mstore\n      dup1\n      0x06\n      dup2\n      mstore\n      0x20\n      add\n      0x534d45616d620000000000000000000000000000000000000000000000000000\n      dup2\n      mstore\n      pop\n        /* \"contracts/storage/LibSMEambStorage.sol\":375:401  keccak256(bytes('SMEamb')) */\n      dup1\n      mload\n      swap1\n      0x20\n      add\n      keccak256\n        /* \"contracts/storage/LibSMEambStorage.sol\":6450:6461  _getStorage */\n      tag_250\n        /* \"contracts/storage/LibSMEambStorage.sol\":6450:6467  _getStorage(SLOT) */\n      jump\t// in\n    tag_336:\n        /* \"contracts/storage/LibSMEambStorage.sol\":6450:6484  _getStorage(SLOT).ownedTokensIndex */\n      0x04\n      add\n        /* \"contracts/storage/LibSMEambStorage.sol\":6450:6493  _getStorage(SLOT).ownedTokensIndex[tokenId] */\n      0x00\n        /* \"contracts/storage/LibSMEambStorage.sol\":6485:6492  tokenId */\n      dup4\n        /* \"contracts/storage/LibSMEambStorage.sol\":6450:6493  _getStorage(SLOT).ownedTokensIndex[tokenId] */\n      dup2\n      mstore\n      0x20\n      add\n      swap1\n      dup2\n      mstore\n      0x20\n      add\n      0x00\n      keccak256\n      sload\n        /* \"contracts/storage/LibSMEambStorage.sol\":6443:6493  return _getStorage(SLOT).ownedTokensIndex[tokenId] */\n      swap1\n      pop\n        /* \"contracts/storage/LibSMEambStorage.sol\":6369:6495  function ownedTokensIndex(uint256 tokenId) external view returns(uint256){return _getStorage(SLOT).ownedTokensIndex[tokenId];} */\n      swap2\n      swap1\n      pop\n      jump\t// out\n        /* \"contracts/storage/LibSMEambStorage.sol\":5709:5846  function _spotMintedIncr() external {uint256 _spotMinted = _getStorage(SLOT)._spotMinted; _getStorage(SLOT)._spotMinted = _spotMinted+1;} */\n    tag_151:\n        /* \"contracts/storage/LibSMEambStorage.sol\":5746:5765  uint256 _spotMinted */\n      0x00\n        /* \"contracts/storage/LibSMEambStorage.sol\":5768:5785  _getStorage(SLOT) */\n      tag_338\n        /* \"contracts/storage/LibSMEambStorage.sol\":385:400  bytes('SMEamb') */\n      mload(0x40)\n      dup1\n      0x40\n      add\n      0x40\n      mstore\n      dup1\n      0x06\n      dup2\n      mstore\n      0x20\n      add\n      0x534d45616d620000000000000000000000000000000000000000000000000000\n      dup2\n      mstore\n      pop\n        /* \"contracts/storage/LibSMEambStorage.sol\":375:401  keccak256(bytes('SMEamb')) */\n      dup1\n      mload\n      swap1\n      0x20\n      add\n      keccak256\n        /* \"contracts/storage/LibSMEambStorage.sol\":5768:5779  _getStorage */\n      tag_250\n        /* \"contracts/storage/LibSMEambStorage.sol\":5768:5785  _getStorage(SLOT) */\n      jump\t// in\n    tag_338:\n        /* \"contracts/storage/LibSMEambStorage.sol\":5768:5797  _getStorage(SLOT)._spotMinted */\n      0x14\n      add\n      sload\n        /* \"contracts/storage/LibSMEambStorage.sol\":5746:5797  uint256 _spotMinted = _getStorage(SLOT)._spotMinted */\n      swap1\n      pop\n        /* \"contracts/storage/LibSMEambStorage.sol\":5843:5844  1 */\n      0x01\n        /* \"contracts/storage/LibSMEambStorage.sol\":5831:5842  _spotMinted */\n      dup2\n        /* \"contracts/storage/LibSMEambStorage.sol\":5831:5844  _spotMinted+1 */\n      tag_339\n      swap2\n      swap1\n      tag_340\n      jump\t// in\n    tag_339:\n        /* \"contracts/storage/LibSMEambStorage.sol\":5799:5816  _getStorage(SLOT) */\n      tag_341\n        /* \"contracts/storage/LibSMEambStorage.sol\":385:400  bytes('SMEamb') */\n      mload(0x40)\n      dup1\n      0x40\n      add\n      0x40\n      mstore\n      dup1\n      0x06\n      dup2\n      mstore\n      0x20\n      add\n      0x534d45616d620000000000000000000000000000000000000000000000000000\n      dup2\n      mstore\n      pop\n        /* \"contracts/storage/LibSMEambStorage.sol\":375:401  keccak256(bytes('SMEamb')) */\n      dup1\n      mload\n      swap1\n      0x20\n      add\n      keccak256\n        /* \"contracts/storage/LibSMEambStorage.sol\":5799:5810  _getStorage */\n      tag_250\n        /* \"contracts/storage/LibSMEambStorage.sol\":5799:5816  _getStorage(SLOT) */\n      jump\t// in\n    tag_341:\n        /* \"contracts/storage/LibSMEambStorage.sol\":5799:5828  _getStorage(SLOT)._spotMinted */\n      0x14\n      add\n        /* \"contracts/storage/LibSMEambStorage.sol\":5799:5844  _getStorage(SLOT)._spotMinted = _spotMinted+1 */\n      dup2\n      swap1\n      sstore\n      pop\n        /* \"contracts/storage/LibSMEambStorage.sol\":5745:5846  {uint256 _spotMinted = _getStorage(SLOT)._spotMinted; _getStorage(SLOT)._spotMinted = _spotMinted+1;} */\n      pop\n        /* \"contracts/storage/LibSMEambStorage.sol\":5709:5846  function _spotMintedIncr() external {uint256 _spotMinted = _getStorage(SLOT)._spotMinted; _getStorage(SLOT)._spotMinted = _spotMinted+1;} */\n      jump\t// out\n        /* \"contracts/storage/LibSMEambStorage.sol\":7274:7394  function defaultTokenURI(string memory _defaultTokenURI) external{_getStorage(SLOT).defaultTokenURI = _defaultTokenURI;} */\n    tag_155:\n        /* \"contracts/storage/LibSMEambStorage.sol\":7376:7392  _defaultTokenURI */\n      dup1\n        /* \"contracts/storage/LibSMEambStorage.sol\":7340:7357  _getStorage(SLOT) */\n      tag_343\n        /* \"contracts/storage/LibSMEambStorage.sol\":385:400  bytes('SMEamb') */\n      mload(0x40)\n      dup1\n      0x40\n      add\n      0x40\n      mstore\n      dup1\n      0x06\n      dup2\n      mstore\n      0x20\n      add\n      0x534d45616d620000000000000000000000000000000000000000000000000000\n      dup2\n      mstore\n      pop\n        /* \"contracts/storage/LibSMEambStorage.sol\":375:401  keccak256(bytes('SMEamb')) */\n      dup1\n      mload\n      swap1\n      0x20\n      add\n      keccak256\n        /* \"contracts/storage/LibSMEambStorage.sol\":7340:7351  _getStorage */\n      tag_250\n        /* \"contracts/storage/LibSMEambStorage.sol\":7340:7357  _getStorage(SLOT) */\n      jump\t// in\n    tag_343:\n        /* \"contracts/storage/LibSMEambStorage.sol\":7340:7373  _getStorage(SLOT).defaultTokenURI */\n      0x01\n      add\n        /* \"contracts/storage/LibSMEambStorage.sol\":7340:7392  _getStorage(SLOT).defaultTokenURI = _defaultTokenURI */\n      swap1\n      dup2\n      tag_344\n      swap2\n      swap1\n      tag_311\n      jump\t// in\n    tag_344:\n      pop\n        /* \"contracts/storage/LibSMEambStorage.sol\":7274:7394  function defaultTokenURI(string memory _defaultTokenURI) external{_getStorage(SLOT).defaultTokenURI = _defaultTokenURI;} */\n      pop\n      jump\t// out\n        /* \"contracts/storage/LibSMEambStorage.sol\":5454:5605  function _operatorApprovals(address owner, address operator, bool approved) external{_getStorage(SLOT)._operatorApprovals[owner][operator] = approved;} */\n    tag_160:\n        /* \"contracts/storage/LibSMEambStorage.sol\":5595:5603  approved */\n      dup1\n        /* \"contracts/storage/LibSMEambStorage.sol\":5539:5556  _getStorage(SLOT) */\n      tag_346\n        /* \"contracts/storage/LibSMEambStorage.sol\":385:400  bytes('SMEamb') */\n      mload(0x40)\n      dup1\n      0x40\n      add\n      0x40\n      mstore\n      dup1\n      0x06\n      dup2\n      mstore\n      0x20\n      add\n      0x534d45616d620000000000000000000000000000000000000000000000000000\n      dup2\n      mstore\n      pop\n        /* \"contracts/storage/LibSMEambStorage.sol\":375:401  keccak256(bytes('SMEamb')) */\n      dup1\n      mload\n      swap1\n      0x20\n      add\n      keccak256\n        /* \"contracts/storage/LibSMEambStorage.sol\":5539:5550  _getStorage */\n      tag_250\n        /* \"contracts/storage/LibSMEambStorage.sol\":5539:5556  _getStorage(SLOT) */\n      jump\t// in\n    tag_346:\n        /* \"contracts/storage/LibSMEambStorage.sol\":5539:5575  _getStorage(SLOT)._operatorApprovals */\n      0x13\n      add\n        /* \"contracts/storage/LibSMEambStorage.sol\":5539:5582  _getStorage(SLOT)._operatorApprovals[owner] */\n      0x00\n        /* \"contracts/storage/LibSMEambStorage.sol\":5576:5581  owner */\n      dup6\n        /* \"contracts/storage/LibSMEambStorage.sol\":5539:5582  _getStorage(SLOT)._operatorApprovals[owner] */\n      0xffffffffffffffffffffffffffffffffffffffff\n      and\n      0xffffffffffffffffffffffffffffffffffffffff\n      and\n      dup2\n      mstore\n      0x20\n      add\n      swap1\n      dup2\n      mstore\n      0x20\n      add\n      0x00\n      keccak256\n        /* \"contracts/storage/LibSMEambStorage.sol\":5539:5592  _getStorage(SLOT)._operatorApprovals[owner][operator] */\n      0x00\n        /* \"contracts/storage/LibSMEambStorage.sol\":5583:5591  operator */\n      dup5\n        /* \"contracts/storage/LibSMEambStorage.sol\":5539:5592  _getStorage(SLOT)._operatorApprovals[owner][operator] */\n      0xffffffffffffffffffffffffffffffffffffffff\n      and\n      0xffffffffffffffffffffffffffffffffffffffff\n      and\n      dup2\n      mstore\n      0x20\n      add\n      swap1\n      dup2\n      mstore\n      0x20\n      add\n      0x00\n      keccak256\n      0x00\n        /* \"contracts/storage/LibSMEambStorage.sol\":5539:5603  _getStorage(SLOT)._operatorApprovals[owner][operator] = approved */\n      0x0100\n      exp\n      dup2\n      sload\n      dup2\n      0xff\n      mul\n      not\n      and\n      swap1\n      dup4\n      iszero\n      iszero\n      mul\n      or\n      swap1\n      sstore\n      pop\n        /* \"contracts/storage/LibSMEambStorage.sol\":5454:5605  function _operatorApprovals(address owner, address operator, bool approved) external{_getStorage(SLOT)._operatorApprovals[owner][operator] = approved;} */\n      pop\n      pop\n      pop\n      jump\t// out\n        /* \"contracts/storage/LibSMEambStorage.sol\":7924:8034  function legendlistRoot(bytes32 _legendlistRoot) external{_getStorage(SLOT).legendlistRoot = _legendlistRoot;} */\n    tag_164:\n        /* \"contracts/storage/LibSMEambStorage.sol\":8017:8032  _legendlistRoot */\n      dup1\n        /* \"contracts/storage/LibSMEambStorage.sol\":7982:7999  _getStorage(SLOT) */\n      tag_348\n        /* \"contracts/storage/LibSMEambStorage.sol\":385:400  bytes('SMEamb') */\n      mload(0x40)\n      dup1\n      0x40\n      add\n      0x40\n      mstore\n      dup1\n      0x06\n      dup2\n      mstore\n      0x20\n      add\n      0x534d45616d620000000000000000000000000000000000000000000000000000\n      dup2\n      mstore\n      pop\n        /* \"contracts/storage/LibSMEambStorage.sol\":375:401  keccak256(bytes('SMEamb')) */\n      dup1\n      mload\n      swap1\n      0x20\n      add\n      keccak256\n        /* \"contracts/storage/LibSMEambStorage.sol\":7982:7993  _getStorage */\n      tag_250\n        /* \"contracts/storage/LibSMEambStorage.sol\":7982:7999  _getStorage(SLOT) */\n      jump\t// in\n    tag_348:\n        /* \"contracts/storage/LibSMEambStorage.sol\":7982:8014  _getStorage(SLOT).legendlistRoot */\n      0x08\n      add\n        /* \"contracts/storage/LibSMEambStorage.sol\":7982:8032  _getStorage(SLOT).legendlistRoot = _legendlistRoot */\n      dup2\n      swap1\n      sstore\n      pop\n        /* \"contracts/storage/LibSMEambStorage.sol\":7924:8034  function legendlistRoot(bytes32 _legendlistRoot) external{_getStorage(SLOT).legendlistRoot = _legendlistRoot;} */\n      pop\n      jump\t// out\n        /* \"contracts/storage/LibSMEambStorage.sol\":4070:4153  function _burnCounter(uint256 _id) external {_getStorage(SLOT)._burnCounter = _id;} */\n    tag_168:\n        /* \"contracts/storage/LibSMEambStorage.sol\":4148:4151  _id */\n      dup1\n        /* \"contracts/storage/LibSMEambStorage.sol\":4115:4132  _getStorage(SLOT) */\n      tag_350\n        /* \"contracts/storage/LibSMEambStorage.sol\":385:400  bytes('SMEamb') */\n      mload(0x40)\n      dup1\n      0x40\n      add\n      0x40\n      mstore\n      dup1\n      0x06\n      dup2\n      mstore\n      0x20\n      add\n      0x534d45616d620000000000000000000000000000000000000000000000000000\n      dup2\n      mstore\n      pop\n        /* \"contracts/storage/LibSMEambStorage.sol\":375:401  keccak256(bytes('SMEamb')) */\n      dup1\n      mload\n      swap1\n      0x20\n      add\n      keccak256\n        /* \"contracts/storage/LibSMEambStorage.sol\":4115:4126  _getStorage */\n      tag_250\n        /* \"contracts/storage/LibSMEambStorage.sol\":4115:4132  _getStorage(SLOT) */\n      jump\t// in\n    tag_350:\n        /* \"contracts/storage/LibSMEambStorage.sol\":4115:4145  _getStorage(SLOT)._burnCounter */\n      0x0d\n      add\n        /* \"contracts/storage/LibSMEambStorage.sol\":4115:4151  _getStorage(SLOT)._burnCounter = _id */\n      dup2\n      swap1\n      sstore\n      pop\n        /* \"contracts/storage/LibSMEambStorage.sol\":4070:4153  function _burnCounter(uint256 _id) external {_getStorage(SLOT)._burnCounter = _id;} */\n      pop\n      jump\t// out\n        /* \"contracts/storage/LibSMEambStorage.sol\":3578:3674  function _currentIndex() external view returns(uint256){return _getStorage(SLOT)._currentIndex;} */\n    tag_170:\n        /* \"contracts/storage/LibSMEambStorage.sol\":3625:3632  uint256 */\n      0x00\n        /* \"contracts/storage/LibSMEambStorage.sol\":3641:3658  _getStorage(SLOT) */\n      tag_352\n        /* \"contracts/storage/LibSMEambStorage.sol\":385:400  bytes('SMEamb') */\n      mload(0x40)\n      dup1\n      0x40\n      add\n      0x40\n      mstore\n      dup1\n      0x06\n      dup2\n      mstore\n      0x20\n      add\n      0x534d45616d620000000000000000000000000000000000000000000000000000\n      dup2\n      mstore\n      pop\n        /* \"contracts/storage/LibSMEambStorage.sol\":375:401  keccak256(bytes('SMEamb')) */\n      dup1\n      mload\n      swap1\n      0x20\n      add\n      keccak256\n        /* \"contracts/storage/LibSMEambStorage.sol\":3641:3652  _getStorage */\n      tag_250\n        /* \"contracts/storage/LibSMEambStorage.sol\":3641:3658  _getStorage(SLOT) */\n      jump\t// in\n    tag_352:\n        /* \"contracts/storage/LibSMEambStorage.sol\":3641:3672  _getStorage(SLOT)._currentIndex */\n      0x0c\n      add\n      sload\n        /* \"contracts/storage/LibSMEambStorage.sol\":3634:3672  return _getStorage(SLOT)._currentIndex */\n      swap1\n      pop\n        /* \"contracts/storage/LibSMEambStorage.sol\":3578:3674  function _currentIndex() external view returns(uint256){return _getStorage(SLOT)._currentIndex;} */\n      swap1\n      jump\t// out\n        /* \"contracts/storage/LibSMEambStorage.sol\":3391:3480  function symbol() external view returns(string memory){return _getStorage(SLOT)._symbol;} */\n    tag_173:\n        /* \"contracts/storage/LibSMEambStorage.sol\":3431:3444  string memory */\n      0x60\n        /* \"contracts/storage/LibSMEambStorage.sol\":3453:3470  _getStorage(SLOT) */\n      tag_354\n        /* \"contracts/storage/LibSMEambStorage.sol\":385:400  bytes('SMEamb') */\n      mload(0x40)\n      dup1\n      0x40\n      add\n      0x40\n      mstore\n      dup1\n      0x06\n      dup2\n      mstore\n      0x20\n      add\n      0x534d45616d620000000000000000000000000000000000000000000000000000\n      dup2\n      mstore\n      pop\n        /* \"contracts/storage/LibSMEambStorage.sol\":375:401  keccak256(bytes('SMEamb')) */\n      dup1\n      mload\n      swap1\n      0x20\n      add\n      keccak256\n        /* \"contracts/storage/LibSMEambStorage.sol\":3453:3464  _getStorage */\n      tag_250\n        /* \"contracts/storage/LibSMEambStorage.sol\":3453:3470  _getStorage(SLOT) */\n      jump\t// in\n    tag_354:\n        /* \"contracts/storage/LibSMEambStorage.sol\":3453:3478  _getStorage(SLOT)._symbol */\n      0x0f\n      add\n        /* \"contracts/storage/LibSMEambStorage.sol\":3446:3478  return _getStorage(SLOT)._symbol */\n      dup1\n      sload\n      tag_355\n      swap1\n      tag_252\n      jump\t// in\n    tag_355:\n      dup1\n      0x1f\n      add\n      0x20\n      dup1\n      swap2\n      div\n      mul\n      0x20\n      add\n      mload(0x40)\n      swap1\n      dup2\n      add\n      0x40\n      mstore\n      dup1\n      swap3\n      swap2\n      swap1\n      dup2\n      dup2\n      mstore\n      0x20\n      add\n      dup3\n      dup1\n      sload\n      tag_356\n      swap1\n      tag_252\n      jump\t// in\n    tag_356:\n      dup1\n      iszero\n      tag_357\n      jumpi\n      dup1\n      0x1f\n      lt\n      tag_358\n      jumpi\n      0x0100\n      dup1\n      dup4\n      sload\n      div\n      mul\n      dup4\n      mstore\n      swap2\n      0x20\n      add\n      swap2\n      jump(tag_357)\n    tag_358:\n      dup3\n      add\n      swap2\n      swap1\n      0x00\n      mstore\n      keccak256(0x00, 0x20)\n      swap1\n    tag_359:\n      dup2\n      sload\n      dup2\n      mstore\n      swap1\n      0x01\n      add\n      swap1\n      0x20\n      add\n      dup1\n      dup4\n      gt\n      tag_359\n      jumpi\n      dup3\n      swap1\n      sub\n      0x1f\n      and\n      dup3\n      add\n      swap2\n    tag_357:\n      pop\n      pop\n      pop\n      pop\n      pop\n      swap1\n      pop\n        /* \"contracts/storage/LibSMEambStorage.sol\":3391:3480  function symbol() external view returns(string memory){return _getStorage(SLOT)._symbol;} */\n      swap1\n      jump\t// out\n        /* \"contracts/storage/LibSMEambStorage.sol\":5993:6099  function defaultTokenURI() external view returns(string memory){return _getStorage(SLOT).defaultTokenURI;} */\n    tag_176:\n        /* \"contracts/storage/LibSMEambStorage.sol\":6042:6055  string memory */\n      0x60\n        /* \"contracts/storage/LibSMEambStorage.sol\":6064:6081  _getStorage(SLOT) */\n      tag_361\n        /* \"contracts/storage/LibSMEambStorage.sol\":385:400  bytes('SMEamb') */\n      mload(0x40)\n      dup1\n      0x40\n      add\n      0x40\n      mstore\n      dup1\n      0x06\n      dup2\n      mstore\n      0x20\n      add\n      0x534d45616d620000000000000000000000000000000000000000000000000000\n      dup2\n      mstore\n      pop\n        /* \"contracts/storage/LibSMEambStorage.sol\":375:401  keccak256(bytes('SMEamb')) */\n      dup1\n      mload\n      swap1\n      0x20\n      add\n      keccak256\n        /* \"contracts/storage/LibSMEambStorage.sol\":6064:6075  _getStorage */\n      tag_250\n        /* \"contracts/storage/LibSMEambStorage.sol\":6064:6081  _getStorage(SLOT) */\n      jump\t// in\n    tag_361:\n        /* \"contracts/storage/LibSMEambStorage.sol\":6064:6097  _getStorage(SLOT).defaultTokenURI */\n      0x01\n      add\n        /* \"contracts/storage/LibSMEambStorage.sol\":6057:6097  return _getStorage(SLOT).defaultTokenURI */\n      dup1\n      sload\n      tag_362\n      swap1\n      tag_252\n      jump\t// in\n    tag_362:\n      dup1\n      0x1f\n      add\n      0x20\n      dup1\n      swap2\n      div\n      mul\n      0x20\n      add\n      mload(0x40)\n      swap1\n      dup2\n      add\n      0x40\n      mstore\n      dup1\n      swap3\n      swap2\n      swap1\n      dup2\n      dup2\n      mstore\n      0x20\n      add\n      dup3\n      dup1\n      sload\n      tag_363\n      swap1\n      tag_252\n      jump\t// in\n    tag_363:\n      dup1\n      iszero\n      tag_364\n      jumpi\n      dup1\n      0x1f\n      lt\n      tag_365\n      jumpi\n      0x0100\n      dup1\n      dup4\n      sload\n      div\n      mul\n      dup4\n      mstore\n      swap2\n      0x20\n      add\n      swap2\n      jump(tag_364)\n    tag_365:\n      dup3\n      add\n      swap2\n      swap1\n      0x00\n      mstore\n      keccak256(0x00, 0x20)\n      swap1\n    tag_366:\n      dup2\n      sload\n      dup2\n      mstore\n      swap1\n      0x01\n      add\n      swap1\n      0x20\n      add\n      dup1\n      dup4\n      gt\n      tag_366\n      jumpi\n      dup3\n      swap1\n      sub\n      0x1f\n      and\n      dup3\n      add\n      swap2\n    tag_364:\n      pop\n      pop\n      pop\n      pop\n      pop\n      swap1\n      pop\n        /* \"contracts/storage/LibSMEambStorage.sol\":5993:6099  function defaultTokenURI() external view returns(string memory){return _getStorage(SLOT).defaultTokenURI;} */\n      swap1\n      jump\t// out\n        /* \"contracts/storage/LibSMEambStorage.sol\":3777:3873  function _startTokenId() external view returns(uint256){return _getStorage(SLOT)._startTokenId;} */\n    tag_179:\n        /* \"contracts/storage/LibSMEambStorage.sol\":3824:3831  uint256 */\n      0x00\n        /* \"contracts/storage/LibSMEambStorage.sol\":3840:3857  _getStorage(SLOT) */\n      tag_368\n        /* \"contracts/storage/LibSMEambStorage.sol\":385:400  bytes('SMEamb') */\n      mload(0x40)\n      dup1\n      0x40\n      add\n      0x40\n      mstore\n      dup1\n      0x06\n      dup2\n      mstore\n      0x20\n      add\n      0x534d45616d620000000000000000000000000000000000000000000000000000\n      dup2\n      mstore\n      pop\n        /* \"contracts/storage/LibSMEambStorage.sol\":375:401  keccak256(bytes('SMEamb')) */\n      dup1\n      mload\n      swap1\n      0x20\n      add\n      keccak256\n        /* \"contracts/storage/LibSMEambStorage.sol\":3840:3851  _getStorage */\n      tag_250\n        /* \"contracts/storage/LibSMEambStorage.sol\":3840:3857  _getStorage(SLOT) */\n      jump\t// in\n    tag_368:\n        /* \"contracts/storage/LibSMEambStorage.sol\":3840:3871  _getStorage(SLOT)._startTokenId */\n      0x15\n      add\n      sload\n        /* \"contracts/storage/LibSMEambStorage.sol\":3833:3871  return _getStorage(SLOT)._startTokenId */\n      swap1\n      pop\n        /* \"contracts/storage/LibSMEambStorage.sol\":3777:3873  function _startTokenId() external view returns(uint256){return _getStorage(SLOT)._startTokenId;} */\n      swap1\n      jump\t// out\n        /* \"contracts/storage/LibSMEambStorage.sol\":7160:7268  function baseTokenURI(string memory _baseTokenURI) external{_getStorage(SLOT).baseTokenURI = _baseTokenURI;} */\n    tag_184:\n        /* \"contracts/storage/LibSMEambStorage.sol\":7253:7266  _baseTokenURI */\n      dup1\n        /* \"contracts/storage/LibSMEambStorage.sol\":7220:7237  _getStorage(SLOT) */\n      tag_370\n        /* \"contracts/storage/LibSMEambStorage.sol\":385:400  bytes('SMEamb') */\n      mload(0x40)\n      dup1\n      0x40\n      add\n      0x40\n      mstore\n      dup1\n      0x06\n      dup2\n      mstore\n      0x20\n      add\n      0x534d45616d620000000000000000000000000000000000000000000000000000\n      dup2\n      mstore\n      pop\n        /* \"contracts/storage/LibSMEambStorage.sol\":375:401  keccak256(bytes('SMEamb')) */\n      dup1\n      mload\n      swap1\n      0x20\n      add\n      keccak256\n        /* \"contracts/storage/LibSMEambStorage.sol\":7220:7231  _getStorage */\n      tag_250\n        /* \"contracts/storage/LibSMEambStorage.sol\":7220:7237  _getStorage(SLOT) */\n      jump\t// in\n    tag_370:\n        /* \"contracts/storage/LibSMEambStorage.sol\":7220:7250  _getStorage(SLOT).baseTokenURI */\n      0x00\n      add\n        /* \"contracts/storage/LibSMEambStorage.sol\":7220:7266  _getStorage(SLOT).baseTokenURI = _baseTokenURI */\n      swap1\n      dup2\n      tag_371\n      swap2\n      swap1\n      tag_311\n      jump\t// in\n    tag_371:\n      pop\n        /* \"contracts/storage/LibSMEambStorage.sol\":7160:7268  function baseTokenURI(string memory _baseTokenURI) external{_getStorage(SLOT).baseTokenURI = _baseTokenURI;} */\n      pop\n      jump\t// out\n        /* \"contracts/storage/LibSMEambStorage.sol\":4561:4689  function _packedAddressData(address _owner, uint256 _tokenId) external{_getStorage(SLOT)._packedAddressData[_owner] = _tokenId;} */\n    tag_189:\n        /* \"contracts/storage/LibSMEambStorage.sol\":4679:4687  _tokenId */\n      dup1\n        /* \"contracts/storage/LibSMEambStorage.sol\":4632:4649  _getStorage(SLOT) */\n      tag_373\n        /* \"contracts/storage/LibSMEambStorage.sol\":385:400  bytes('SMEamb') */\n      mload(0x40)\n      dup1\n      0x40\n      add\n      0x40\n      mstore\n      dup1\n      0x06\n      dup2\n      mstore\n      0x20\n      add\n      0x534d45616d620000000000000000000000000000000000000000000000000000\n      dup2\n      mstore\n      pop\n        /* \"contracts/storage/LibSMEambStorage.sol\":375:401  keccak256(bytes('SMEamb')) */\n      dup1\n      mload\n      swap1\n      0x20\n      add\n      keccak256\n        /* \"contracts/storage/LibSMEambStorage.sol\":4632:4643  _getStorage */\n      tag_250\n        /* \"contracts/storage/LibSMEambStorage.sol\":4632:4649  _getStorage(SLOT) */\n      jump\t// in\n    tag_373:\n        /* \"contracts/storage/LibSMEambStorage.sol\":4632:4668  _getStorage(SLOT)._packedAddressData */\n      0x11\n      add\n        /* \"contracts/storage/LibSMEambStorage.sol\":4632:4676  _getStorage(SLOT)._packedAddressData[_owner] */\n      0x00\n        /* \"contracts/storage/LibSMEambStorage.sol\":4669:4675  _owner */\n      dup5\n        /* \"contracts/storage/LibSMEambStorage.sol\":4632:4676  _getStorage(SLOT)._packedAddressData[_owner] */\n      0xffffffffffffffffffffffffffffffffffffffff\n      and\n      0xffffffffffffffffffffffffffffffffffffffff\n      and\n      dup2\n      mstore\n      0x20\n      add\n      swap1\n      dup2\n      mstore\n      0x20\n      add\n      0x00\n      keccak256\n        /* \"contracts/storage/LibSMEambStorage.sol\":4632:4687  _getStorage(SLOT)._packedAddressData[_owner] = _tokenId */\n      dup2\n      swap1\n      sstore\n      pop\n        /* \"contracts/storage/LibSMEambStorage.sol\":4561:4689  function _packedAddressData(address _owner, uint256 _tokenId) external{_getStorage(SLOT)._packedAddressData[_owner] = _tokenId;} */\n      pop\n      pop\n      jump\t// out\n        /* \"contracts/storage/LibSMEambStorage.sol\":5011:5153  function _tokenApprovals(uint256 _tokenId) external view returns(TokenApprovalRef memory){return _getStorage(SLOT)._tokenApprovals[_tokenId];} */\n    tag_192:\n        /* \"contracts/storage/LibSMEambStorage.sol\":5076:5099  TokenApprovalRef memory */\n      tag_374\n      tag_375\n      jump\t// in\n    tag_374:\n        /* \"contracts/storage/LibSMEambStorage.sol\":5108:5125  _getStorage(SLOT) */\n      tag_377\n        /* \"contracts/storage/LibSMEambStorage.sol\":385:400  bytes('SMEamb') */\n      mload(0x40)\n      dup1\n      0x40\n      add\n      0x40\n      mstore\n      dup1\n      0x06\n      dup2\n      mstore\n      0x20\n      add\n      0x534d45616d620000000000000000000000000000000000000000000000000000\n      dup2\n      mstore\n      pop\n        /* \"contracts/storage/LibSMEambStorage.sol\":375:401  keccak256(bytes('SMEamb')) */\n      dup1\n      mload\n      swap1\n      0x20\n      add\n      keccak256\n        /* \"contracts/storage/LibSMEambStorage.sol\":5108:5119  _getStorage */\n      tag_250\n        /* \"contracts/storage/LibSMEambStorage.sol\":5108:5125  _getStorage(SLOT) */\n      jump\t// in\n    tag_377:\n        /* \"contracts/storage/LibSMEambStorage.sol\":5108:5141  _getStorage(SLOT)._tokenApprovals */\n      0x12\n      add\n        /* \"contracts/storage/LibSMEambStorage.sol\":5108:5151  _getStorage(SLOT)._tokenApprovals[_tokenId] */\n      0x00\n        /* \"contracts/storage/LibSMEambStorage.sol\":5142:5150  _tokenId */\n      dup4\n        /* \"contracts/storage/LibSMEambStorage.sol\":5108:5151  _getStorage(SLOT)._tokenApprovals[_tokenId] */\n      dup2\n      mstore\n      0x20\n      add\n      swap1\n      dup2\n      mstore\n      0x20\n      add\n      0x00\n      keccak256\n        /* \"contracts/storage/LibSMEambStorage.sol\":5101:5151  return _getStorage(SLOT)._tokenApprovals[_tokenId] */\n      mload(0x40)\n      dup1\n      0x20\n      add\n      0x40\n      mstore\n      swap1\n      dup2\n      0x00\n      dup3\n      add\n      0x00\n      swap1\n      sload\n      swap1\n      0x0100\n      exp\n      swap1\n      div\n      0xffffffffffffffffffffffffffffffffffffffff\n      and\n      0xffffffffffffffffffffffffffffffffffffffff\n      and\n      0xffffffffffffffffffffffffffffffffffffffff\n      and\n      dup2\n      mstore\n      pop\n      pop\n      swap1\n      pop\n        /* \"contracts/storage/LibSMEambStorage.sol\":5011:5153  function _tokenApprovals(uint256 _tokenId) external view returns(TokenApprovalRef memory){return _getStorage(SLOT)._tokenApprovals[_tokenId];} */\n      swap2\n      swap1\n      pop\n      jump\t// out\n        /* \"contracts/storage/LibSMEambStorage.sol\":7674:7798  function ownedTokensIndex(uint256 _tokenId, uint256 _index) external{_getStorage(SLOT).ownedTokensIndex[_tokenId] = _index;} */\n    tag_199:\n        /* \"contracts/storage/LibSMEambStorage.sol\":7790:7796  _index */\n      dup1\n        /* \"contracts/storage/LibSMEambStorage.sol\":7743:7760  _getStorage(SLOT) */\n      tag_379\n        /* \"contracts/storage/LibSMEambStorage.sol\":385:400  bytes('SMEamb') */\n      mload(0x40)\n      dup1\n      0x40\n      add\n      0x40\n      mstore\n      dup1\n      0x06\n      dup2\n      mstore\n      0x20\n      add\n      0x534d45616d620000000000000000000000000000000000000000000000000000\n      dup2\n      mstore\n      pop\n        /* \"contracts/storage/LibSMEambStorage.sol\":375:401  keccak256(bytes('SMEamb')) */\n      dup1\n      mload\n      swap1\n      0x20\n      add\n      keccak256\n        /* \"contracts/storage/LibSMEambStorage.sol\":7743:7754  _getStorage */\n      tag_250\n        /* \"contracts/storage/LibSMEambStorage.sol\":7743:7760  _getStorage(SLOT) */\n      jump\t// in\n    tag_379:\n        /* \"contracts/storage/LibSMEambStorage.sol\":7743:7777  _getStorage(SLOT).ownedTokensIndex */\n      0x04\n      add\n        /* \"contracts/storage/LibSMEambStorage.sol\":7743:7787  _getStorage(SLOT).ownedTokensIndex[_tokenId] */\n      0x00\n        /* \"contracts/storage/LibSMEambStorage.sol\":7778:7786  _tokenId */\n      dup5\n        /* \"contracts/storage/LibSMEambStorage.sol\":7743:7787  _getStorage(SLOT).ownedTokensIndex[_tokenId] */\n      dup2\n      mstore\n      0x20\n      add\n      swap1\n      dup2\n      mstore\n      0x20\n      add\n      0x00\n      keccak256\n        /* \"contracts/storage/LibSMEambStorage.sol\":7743:7796  _getStorage(SLOT).ownedTokensIndex[_tokenId] = _index */\n      dup2\n      swap1\n      sstore\n      pop\n        /* \"contracts/storage/LibSMEambStorage.sol\":7674:7798  function ownedTokensIndex(uint256 _tokenId, uint256 _index) external{_getStorage(SLOT).ownedTokensIndex[_tokenId] = _index;} */\n      pop\n      pop\n      jump\t// out\n        /* \"contracts/storage/LibSMEambStorage.sol\":8220:8337  function guaranteed_minted(address _owner, bool _bool) external{_getStorage(SLOT).guaranteed_minted[_owner] = _bool;} */\n    tag_204:\n        /* \"contracts/storage/LibSMEambStorage.sol\":8330:8335  _bool */\n      dup1\n        /* \"contracts/storage/LibSMEambStorage.sol\":8284:8301  _getStorage(SLOT) */\n      tag_381\n        /* \"contracts/storage/LibSMEambStorage.sol\":385:400  bytes('SMEamb') */\n      mload(0x40)\n      dup1\n      0x40\n      add\n      0x40\n      mstore\n      dup1\n      0x06\n      dup2\n      mstore\n      0x20\n      add\n      0x534d45616d620000000000000000000000000000000000000000000000000000\n      dup2\n      mstore\n      pop\n        /* \"contracts/storage/LibSMEambStorage.sol\":375:401  keccak256(bytes('SMEamb')) */\n      dup1\n      mload\n      swap1\n      0x20\n      add\n      keccak256\n        /* \"contracts/storage/LibSMEambStorage.sol\":8284:8295  _getStorage */\n      tag_250\n        /* \"contracts/storage/LibSMEambStorage.sol\":8284:8301  _getStorage(SLOT) */\n      jump\t// in\n    tag_381:\n        /* \"contracts/storage/LibSMEambStorage.sol\":8284:8319  _getStorage(SLOT).guaranteed_minted */\n      0x0b\n      add\n        /* \"contracts/storage/LibSMEambStorage.sol\":8284:8327  _getStorage(SLOT).guaranteed_minted[_owner] */\n      0x00\n        /* \"contracts/storage/LibSMEambStorage.sol\":8320:8326  _owner */\n      dup5\n        /* \"contracts/storage/LibSMEambStorage.sol\":8284:8327  _getStorage(SLOT).guaranteed_minted[_owner] */\n      0xffffffffffffffffffffffffffffffffffffffff\n      and\n      0xffffffffffffffffffffffffffffffffffffffff\n      and\n      dup2\n      mstore\n      0x20\n      add\n      swap1\n      dup2\n      mstore\n      0x20\n      add\n      0x00\n      keccak256\n      0x00\n        /* \"contracts/storage/LibSMEambStorage.sol\":8284:8335  _getStorage(SLOT).guaranteed_minted[_owner] = _bool */\n      0x0100\n      exp\n      dup2\n      sload\n      dup2\n      0xff\n      mul\n      not\n      and\n      swap1\n      dup4\n      iszero\n      iszero\n      mul\n      or\n      swap1\n      sstore\n      pop\n        /* \"contracts/storage/LibSMEambStorage.sol\":8220:8337  function guaranteed_minted(address _owner, bool _bool) external{_getStorage(SLOT).guaranteed_minted[_owner] = _bool;} */\n      pop\n      pop\n      jump\t// out\n        /* \"contracts/storage/LibSMEambStorage.sol\":6996:7117  function guaranteed_minted(address owner) external view returns(bool){return _getStorage(SLOT).guaranteed_minted[owner];} */\n    tag_207:\n        /* \"contracts/storage/LibSMEambStorage.sol\":7060:7064  bool */\n      0x00\n        /* \"contracts/storage/LibSMEambStorage.sol\":7073:7090  _getStorage(SLOT) */\n      tag_383\n        /* \"contracts/storage/LibSMEambStorage.sol\":385:400  bytes('SMEamb') */\n      mload(0x40)\n      dup1\n      0x40\n      add\n      0x40\n      mstore\n      dup1\n      0x06\n      dup2\n      mstore\n      0x20\n      add\n      0x534d45616d620000000000000000000000000000000000000000000000000000\n      dup2\n      mstore\n      pop\n        /* \"contracts/storage/LibSMEambStorage.sol\":375:401  keccak256(bytes('SMEamb')) */\n      dup1\n      mload\n      swap1\n      0x20\n      add\n      keccak256\n        /* \"contracts/storage/LibSMEambStorage.sol\":7073:7084  _getStorage */\n      tag_250\n        /* \"contracts/storage/LibSMEambStorage.sol\":7073:7090  _getStorage(SLOT) */\n      jump\t// in\n    tag_383:\n        /* \"contracts/storage/LibSMEambStorage.sol\":7073:7108  _getStorage(SLOT).guaranteed_minted */\n      0x0b\n      add\n        /* \"contracts/storage/LibSMEambStorage.sol\":7073:7115  _getStorage(SLOT).guaranteed_minted[owner] */\n      0x00\n        /* \"contracts/storage/LibSMEambStorage.sol\":7109:7114  owner */\n      dup4\n        /* \"contracts/storage/LibSMEambStorage.sol\":7073:7115  _getStorage(SLOT).guaranteed_minted[owner] */\n      0xffffffffffffffffffffffffffffffffffffffff\n      and\n      0xffffffffffffffffffffffffffffffffffffffff\n      and\n      dup2\n      mstore\n      0x20\n      add\n      swap1\n      dup2\n      mstore\n      0x20\n      add\n      0x00\n      keccak256\n      0x00\n      swap1\n      sload\n      swap1\n      0x0100\n      exp\n      swap1\n      div\n      0xff\n      and\n        /* \"contracts/storage/LibSMEambStorage.sol\":7066:7115  return _getStorage(SLOT).guaranteed_minted[owner] */\n      swap1\n      pop\n        /* \"contracts/storage/LibSMEambStorage.sol\":6996:7117  function guaranteed_minted(address owner) external view returns(bool){return _getStorage(SLOT).guaranteed_minted[owner];} */\n      swap2\n      swap1\n      pop\n      jump\t// out\n        /* \"contracts/storage/LibSMEambStorage.sol\":4695:4847  function _packedAddressDataIncr(address _owner) external{_getStorage(SLOT)._packedAddressData[_owner] = _getStorage(SLOT)._packedAddressData[_owner]+1;} */\n    tag_213:\n        /* \"contracts/storage/LibSMEambStorage.sol\":4844:4845  1 */\n      0x01\n        /* \"contracts/storage/LibSMEambStorage.sol\":4799:4816  _getStorage(SLOT) */\n      tag_385\n        /* \"contracts/storage/LibSMEambStorage.sol\":385:400  bytes('SMEamb') */\n      mload(0x40)\n      dup1\n      0x40\n      add\n      0x40\n      mstore\n      dup1\n      0x06\n      dup2\n      mstore\n      0x20\n      add\n      0x534d45616d620000000000000000000000000000000000000000000000000000\n      dup2\n      mstore\n      pop\n        /* \"contracts/storage/LibSMEambStorage.sol\":375:401  keccak256(bytes('SMEamb')) */\n      dup1\n      mload\n      swap1\n      0x20\n      add\n      keccak256\n        /* \"contracts/storage/LibSMEambStorage.sol\":4799:4810  _getStorage */\n      tag_250\n        /* \"contracts/storage/LibSMEambStorage.sol\":4799:4816  _getStorage(SLOT) */\n      jump\t// in\n    tag_385:\n        /* \"contracts/storage/LibSMEambStorage.sol\":4799:4835  _getStorage(SLOT)._packedAddressData */\n      0x11\n      add\n        /* \"contracts/storage/LibSMEambStorage.sol\":4799:4843  _getStorage(SLOT)._packedAddressData[_owner] */\n      0x00\n        /* \"contracts/storage/LibSMEambStorage.sol\":4836:4842  _owner */\n      dup4\n        /* \"contracts/storage/LibSMEambStorage.sol\":4799:4843  _getStorage(SLOT)._packedAddressData[_owner] */\n      0xffffffffffffffffffffffffffffffffffffffff\n      and\n      0xffffffffffffffffffffffffffffffffffffffff\n      and\n      dup2\n      mstore\n      0x20\n      add\n      swap1\n      dup2\n      mstore\n      0x20\n      add\n      0x00\n      keccak256\n      sload\n        /* \"contracts/storage/LibSMEambStorage.sol\":4799:4845  _getStorage(SLOT)._packedAddressData[_owner]+1 */\n      tag_386\n      swap2\n      swap1\n      tag_340\n      jump\t// in\n    tag_386:\n        /* \"contracts/storage/LibSMEambStorage.sol\":4752:4769  _getStorage(SLOT) */\n      tag_387\n        /* \"contracts/storage/LibSMEambStorage.sol\":385:400  bytes('SMEamb') */\n      mload(0x40)\n      dup1\n      0x40\n      add\n      0x40\n      mstore\n      dup1\n      0x06\n      dup2\n      mstore\n      0x20\n      add\n      0x534d45616d620000000000000000000000000000000000000000000000000000\n      dup2\n      mstore\n      pop\n        /* \"contracts/storage/LibSMEambStorage.sol\":375:401  keccak256(bytes('SMEamb')) */\n      dup1\n      mload\n      swap1\n      0x20\n      add\n      keccak256\n        /* \"contracts/storage/LibSMEambStorage.sol\":4752:4763  _getStorage */\n      tag_250\n        /* \"contracts/storage/LibSMEambStorage.sol\":4752:4769  _getStorage(SLOT) */\n      jump\t// in\n    tag_387:\n        /* \"contracts/storage/LibSMEambStorage.sol\":4752:4788  _getStorage(SLOT)._packedAddressData */\n      0x11\n      add\n        /* \"contracts/storage/LibSMEambStorage.sol\":4752:4796  _getStorage(SLOT)._packedAddressData[_owner] */\n      0x00\n        /* \"contracts/storage/LibSMEambStorage.sol\":4789:4795  _owner */\n      dup4\n        /* \"contracts/storage/LibSMEambStorage.sol\":4752:4796  _getStorage(SLOT)._packedAddressData[_owner] */\n      0xffffffffffffffffffffffffffffffffffffffff\n      and\n      0xffffffffffffffffffffffffffffffffffffffff\n      and\n      dup2\n      mstore\n      0x20\n      add\n      swap1\n      dup2\n      mstore\n      0x20\n      add\n      0x00\n      keccak256\n        /* \"contracts/storage/LibSMEambStorage.sol\":4752:4845  _getStorage(SLOT)._packedAddressData[_owner] = _getStorage(SLOT)._packedAddressData[_owner]+1 */\n      dup2\n      swap1\n      sstore\n      pop\n        /* \"contracts/storage/LibSMEambStorage.sol\":4695:4847  function _packedAddressDataIncr(address _owner) external{_getStorage(SLOT)._packedAddressData[_owner] = _getStorage(SLOT)._packedAddressData[_owner]+1;} */\n      pop\n      jump\t// out\n        /* \"contracts/storage/LibSMEambStorage.sol\":5611:5703  function _spotMinted() external view returns(uint256){return _getStorage(SLOT)._spotMinted;} */\n    tag_215:\n        /* \"contracts/storage/LibSMEambStorage.sol\":5656:5663  uint256 */\n      0x00\n        /* \"contracts/storage/LibSMEambStorage.sol\":5672:5689  _getStorage(SLOT) */\n      tag_389\n        /* \"contracts/storage/LibSMEambStorage.sol\":385:400  bytes('SMEamb') */\n      mload(0x40)\n      dup1\n      0x40\n      add\n      0x40\n      mstore\n      dup1\n      0x06\n      dup2\n      mstore\n      0x20\n      add\n      0x534d45616d620000000000000000000000000000000000000000000000000000\n      dup2\n      mstore\n      pop\n        /* \"contracts/storage/LibSMEambStorage.sol\":375:401  keccak256(bytes('SMEamb')) */\n      dup1\n      mload\n      swap1\n      0x20\n      add\n      keccak256\n        /* \"contracts/storage/LibSMEambStorage.sol\":5672:5683  _getStorage */\n      tag_250\n        /* \"contracts/storage/LibSMEambStorage.sol\":5672:5689  _getStorage(SLOT) */\n      jump\t// in\n    tag_389:\n        /* \"contracts/storage/LibSMEambStorage.sol\":5672:5701  _getStorage(SLOT)._spotMinted */\n      0x14\n      add\n      sload\n        /* \"contracts/storage/LibSMEambStorage.sol\":5665:5701  return _getStorage(SLOT)._spotMinted */\n      swap1\n      pop\n        /* \"contracts/storage/LibSMEambStorage.sol\":5611:5703  function _spotMinted() external view returns(uint256){return _getStorage(SLOT)._spotMinted;} */\n      swap1\n      jump\t// out\n        /* \"contracts/storage/LibSMEambStorage.sol\":5887:5987  function baseTokenURI() external view returns(string memory){return _getStorage(SLOT).baseTokenURI;} */\n    tag_218:\n        /* \"contracts/storage/LibSMEambStorage.sol\":5933:5946  string memory */\n      0x60\n        /* \"contracts/storage/LibSMEambStorage.sol\":5955:5972  _getStorage(SLOT) */\n      tag_391\n        /* \"contracts/storage/LibSMEambStorage.sol\":385:400  bytes('SMEamb') */\n      mload(0x40)\n      dup1\n      0x40\n      add\n      0x40\n      mstore\n      dup1\n      0x06\n      dup2\n      mstore\n      0x20\n      add\n      0x534d45616d620000000000000000000000000000000000000000000000000000\n      dup2\n      mstore\n      pop\n        /* \"contracts/storage/LibSMEambStorage.sol\":375:401  keccak256(bytes('SMEamb')) */\n      dup1\n      mload\n      swap1\n      0x20\n      add\n      keccak256\n        /* \"contracts/storage/LibSMEambStorage.sol\":5955:5966  _getStorage */\n      tag_250\n        /* \"contracts/storage/LibSMEambStorage.sol\":5955:5972  _getStorage(SLOT) */\n      jump\t// in\n    tag_391:\n        /* \"contracts/storage/LibSMEambStorage.sol\":5955:5985  _getStorage(SLOT).baseTokenURI */\n      0x00\n      add\n        /* \"contracts/storage/LibSMEambStorage.sol\":5948:5985  return _getStorage(SLOT).baseTokenURI */\n      dup1\n      sload\n      tag_392\n      swap1\n      tag_252\n      jump\t// in\n    tag_392:\n      dup1\n      0x1f\n      add\n      0x20\n      dup1\n      swap2\n      div\n      mul\n      0x20\n      add\n      mload(0x40)\n      swap1\n      dup2\n      add\n      0x40\n      mstore\n      dup1\n      swap3\n      swap2\n      swap1\n      dup2\n      dup2\n      mstore\n      0x20\n      add\n      dup3\n      dup1\n      sload\n      tag_393\n      swap1\n      tag_252\n      jump\t// in\n    tag_393:\n      dup1\n      iszero\n      tag_394\n      jumpi\n      dup1\n      0x1f\n      lt\n      tag_395\n      jumpi\n      0x0100\n      dup1\n      dup4\n      sload\n      div\n      mul\n      dup4\n      mstore\n      swap2\n      0x20\n      add\n      swap2\n      jump(tag_394)\n    tag_395:\n      dup3\n      add\n      swap2\n      swap1\n      0x00\n      mstore\n      keccak256(0x00, 0x20)\n      swap1\n    tag_396:\n      dup2\n      sload\n      dup2\n      mstore\n      swap1\n      0x01\n      add\n      swap1\n      0x20\n      add\n      dup1\n      dup4\n      gt\n      tag_396\n      jumpi\n      dup3\n      swap1\n      sub\n      0x1f\n      and\n      dup3\n      add\n      swap2\n    tag_394:\n      pop\n      pop\n      pop\n      pop\n      pop\n      swap1\n      pop\n        /* \"contracts/storage/LibSMEambStorage.sol\":5887:5987  function baseTokenURI() external view returns(string memory){return _getStorage(SLOT).baseTokenURI;} */\n      swap1\n      jump\t// out\n        /* \"contracts/storage/LibSMEambStorage.sol\":10040:10255  function addTokenToAllTokensEnumeration(uint256 tokenId) external {... */\n    tag_223:\n        /* \"contracts/storage/LibSMEambStorage.sol\":10161:10178  _getStorage(SLOT) */\n      tag_398\n        /* \"contracts/storage/LibSMEambStorage.sol\":385:400  bytes('SMEamb') */\n      mload(0x40)\n      dup1\n      0x40\n      add\n      0x40\n      mstore\n      dup1\n      0x06\n      dup2\n      mstore\n      0x20\n      add\n      0x534d45616d620000000000000000000000000000000000000000000000000000\n      dup2\n      mstore\n      pop\n        /* \"contracts/storage/LibSMEambStorage.sol\":375:401  keccak256(bytes('SMEamb')) */\n      dup1\n      mload\n      swap1\n      0x20\n      add\n      keccak256\n        /* \"contracts/storage/LibSMEambStorage.sol\":10161:10172  _getStorage */\n      tag_250\n        /* \"contracts/storage/LibSMEambStorage.sol\":10161:10178  _getStorage(SLOT) */\n      jump\t// in\n    tag_398:\n        /* \"contracts/storage/LibSMEambStorage.sol\":10161:10188  _getStorage(SLOT).allTokens */\n      0x05\n      add\n        /* \"contracts/storage/LibSMEambStorage.sol\":10161:10195  _getStorage(SLOT).allTokens.length */\n      dup1\n      sload\n      swap1\n      pop\n        /* \"contracts/storage/LibSMEambStorage.sol\":10117:10134  _getStorage(SLOT) */\n      tag_399\n        /* \"contracts/storage/LibSMEambStorage.sol\":385:400  bytes('SMEamb') */\n      mload(0x40)\n      dup1\n      0x40\n      add\n      0x40\n      mstore\n      dup1\n      0x06\n      dup2\n      mstore\n      0x20\n      add\n      0x534d45616d620000000000000000000000000000000000000000000000000000\n      dup2\n      mstore\n      pop\n        /* \"contracts/storage/LibSMEambStorage.sol\":375:401  keccak256(bytes('SMEamb')) */\n      dup1\n      mload\n      swap1\n      0x20\n      add\n      keccak256\n        /* \"contracts/storage/LibSMEambStorage.sol\":10117:10128  _getStorage */\n      tag_250\n        /* \"contracts/storage/LibSMEambStorage.sol\":10117:10134  _getStorage(SLOT) */\n      jump\t// in\n    tag_399:\n        /* \"contracts/storage/LibSMEambStorage.sol\":10117:10149  _getStorage(SLOT).allTokensIndex */\n      0x06\n      add\n        /* \"contracts/storage/LibSMEambStorage.sol\":10117:10158  _getStorage(SLOT).allTokensIndex[tokenId] */\n      0x00\n        /* \"contracts/storage/LibSMEambStorage.sol\":10150:10157  tokenId */\n      dup4\n        /* \"contracts/storage/LibSMEambStorage.sol\":10117:10158  _getStorage(SLOT).allTokensIndex[tokenId] */\n      dup2\n      mstore\n      0x20\n      add\n      swap1\n      dup2\n      mstore\n      0x20\n      add\n      0x00\n      keccak256\n        /* \"contracts/storage/LibSMEambStorage.sol\":10117:10195  _getStorage(SLOT).allTokensIndex[tokenId] = _getStorage(SLOT).allTokens.length */\n      dup2\n      swap1\n      sstore\n      pop\n        /* \"contracts/storage/LibSMEambStorage.sol\":10206:10223  _getStorage(SLOT) */\n      tag_400\n        /* \"contracts/storage/LibSMEambStorage.sol\":385:400  bytes('SMEamb') */\n      mload(0x40)\n      dup1\n      0x40\n      add\n      0x40\n      mstore\n      dup1\n      0x06\n      dup2\n      mstore\n      0x20\n      add\n      0x534d45616d620000000000000000000000000000000000000000000000000000\n      dup2\n      mstore\n      pop\n        /* \"contracts/storage/LibSMEambStorage.sol\":375:401  keccak256(bytes('SMEamb')) */\n      dup1\n      mload\n      swap1\n      0x20\n      add\n      keccak256\n        /* \"contracts/storage/LibSMEambStorage.sol\":10206:10217  _getStorage */\n      tag_250\n        /* \"contracts/storage/LibSMEambStorage.sol\":10206:10223  _getStorage(SLOT) */\n      jump\t// in\n    tag_400:\n        /* \"contracts/storage/LibSMEambStorage.sol\":10206:10233  _getStorage(SLOT).allTokens */\n      0x05\n      add\n        /* \"contracts/storage/LibSMEambStorage.sol\":10239:10246  tokenId */\n      dup2\n        /* \"contracts/storage/LibSMEambStorage.sol\":10206:10247  _getStorage(SLOT).allTokens.push(tokenId) */\n      swap1\n      dup1\n      0x01\n      dup2\n      sload\n      add\n      dup1\n      dup3\n      sstore\n      dup1\n      swap2\n      pop\n      pop\n      0x01\n      swap1\n      sub\n      swap1\n      0x00\n      mstore\n      keccak256(0x00, 0x20)\n      add\n      0x00\n      swap1\n      swap2\n      swap1\n      swap2\n      swap1\n      swap2\n      pop\n      sstore\n        /* \"contracts/storage/LibSMEambStorage.sol\":10040:10255  function addTokenToAllTokensEnumeration(uint256 tokenId) external {... */\n      pop\n      jump\t// out\n        /* \"contracts/storage/LibSMEambStorage.sol\":6914:6990  function fee() external view returns(uint256){return _getStorage(SLOT).fee;} */\n    tag_225:\n        /* \"contracts/storage/LibSMEambStorage.sol\":6951:6958  uint256 */\n      0x00\n        /* \"contracts/storage/LibSMEambStorage.sol\":6967:6984  _getStorage(SLOT) */\n      tag_403\n        /* \"contracts/storage/LibSMEambStorage.sol\":385:400  bytes('SMEamb') */\n      mload(0x40)\n      dup1\n      0x40\n      add\n      0x40\n      mstore\n      dup1\n      0x06\n      dup2\n      mstore\n      0x20\n      add\n      0x534d45616d620000000000000000000000000000000000000000000000000000\n      dup2\n      mstore\n      pop\n        /* \"contracts/storage/LibSMEambStorage.sol\":375:401  keccak256(bytes('SMEamb')) */\n      dup1\n      mload\n      swap1\n      0x20\n      add\n      keccak256\n        /* \"contracts/storage/LibSMEambStorage.sol\":6967:6978  _getStorage */\n      tag_250\n        /* \"contracts/storage/LibSMEambStorage.sol\":6967:6984  _getStorage(SLOT) */\n      jump\t// in\n    tag_403:\n        /* \"contracts/storage/LibSMEambStorage.sol\":6967:6988  _getStorage(SLOT).fee */\n      0x0a\n      add\n      sload\n        /* \"contracts/storage/LibSMEambStorage.sol\":6960:6988  return _getStorage(SLOT).fee */\n      swap1\n      pop\n        /* \"contracts/storage/LibSMEambStorage.sol\":6914:6990  function fee() external view returns(uint256){return _getStorage(SLOT).fee;} */\n      swap1\n      jump\t// out\n        /* \"contracts/storage/LibSMEambStorage.sol\":7400:7524  function tokenURIs(string memory _tokenURIs, uint256 _tokenId) external{_getStorage(SLOT).tokenURIs[_tokenId] = _tokenURIs;} */\n    tag_231:\n        /* \"contracts/storage/LibSMEambStorage.sol\":7512:7522  _tokenURIs */\n      dup2\n        /* \"contracts/storage/LibSMEambStorage.sol\":7472:7489  _getStorage(SLOT) */\n      tag_405\n        /* \"contracts/storage/LibSMEambStorage.sol\":385:400  bytes('SMEamb') */\n      mload(0x40)\n      dup1\n      0x40\n      add\n      0x40\n      mstore\n      dup1\n      0x06\n      dup2\n      mstore\n      0x20\n      add\n      0x534d45616d620000000000000000000000000000000000000000000000000000\n      dup2\n      mstore\n      pop\n        /* \"contracts/storage/LibSMEambStorage.sol\":375:401  keccak256(bytes('SMEamb')) */\n      dup1\n      mload\n      swap1\n      0x20\n      add\n      keccak256\n        /* \"contracts/storage/LibSMEambStorage.sol\":7472:7483  _getStorage */\n      tag_250\n        /* \"contracts/storage/LibSMEambStorage.sol\":7472:7489  _getStorage(SLOT) */\n      jump\t// in\n    tag_405:\n        /* \"contracts/storage/LibSMEambStorage.sol\":7472:7499  _getStorage(SLOT).tokenURIs */\n      0x02\n      add\n        /* \"contracts/storage/LibSMEambStorage.sol\":7472:7509  _getStorage(SLOT).tokenURIs[_tokenId] */\n      0x00\n        /* \"contracts/storage/LibSMEambStorage.sol\":7500:7508  _tokenId */\n      dup4\n        /* \"contracts/storage/LibSMEambStorage.sol\":7472:7509  _getStorage(SLOT).tokenURIs[_tokenId] */\n      dup2\n      mstore\n      0x20\n      add\n      swap1\n      dup2\n      mstore\n      0x20\n      add\n      0x00\n      keccak256\n        /* \"contracts/storage/LibSMEambStorage.sol\":7472:7522  _getStorage(SLOT).tokenURIs[_tokenId] = _tokenURIs */\n      swap1\n      dup2\n      tag_406\n      swap2\n      swap1\n      tag_311\n      jump\t// in\n    tag_406:\n      pop\n        /* \"contracts/storage/LibSMEambStorage.sol\":7400:7524  function tokenURIs(string memory _tokenURIs, uint256 _tokenId) external{_getStorage(SLOT).tokenURIs[_tokenId] = _tokenURIs;} */\n      pop\n      pop\n      jump\t// out\n        /* \"contracts/storage/LibSMEambStorage.sol\":6229:6363  function ownedTokens(address owner, uint256 index) external view returns(uint256){return _getStorage(SLOT).ownedTokens[owner][index];} */\n    tag_234:\n        /* \"contracts/storage/LibSMEambStorage.sol\":6302:6309  uint256 */\n      0x00\n        /* \"contracts/storage/LibSMEambStorage.sol\":6318:6335  _getStorage(SLOT) */\n      tag_408\n        /* \"contracts/storage/LibSMEambStorage.sol\":385:400  bytes('SMEamb') */\n      mload(0x40)\n      dup1\n      0x40\n      add\n      0x40\n      mstore\n      dup1\n      0x06\n      dup2\n      mstore\n      0x20\n      add\n      0x534d45616d620000000000000000000000000000000000000000000000000000\n      dup2\n      mstore\n      pop\n        /* \"contracts/storage/LibSMEambStorage.sol\":375:401  keccak256(bytes('SMEamb')) */\n      dup1\n      mload\n      swap1\n      0x20\n      add\n      keccak256\n        /* \"contracts/storage/LibSMEambStorage.sol\":6318:6329  _getStorage */\n      tag_250\n        /* \"contracts/storage/LibSMEambStorage.sol\":6318:6335  _getStorage(SLOT) */\n      jump\t// in\n    tag_408:\n        /* \"contracts/storage/LibSMEambStorage.sol\":6318:6347  _getStorage(SLOT).ownedTokens */\n      0x03\n      add\n        /* \"contracts/storage/LibSMEambStorage.sol\":6318:6354  _getStorage(SLOT).ownedTokens[owner] */\n      0x00\n        /* \"contracts/storage/LibSMEambStorage.sol\":6348:6353  owner */\n      dup5\n        /* \"contracts/storage/LibSMEambStorage.sol\":6318:6354  _getStorage(SLOT).ownedTokens[owner] */\n      0xffffffffffffffffffffffffffffffffffffffff\n      and\n      0xffffffffffffffffffffffffffffffffffffffff\n      and\n      dup2\n      mstore\n      0x20\n      add\n      swap1\n      dup2\n      mstore\n      0x20\n      add\n      0x00\n      keccak256\n        /* \"contracts/storage/LibSMEambStorage.sol\":6318:6361  _getStorage(SLOT).ownedTokens[owner][index] */\n      0x00\n        /* \"contracts/storage/LibSMEambStorage.sol\":6355:6360  index */\n      dup4\n        /* \"contracts/storage/LibSMEambStorage.sol\":6318:6361  _getStorage(SLOT).ownedTokens[owner][index] */\n      dup2\n      mstore\n      0x20\n      add\n      swap1\n      dup2\n      mstore\n      0x20\n      add\n      0x00\n      keccak256\n      sload\n        /* \"contracts/storage/LibSMEambStorage.sol\":6311:6361  return _getStorage(SLOT).ownedTokens[owner][index] */\n      swap1\n      pop\n        /* \"contracts/storage/LibSMEambStorage.sol\":6229:6363  function ownedTokens(address owner, uint256 index) external view returns(uint256){return _getStorage(SLOT).ownedTokens[owner][index];} */\n      swap3\n      swap2\n      pop\n      pop\n      jump\t// out\n        /* \"contracts/storage/LibSMEambStorage.sol\":4295:4421  function _packedOwnerships(uint256 _tokenId, uint256 _index) external{_getStorage(SLOT)._packedOwnerships[_tokenId] = _index;} */\n    tag_239:\n        /* \"contracts/storage/LibSMEambStorage.sol\":4413:4419  _index */\n      dup1\n        /* \"contracts/storage/LibSMEambStorage.sol\":4365:4382  _getStorage(SLOT) */\n      tag_410\n        /* \"contracts/storage/LibSMEambStorage.sol\":385:400  bytes('SMEamb') */\n      mload(0x40)\n      dup1\n      0x40\n      add\n      0x40\n      mstore\n      dup1\n      0x06\n      dup2\n      mstore\n      0x20\n      add\n      0x534d45616d620000000000000000000000000000000000000000000000000000\n      dup2\n      mstore\n      pop\n        /* \"contracts/storage/LibSMEambStorage.sol\":375:401  keccak256(bytes('SMEamb')) */\n      dup1\n      mload\n      swap1\n      0x20\n      add\n      keccak256\n        /* \"contracts/storage/LibSMEambStorage.sol\":4365:4376  _getStorage */\n      tag_250\n        /* \"contracts/storage/LibSMEambStorage.sol\":4365:4382  _getStorage(SLOT) */\n      jump\t// in\n    tag_410:\n        /* \"contracts/storage/LibSMEambStorage.sol\":4365:4400  _getStorage(SLOT)._packedOwnerships */\n      0x10\n      add\n        /* \"contracts/storage/LibSMEambStorage.sol\":4365:4410  _getStorage(SLOT)._packedOwnerships[_tokenId] */\n      0x00\n        /* \"contracts/storage/LibSMEambStorage.sol\":4401:4409  _tokenId */\n      dup5\n        /* \"contracts/storage/LibSMEambStorage.sol\":4365:4410  _getStorage(SLOT)._packedOwnerships[_tokenId] */\n      dup2\n      mstore\n      0x20\n      add\n      swap1\n      dup2\n      mstore\n      0x20\n      add\n      0x00\n      keccak256\n        /* \"contracts/storage/LibSMEambStorage.sol\":4365:4419  _getStorage(SLOT)._packedOwnerships[_tokenId] = _index */\n      dup2\n      swap1\n      sstore\n      pop\n        /* \"contracts/storage/LibSMEambStorage.sol\":4295:4421  function _packedOwnerships(uint256 _tokenId, uint256 _index) external{_getStorage(SLOT)._packedOwnerships[_tokenId] = _index;} */\n      pop\n      pop\n      jump\t// out\n        /* \"contracts/storage/LibSMEambStorage.sol\":5297:5448  function _operatorApprovals(address owner, address operator) external view returns(bool){return _getStorage(SLOT)._operatorApprovals[owner][operator];} */\n    tag_243:\n        /* \"contracts/storage/LibSMEambStorage.sol\":5380:5384  bool */\n      0x00\n        /* \"contracts/storage/LibSMEambStorage.sol\":5393:5410  _getStorage(SLOT) */\n      tag_412\n        /* \"contracts/storage/LibSMEambStorage.sol\":385:400  bytes('SMEamb') */\n      mload(0x40)\n      dup1\n      0x40\n      add\n      0x40\n      mstore\n      dup1\n      0x06\n      dup2\n      mstore\n      0x20\n      add\n      0x534d45616d620000000000000000000000000000000000000000000000000000\n      dup2\n      mstore\n      pop\n        /* \"contracts/storage/LibSMEambStorage.sol\":375:401  keccak256(bytes('SMEamb')) */\n      dup1\n      mload\n      swap1\n      0x20\n      add\n      keccak256\n        /* \"contracts/storage/LibSMEambStorage.sol\":5393:5404  _getStorage */\n      tag_250\n        /* \"contracts/storage/LibSMEambStorage.sol\":5393:5410  _getStorage(SLOT) */\n      jump\t// in\n    tag_412:\n        /* \"contracts/storage/LibSMEambStorage.sol\":5393:5429  _getStorage(SLOT)._operatorApprovals */\n      0x13\n      add\n        /* \"contracts/storage/LibSMEambStorage.sol\":5393:5436  _getStorage(SLOT)._operatorApprovals[owner] */\n      0x00\n        /* \"contracts/storage/LibSMEambStorage.sol\":5430:5435  owner */\n      dup5\n        /* \"contracts/storage/LibSMEambStorage.sol\":5393:5436  _getStorage(SLOT)._operatorApprovals[owner] */\n      0xffffffffffffffffffffffffffffffffffffffff\n      and\n      0xffffffffffffffffffffffffffffffffffffffff\n      and\n      dup2\n      mstore\n      0x20\n      add\n      swap1\n      dup2\n      mstore\n      0x20\n      add\n      0x00\n      keccak256\n        /* \"contracts/storage/LibSMEambStorage.sol\":5393:5446  _getStorage(SLOT)._operatorApprovals[owner][operator] */\n      0x00\n        /* \"contracts/storage/LibSMEambStorage.sol\":5437:5445  operator */\n      dup4\n        /* \"contracts/storage/LibSMEambStorage.sol\":5393:5446  _getStorage(SLOT)._operatorApprovals[owner][operator] */\n      0xffffffffffffffffffffffffffffffffffffffff\n      and\n      0xffffffffffffffffffffffffffffffffffffffff\n      and\n      dup2\n      mstore\n      0x20\n      add\n      swap1\n      dup2\n      mstore\n      0x20\n      add\n      0x00\n      keccak256\n      0x00\n      swap1\n      sload\n      swap1\n      0x0100\n      exp\n      swap1\n      div\n      0xff\n      and\n        /* \"contracts/storage/LibSMEambStorage.sol\":5386:5446  return _getStorage(SLOT)._operatorApprovals[owner][operator] */\n      swap1\n      pop\n        /* \"contracts/storage/LibSMEambStorage.sol\":5297:5448  function _operatorApprovals(address owner, address operator) external view returns(bool){return _getStorage(SLOT)._operatorApprovals[owner][operator];} */\n      swap3\n      swap2\n      pop\n      pop\n      jump\t// out\n        /* \"contracts/storage/LibSMEambStorage.sol\":6710:6808  function legendlistRoot() external view returns(bytes32){return _getStorage(SLOT).legendlistRoot;} */\n    tag_246:\n        /* \"contracts/storage/LibSMEambStorage.sol\":6758:6765  bytes32 */\n      0x00\n        /* \"contracts/storage/LibSMEambStorage.sol\":6774:6791  _getStorage(SLOT) */\n      tag_414\n        /* \"contracts/storage/LibSMEambStorage.sol\":385:400  bytes('SMEamb') */\n      mload(0x40)\n      dup1\n      0x40\n      add\n      0x40\n      mstore\n      dup1\n      0x06\n      dup2\n      mstore\n      0x20\n      add\n      0x534d45616d620000000000000000000000000000000000000000000000000000\n      dup2\n      mstore\n      pop\n        /* \"contracts/storage/LibSMEambStorage.sol\":375:401  keccak256(bytes('SMEamb')) */\n      dup1\n      mload\n      swap1\n      0x20\n      add\n      keccak256\n        /* \"contracts/storage/LibSMEambStorage.sol\":6774:6785  _getStorage */\n      tag_250\n        /* \"contracts/storage/LibSMEambStorage.sol\":6774:6791  _getStorage(SLOT) */\n      jump\t// in\n    tag_414:\n        /* \"contracts/storage/LibSMEambStorage.sol\":6774:6806  _getStorage(SLOT).legendlistRoot */\n      0x08\n      add\n      sload\n        /* \"contracts/storage/LibSMEambStorage.sol\":6767:6806  return _getStorage(SLOT).legendlistRoot */\n      swap1\n      pop\n        /* \"contracts/storage/LibSMEambStorage.sol\":6710:6808  function legendlistRoot() external view returns(bytes32){return _getStorage(SLOT).legendlistRoot;} */\n      swap1\n      jump\t// out\n        /* \"contracts/storage/LibSMEambStorage.sol\":12527:12682  function _getStorage(bytes32 _storage) private pure returns (smeAmbStorage storage s){... */\n    tag_250:\n        /* \"contracts/storage/LibSMEambStorage.sol\":12588:12611  smeAmbStorage storage s */\n      0x00\n        /* \"contracts/storage/LibSMEambStorage.sol\":12656:12664  _storage */\n      dup2\n        /* \"contracts/storage/LibSMEambStorage.sol\":12646:12664  s.slot := _storage */\n      swap1\n      pop\n        /* \"contracts/storage/LibSMEambStorage.sol\":12527:12682  function _getStorage(bytes32 _storage) private pure returns (smeAmbStorage storage s){... */\n      swap2\n      swap1\n      pop\n      jump\t// out\n    tag_375:\n      mload(0x40)\n      dup1\n      0x20\n      add\n      0x40\n      mstore\n      dup1\n      and(0xffffffffffffffffffffffffffffffffffffffff, 0x00)\n      dup2\n      mstore\n      pop\n      swap1\n      jump\t// out\n        /* \"#utility.yul\":7:106   */\n    tag_416:\n        /* \"#utility.yul\":59:65   */\n      0x00\n        /* \"#utility.yul\":93:98   */\n      dup2\n        /* \"#utility.yul\":87:99   */\n      mload\n        /* \"#utility.yul\":77:99   */\n      swap1\n      pop\n        /* \"#utility.yul\":7:106   */\n      swap2\n      swap1\n      pop\n      jump\t// out\n        /* \"#utility.yul\":112:289   */\n    tag_417:\n        /* \"#utility.yul\":204:215   */\n      0x00\n        /* \"#utility.yul\":238:244   */\n      dup3\n        /* \"#utility.yul\":233:236   */\n      dup3\n        /* \"#utility.yul\":226:245   */\n      mstore\n        /* \"#utility.yul\":278:282   */\n      0x20\n        /* \"#utility.yul\":273:276   */\n      dup3\n        /* \"#utility.yul\":269:283   */\n      add\n        /* \"#utility.yul\":254:283   */\n      swap1\n      pop\n        /* \"#utility.yul\":112:289   */\n      swap3\n      swap2\n      pop\n      pop\n      jump\t// out\n        /* \"#utility.yul\":295:541   */\n    tag_418:\n        /* \"#utility.yul\":376:377   */\n      0x00\n        /* \"#utility.yul\":386:499   */\n    tag_479:\n        /* \"#utility.yul\":400:406   */\n      dup4\n        /* \"#utility.yul\":397:398   */\n      dup2\n        /* \"#utility.yul\":394:407   */\n      lt\n        /* \"#utility.yul\":386:499   */\n      iszero\n      tag_481\n      jumpi\n        /* \"#utility.yul\":485:486   */\n      dup1\n        /* \"#utility.yul\":480:483   */\n      dup3\n        /* \"#utility.yul\":476:487   */\n      add\n        /* \"#utility.yul\":470:488   */\n      mload\n        /* \"#utility.yul\":466:467   */\n      dup2\n        /* \"#utility.yul\":461:464   */\n      dup5\n        /* \"#utility.yul\":457:468   */\n      add\n        /* \"#utility.yul\":450:489   */\n      mstore\n        /* \"#utility.yul\":422:424   */\n      0x20\n        /* \"#utility.yul\":419:420   */\n      dup2\n        /* \"#utility.yul\":415:425   */\n      add\n        /* \"#utility.yul\":410:425   */\n      swap1\n      pop\n        /* \"#utility.yul\":386:499   */\n      jump(tag_479)\n    tag_481:\n        /* \"#utility.yul\":533:534   */\n      0x00\n        /* \"#utility.yul\":524:530   */\n      dup5\n        /* \"#utility.yul\":519:522   */\n      dup5\n        /* \"#utility.yul\":515:531   */\n      add\n        /* \"#utility.yul\":508:535   */\n      mstore\n        /* \"#utility.yul\":357:541   */\n      pop\n        /* \"#utility.yul\":295:541   */\n      pop\n      pop\n      pop\n      jump\t// out\n        /* \"#utility.yul\":547:649   */\n    tag_419:\n        /* \"#utility.yul\":588:594   */\n      0x00\n        /* \"#utility.yul\":639:641   */\n      0x1f\n        /* \"#utility.yul\":635:642   */\n      not\n        /* \"#utility.yul\":630:632   */\n      0x1f\n        /* \"#utility.yul\":623:628   */\n      dup4\n        /* \"#utility.yul\":619:633   */\n      add\n        /* \"#utility.yul\":615:643   */\n      and\n        /* \"#utility.yul\":605:643   */\n      swap1\n      pop\n        /* \"#utility.yul\":547:649   */\n      swap2\n      swap1\n      pop\n      jump\t// out\n        /* \"#utility.yul\":655:1048   */\n    tag_420:\n        /* \"#utility.yul\":751:754   */\n      0x00\n        /* \"#utility.yul\":779:818   */\n      tag_484\n        /* \"#utility.yul\":812:817   */\n      dup3\n        /* \"#utility.yul\":779:818   */\n      tag_416\n      jump\t// in\n    tag_484:\n        /* \"#utility.yul\":834:913   */\n      tag_485\n        /* \"#utility.yul\":906:912   */\n      dup2\n        /* \"#utility.yul\":901:904   */\n      dup6\n        /* \"#utility.yul\":834:913   */\n      tag_417\n      jump\t// in\n    tag_485:\n        /* \"#utility.yul\":827:913   */\n      swap4\n      pop\n        /* \"#utility.yul\":922:987   */\n      tag_486\n        /* \"#utility.yul\":980:986   */\n      dup2\n        /* \"#utility.yul\":975:978   */\n      dup6\n        /* \"#utility.yul\":968:972   */\n      0x20\n        /* \"#utility.yul\":961:966   */\n      dup7\n        /* \"#utility.yul\":957:973   */\n      add\n        /* \"#utility.yul\":922:987   */\n      tag_418\n      jump\t// in\n    tag_486:\n        /* \"#utility.yul\":1012:1041   */\n      tag_487\n        /* \"#utility.yul\":1034:1040   */\n      dup2\n        /* \"#utility.yul\":1012:1041   */\n      tag_419\n      jump\t// in\n    tag_487:\n        /* \"#utility.yul\":1007:1010   */\n      dup5\n        /* \"#utility.yul\":1003:1042   */\n      add\n        /* \"#utility.yul\":996:1042   */\n      swap2\n      pop\n        /* \"#utility.yul\":755:1048   */\n      pop\n        /* \"#utility.yul\":655:1048   */\n      swap3\n      swap2\n      pop\n      pop\n      jump\t// out\n        /* \"#utility.yul\":1054:1383   */\n    tag_59:\n        /* \"#utility.yul\":1175:1179   */\n      0x00\n        /* \"#utility.yul\":1213:1215   */\n      0x20\n        /* \"#utility.yul\":1202:1211   */\n      dup3\n        /* \"#utility.yul\":1198:1216   */\n      add\n        /* \"#utility.yul\":1190:1216   */\n      swap1\n      pop\n        /* \"#utility.yul\":1262:1271   */\n      dup2\n        /* \"#utility.yul\":1256:1260   */\n      dup2\n        /* \"#utility.yul\":1252:1272   */\n      sub\n        /* \"#utility.yul\":1248:1249   */\n      0x00\n        /* \"#utility.yul\":1237:1246   */\n      dup4\n        /* \"#utility.yul\":1233:1250   */\n      add\n        /* \"#utility.yul\":1226:1273   */\n      mstore\n        /* \"#utility.yul\":1290:1376   */\n      tag_489\n        /* \"#utility.yul\":1371:1375   */\n      dup2\n        /* \"#utility.yul\":1362:1368   */\n      dup5\n        /* \"#utility.yul\":1290:1376   */\n      tag_420\n      jump\t// in\n    tag_489:\n        /* \"#utility.yul\":1282:1376   */\n      swap1\n      pop\n        /* \"#utility.yul\":1054:1383   */\n      swap3\n      swap2\n      pop\n      pop\n      jump\t// out\n        /* \"#utility.yul\":1389:1464   */\n    tag_421:\n        /* \"#utility.yul\":1422:1428   */\n      0x00\n        /* \"#utility.yul\":1455:1457   */\n      0x40\n        /* \"#utility.yul\":1449:1458   */\n      mload\n        /* \"#utility.yul\":1439:1458   */\n      swap1\n      pop\n        /* \"#utility.yul\":1389:1464   */\n      swap1\n      jump\t// out\n        /* \"#utility.yul\":1470:1587   */\n    tag_422:\n        /* \"#utility.yul\":1579:1580   */\n      0x00\n        /* \"#utility.yul\":1576:1577   */\n      dup1\n        /* \"#utility.yul\":1569:1581   */\n      revert\n        /* \"#utility.yul\":1593:1710   */\n    tag_423:\n        /* \"#utility.yul\":1702:1703   */\n      0x00\n        /* \"#utility.yul\":1699:1700   */\n      dup1\n        /* \"#utility.yul\":1692:1704   */\n      revert\n        /* \"#utility.yul\":1716:1842   */\n    tag_424:\n        /* \"#utility.yul\":1753:1760   */\n      0x00\n        /* \"#utility.yul\":1793:1835   */\n      0xffffffffffffffffffffffffffffffffffffffff\n        /* \"#utility.yul\":1786:1791   */\n      dup3\n        /* \"#utility.yul\":1782:1836   */\n      and\n        /* \"#utility.yul\":1771:1836   */\n      swap1\n      pop\n        /* \"#utility.yul\":1716:1842   */\n      swap2\n      swap1\n      pop\n      jump\t// out\n        /* \"#utility.yul\":1848:1944   */\n    tag_425:\n        /* \"#utility.yul\":1885:1892   */\n      0x00\n        /* \"#utility.yul\":1914:1938   */\n      tag_495\n        /* \"#utility.yul\":1932:1937   */\n      dup3\n        /* \"#utility.yul\":1914:1938   */\n      tag_424\n      jump\t// in\n    tag_495:\n        /* \"#utility.yul\":1903:1938   */\n      swap1\n      pop\n        /* \"#utility.yul\":1848:1944   */\n      swap2\n      swap1\n      pop\n      jump\t// out\n        /* \"#utility.yul\":1950:2072   */\n    tag_426:\n        /* \"#utility.yul\":2023:2047   */\n      tag_497\n        /* \"#utility.yul\":2041:2046   */\n      dup2\n        /* \"#utility.yul\":2023:2047   */\n      tag_425\n      jump\t// in\n    tag_497:\n        /* \"#utility.yul\":2016:2021   */\n      dup2\n        /* \"#utility.yul\":2013:2048   */\n      eq\n        /* \"#utility.yul\":2003:2066   */\n      tag_498\n      jumpi\n        /* \"#utility.yul\":2062:2063   */\n      0x00\n        /* \"#utility.yul\":2059:2060   */\n      dup1\n        /* \"#utility.yul\":2052:2064   */\n      revert\n        /* \"#utility.yul\":2003:2066   */\n    tag_498:\n        /* \"#utility.yul\":1950:2072   */\n      pop\n      jump\t// out\n        /* \"#utility.yul\":2078:2217   */\n    tag_427:\n        /* \"#utility.yul\":2124:2129   */\n      0x00\n        /* \"#utility.yul\":2162:2168   */\n      dup2\n        /* \"#utility.yul\":2149:2169   */\n      calldataload\n        /* \"#utility.yul\":2140:2169   */\n      swap1\n      pop\n        /* \"#utility.yul\":2178:2211   */\n      tag_500\n        /* \"#utility.yul\":2205:2210   */\n      dup2\n        /* \"#utility.yul\":2178:2211   */\n      tag_426\n      jump\t// in\n    tag_500:\n        /* \"#utility.yul\":2078:2217   */\n      swap3\n      swap2\n      pop\n      pop\n      jump\t// out\n        /* \"#utility.yul\":2223:2300   */\n    tag_428:\n        /* \"#utility.yul\":2260:2267   */\n      0x00\n        /* \"#utility.yul\":2289:2294   */\n      dup2\n        /* \"#utility.yul\":2278:2294   */\n      swap1\n      pop\n        /* \"#utility.yul\":2223:2300   */\n      swap2\n      swap1\n      pop\n      jump\t// out\n        /* \"#utility.yul\":2306:2428   */\n    tag_429:\n        /* \"#utility.yul\":2379:2403   */\n      tag_503\n        /* \"#utility.yul\":2397:2402   */\n      dup2\n        /* \"#utility.yul\":2379:2403   */\n      tag_428\n      jump\t// in\n    tag_503:\n        /* \"#utility.yul\":2372:2377   */\n      dup2\n        /* \"#utility.yul\":2369:2404   */\n      eq\n        /* \"#utility.yul\":2359:2422   */\n      tag_504\n      jumpi\n        /* \"#utility.yul\":2418:2419   */\n      0x00\n        /* \"#utility.yul\":2415:2416   */\n      dup1\n        /* \"#utility.yul\":2408:2420   */\n      revert\n        /* \"#utility.yul\":2359:2422   */\n    tag_504:\n        /* \"#utility.yul\":2306:2428   */\n      pop\n      jump\t// out\n        /* \"#utility.yul\":2434:2573   */\n    tag_430:\n        /* \"#utility.yul\":2480:2485   */\n      0x00\n        /* \"#utility.yul\":2518:2524   */\n      dup2\n        /* \"#utility.yul\":2505:2525   */\n      calldataload\n        /* \"#utility.yul\":2496:2525   */\n      swap1\n      pop\n        /* \"#utility.yul\":2534:2567   */\n      tag_506\n        /* \"#utility.yul\":2561:2566   */\n      dup2\n        /* \"#utility.yul\":2534:2567   */\n      tag_429\n      jump\t// in\n    tag_506:\n        /* \"#utility.yul\":2434:2573   */\n      swap3\n      swap2\n      pop\n      pop\n      jump\t// out\n        /* \"#utility.yul\":2579:3198   */\n    tag_63:\n        /* \"#utility.yul\":2656:2662   */\n      0x00\n        /* \"#utility.yul\":2664:2670   */\n      dup1\n        /* \"#utility.yul\":2672:2678   */\n      0x00\n        /* \"#utility.yul\":2721:2723   */\n      0x60\n        /* \"#utility.yul\":2709:2718   */\n      dup5\n        /* \"#utility.yul\":2700:2707   */\n      dup7\n        /* \"#utility.yul\":2696:2719   */\n      sub\n        /* \"#utility.yul\":2692:2724   */\n      slt\n        /* \"#utility.yul\":2689:2808   */\n      iszero\n      tag_508\n      jumpi\n        /* \"#utility.yul\":2727:2806   */\n      tag_509\n      tag_422\n      jump\t// in\n    tag_509:\n        /* \"#utility.yul\":2689:2808   */\n    tag_508:\n        /* \"#utility.yul\":2847:2848   */\n      0x00\n        /* \"#utility.yul\":2872:2925   */\n      tag_510\n        /* \"#utility.yul\":2917:2924   */\n      dup7\n        /* \"#utility.yul\":2908:2914   */\n      dup3\n        /* \"#utility.yul\":2897:2906   */\n      dup8\n        /* \"#utility.yul\":2893:2915   */\n      add\n        /* \"#utility.yul\":2872:2925   */\n      tag_427\n      jump\t// in\n    tag_510:\n        /* \"#utility.yul\":2862:2925   */\n      swap4\n      pop\n        /* \"#utility.yul\":2818:2935   */\n      pop\n        /* \"#utility.yul\":2974:2976   */\n      0x20\n        /* \"#utility.yul\":3000:3053   */\n      tag_511\n        /* \"#utility.yul\":3045:3052   */\n      dup7\n        /* \"#utility.yul\":3036:3042   */\n      dup3\n        /* \"#utility.yul\":3025:3034   */\n      dup8\n        /* \"#utility.yul\":3021:3043   */\n      add\n        /* \"#utility.yul\":3000:3053   */\n      tag_430\n      jump\t// in\n    tag_511:\n        /* \"#utility.yul\":2990:3053   */\n      swap3\n      pop\n        /* \"#utility.yul\":2945:3063   */\n      pop\n        /* \"#utility.yul\":3102:3104   */\n      0x40\n        /* \"#utility.yul\":3128:3181   */\n      tag_512\n        /* \"#utility.yul\":3173:3180   */\n      dup7\n        /* \"#utility.yul\":3164:3170   */\n      dup3\n        /* \"#utility.yul\":3153:3162   */\n      dup8\n        /* \"#utility.yul\":3149:3171   */\n      add\n        /* \"#utility.yul\":3128:3181   */\n      tag_430\n      jump\t// in\n    tag_512:\n        /* \"#utility.yul\":3118:3181   */\n      swap2\n      pop\n        /* \"#utility.yul\":3073:3191   */\n      pop\n        /* \"#utility.yul\":2579:3198   */\n      swap3\n      pop\n      swap3\n      pop\n      swap3\n      jump\t// out\n        /* \"#utility.yul\":3204:3678   */\n    tag_68:\n        /* \"#utility.yul\":3272:3278   */\n      0x00\n        /* \"#utility.yul\":3280:3286   */\n      dup1\n        /* \"#utility.yul\":3329:3331   */\n      0x40\n        /* \"#utility.yul\":3317:3326   */\n      dup4\n        /* \"#utility.yul\":3308:3315   */\n      dup6\n        /* \"#utility.yul\":3304:3327   */\n      sub\n        /* \"#utility.yul\":3300:3332   */\n      slt\n        /* \"#utility.yul\":3297:3416   */\n      iszero\n      tag_514\n      jumpi\n        /* \"#utility.yul\":3335:3414   */\n      tag_515\n      tag_422\n      jump\t// in\n    tag_515:\n        /* \"#utility.yul\":3297:3416   */\n    tag_514:\n        /* \"#utility.yul\":3455:3456   */\n      0x00\n        /* \"#utility.yul\":3480:3533   */\n      tag_516\n        /* \"#utility.yul\":3525:3532   */\n      dup6\n        /* \"#utility.yul\":3516:3522   */\n      dup3\n        /* \"#utility.yul\":3505:3514   */\n      dup7\n        /* \"#utility.yul\":3501:3523   */\n      add\n        /* \"#utility.yul\":3480:3533   */\n      tag_430\n      jump\t// in\n    tag_516:\n        /* \"#utility.yul\":3470:3533   */\n      swap3\n      pop\n        /* \"#utility.yul\":3426:3543   */\n      pop\n        /* \"#utility.yul\":3582:3584   */\n      0x20\n        /* \"#utility.yul\":3608:3661   */\n      tag_517\n        /* \"#utility.yul\":3653:3660   */\n      dup6\n        /* \"#utility.yul\":3644:3650   */\n      dup3\n        /* \"#utility.yul\":3633:3642   */\n      dup7\n        /* \"#utility.yul\":3629:3651   */\n      add\n        /* \"#utility.yul\":3608:3661   */\n      tag_427\n      jump\t// in\n    tag_517:\n        /* \"#utility.yul\":3598:3661   */\n      swap2\n      pop\n        /* \"#utility.yul\":3553:3671   */\n      pop\n        /* \"#utility.yul\":3204:3678   */\n      swap3\n      pop\n      swap3\n      swap1\n      pop\n      jump\t// out\n        /* \"#utility.yul\":3684:3761   */\n    tag_431:\n        /* \"#utility.yul\":3721:3728   */\n      0x00\n        /* \"#utility.yul\":3750:3755   */\n      dup2\n        /* \"#utility.yul\":3739:3755   */\n      swap1\n      pop\n        /* \"#utility.yul\":3684:3761   */\n      swap2\n      swap1\n      pop\n      jump\t// out\n        /* \"#utility.yul\":3767:3893   */\n    tag_432:\n        /* \"#utility.yul\":3862:3886   */\n      tag_520\n        /* \"#utility.yul\":3880:3885   */\n      dup2\n        /* \"#utility.yul\":3862:3886   */\n      tag_431\n      jump\t// in\n    tag_520:\n        /* \"#utility.yul\":3857:3860   */\n      dup3\n        /* \"#utility.yul\":3850:3887   */\n      mstore\n        /* \"#utility.yul\":3767:3893   */\n      pop\n      pop\n      jump\t// out\n        /* \"#utility.yul\":3899:4137   */\n    tag_73:\n        /* \"#utility.yul\":4000:4004   */\n      0x00\n        /* \"#utility.yul\":4038:4040   */\n      0x20\n        /* \"#utility.yul\":4027:4036   */\n      dup3\n        /* \"#utility.yul\":4023:4041   */\n      add\n        /* \"#utility.yul\":4015:4041   */\n      swap1\n      pop\n        /* \"#utility.yul\":4051:4130   */\n      tag_522\n        /* \"#utility.yul\":4127:4128   */\n      0x00\n        /* \"#utility.yul\":4116:4125   */\n      dup4\n        /* \"#utility.yul\":4112:4129   */\n      add\n        /* \"#utility.yul\":4103:4109   */\n      dup5\n        /* \"#utility.yul\":4051:4130   */\n      tag_432\n      jump\t// in\n    tag_522:\n        /* \"#utility.yul\":3899:4137   */\n      swap3\n      swap2\n      pop\n      pop\n      jump\t// out\n        /* \"#utility.yul\":4143:4472   */\n    tag_76:\n        /* \"#utility.yul\":4202:4208   */\n      0x00\n        /* \"#utility.yul\":4251:4253   */\n      0x20\n        /* \"#utility.yul\":4239:4248   */\n      dup3\n        /* \"#utility.yul\":4230:4237   */\n      dup5\n        /* \"#utility.yul\":4226:4249   */\n      sub\n        /* \"#utility.yul\":4222:4254   */\n      slt\n        /* \"#utility.yul\":4219:4338   */\n      iszero\n      tag_524\n      jumpi\n        /* \"#utility.yul\":4257:4336   */\n      tag_525\n      tag_422\n      jump\t// in\n    tag_525:\n        /* \"#utility.yul\":4219:4338   */\n    tag_524:\n        /* \"#utility.yul\":4377:4378   */\n      0x00\n        /* \"#utility.yul\":4402:4455   */\n      tag_526\n        /* \"#utility.yul\":4447:4454   */\n      dup5\n        /* \"#utility.yul\":4438:4444   */\n      dup3\n        /* \"#utility.yul\":4427:4436   */\n      dup6\n        /* \"#utility.yul\":4423:4445   */\n      add\n        /* \"#utility.yul\":4402:4455   */\n      tag_427\n      jump\t// in\n    tag_526:\n        /* \"#utility.yul\":4392:4455   */\n      swap2\n      pop\n        /* \"#utility.yul\":4348:4465   */\n      pop\n        /* \"#utility.yul\":4143:4472   */\n      swap3\n      swap2\n      pop\n      pop\n      jump\t// out\n        /* \"#utility.yul\":4478:4604   */\n    tag_433:\n        /* \"#utility.yul\":4573:4597   */\n      tag_528\n        /* \"#utility.yul\":4591:4596   */\n      dup2\n        /* \"#utility.yul\":4573:4597   */\n      tag_428\n      jump\t// in\n    tag_528:\n        /* \"#utility.yul\":4568:4571   */\n      dup3\n        /* \"#utility.yul\":4561:4598   */\n      mstore\n        /* \"#utility.yul\":4478:4604   */\n      pop\n      pop\n      jump\t// out\n        /* \"#utility.yul\":4610:4848   */\n    tag_79:\n        /* \"#utility.yul\":4711:4715   */\n      0x00\n        /* \"#utility.yul\":4749:4751   */\n      0x20\n        /* \"#utility.yul\":4738:4747   */\n      dup3\n        /* \"#utility.yul\":4734:4752   */\n      add\n        /* \"#utility.yul\":4726:4752   */\n      swap1\n      pop\n        /* \"#utility.yul\":4762:4841   */\n      tag_530\n        /* \"#utility.yul\":4838:4839   */\n      0x00\n        /* \"#utility.yul\":4827:4836   */\n      dup4\n        /* \"#utility.yul\":4823:4840   */\n      add\n        /* \"#utility.yul\":4814:4820   */\n      dup5\n        /* \"#utility.yul\":4762:4841   */\n      tag_433\n      jump\t// in\n    tag_530:\n        /* \"#utility.yul\":4610:4848   */\n      swap3\n      swap2\n      pop\n      pop\n      jump\t// out\n        /* \"#utility.yul\":4854:4976   */\n    tag_434:\n        /* \"#utility.yul\":4927:4951   */\n      tag_532\n        /* \"#utility.yul\":4945:4950   */\n      dup2\n        /* \"#utility.yul\":4927:4951   */\n      tag_431\n      jump\t// in\n    tag_532:\n        /* \"#utility.yul\":4920:4925   */\n      dup2\n        /* \"#utility.yul\":4917:4952   */\n      eq\n        /* \"#utility.yul\":4907:4970   */\n      tag_533\n      jumpi\n        /* \"#utility.yul\":4966:4967   */\n      0x00\n        /* \"#utility.yul\":4963:4964   */\n      dup1\n        /* \"#utility.yul\":4956:4968   */\n      revert\n        /* \"#utility.yul\":4907:4970   */\n    tag_533:\n        /* \"#utility.yul\":4854:4976   */\n      pop\n      jump\t// out\n        /* \"#utility.yul\":4982:5121   */\n    tag_435:\n        /* \"#utility.yul\":5028:5033   */\n      0x00\n        /* \"#utility.yul\":5066:5072   */\n      dup2\n        /* \"#utility.yul\":5053:5073   */\n      calldataload\n        /* \"#utility.yul\":5044:5073   */\n      swap1\n      pop\n        /* \"#utility.yul\":5082:5115   */\n      tag_535\n        /* \"#utility.yul\":5109:5114   */\n      dup2\n        /* \"#utility.yul\":5082:5115   */\n      tag_434\n      jump\t// in\n    tag_535:\n        /* \"#utility.yul\":4982:5121   */\n      swap3\n      swap2\n      pop\n      pop\n      jump\t// out\n        /* \"#utility.yul\":5127:5456   */\n    tag_83:\n        /* \"#utility.yul\":5186:5192   */\n      0x00\n        /* \"#utility.yul\":5235:5237   */\n      0x20\n        /* \"#utility.yul\":5223:5232   */\n      dup3\n        /* \"#utility.yul\":5214:5221   */\n      dup5\n        /* \"#utility.yul\":5210:5233   */\n      sub\n        /* \"#utility.yul\":5206:5238   */\n      slt\n        /* \"#utility.yul\":5203:5322   */\n      iszero\n      tag_537\n      jumpi\n        /* \"#utility.yul\":5241:5320   */\n      tag_538\n      tag_422\n      jump\t// in\n    tag_538:\n        /* \"#utility.yul\":5203:5322   */\n    tag_537:\n        /* \"#utility.yul\":5361:5362   */\n      0x00\n        /* \"#utility.yul\":5386:5439   */\n      tag_539\n        /* \"#utility.yul\":5431:5438   */\n      dup5\n        /* \"#utility.yul\":5422:5428   */\n      dup3\n        /* \"#utility.yul\":5411:5420   */\n      dup6\n        /* \"#utility.yul\":5407:5429   */\n      add\n        /* \"#utility.yul\":5386:5439   */\n      tag_435\n      jump\t// in\n    tag_539:\n        /* \"#utility.yul\":5376:5439   */\n      swap2\n      pop\n        /* \"#utility.yul\":5332:5449   */\n      pop\n        /* \"#utility.yul\":5127:5456   */\n      swap3\n      swap2\n      pop\n      pop\n      jump\t// out\n        /* \"#utility.yul\":5462:5791   */\n    tag_92:\n        /* \"#utility.yul\":5521:5527   */\n      0x00\n        /* \"#utility.yul\":5570:5572   */\n      0x20\n        /* \"#utility.yul\":5558:5567   */\n      dup3\n        /* \"#utility.yul\":5549:5556   */\n      dup5\n        /* \"#utility.yul\":5545:5568   */\n      sub\n        /* \"#utility.yul\":5541:5573   */\n      slt\n        /* \"#utility.yul\":5538:5657   */\n      iszero\n      tag_541\n      jumpi\n        /* \"#utility.yul\":5576:5655   */\n      tag_542\n      tag_422\n      jump\t// in\n    tag_542:\n        /* \"#utility.yul\":5538:5657   */\n    tag_541:\n        /* \"#utility.yul\":5696:5697   */\n      0x00\n        /* \"#utility.yul\":5721:5774   */\n      tag_543\n        /* \"#utility.yul\":5766:5773   */\n      dup5\n        /* \"#utility.yul\":5757:5763   */\n      dup3\n        /* \"#utility.yul\":5746:5755   */\n      dup6\n        /* \"#utility.yul\":5742:5764   */\n      add\n        /* \"#utility.yul\":5721:5774   */\n      tag_430\n      jump\t// in\n    tag_543:\n        /* \"#utility.yul\":5711:5774   */\n      swap2\n      pop\n        /* \"#utility.yul\":5667:5784   */\n      pop\n        /* \"#utility.yul\":5462:5791   */\n      swap3\n      swap2\n      pop\n      pop\n      jump\t// out\n        /* \"#utility.yul\":5797:5914   */\n    tag_436:\n        /* \"#utility.yul\":5906:5907   */\n      0x00\n        /* \"#utility.yul\":5903:5904   */\n      dup1\n        /* \"#utility.yul\":5896:5908   */\n      revert\n        /* \"#utility.yul\":5920:6037   */\n    tag_437:\n        /* \"#utility.yul\":6029:6030   */\n      0x00\n        /* \"#utility.yul\":6026:6027   */\n      dup1\n        /* \"#utility.yul\":6019:6031   */\n      revert\n        /* \"#utility.yul\":6043:6223   */\n    tag_438:\n        /* \"#utility.yul\":6091:6168   */\n      0x4e487b7100000000000000000000000000000000000000000000000000000000\n        /* \"#utility.yul\":6088:6089   */\n      0x00\n        /* \"#utility.yul\":6081:6169   */\n      mstore\n        /* \"#utility.yul\":6188:6192   */\n      0x41\n        /* \"#utility.yul\":6185:6186   */\n      0x04\n        /* \"#utility.yul\":6178:6193   */\n      mstore\n        /* \"#utility.yul\":6212:6216   */\n      0x24\n        /* \"#utility.yul\":6209:6210   */\n      0x00\n        /* \"#utility.yul\":6202:6217   */\n      revert\n        /* \"#utility.yul\":6229:6510   */\n    tag_439:\n        /* \"#utility.yul\":6312:6339   */\n      tag_548\n        /* \"#utility.yul\":6334:6338   */\n      dup3\n        /* \"#utility.yul\":6312:6339   */\n      tag_419\n      jump\t// in\n    tag_548:\n        /* \"#utility.yul\":6304:6310   */\n      dup2\n        /* \"#utility.yul\":6300:6340   */\n      add\n        /* \"#utility.yul\":6442:6448   */\n      dup2\n        /* \"#utility.yul\":6430:6440   */\n      dup2\n        /* \"#utility.yul\":6427:6449   */\n      lt\n        /* \"#utility.yul\":6406:6424   */\n      0xffffffffffffffff\n        /* \"#utility.yul\":6394:6404   */\n      dup3\n        /* \"#utility.yul\":6391:6425   */\n      gt\n        /* \"#utility.yul\":6388:6450   */\n      or\n        /* \"#utility.yul\":6385:6473   */\n      iszero\n      tag_549\n      jumpi\n        /* \"#utility.yul\":6453:6471   */\n      tag_550\n      tag_438\n      jump\t// in\n    tag_550:\n        /* \"#utility.yul\":6385:6473   */\n    tag_549:\n        /* \"#utility.yul\":6493:6503   */\n      dup1\n        /* \"#utility.yul\":6489:6491   */\n      0x40\n        /* \"#utility.yul\":6482:6504   */\n      mstore\n        /* \"#utility.yul\":6272:6510   */\n      pop\n        /* \"#utility.yul\":6229:6510   */\n      pop\n      pop\n      jump\t// out\n        /* \"#utility.yul\":6516:6645   */\n    tag_440:\n        /* \"#utility.yul\":6550:6556   */\n      0x00\n        /* \"#utility.yul\":6577:6597   */\n      tag_552\n      tag_421\n      jump\t// in\n    tag_552:\n        /* \"#utility.yul\":6567:6597   */\n      swap1\n      pop\n        /* \"#utility.yul\":6606:6639   */\n      tag_553\n        /* \"#utility.yul\":6634:6638   */\n      dup3\n        /* \"#utility.yul\":6626:6632   */\n      dup3\n        /* \"#utility.yul\":6606:6639   */\n      tag_439\n      jump\t// in\n    tag_553:\n        /* \"#utility.yul\":6516:6645   */\n      swap2\n      swap1\n      pop\n      jump\t// out\n        /* \"#utility.yul\":6651:6959   */\n    tag_441:\n        /* \"#utility.yul\":6713:6717   */\n      0x00\n        /* \"#utility.yul\":6803:6821   */\n      0xffffffffffffffff\n        /* \"#utility.yul\":6795:6801   */\n      dup3\n        /* \"#utility.yul\":6792:6822   */\n      gt\n        /* \"#utility.yul\":6789:6845   */\n      iszero\n      tag_555\n      jumpi\n        /* \"#utility.yul\":6825:6843   */\n      tag_556\n      tag_438\n      jump\t// in\n    tag_556:\n        /* \"#utility.yul\":6789:6845   */\n    tag_555:\n        /* \"#utility.yul\":6863:6892   */\n      tag_557\n        /* \"#utility.yul\":6885:6891   */\n      dup3\n        /* \"#utility.yul\":6863:6892   */\n      tag_419\n      jump\t// in\n    tag_557:\n        /* \"#utility.yul\":6855:6892   */\n      swap1\n      pop\n        /* \"#utility.yul\":6947:6951   */\n      0x20\n        /* \"#utility.yul\":6941:6945   */\n      dup2\n        /* \"#utility.yul\":6937:6952   */\n      add\n        /* \"#utility.yul\":6929:6952   */\n      swap1\n      pop\n        /* \"#utility.yul\":6651:6959   */\n      swap2\n      swap1\n      pop\n      jump\t// out\n        /* \"#utility.yul\":6965:7111   */\n    tag_442:\n        /* \"#utility.yul\":7062:7068   */\n      dup3\n        /* \"#utility.yul\":7057:7060   */\n      dup2\n        /* \"#utility.yul\":7052:7055   */\n      dup4\n        /* \"#utility.yul\":7039:7069   */\n      calldatacopy\n        /* \"#utility.yul\":7103:7104   */\n      0x00\n        /* \"#utility.yul\":7094:7100   */\n      dup4\n        /* \"#utility.yul\":7089:7092   */\n      dup4\n        /* \"#utility.yul\":7085:7101   */\n      add\n        /* \"#utility.yul\":7078:7105   */\n      mstore\n        /* \"#utility.yul\":6965:7111   */\n      pop\n      pop\n      pop\n      jump\t// out\n        /* \"#utility.yul\":7117:7542   */\n    tag_443:\n        /* \"#utility.yul\":7195:7200   */\n      0x00\n        /* \"#utility.yul\":7220:7286   */\n      tag_560\n        /* \"#utility.yul\":7236:7285   */\n      tag_561\n        /* \"#utility.yul\":7278:7284   */\n      dup5\n        /* \"#utility.yul\":7236:7285   */\n      tag_441\n      jump\t// in\n    tag_561:\n        /* \"#utility.yul\":7220:7286   */\n      tag_440\n      jump\t// in\n    tag_560:\n        /* \"#utility.yul\":7211:7286   */\n      swap1\n      pop\n        /* \"#utility.yul\":7309:7315   */\n      dup3\n        /* \"#utility.yul\":7302:7307   */\n      dup2\n        /* \"#utility.yul\":7295:7316   */\n      mstore\n        /* \"#utility.yul\":7347:7351   */\n      0x20\n        /* \"#utility.yul\":7340:7345   */\n      dup2\n        /* \"#utility.yul\":7336:7352   */\n      add\n        /* \"#utility.yul\":7385:7388   */\n      dup5\n        /* \"#utility.yul\":7376:7382   */\n      dup5\n        /* \"#utility.yul\":7371:7374   */\n      dup5\n        /* \"#utility.yul\":7367:7383   */\n      add\n        /* \"#utility.yul\":7364:7389   */\n      gt\n        /* \"#utility.yul\":7361:7473   */\n      iszero\n      tag_562\n      jumpi\n        /* \"#utility.yul\":7392:7471   */\n      tag_563\n      tag_437\n      jump\t// in\n    tag_563:\n        /* \"#utility.yul\":7361:7473   */\n    tag_562:\n        /* \"#utility.yul\":7482:7536   */\n      tag_564\n        /* \"#utility.yul\":7529:7535   */\n      dup5\n        /* \"#utility.yul\":7524:7527   */\n      dup3\n        /* \"#utility.yul\":7519:7522   */\n      dup6\n        /* \"#utility.yul\":7482:7536   */\n      tag_442\n      jump\t// in\n    tag_564:\n        /* \"#utility.yul\":7201:7542   */\n      pop\n        /* \"#utility.yul\":7117:7542   */\n      swap4\n      swap3\n      pop\n      pop\n      pop\n      jump\t// out\n        /* \"#utility.yul\":7562:7902   */\n    tag_444:\n        /* \"#utility.yul\":7618:7623   */\n      0x00\n        /* \"#utility.yul\":7667:7670   */\n      dup3\n        /* \"#utility.yul\":7660:7664   */\n      0x1f\n        /* \"#utility.yul\":7652:7658   */\n      dup4\n        /* \"#utility.yul\":7648:7665   */\n      add\n        /* \"#utility.yul\":7644:7671   */\n      slt\n        /* \"#utility.yul\":7634:7756   */\n      tag_566\n      jumpi\n        /* \"#utility.yul\":7675:7754   */\n      tag_567\n      tag_436\n      jump\t// in\n    tag_567:\n        /* \"#utility.yul\":7634:7756   */\n    tag_566:\n        /* \"#utility.yul\":7792:7798   */\n      dup2\n        /* \"#utility.yul\":7779:7799   */\n      calldataload\n        /* \"#utility.yul\":7817:7896   */\n      tag_568\n        /* \"#utility.yul\":7892:7895   */\n      dup5\n        /* \"#utility.yul\":7884:7890   */\n      dup3\n        /* \"#utility.yul\":7877:7881   */\n      0x20\n        /* \"#utility.yul\":7869:7875   */\n      dup7\n        /* \"#utility.yul\":7865:7882   */\n      add\n        /* \"#utility.yul\":7817:7896   */\n      tag_443\n      jump\t// in\n    tag_568:\n        /* \"#utility.yul\":7808:7896   */\n      swap2\n      pop\n        /* \"#utility.yul\":7624:7902   */\n      pop\n        /* \"#utility.yul\":7562:7902   */\n      swap3\n      swap2\n      pop\n      pop\n      jump\t// out\n        /* \"#utility.yul\":7908:8417   */\n    tag_116:\n        /* \"#utility.yul\":7977:7983   */\n      0x00\n        /* \"#utility.yul\":8026:8028   */\n      0x20\n        /* \"#utility.yul\":8014:8023   */\n      dup3\n        /* \"#utility.yul\":8005:8012   */\n      dup5\n        /* \"#utility.yul\":8001:8024   */\n      sub\n        /* \"#utility.yul\":7997:8029   */\n      slt\n        /* \"#utility.yul\":7994:8113   */\n      iszero\n      tag_570\n      jumpi\n        /* \"#utility.yul\":8032:8111   */\n      tag_571\n      tag_422\n      jump\t// in\n    tag_571:\n        /* \"#utility.yul\":7994:8113   */\n    tag_570:\n        /* \"#utility.yul\":8180:8181   */\n      0x00\n        /* \"#utility.yul\":8169:8178   */\n      dup3\n        /* \"#utility.yul\":8165:8182   */\n      add\n        /* \"#utility.yul\":8152:8183   */\n      calldataload\n        /* \"#utility.yul\":8210:8228   */\n      0xffffffffffffffff\n        /* \"#utility.yul\":8202:8208   */\n      dup2\n        /* \"#utility.yul\":8199:8229   */\n      gt\n        /* \"#utility.yul\":8196:8313   */\n      iszero\n      tag_572\n      jumpi\n        /* \"#utility.yul\":8232:8311   */\n      tag_573\n      tag_423\n      jump\t// in\n    tag_573:\n        /* \"#utility.yul\":8196:8313   */\n    tag_572:\n        /* \"#utility.yul\":8337:8400   */\n      tag_574\n        /* \"#utility.yul\":8392:8399   */\n      dup5\n        /* \"#utility.yul\":8383:8389   */\n      dup3\n        /* \"#utility.yul\":8372:8381   */\n      dup6\n        /* \"#utility.yul\":8368:8390   */\n      add\n        /* \"#utility.yul\":8337:8400   */\n      tag_444\n      jump\t// in\n    tag_574:\n        /* \"#utility.yul\":8327:8400   */\n      swap2\n      pop\n        /* \"#utility.yul\":8123:8410   */\n      pop\n        /* \"#utility.yul\":7908:8417   */\n      swap3\n      swap2\n      pop\n      pop\n      jump\t// out\n        /* \"#utility.yul\":8423:8537   */\n    tag_445:\n        /* \"#utility.yul\":8490:8496   */\n      0x00\n        /* \"#utility.yul\":8524:8529   */\n      dup2\n        /* \"#utility.yul\":8518:8530   */\n      mload\n        /* \"#utility.yul\":8508:8530   */\n      swap1\n      pop\n        /* \"#utility.yul\":8423:8537   */\n      swap2\n      swap1\n      pop\n      jump\t// out\n        /* \"#utility.yul\":8543:8735   */\n    tag_446:\n        /* \"#utility.yul\":8650:8661   */\n      0x00\n        /* \"#utility.yul\":8684:8690   */\n      dup3\n        /* \"#utility.yul\":8679:8682   */\n      dup3\n        /* \"#utility.yul\":8672:8691   */\n      mstore\n        /* \"#utility.yul\":8724:8728   */\n      0x20\n        /* \"#utility.yul\":8719:8722   */\n      dup3\n        /* \"#utility.yul\":8715:8729   */\n      add\n        /* \"#utility.yul\":8700:8729   */\n      swap1\n      pop\n        /* \"#utility.yul\":8543:8735   */\n      swap3\n      swap2\n      pop\n      pop\n      jump\t// out\n        /* \"#utility.yul\":8741:8873   */\n    tag_447:\n        /* \"#utility.yul\":8808:8812   */\n      0x00\n        /* \"#utility.yul\":8831:8834   */\n      dup2\n        /* \"#utility.yul\":8823:8834   */\n      swap1\n      pop\n        /* \"#utility.yul\":8861:8865   */\n      0x20\n        /* \"#utility.yul\":8856:8859   */\n      dup3\n        /* \"#utility.yul\":8852:8866   */\n      add\n        /* \"#utility.yul\":8844:8866   */\n      swap1\n      pop\n        /* \"#utility.yul\":8741:8873   */\n      swap2\n      swap1\n      pop\n      jump\t// out\n        /* \"#utility.yul\":8879:8995   */\n    tag_448:\n        /* \"#utility.yul\":8964:8988   */\n      tag_579\n        /* \"#utility.yul\":8982:8987   */\n      dup2\n        /* \"#utility.yul\":8964:8988   */\n      tag_428\n      jump\t// in\n    tag_579:\n        /* \"#utility.yul\":8959:8962   */\n      dup3\n        /* \"#utility.yul\":8952:8989   */\n      mstore\n        /* \"#utility.yul\":8879:8995   */\n      pop\n      pop\n      jump\t// out\n        /* \"#utility.yul\":9001:9196   */\n    tag_449:\n        /* \"#utility.yul\":9078:9088   */\n      0x00\n        /* \"#utility.yul\":9099:9153   */\n      tag_581\n        /* \"#utility.yul\":9149:9152   */\n      dup4\n        /* \"#utility.yul\":9141:9147   */\n      dup4\n        /* \"#utility.yul\":9099:9153   */\n      tag_448\n      jump\t// in\n    tag_581:\n        /* \"#utility.yul\":9185:9189   */\n      0x20\n        /* \"#utility.yul\":9180:9183   */\n      dup4\n        /* \"#utility.yul\":9176:9190   */\n      add\n        /* \"#utility.yul\":9162:9190   */\n      swap1\n      pop\n        /* \"#utility.yul\":9001:9196   */\n      swap3\n      swap2\n      pop\n      pop\n      jump\t// out\n        /* \"#utility.yul\":9202:9315   */\n    tag_450:\n        /* \"#utility.yul\":9272:9276   */\n      0x00\n        /* \"#utility.yul\":9304:9308   */\n      0x20\n        /* \"#utility.yul\":9299:9302   */\n      dup3\n        /* \"#utility.yul\":9295:9309   */\n      add\n        /* \"#utility.yul\":9287:9309   */\n      swap1\n      pop\n        /* \"#utility.yul\":9202:9315   */\n      swap2\n      swap1\n      pop\n      jump\t// out\n        /* \"#utility.yul\":9351:10107   */\n    tag_451:\n        /* \"#utility.yul\":9478:9481   */\n      0x00\n        /* \"#utility.yul\":9507:9561   */\n      tag_584\n        /* \"#utility.yul\":9555:9560   */\n      dup3\n        /* \"#utility.yul\":9507:9561   */\n      tag_445\n      jump\t// in\n    tag_584:\n        /* \"#utility.yul\":9577:9671   */\n      tag_585\n        /* \"#utility.yul\":9664:9670   */\n      dup2\n        /* \"#utility.yul\":9659:9662   */\n      dup6\n        /* \"#utility.yul\":9577:9671   */\n      tag_446\n      jump\t// in\n    tag_585:\n        /* \"#utility.yul\":9570:9671   */\n      swap4\n      pop\n        /* \"#utility.yul\":9695:9751   */\n      tag_586\n        /* \"#utility.yul\":9745:9750   */\n      dup4\n        /* \"#utility.yul\":9695:9751   */\n      tag_447\n      jump\t// in\n    tag_586:\n        /* \"#utility.yul\":9774:9781   */\n      dup1\n        /* \"#utility.yul\":9805:9806   */\n      0x00\n        /* \"#utility.yul\":9790:10082   */\n    tag_587:\n        /* \"#utility.yul\":9815:9821   */\n      dup4\n        /* \"#utility.yul\":9812:9813   */\n      dup2\n        /* \"#utility.yul\":9809:9822   */\n      lt\n        /* \"#utility.yul\":9790:10082   */\n      iszero\n      tag_589\n      jumpi\n        /* \"#utility.yul\":9891:9897   */\n      dup2\n        /* \"#utility.yul\":9885:9898   */\n      mload\n        /* \"#utility.yul\":9918:9989   */\n      tag_590\n        /* \"#utility.yul\":9985:9988   */\n      dup9\n        /* \"#utility.yul\":9970:9983   */\n      dup3\n        /* \"#utility.yul\":9918:9989   */\n      tag_449\n      jump\t// in\n    tag_590:\n        /* \"#utility.yul\":9911:9989   */\n      swap8\n      pop\n        /* \"#utility.yul\":10012:10072   */\n      tag_591\n        /* \"#utility.yul\":10065:10071   */\n      dup4\n        /* \"#utility.yul\":10012:10072   */\n      tag_450\n      jump\t// in\n    tag_591:\n        /* \"#utility.yul\":10002:10072   */\n      swap3\n      pop\n        /* \"#utility.yul\":9850:10082   */\n      pop\n        /* \"#utility.yul\":9837:9838   */\n      0x01\n        /* \"#utility.yul\":9834:9835   */\n      dup2\n        /* \"#utility.yul\":9830:9839   */\n      add\n        /* \"#utility.yul\":9825:9839   */\n      swap1\n      pop\n        /* \"#utility.yul\":9790:10082   */\n      jump(tag_587)\n    tag_589:\n        /* \"#utility.yul\":9794:9808   */\n      pop\n        /* \"#utility.yul\":10098:10101   */\n      dup6\n        /* \"#utility.yul\":10091:10101   */\n      swap4\n      pop\n        /* \"#utility.yul\":9483:10107   */\n      pop\n      pop\n      pop\n        /* \"#utility.yul\":9351:10107   */\n      swap3\n      swap2\n      pop\n      pop\n      jump\t// out\n        /* \"#utility.yul\":10113:10502   */\n    tag_144:\n        /* \"#utility.yul\":10264:10268   */\n      0x00\n        /* \"#utility.yul\":10302:10304   */\n      0x20\n        /* \"#utility.yul\":10291:10300   */\n      dup3\n        /* \"#utility.yul\":10287:10305   */\n      add\n        /* \"#utility.yul\":10279:10305   */\n      swap1\n      pop\n        /* \"#utility.yul\":10351:10360   */\n      dup2\n        /* \"#utility.yul\":10345:10349   */\n      dup2\n        /* \"#utility.yul\":10341:10361   */\n      sub\n        /* \"#utility.yul\":10337:10338   */\n      0x00\n        /* \"#utility.yul\":10326:10335   */\n      dup4\n        /* \"#utility.yul\":10322:10339   */\n      add\n        /* \"#utility.yul\":10315:10362   */\n      mstore\n        /* \"#utility.yul\":10379:10495   */\n      tag_593\n        /* \"#utility.yul\":10490:10494   */\n      dup2\n        /* \"#utility.yul\":10481:10487   */\n      dup5\n        /* \"#utility.yul\":10379:10495   */\n      tag_451\n      jump\t// in\n    tag_593:\n        /* \"#utility.yul\":10371:10495   */\n      swap1\n      pop\n        /* \"#utility.yul\":10113:10502   */\n      swap3\n      swap2\n      pop\n      pop\n      jump\t// out\n        /* \"#utility.yul\":10508:10598   */\n    tag_452:\n        /* \"#utility.yul\":10542:10549   */\n      0x00\n        /* \"#utility.yul\":10585:10590   */\n      dup2\n        /* \"#utility.yul\":10578:10591   */\n      iszero\n        /* \"#utility.yul\":10571:10592   */\n      iszero\n        /* \"#utility.yul\":10560:10592   */\n      swap1\n      pop\n        /* \"#utility.yul\":10508:10598   */\n      swap2\n      swap1\n      pop\n      jump\t// out\n        /* \"#utility.yul\":10604:10720   */\n    tag_453:\n        /* \"#utility.yul\":10674:10695   */\n      tag_596\n        /* \"#utility.yul\":10689:10694   */\n      dup2\n        /* \"#utility.yul\":10674:10695   */\n      tag_452\n      jump\t// in\n    tag_596:\n        /* \"#utility.yul\":10667:10672   */\n      dup2\n        /* \"#utility.yul\":10664:10696   */\n      eq\n        /* \"#utility.yul\":10654:10714   */\n      tag_597\n      jumpi\n        /* \"#utility.yul\":10710:10711   */\n      0x00\n        /* \"#utility.yul\":10707:10708   */\n      dup1\n        /* \"#utility.yul\":10700:10712   */\n      revert\n        /* \"#utility.yul\":10654:10714   */\n    tag_597:\n        /* \"#utility.yul\":10604:10720   */\n      pop\n      jump\t// out\n        /* \"#utility.yul\":10726:10859   */\n    tag_454:\n        /* \"#utility.yul\":10769:10774   */\n      0x00\n        /* \"#utility.yul\":10807:10813   */\n      dup2\n        /* \"#utility.yul\":10794:10814   */\n      calldataload\n        /* \"#utility.yul\":10785:10814   */\n      swap1\n      pop\n        /* \"#utility.yul\":10823:10853   */\n      tag_599\n        /* \"#utility.yul\":10847:10852   */\n      dup2\n        /* \"#utility.yul\":10823:10853   */\n      tag_453\n      jump\t// in\n    tag_599:\n        /* \"#utility.yul\":10726:10859   */\n      swap3\n      swap2\n      pop\n      pop\n      jump\t// out\n        /* \"#utility.yul\":10865:11478   */\n    tag_159:\n        /* \"#utility.yul\":10939:10945   */\n      0x00\n        /* \"#utility.yul\":10947:10953   */\n      dup1\n        /* \"#utility.yul\":10955:10961   */\n      0x00\n        /* \"#utility.yul\":11004:11006   */\n      0x60\n        /* \"#utility.yul\":10992:11001   */\n      dup5\n        /* \"#utility.yul\":10983:10990   */\n      dup7\n        /* \"#utility.yul\":10979:11002   */\n      sub\n        /* \"#utility.yul\":10975:11007   */\n      slt\n        /* \"#utility.yul\":10972:11091   */\n      iszero\n      tag_601\n      jumpi\n        /* \"#utility.yul\":11010:11089   */\n      tag_602\n      tag_422\n      jump\t// in\n    tag_602:\n        /* \"#utility.yul\":10972:11091   */\n    tag_601:\n        /* \"#utility.yul\":11130:11131   */\n      0x00\n        /* \"#utility.yul\":11155:11208   */\n      tag_603\n        /* \"#utility.yul\":11200:11207   */\n      dup7\n        /* \"#utility.yul\":11191:11197   */\n      dup3\n        /* \"#utility.yul\":11180:11189   */\n      dup8\n        /* \"#utility.yul\":11176:11198   */\n      add\n        /* \"#utility.yul\":11155:11208   */\n      tag_427\n      jump\t// in\n    tag_603:\n        /* \"#utility.yul\":11145:11208   */\n      swap4\n      pop\n        /* \"#utility.yul\":11101:11218   */\n      pop\n        /* \"#utility.yul\":11257:11259   */\n      0x20\n        /* \"#utility.yul\":11283:11336   */\n      tag_604\n        /* \"#utility.yul\":11328:11335   */\n      dup7\n        /* \"#utility.yul\":11319:11325   */\n      dup3\n        /* \"#utility.yul\":11308:11317   */\n      dup8\n        /* \"#utility.yul\":11304:11326   */\n      add\n        /* \"#utility.yul\":11283:11336   */\n      tag_427\n      jump\t// in\n    tag_604:\n        /* \"#utility.yul\":11273:11336   */\n      swap3\n      pop\n        /* \"#utility.yul\":11228:11346   */\n      pop\n        /* \"#utility.yul\":11385:11387   */\n      0x40\n        /* \"#utility.yul\":11411:11461   */\n      tag_605\n        /* \"#utility.yul\":11453:11460   */\n      dup7\n        /* \"#utility.yul\":11444:11450   */\n      dup3\n        /* \"#utility.yul\":11433:11442   */\n      dup8\n        /* \"#utility.yul\":11429:11451   */\n      add\n        /* \"#utility.yul\":11411:11461   */\n      tag_454\n      jump\t// in\n    tag_605:\n        /* \"#utility.yul\":11401:11461   */\n      swap2\n      pop\n        /* \"#utility.yul\":11356:11471   */\n      pop\n        /* \"#utility.yul\":10865:11478   */\n      swap3\n      pop\n      swap3\n      pop\n      swap3\n      jump\t// out\n        /* \"#utility.yul\":11484:11958   */\n    tag_188:\n        /* \"#utility.yul\":11552:11558   */\n      0x00\n        /* \"#utility.yul\":11560:11566   */\n      dup1\n        /* \"#utility.yul\":11609:11611   */\n      0x40\n        /* \"#utility.yul\":11597:11606   */\n      dup4\n        /* \"#utility.yul\":11588:11595   */\n      dup6\n        /* \"#utility.yul\":11584:11607   */\n      sub\n        /* \"#utility.yul\":11580:11612   */\n      slt\n        /* \"#utility.yul\":11577:11696   */\n      iszero\n      tag_607\n      jumpi\n        /* \"#utility.yul\":11615:11694   */\n      tag_608\n      tag_422\n      jump\t// in\n    tag_608:\n        /* \"#utility.yul\":11577:11696   */\n    tag_607:\n        /* \"#utility.yul\":11735:11736   */\n      0x00\n        /* \"#utility.yul\":11760:11813   */\n      tag_609\n        /* \"#utility.yul\":11805:11812   */\n      dup6\n        /* \"#utility.yul\":11796:11802   */\n      dup3\n        /* \"#utility.yul\":11785:11794   */\n      dup7\n        /* \"#utility.yul\":11781:11803   */\n      add\n        /* \"#utility.yul\":11760:11813   */\n      tag_427\n      jump\t// in\n    tag_609:\n        /* \"#utility.yul\":11750:11813   */\n      swap3\n      pop\n        /* \"#utility.yul\":11706:11823   */\n      pop\n        /* \"#utility.yul\":11862:11864   */\n      0x20\n        /* \"#utility.yul\":11888:11941   */\n      tag_610\n        /* \"#utility.yul\":11933:11940   */\n      dup6\n        /* \"#utility.yul\":11924:11930   */\n      dup3\n        /* \"#utility.yul\":11913:11922   */\n      dup7\n        /* \"#utility.yul\":11909:11931   */\n      add\n        /* \"#utility.yul\":11888:11941   */\n      tag_430\n      jump\t// in\n    tag_610:\n        /* \"#utility.yul\":11878:11941   */\n      swap2\n      pop\n        /* \"#utility.yul\":11833:11951   */\n      pop\n        /* \"#utility.yul\":11484:11958   */\n      swap3\n      pop\n      swap3\n      swap1\n      pop\n      jump\t// out\n        /* \"#utility.yul\":11964:12080   */\n    tag_455:\n        /* \"#utility.yul\":12049:12073   */\n      tag_612\n        /* \"#utility.yul\":12067:12072   */\n      dup2\n        /* \"#utility.yul\":12049:12073   */\n      tag_425\n      jump\t// in\n    tag_612:\n        /* \"#utility.yul\":12044:12047   */\n      dup3\n        /* \"#utility.yul\":12037:12074   */\n      mstore\n        /* \"#utility.yul\":11964:12080   */\n      pop\n      pop\n      jump\t// out\n        /* \"#utility.yul\":12172:12536   */\n    tag_456:\n        /* \"#utility.yul\":12341:12345   */\n      0x20\n        /* \"#utility.yul\":12336:12339   */\n      dup3\n        /* \"#utility.yul\":12332:12346   */\n      add\n        /* \"#utility.yul\":12429:12433   */\n      0x00\n        /* \"#utility.yul\":12422:12427   */\n      dup3\n        /* \"#utility.yul\":12418:12434   */\n      add\n        /* \"#utility.yul\":12412:12435   */\n      mload\n        /* \"#utility.yul\":12448:12519   */\n      tag_614\n        /* \"#utility.yul\":12513:12517   */\n      0x00\n        /* \"#utility.yul\":12508:12511   */\n      dup6\n        /* \"#utility.yul\":12504:12518   */\n      add\n        /* \"#utility.yul\":12490:12502   */\n      dup3\n        /* \"#utility.yul\":12448:12519   */\n      tag_455\n      jump\t// in\n    tag_614:\n        /* \"#utility.yul\":12356:12529   */\n      pop\n        /* \"#utility.yul\":12310:12536   */\n      pop\n        /* \"#utility.yul\":12172:12536   */\n      pop\n      pop\n      jump\t// out\n        /* \"#utility.yul\":12542:12908   */\n    tag_194:\n        /* \"#utility.yul\":12707:12711   */\n      0x00\n        /* \"#utility.yul\":12745:12747   */\n      0x20\n        /* \"#utility.yul\":12734:12743   */\n      dup3\n        /* \"#utility.yul\":12730:12748   */\n      add\n        /* \"#utility.yul\":12722:12748   */\n      swap1\n      pop\n        /* \"#utility.yul\":12758:12901   */\n      tag_616\n        /* \"#utility.yul\":12898:12899   */\n      0x00\n        /* \"#utility.yul\":12887:12896   */\n      dup4\n        /* \"#utility.yul\":12883:12900   */\n      add\n        /* \"#utility.yul\":12874:12880   */\n      dup5\n        /* \"#utility.yul\":12758:12901   */\n      tag_456\n      jump\t// in\n    tag_616:\n        /* \"#utility.yul\":12542:12908   */\n      swap3\n      swap2\n      pop\n      pop\n      jump\t// out\n        /* \"#utility.yul\":12914:13388   */\n    tag_198:\n        /* \"#utility.yul\":12982:12988   */\n      0x00\n        /* \"#utility.yul\":12990:12996   */\n      dup1\n        /* \"#utility.yul\":13039:13041   */\n      0x40\n        /* \"#utility.yul\":13027:13036   */\n      dup4\n        /* \"#utility.yul\":13018:13025   */\n      dup6\n        /* \"#utility.yul\":13014:13037   */\n      sub\n        /* \"#utility.yul\":13010:13042   */\n      slt\n        /* \"#utility.yul\":13007:13126   */\n      iszero\n      tag_618\n      jumpi\n        /* \"#utility.yul\":13045:13124   */\n      tag_619\n      tag_422\n      jump\t// in\n    tag_619:\n        /* \"#utility.yul\":13007:13126   */\n    tag_618:\n        /* \"#utility.yul\":13165:13166   */\n      0x00\n        /* \"#utility.yul\":13190:13243   */\n      tag_620\n        /* \"#utility.yul\":13235:13242   */\n      dup6\n        /* \"#utility.yul\":13226:13232   */\n      dup3\n        /* \"#utility.yul\":13215:13224   */\n      dup7\n        /* \"#utility.yul\":13211:13233   */\n      add\n        /* \"#utility.yul\":13190:13243   */\n      tag_430\n      jump\t// in\n    tag_620:\n        /* \"#utility.yul\":13180:13243   */\n      swap3\n      pop\n        /* \"#utility.yul\":13136:13253   */\n      pop\n        /* \"#utility.yul\":13292:13294   */\n      0x20\n        /* \"#utility.yul\":13318:13371   */\n      tag_621\n        /* \"#utility.yul\":13363:13370   */\n      dup6\n        /* \"#utility.yul\":13354:13360   */\n      dup3\n        /* \"#utility.yul\":13343:13352   */\n      dup7\n        /* \"#utility.yul\":13339:13361   */\n      add\n        /* \"#utility.yul\":13318:13371   */\n      tag_430\n      jump\t// in\n    tag_621:\n        /* \"#utility.yul\":13308:13371   */\n      swap2\n      pop\n        /* \"#utility.yul\":13263:13381   */\n      pop\n        /* \"#utility.yul\":12914:13388   */\n      swap3\n      pop\n      swap3\n      swap1\n      pop\n      jump\t// out\n        /* \"#utility.yul\":13394:13862   */\n    tag_203:\n        /* \"#utility.yul\":13459:13465   */\n      0x00\n        /* \"#utility.yul\":13467:13473   */\n      dup1\n        /* \"#utility.yul\":13516:13518   */\n      0x40\n        /* \"#utility.yul\":13504:13513   */\n      dup4\n        /* \"#utility.yul\":13495:13502   */\n      dup6\n        /* \"#utility.yul\":13491:13514   */\n      sub\n        /* \"#utility.yul\":13487:13519   */\n      slt\n        /* \"#utility.yul\":13484:13603   */\n      iszero\n      tag_623\n      jumpi\n        /* \"#utility.yul\":13522:13601   */\n      tag_624\n      tag_422\n      jump\t// in\n    tag_624:\n        /* \"#utility.yul\":13484:13603   */\n    tag_623:\n        /* \"#utility.yul\":13642:13643   */\n      0x00\n        /* \"#utility.yul\":13667:13720   */\n      tag_625\n        /* \"#utility.yul\":13712:13719   */\n      dup6\n        /* \"#utility.yul\":13703:13709   */\n      dup3\n        /* \"#utility.yul\":13692:13701   */\n      dup7\n        /* \"#utility.yul\":13688:13710   */\n      add\n        /* \"#utility.yul\":13667:13720   */\n      tag_427\n      jump\t// in\n    tag_625:\n        /* \"#utility.yul\":13657:13720   */\n      swap3\n      pop\n        /* \"#utility.yul\":13613:13730   */\n      pop\n        /* \"#utility.yul\":13769:13771   */\n      0x20\n        /* \"#utility.yul\":13795:13845   */\n      tag_626\n        /* \"#utility.yul\":13837:13844   */\n      dup6\n        /* \"#utility.yul\":13828:13834   */\n      dup3\n        /* \"#utility.yul\":13817:13826   */\n      dup7\n        /* \"#utility.yul\":13813:13835   */\n      add\n        /* \"#utility.yul\":13795:13845   */\n      tag_454\n      jump\t// in\n    tag_626:\n        /* \"#utility.yul\":13785:13845   */\n      swap2\n      pop\n        /* \"#utility.yul\":13740:13855   */\n      pop\n        /* \"#utility.yul\":13394:13862   */\n      swap3\n      pop\n      swap3\n      swap1\n      pop\n      jump\t// out\n        /* \"#utility.yul\":13868:13985   */\n    tag_457:\n        /* \"#utility.yul\":13957:13978   */\n      tag_628\n        /* \"#utility.yul\":13972:13977   */\n      dup2\n        /* \"#utility.yul\":13957:13978   */\n      tag_452\n      jump\t// in\n    tag_628:\n        /* \"#utility.yul\":13952:13955   */\n      dup3\n        /* \"#utility.yul\":13945:13979   */\n      mstore\n        /* \"#utility.yul\":13868:13985   */\n      pop\n      pop\n      jump\t// out\n        /* \"#utility.yul\":13991:14217   */\n    tag_209:\n        /* \"#utility.yul\":14086:14090   */\n      0x00\n        /* \"#utility.yul\":14124:14126   */\n      0x20\n        /* \"#utility.yul\":14113:14122   */\n      dup3\n        /* \"#utility.yul\":14109:14127   */\n      add\n        /* \"#utility.yul\":14101:14127   */\n      swap1\n      pop\n        /* \"#utility.yul\":14137:14210   */\n      tag_630\n        /* \"#utility.yul\":14207:14208   */\n      0x00\n        /* \"#utility.yul\":14196:14205   */\n      dup4\n        /* \"#utility.yul\":14192:14209   */\n      add\n        /* \"#utility.yul\":14183:14189   */\n      dup5\n        /* \"#utility.yul\":14137:14210   */\n      tag_457\n      jump\t// in\n    tag_630:\n        /* \"#utility.yul\":13991:14217   */\n      swap3\n      swap2\n      pop\n      pop\n      jump\t// out\n        /* \"#utility.yul\":14223:14877   */\n    tag_230:\n        /* \"#utility.yul\":14301:14307   */\n      0x00\n        /* \"#utility.yul\":14309:14315   */\n      dup1\n        /* \"#utility.yul\":14358:14360   */\n      0x40\n        /* \"#utility.yul\":14346:14355   */\n      dup4\n        /* \"#utility.yul\":14337:14344   */\n      dup6\n        /* \"#utility.yul\":14333:14356   */\n      sub\n        /* \"#utility.yul\":14329:14361   */\n      slt\n        /* \"#utility.yul\":14326:14445   */\n      iszero\n      tag_632\n      jumpi\n        /* \"#utility.yul\":14364:14443   */\n      tag_633\n      tag_422\n      jump\t// in\n    tag_633:\n        /* \"#utility.yul\":14326:14445   */\n    tag_632:\n        /* \"#utility.yul\":14512:14513   */\n      0x00\n        /* \"#utility.yul\":14501:14510   */\n      dup4\n        /* \"#utility.yul\":14497:14514   */\n      add\n        /* \"#utility.yul\":14484:14515   */\n      calldataload\n        /* \"#utility.yul\":14542:14560   */\n      0xffffffffffffffff\n        /* \"#utility.yul\":14534:14540   */\n      dup2\n        /* \"#utility.yul\":14531:14561   */\n      gt\n        /* \"#utility.yul\":14528:14645   */\n      iszero\n      tag_634\n      jumpi\n        /* \"#utility.yul\":14564:14643   */\n      tag_635\n      tag_423\n      jump\t// in\n    tag_635:\n        /* \"#utility.yul\":14528:14645   */\n    tag_634:\n        /* \"#utility.yul\":14669:14732   */\n      tag_636\n        /* \"#utility.yul\":14724:14731   */\n      dup6\n        /* \"#utility.yul\":14715:14721   */\n      dup3\n        /* \"#utility.yul\":14704:14713   */\n      dup7\n        /* \"#utility.yul\":14700:14722   */\n      add\n        /* \"#utility.yul\":14669:14732   */\n      tag_444\n      jump\t// in\n    tag_636:\n        /* \"#utility.yul\":14659:14732   */\n      swap3\n      pop\n        /* \"#utility.yul\":14455:14742   */\n      pop\n        /* \"#utility.yul\":14781:14783   */\n      0x20\n        /* \"#utility.yul\":14807:14860   */\n      tag_637\n        /* \"#utility.yul\":14852:14859   */\n      dup6\n        /* \"#utility.yul\":14843:14849   */\n      dup3\n        /* \"#utility.yul\":14832:14841   */\n      dup7\n        /* \"#utility.yul\":14828:14850   */\n      add\n        /* \"#utility.yul\":14807:14860   */\n      tag_430\n      jump\t// in\n    tag_637:\n        /* \"#utility.yul\":14797:14860   */\n      swap2\n      pop\n        /* \"#utility.yul\":14752:14870   */\n      pop\n        /* \"#utility.yul\":14223:14877   */\n      swap3\n      pop\n      swap3\n      swap1\n      pop\n      jump\t// out\n        /* \"#utility.yul\":14883:15357   */\n    tag_242:\n        /* \"#utility.yul\":14951:14957   */\n      0x00\n        /* \"#utility.yul\":14959:14965   */\n      dup1\n        /* \"#utility.yul\":15008:15010   */\n      0x40\n        /* \"#utility.yul\":14996:15005   */\n      dup4\n        /* \"#utility.yul\":14987:14994   */\n      dup6\n        /* \"#utility.yul\":14983:15006   */\n      sub\n        /* \"#utility.yul\":14979:15011   */\n      slt\n        /* \"#utility.yul\":14976:15095   */\n      iszero\n      tag_639\n      jumpi\n        /* \"#utility.yul\":15014:15093   */\n      tag_640\n      tag_422\n      jump\t// in\n    tag_640:\n        /* \"#utility.yul\":14976:15095   */\n    tag_639:\n        /* \"#utility.yul\":15134:15135   */\n      0x00\n        /* \"#utility.yul\":15159:15212   */\n      tag_641\n        /* \"#utility.yul\":15204:15211   */\n      dup6\n        /* \"#utility.yul\":15195:15201   */\n      dup3\n        /* \"#utility.yul\":15184:15193   */\n      dup7\n        /* \"#utility.yul\":15180:15202   */\n      add\n        /* \"#utility.yul\":15159:15212   */\n      tag_427\n      jump\t// in\n    tag_641:\n        /* \"#utility.yul\":15149:15212   */\n      swap3\n      pop\n        /* \"#utility.yul\":15105:15222   */\n      pop\n        /* \"#utility.yul\":15261:15263   */\n      0x20\n        /* \"#utility.yul\":15287:15340   */\n      tag_642\n        /* \"#utility.yul\":15332:15339   */\n      dup6\n        /* \"#utility.yul\":15323:15329   */\n      dup3\n        /* \"#utility.yul\":15312:15321   */\n      dup7\n        /* \"#utility.yul\":15308:15330   */\n      add\n        /* \"#utility.yul\":15287:15340   */\n      tag_427\n      jump\t// in\n    tag_642:\n        /* \"#utility.yul\":15277:15340   */\n      swap2\n      pop\n        /* \"#utility.yul\":15232:15350   */\n      pop\n        /* \"#utility.yul\":14883:15357   */\n      swap3\n      pop\n      swap3\n      swap1\n      pop\n      jump\t// out\n        /* \"#utility.yul\":15363:15543   */\n    tag_458:\n        /* \"#utility.yul\":15411:15488   */\n      0x4e487b7100000000000000000000000000000000000000000000000000000000\n        /* \"#utility.yul\":15408:15409   */\n      0x00\n        /* \"#utility.yul\":15401:15489   */\n      mstore\n        /* \"#utility.yul\":15508:15512   */\n      0x22\n        /* \"#utility.yul\":15505:15506   */\n      0x04\n        /* \"#utility.yul\":15498:15513   */\n      mstore\n        /* \"#utility.yul\":15532:15536   */\n      0x24\n        /* \"#utility.yul\":15529:15530   */\n      0x00\n        /* \"#utility.yul\":15522:15537   */\n      revert\n        /* \"#utility.yul\":15549:15869   */\n    tag_252:\n        /* \"#utility.yul\":15593:15599   */\n      0x00\n        /* \"#utility.yul\":15630:15631   */\n      0x02\n        /* \"#utility.yul\":15624:15628   */\n      dup3\n        /* \"#utility.yul\":15620:15632   */\n      div\n        /* \"#utility.yul\":15610:15632   */\n      swap1\n      pop\n        /* \"#utility.yul\":15677:15678   */\n      0x01\n        /* \"#utility.yul\":15671:15675   */\n      dup3\n        /* \"#utility.yul\":15667:15679   */\n      and\n        /* \"#utility.yul\":15698:15716   */\n      dup1\n        /* \"#utility.yul\":15688:15769   */\n      tag_645\n      jumpi\n        /* \"#utility.yul\":15754:15758   */\n      0x7f\n        /* \"#utility.yul\":15746:15752   */\n      dup3\n        /* \"#utility.yul\":15742:15759   */\n      and\n        /* \"#utility.yul\":15732:15759   */\n      swap2\n      pop\n        /* \"#utility.yul\":15688:15769   */\n    tag_645:\n        /* \"#utility.yul\":15816:15818   */\n      0x20\n        /* \"#utility.yul\":15808:15814   */\n      dup3\n        /* \"#utility.yul\":15805:15819   */\n      lt\n        /* \"#utility.yul\":15785:15803   */\n      dup2\n        /* \"#utility.yul\":15782:15820   */\n      sub\n        /* \"#utility.yul\":15779:15863   */\n      tag_646\n      jumpi\n        /* \"#utility.yul\":15835:15853   */\n      tag_647\n      tag_458\n      jump\t// in\n    tag_647:\n        /* \"#utility.yul\":15779:15863   */\n    tag_646:\n        /* \"#utility.yul\":15600:15869   */\n      pop\n        /* \"#utility.yul\":15549:15869   */\n      swap2\n      swap1\n      pop\n      jump\t// out\n        /* \"#utility.yul\":15875:16055   */\n    tag_459:\n        /* \"#utility.yul\":15923:16000   */\n      0x4e487b7100000000000000000000000000000000000000000000000000000000\n        /* \"#utility.yul\":15920:15921   */\n      0x00\n        /* \"#utility.yul\":15913:16001   */\n      mstore\n        /* \"#utility.yul\":16020:16024   */\n      0x11\n        /* \"#utility.yul\":16017:16018   */\n      0x04\n        /* \"#utility.yul\":16010:16025   */\n      mstore\n        /* \"#utility.yul\":16044:16048   */\n      0x24\n        /* \"#utility.yul\":16041:16042   */\n      0x00\n        /* \"#utility.yul\":16034:16049   */\n      revert\n        /* \"#utility.yul\":16061:16255   */\n    tag_276:\n        /* \"#utility.yul\":16101:16105   */\n      0x00\n        /* \"#utility.yul\":16121:16141   */\n      tag_650\n        /* \"#utility.yul\":16139:16140   */\n      dup3\n        /* \"#utility.yul\":16121:16141   */\n      tag_428\n      jump\t// in\n    tag_650:\n        /* \"#utility.yul\":16116:16141   */\n      swap2\n      pop\n        /* \"#utility.yul\":16155:16175   */\n      tag_651\n        /* \"#utility.yul\":16173:16174   */\n      dup4\n        /* \"#utility.yul\":16155:16175   */\n      tag_428\n      jump\t// in\n    tag_651:\n        /* \"#utility.yul\":16150:16175   */\n      swap3\n      pop\n        /* \"#utility.yul\":16199:16200   */\n      dup3\n        /* \"#utility.yul\":16196:16197   */\n      dup3\n        /* \"#utility.yul\":16192:16201   */\n      sub\n        /* \"#utility.yul\":16184:16201   */\n      swap1\n      pop\n        /* \"#utility.yul\":16223:16224   */\n      dup2\n        /* \"#utility.yul\":16217:16221   */\n      dup2\n        /* \"#utility.yul\":16214:16225   */\n      gt\n        /* \"#utility.yul\":16211:16248   */\n      iszero\n      tag_652\n      jumpi\n        /* \"#utility.yul\":16228:16246   */\n      tag_653\n      tag_459\n      jump\t// in\n    tag_653:\n        /* \"#utility.yul\":16211:16248   */\n    tag_652:\n        /* \"#utility.yul\":16061:16255   */\n      swap3\n      swap2\n      pop\n      pop\n      jump\t// out\n        /* \"#utility.yul\":16261:16441   */\n    tag_295:\n        /* \"#utility.yul\":16309:16386   */\n      0x4e487b7100000000000000000000000000000000000000000000000000000000\n        /* \"#utility.yul\":16306:16307   */\n      0x00\n        /* \"#utility.yul\":16299:16387   */\n      mstore\n        /* \"#utility.yul\":16406:16410   */\n      0x32\n        /* \"#utility.yul\":16403:16404   */\n      0x04\n        /* \"#utility.yul\":16396:16411   */\n      mstore\n        /* \"#utility.yul\":16430:16434   */\n      0x24\n        /* \"#utility.yul\":16427:16428   */\n      0x00\n        /* \"#utility.yul\":16420:16435   */\n      revert\n        /* \"#utility.yul\":16447:16627   */\n    tag_306:\n        /* \"#utility.yul\":16495:16572   */\n      0x4e487b7100000000000000000000000000000000000000000000000000000000\n        /* \"#utility.yul\":16492:16493   */\n      0x00\n        /* \"#utility.yul\":16485:16573   */\n      mstore\n        /* \"#utility.yul\":16592:16596   */\n      0x31\n        /* \"#utility.yul\":16589:16590   */\n      0x04\n        /* \"#utility.yul\":16582:16597   */\n      mstore\n        /* \"#utility.yul\":16616:16620   */\n      0x24\n        /* \"#utility.yul\":16613:16614   */\n      0x00\n        /* \"#utility.yul\":16606:16621   */\n      revert\n        /* \"#utility.yul\":16633:16774   */\n    tag_460:\n        /* \"#utility.yul\":16682:16686   */\n      0x00\n        /* \"#utility.yul\":16705:16708   */\n      dup2\n        /* \"#utility.yul\":16697:16708   */\n      swap1\n      pop\n        /* \"#utility.yul\":16728:16731   */\n      dup2\n        /* \"#utility.yul\":16725:16726   */\n      0x00\n        /* \"#utility.yul\":16718:16732   */\n      mstore\n        /* \"#utility.yul\":16762:16766   */\n      0x20\n        /* \"#utility.yul\":16759:16760   */\n      0x00\n        /* \"#utility.yul\":16749:16767   */\n      keccak256\n        /* \"#utility.yul\":16741:16767   */\n      swap1\n      pop\n        /* \"#utility.yul\":16633:16774   */\n      swap2\n      swap1\n      pop\n      jump\t// out\n        /* \"#utility.yul\":16780:16873   */\n    tag_461:\n        /* \"#utility.yul\":16817:16823   */\n      0x00\n        /* \"#utility.yul\":16864:16866   */\n      0x20\n        /* \"#utility.yul\":16859:16861   */\n      0x1f\n        /* \"#utility.yul\":16852:16857   */\n      dup4\n        /* \"#utility.yul\":16848:16862   */\n      add\n        /* \"#utility.yul\":16844:16867   */\n      div\n        /* \"#utility.yul\":16834:16867   */\n      swap1\n      pop\n        /* \"#utility.yul\":16780:16873   */\n      swap2\n      swap1\n      pop\n      jump\t// out\n        /* \"#utility.yul\":16879:16986   */\n    tag_462:\n        /* \"#utility.yul\":16923:16931   */\n      0x00\n        /* \"#utility.yul\":16973:16978   */\n      dup3\n        /* \"#utility.yul\":16967:16971   */\n      dup3\n        /* \"#utility.yul\":16963:16979   */\n      shl\n        /* \"#utility.yul\":16942:16979   */\n      swap1\n      pop\n        /* \"#utility.yul\":16879:16986   */\n      swap3\n      swap2\n      pop\n      pop\n      jump\t// out\n        /* \"#utility.yul\":16992:17385   */\n    tag_463:\n        /* \"#utility.yul\":17061:17067   */\n      0x00\n        /* \"#utility.yul\":17111:17112   */\n      0x08\n        /* \"#utility.yul\":17099:17109   */\n      dup4\n        /* \"#utility.yul\":17095:17113   */\n      mul\n        /* \"#utility.yul\":17134:17231   */\n      tag_660\n        /* \"#utility.yul\":17164:17230   */\n      0xffffffffffffffffffffffffffffffffffffffffffffffffffffffffffffffff\n        /* \"#utility.yul\":17153:17162   */\n      dup3\n        /* \"#utility.yul\":17134:17231   */\n      tag_462\n      jump\t// in\n    tag_660:\n        /* \"#utility.yul\":17252:17291   */\n      tag_661\n        /* \"#utility.yul\":17282:17290   */\n      dup7\n        /* \"#utility.yul\":17271:17280   */\n      dup4\n        /* \"#utility.yul\":17252:17291   */\n      tag_462\n      jump\t// in\n    tag_661:\n        /* \"#utility.yul\":17240:17291   */\n      swap6\n      pop\n        /* \"#utility.yul\":17324:17328   */\n      dup1\n        /* \"#utility.yul\":17320:17329   */\n      not\n        /* \"#utility.yul\":17313:17318   */\n      dup5\n        /* \"#utility.yul\":17309:17330   */\n      and\n        /* \"#utility.yul\":17300:17330   */\n      swap4\n      pop\n        /* \"#utility.yul\":17373:17377   */\n      dup1\n        /* \"#utility.yul\":17363:17371   */\n      dup7\n        /* \"#utility.yul\":17359:17378   */\n      and\n        /* \"#utility.yul\":17352:17357   */\n      dup5\n        /* \"#utility.yul\":17349:17379   */\n      or\n        /* \"#utility.yul\":17339:17379   */\n      swap3\n      pop\n        /* \"#utility.yul\":17068:17385   */\n      pop\n      pop\n        /* \"#utility.yul\":16992:17385   */\n      swap4\n      swap3\n      pop\n      pop\n      pop\n      jump\t// out\n        /* \"#utility.yul\":17391:17451   */\n    tag_464:\n        /* \"#utility.yul\":17419:17422   */\n      0x00\n        /* \"#utility.yul\":17440:17445   */\n      dup2\n        /* \"#utility.yul\":17433:17445   */\n      swap1\n      pop\n        /* \"#utility.yul\":17391:17451   */\n      swap2\n      swap1\n      pop\n      jump\t// out\n        /* \"#utility.yul\":17457:17599   */\n    tag_465:\n        /* \"#utility.yul\":17507:17516   */\n      0x00\n        /* \"#utility.yul\":17540:17593   */\n      tag_664\n        /* \"#utility.yul\":17558:17592   */\n      tag_665\n        /* \"#utility.yul\":17567:17591   */\n      tag_666\n        /* \"#utility.yul\":17585:17590   */\n      dup5\n        /* \"#utility.yul\":17567:17591   */\n      tag_428\n      jump\t// in\n    tag_666:\n        /* \"#utility.yul\":17558:17592   */\n      tag_464\n      jump\t// in\n    tag_665:\n        /* \"#utility.yul\":17540:17593   */\n      tag_428\n      jump\t// in\n    tag_664:\n        /* \"#utility.yul\":17527:17593   */\n      swap1\n      pop\n        /* \"#utility.yul\":17457:17599   */\n      swap2\n      swap1\n      pop\n      jump\t// out\n        /* \"#utility.yul\":17605:17680   */\n    tag_466:\n        /* \"#utility.yul\":17648:17651   */\n      0x00\n        /* \"#utility.yul\":17669:17674   */\n      dup2\n        /* \"#utility.yul\":17662:17674   */\n      swap1\n      pop\n        /* \"#utility.yul\":17605:17680   */\n      swap2\n      swap1\n      pop\n      jump\t// out\n        /* \"#utility.yul\":17686:17955   */\n    tag_467:\n        /* \"#utility.yul\":17796:17835   */\n      tag_669\n        /* \"#utility.yul\":17827:17834   */\n      dup4\n        /* \"#utility.yul\":17796:17835   */\n      tag_465\n      jump\t// in\n    tag_669:\n        /* \"#utility.yul\":17857:17948   */\n      tag_670\n        /* \"#utility.yul\":17906:17947   */\n      tag_671\n        /* \"#utility.yul\":17930:17946   */\n      dup3\n        /* \"#utility.yul\":17906:17947   */\n      tag_466\n      jump\t// in\n    tag_671:\n        /* \"#utility.yul\":17898:17904   */\n      dup5\n        /* \"#utility.yul\":17891:17895   */\n      dup5\n        /* \"#utility.yul\":17885:17896   */\n      sload\n        /* \"#utility.yul\":17857:17948   */\n      tag_463\n      jump\t// in\n    tag_670:\n        /* \"#utility.yul\":17851:17855   */\n      dup3\n        /* \"#utility.yul\":17844:17949   */\n      sstore\n        /* \"#utility.yul\":17762:17955   */\n      pop\n        /* \"#utility.yul\":17686:17955   */\n      pop\n      pop\n      pop\n      jump\t// out\n        /* \"#utility.yul\":17961:18034   */\n    tag_468:\n        /* \"#utility.yul\":18006:18009   */\n      0x00\n        /* \"#utility.yul\":17961:18034   */\n      swap1\n      jump\t// out\n        /* \"#utility.yul\":18040:18229   */\n    tag_469:\n        /* \"#utility.yul\":18117:18149   */\n      tag_674\n      tag_468\n      jump\t// in\n    tag_674:\n        /* \"#utility.yul\":18158:18223   */\n      tag_675\n        /* \"#utility.yul\":18216:18222   */\n      dup2\n        /* \"#utility.yul\":18208:18214   */\n      dup5\n        /* \"#utility.yul\":18202:18206   */\n      dup5\n        /* \"#utility.yul\":18158:18223   */\n      tag_467\n      jump\t// in\n    tag_675:\n        /* \"#utility.yul\":18093:18229   */\n      pop\n        /* \"#utility.yul\":18040:18229   */\n      pop\n      pop\n      jump\t// out\n        /* \"#utility.yul\":18235:18421   */\n    tag_470:\n        /* \"#utility.yul\":18295:18415   */\n    tag_677:\n        /* \"#utility.yul\":18312:18315   */\n      dup2\n        /* \"#utility.yul\":18305:18310   */\n      dup2\n        /* \"#utility.yul\":18302:18316   */\n      lt\n        /* \"#utility.yul\":18295:18415   */\n      iszero\n      tag_679\n      jumpi\n        /* \"#utility.yul\":18366:18405   */\n      tag_680\n        /* \"#utility.yul\":18403:18404   */\n      0x00\n        /* \"#utility.yul\":18396:18401   */\n      dup3\n        /* \"#utility.yul\":18366:18405   */\n      tag_469\n      jump\t// in\n    tag_680:\n        /* \"#utility.yul\":18339:18340   */\n      0x01\n        /* \"#utility.yul\":18332:18337   */\n      dup2\n        /* \"#utility.yul\":18328:18341   */\n      add\n        /* \"#utility.yul\":18319:18341   */\n      swap1\n      pop\n        /* \"#utility.yul\":18295:18415   */\n      jump(tag_677)\n    tag_679:\n        /* \"#utility.yul\":18235:18421   */\n      pop\n      pop\n      jump\t// out\n        /* \"#utility.yul\":18427:18970   */\n    tag_471:\n        /* \"#utility.yul\":18528:18530   */\n      0x1f\n        /* \"#utility.yul\":18523:18526   */\n      dup3\n        /* \"#utility.yul\":18520:18531   */\n      gt\n        /* \"#utility.yul\":18517:18963   */\n      iszero\n      tag_682\n      jumpi\n        /* \"#utility.yul\":18562:18600   */\n      tag_683\n        /* \"#utility.yul\":18594:18599   */\n      dup2\n        /* \"#utility.yul\":18562:18600   */\n      tag_460\n      jump\t// in\n    tag_683:\n        /* \"#utility.yul\":18646:18675   */\n      tag_684\n        /* \"#utility.yul\":18664:18674   */\n      dup5\n        /* \"#utility.yul\":18646:18675   */\n      tag_461\n      jump\t// in\n    tag_684:\n        /* \"#utility.yul\":18636:18644   */\n      dup2\n        /* \"#utility.yul\":18632:18676   */\n      add\n        /* \"#utility.yul\":18829:18831   */\n      0x20\n        /* \"#utility.yul\":18817:18827   */\n      dup6\n        /* \"#utility.yul\":18814:18832   */\n      lt\n        /* \"#utility.yul\":18811:18860   */\n      iszero\n      tag_685\n      jumpi\n        /* \"#utility.yul\":18850:18858   */\n      dup2\n        /* \"#utility.yul\":18835:18858   */\n      swap1\n      pop\n        /* \"#utility.yul\":18811:18860   */\n    tag_685:\n        /* \"#utility.yul\":18873:18953   */\n      tag_686\n        /* \"#utility.yul\":18929:18951   */\n      tag_687\n        /* \"#utility.yul\":18947:18950   */\n      dup6\n        /* \"#utility.yul\":18929:18951   */\n      tag_461\n      jump\t// in\n    tag_687:\n        /* \"#utility.yul\":18919:18927   */\n      dup4\n        /* \"#utility.yul\":18915:18952   */\n      add\n        /* \"#utility.yul\":18902:18913   */\n      dup3\n        /* \"#utility.yul\":18873:18953   */\n      tag_470\n      jump\t// in\n    tag_686:\n        /* \"#utility.yul\":18532:18963   */\n      pop\n      pop\n        /* \"#utility.yul\":18517:18963   */\n    tag_682:\n        /* \"#utility.yul\":18427:18970   */\n      pop\n      pop\n      pop\n      jump\t// out\n        /* \"#utility.yul\":18976:19093   */\n    tag_472:\n        /* \"#utility.yul\":19030:19038   */\n      0x00\n        /* \"#utility.yul\":19080:19085   */\n      dup3\n        /* \"#utility.yul\":19074:19078   */\n      dup3\n        /* \"#utility.yul\":19070:19086   */\n      shr\n        /* \"#utility.yul\":19049:19086   */\n      swap1\n      pop\n        /* \"#utility.yul\":18976:19093   */\n      swap3\n      swap2\n      pop\n      pop\n      jump\t// out\n        /* \"#utility.yul\":19099:19268   */\n    tag_473:\n        /* \"#utility.yul\":19143:19149   */\n      0x00\n        /* \"#utility.yul\":19176:19227   */\n      tag_690\n        /* \"#utility.yul\":19224:19225   */\n      0x00\n        /* \"#utility.yul\":19220:19226   */\n      not\n        /* \"#utility.yul\":19212:19217   */\n      dup5\n        /* \"#utility.yul\":19209:19210   */\n      0x08\n        /* \"#utility.yul\":19205:19218   */\n      mul\n        /* \"#utility.yul\":19176:19227   */\n      tag_472\n      jump\t// in\n    tag_690:\n        /* \"#utility.yul\":19172:19228   */\n      not\n        /* \"#utility.yul\":19257:19261   */\n      dup1\n        /* \"#utility.yul\":19251:19255   */\n      dup4\n        /* \"#utility.yul\":19247:19262   */\n      and\n        /* \"#utility.yul\":19237:19262   */\n      swap2\n      pop\n        /* \"#utility.yul\":19150:19268   */\n      pop\n        /* \"#utility.yul\":19099:19268   */\n      swap3\n      swap2\n      pop\n      pop\n      jump\t// out\n        /* \"#utility.yul\":19273:19568   */\n    tag_474:\n        /* \"#utility.yul\":19349:19353   */\n      0x00\n        /* \"#utility.yul\":19495:19524   */\n      tag_692\n        /* \"#utility.yul\":19520:19523   */\n      dup4\n        /* \"#utility.yul\":19514:19518   */\n      dup4\n        /* \"#utility.yul\":19495:19524   */\n      tag_473\n      jump\t// in\n    tag_692:\n        /* \"#utility.yul\":19487:19524   */\n      swap2\n      pop\n        /* \"#utility.yul\":19557:19560   */\n      dup3\n        /* \"#utility.yul\":19554:19555   */\n      0x02\n        /* \"#utility.yul\":19550:19561   */\n      mul\n        /* \"#utility.yul\":19544:19548   */\n      dup3\n        /* \"#utility.yul\":19541:19562   */\n      or\n        /* \"#utility.yul\":19533:19562   */\n      swap1\n      pop\n        /* \"#utility.yul\":19273:19568   */\n      swap3\n      swap2\n      pop\n      pop\n      jump\t// out\n        /* \"#utility.yul\":19573:20968   */\n    tag_311:\n        /* \"#utility.yul\":19690:19727   */\n      tag_694\n        /* \"#utility.yul\":19723:19726   */\n      dup3\n        /* \"#utility.yul\":19690:19727   */\n      tag_416\n      jump\t// in\n    tag_694:\n        /* \"#utility.yul\":19792:19810   */\n      0xffffffffffffffff\n        /* \"#utility.yul\":19784:19790   */\n      dup2\n        /* \"#utility.yul\":19781:19811   */\n      gt\n        /* \"#utility.yul\":19778:19834   */\n      iszero\n      tag_695\n      jumpi\n        /* \"#utility.yul\":19814:19832   */\n      tag_696\n      tag_438\n      jump\t// in\n    tag_696:\n        /* \"#utility.yul\":19778:19834   */\n    tag_695:\n        /* \"#utility.yul\":19858:19896   */\n      tag_697\n        /* \"#utility.yul\":19890:19894   */\n      dup3\n        /* \"#utility.yul\":19884:19895   */\n      sload\n        /* \"#utility.yul\":19858:19896   */\n      tag_252\n      jump\t// in\n    tag_697:\n        /* \"#utility.yul\":19943:20010   */\n      tag_698\n        /* \"#utility.yul\":20003:20009   */\n      dup3\n        /* \"#utility.yul\":19995:20001   */\n      dup3\n        /* \"#utility.yul\":19989:19993   */\n      dup6\n        /* \"#utility.yul\":19943:20010   */\n      tag_471\n      jump\t// in\n    tag_698:\n        /* \"#utility.yul\":20037:20038   */\n      0x00\n        /* \"#utility.yul\":20061:20065   */\n      0x20\n        /* \"#utility.yul\":20048:20065   */\n      swap1\n      pop\n        /* \"#utility.yul\":20093:20095   */\n      0x1f\n        /* \"#utility.yul\":20085:20091   */\n      dup4\n        /* \"#utility.yul\":20082:20096   */\n      gt\n        /* \"#utility.yul\":20110:20111   */\n      0x01\n        /* \"#utility.yul\":20105:20723   */\n      dup2\n      eq\n      tag_700\n      jumpi\n        /* \"#utility.yul\":20767:20768   */\n      0x00\n        /* \"#utility.yul\":20784:20790   */\n      dup5\n        /* \"#utility.yul\":20781:20858   */\n      iszero\n      tag_701\n      jumpi\n        /* \"#utility.yul\":20833:20842   */\n      dup3\n        /* \"#utility.yul\":20828:20831   */\n      dup8\n        /* \"#utility.yul\":20824:20843   */\n      add\n        /* \"#utility.yul\":20818:20844   */\n      mload\n        /* \"#utility.yul\":20809:20844   */\n      swap1\n      pop\n        /* \"#utility.yul\":20781:20858   */\n    tag_701:\n        /* \"#utility.yul\":20884:20951   */\n      tag_702\n        /* \"#utility.yul\":20944:20950   */\n      dup6\n        /* \"#utility.yul\":20937:20942   */\n      dup3\n        /* \"#utility.yul\":20884:20951   */\n      tag_474\n      jump\t// in\n    tag_702:\n        /* \"#utility.yul\":20878:20882   */\n      dup7\n        /* \"#utility.yul\":20871:20952   */\n      sstore\n        /* \"#utility.yul\":20740:20962   */\n      pop\n        /* \"#utility.yul\":20075:20962   */\n      jump(tag_699)\n        /* \"#utility.yul\":20105:20723   */\n    tag_700:\n        /* \"#utility.yul\":20157:20161   */\n      0x1f\n        /* \"#utility.yul\":20153:20162   */\n      not\n        /* \"#utility.yul\":20145:20151   */\n      dup5\n        /* \"#utility.yul\":20141:20163   */\n      and\n        /* \"#utility.yul\":20191:20228   */\n      tag_703\n        /* \"#utility.yul\":20223:20227   */\n      dup7\n        /* \"#utility.yul\":20191:20228   */\n      tag_460\n      jump\t// in\n    tag_703:\n        /* \"#utility.yul\":20250:20251   */\n      0x00\n        /* \"#utility.yul\":20264:20472   */\n    tag_704:\n        /* \"#utility.yul\":20278:20285   */\n      dup3\n        /* \"#utility.yul\":20275:20276   */\n      dup2\n        /* \"#utility.yul\":20272:20286   */\n      lt\n        /* \"#utility.yul\":20264:20472   */\n      iszero\n      tag_706\n      jumpi\n        /* \"#utility.yul\":20357:20366   */\n      dup5\n        /* \"#utility.yul\":20352:20355   */\n      dup10\n        /* \"#utility.yul\":20348:20367   */\n      add\n        /* \"#utility.yul\":20342:20368   */\n      mload\n        /* \"#utility.yul\":20334:20340   */\n      dup3\n        /* \"#utility.yul\":20327:20369   */\n      sstore\n        /* \"#utility.yul\":20408:20409   */\n      0x01\n        /* \"#utility.yul\":20400:20406   */\n      dup3\n        /* \"#utility.yul\":20396:20410   */\n      add\n        /* \"#utility.yul\":20386:20410   */\n      swap2\n      pop\n        /* \"#utility.yul\":20455:20457   */\n      0x20\n        /* \"#utility.yul\":20444:20453   */\n      dup6\n        /* \"#utility.yul\":20440:20458   */\n      add\n        /* \"#utility.yul\":20427:20458   */\n      swap5\n      pop\n        /* \"#utility.yul\":20301:20305   */\n      0x20\n        /* \"#utility.yul\":20298:20299   */\n      dup2\n        /* \"#utility.yul\":20294:20306   */\n      add\n        /* \"#utility.yul\":20289:20306   */\n      swap1\n      pop\n        /* \"#utility.yul\":20264:20472   */\n      jump(tag_704)\n    tag_706:\n        /* \"#utility.yul\":20500:20506   */\n      dup7\n        /* \"#utility.yul\":20491:20498   */\n      dup4\n        /* \"#utility.yul\":20488:20507   */\n      lt\n        /* \"#utility.yul\":20485:20664   */\n      iszero\n      tag_707\n      jumpi\n        /* \"#utility.yul\":20558:20567   */\n      dup5\n        /* \"#utility.yul\":20553:20556   */\n      dup10\n        /* \"#utility.yul\":20549:20568   */\n      add\n        /* \"#utility.yul\":20543:20569   */\n      mload\n        /* \"#utility.yul\":20601:20649   */\n      tag_708\n        /* \"#utility.yul\":20643:20647   */\n      0x1f\n        /* \"#utility.yul\":20635:20641   */\n      dup10\n        /* \"#utility.yul\":20631:20648   */\n      and\n        /* \"#utility.yul\":20620:20629   */\n      dup3\n        /* \"#utility.yul\":20601:20649   */\n      tag_473\n      jump\t// in\n    tag_708:\n        /* \"#utility.yul\":20593:20599   */\n      dup4\n        /* \"#utility.yul\":20586:20650   */\n      sstore\n        /* \"#utility.yul\":20508:20664   */\n      pop\n        /* \"#utility.yul\":20485:20664   */\n    tag_707:\n        /* \"#utility.yul\":20710:20711   */\n      0x01\n        /* \"#utility.yul\":20706:20707   */\n      0x02\n        /* \"#utility.yul\":20698:20704   */\n      dup9\n        /* \"#utility.yul\":20694:20708   */\n      mul\n        /* \"#utility.yul\":20690:20712   */\n      add\n        /* \"#utility.yul\":20684:20688   */\n      dup9\n        /* \"#utility.yul\":20677:20713   */\n      sstore\n        /* \"#utility.yul\":20112:20723   */\n      pop\n      pop\n      pop\n        /* \"#utility.yul\":20075:20962   */\n    tag_699:\n      pop\n        /* \"#utility.yul\":19665:20968   */\n      pop\n      pop\n      pop\n        /* \"#utility.yul\":19573:20968   */\n      pop\n      pop\n      jump\t// out\n        /* \"#utility.yul\":20974:21165   */\n    tag_340:\n        /* \"#utility.yul\":21014:21017   */\n      0x00\n        /* \"#utility.yul\":21033:21053   */\n      tag_710\n        /* \"#utility.yul\":21051:21052   */\n      dup3\n        /* \"#utility.yul\":21033:21053   */\n      tag_428\n      jump\t// in\n    tag_710:\n        /* \"#utility.yul\":21028:21053   */\n      swap2\n      pop\n        /* \"#utility.yul\":21067:21087   */\n      tag_711\n        /* \"#utility.yul\":21085:21086   */\n      dup4\n        /* \"#utility.yul\":21067:21087   */\n      tag_428\n      jump\t// in\n    tag_711:\n        /* \"#utility.yul\":21062:21087   */\n      swap3\n      pop\n        /* \"#utility.yul\":21110:21111   */\n      dup3\n        /* \"#utility.yul\":21107:21108   */\n      dup3\n        /* \"#utility.yul\":21103:21112   */\n      add\n        /* \"#utility.yul\":21096:21112   */\n      swap1\n      pop\n        /* \"#utility.yul\":21131:21134   */\n      dup1\n        /* \"#utility.yul\":21128:21129   */\n      dup3\n        /* \"#utility.yul\":21125:21135   */\n      gt\n        /* \"#utility.yul\":21122:21158   */\n      iszero\n      tag_712\n      jumpi\n        /* \"#utility.yul\":21138:21156   */\n      tag_713\n      tag_459\n      jump\t// in\n    tag_713:\n        /* \"#utility.yul\":21122:21158   */\n    tag_712:\n        /* \"#utility.yul\":20974:21165   */\n      swap3\n      swap2\n      pop\n      pop\n      jump\t// out\n\n    auxdata: 0xa26469706673582212204e4cbc30e37389e7e0bf8044ee16b0724f5c9b972ec5373a814542e854a65be064736f6c63430008170033\n}\n",
				"bytecode": {
					"linkReferences": {},
					"object": "61330061004e600b8282823980515f1a607314610042577f4e487b71000000000000000000000000000000000000000000000000000000005f525f60045260245ffd5b305f52607381538281f3fe730000000000000000000000000000000000000000301460806040526004361061029e575f3560e01c8063821abc2d11610170578063b0d4ce25116100d7578063ddca3f4311610090578063ddca3f43146108ba578063dec84db1146108d8578063e149f03614610900578063e68fdee114610930578063edc3bc3f14610958578063f589b754146109885761029e565b8063b0d4ce25146107d6578063b62d8b91146107fe578063d01251521461082e578063d20b6ee714610856578063d547cfb714610874578063dbe0b21c146108925761029e565b8063963bfe1211610129578063963bfe12146106f257806398995f7714610710578063a05cc5591461072e578063a330117314610756578063a7cc01361461077e578063ad715f2e146107ae5761029e565b8063821abc2d14610616578063830d40911461063e578063854f9db9146106665780638fca4dbe1461068e5780639451c99a146106b657806395d89b41146106d45761029e565b806339b37ab0116102145780634f4979ed116101cd5780634f4979ed146105325780635b43bc991461055a5780636c8b703f146105825780636ff97f1d146105b257806374e24367146105d0578063810536ec146106005761029e565b806339b37ab01461044457806340e02f5c1461046c57806341bb05591461049457806344faf255146104bc57806347f69eba146104da57806349a0a50e1461050a5761029e565b8063247c6ce011610266578063247c6ce01461035e57806331413efc1461038657806332b07b43146103ae57806333171809146103d6578063345e7b28146103f45780633802497b1461041c5761029e565b806306fdde03146102a2578063071bc71c146102c057806313c19ff6146102e857806319f862001461031057806321b0ed7d1461032e575b5f80fd5b6102aa6109a6565b6040516102b79190612839565b60405180910390f35b8180156102cb575f80fd5b506102e660048036038101906102e191906128f7565b610a7c565b005b8180156102f3575f80fd5b5061030e60048036038101906103099190612947565b610d5e565b005b610318610df9565b604051610325919061299d565b60405180910390f35b610348600480360381019061034391906129b6565b610e48565b60405161035591906129f0565b60405180910390f35b818015610369575f80fd5b50610384600480360381019061037f9190612a33565b610ed4565b005b818015610391575f80fd5b506103ac60048036038101906103a791906129b6565b610f24565b005b8180156103b9575f80fd5b506103d460048036038101906103cf9190612a5e565b61103e565b005b6103de61108e565b6040516103eb919061299d565b60405180910390f35b8180156103ff575f80fd5b5061041a60048036038101906104159190612a5e565b6110dd565b005b818015610427575f80fd5b50610442600480360381019061043d9190612a33565b61112d565b005b81801561044f575f80fd5b5061046a60048036038101906104659190612a5e565b61117d565b005b818015610477575f80fd5b50610492600480360381019061048d9190612a5e565b6111cd565b005b81801561049f575f80fd5b506104ba60048036038101906104b59190612bb5565b611477565b005b6104c46114d0565b6040516104d191906129f0565b60405180910390f35b6104f460048036038101906104ef9190612a5e565b61151f565b60405161050191906129f0565b60405180910390f35b818015610515575f80fd5b50610530600480360381019061052b91906128f7565b61157f565b005b81801561053d575f80fd5b50610558600480360381019061055391906128f7565b61161b565b005b818015610565575f80fd5b50610580600480360381019061057b9190612bb5565b611713565b005b61059c60048036038101906105979190612a5e565b61176c565b6040516105a99190612839565b60405180910390f35b6105ba611853565b6040516105c79190612cb3565b60405180910390f35b6105ea60048036038101906105e59190612a5e565b6118ef565b6040516105f791906129f0565b60405180910390f35b81801561060b575f80fd5b5061061461194f565b005b818015610621575f80fd5b5061063c60048036038101906106379190612bb5565b6119f7565b005b818015610649575f80fd5b50610664600480360381019061065f9190612d08565b611a50565b005b818015610671575f80fd5b5061068c60048036038101906106879190612a33565b611b2a565b005b818015610699575f80fd5b506106b460048036038101906106af9190612a5e565b611b7a565b005b6106be611bca565b6040516106cb91906129f0565b60405180910390f35b6106dc611c19565b6040516106e99190612839565b60405180910390f35b6106fa611cef565b6040516107079190612839565b60405180910390f35b610718611dc5565b60405161072591906129f0565b60405180910390f35b818015610739575f80fd5b50610754600480360381019061074f9190612bb5565b611e14565b005b818015610761575f80fd5b5061077c60048036038101906107779190612d58565b611e6c565b005b61079860048036038101906107939190612a5e565b611ef8565b6040516107a59190612dbf565b60405180910390f35b8180156107b9575f80fd5b506107d460048036038101906107cf9190612dd8565b611fbd565b005b8180156107e1575f80fd5b506107fc60048036038101906107f79190612e16565b61201d565b005b610818600480360381019061081391906129b6565b6120bb565b6040516108259190612e63565b60405180910390f35b818015610839575f80fd5b50610854600480360381019061084f91906129b6565b612153565b005b61085e61226d565b60405161086b91906129f0565b60405180910390f35b61087c6122bc565b6040516108899190612839565b60405180910390f35b81801561089d575f80fd5b506108b860048036038101906108b39190612a5e565b612391565b005b6108c26124a7565b6040516108cf91906129f0565b60405180910390f35b8180156108e3575f80fd5b506108fe60048036038101906108f99190612e7c565b6124f6565b005b61091a60048036038101906109159190612d58565b61255f565b60405161092791906129f0565b60405180910390f35b81801561093b575f80fd5b5061095660048036038101906109519190612dd8565b6125fb565b005b610972600480360381019061096d9190612ed6565b61265b565b60405161097f9190612e63565b60405180910390f35b61099061272f565b60405161099d919061299d565b60405180910390f35b60606109ed6040518060400160405280600681526020017f534d45616d6200000000000000000000000000000000000000000000000000008152508051906020012061277e565b600e0180546109fb90612f41565b80601f0160208091040260200160405190810160405280929190818152602001828054610a2790612f41565b8015610a725780601f10610a4957610100808354040283529160200191610a72565b820191905f5260205f20905b815481529060010190602001808311610a5557829003601f168201915b5050505050905090565b5f610ac26040518060400160405280600681526020017f534d45616d6200000000000000000000000000000000000000000000000000008152508051906020012061277e565b6004015f8481526020019081526020015f20549050818114610c69575f610b246040518060400160405280600681526020017f534d45616d6200000000000000000000000000000000000000000000000000008152508051906020012061277e565b6003015f8673ffffffffffffffffffffffffffffffffffffffff1673ffffffffffffffffffffffffffffffffffffffff1681526020019081526020015f205f8481526020019081526020015f2054905080610bba6040518060400160405280600681526020017f534d45616d6200000000000000000000000000000000000000000000000000008152508051906020012061277e565b6003015f8773ffffffffffffffffffffffffffffffffffffffff1673ffffffffffffffffffffffffffffffffffffffff1681526020019081526020015f205f8481526020019081526020015f208190555081610c516040518060400160405280600681526020017f534d45616d6200000000000000000000000000000000000000000000000000008152508051906020012061277e565b6004015f8381526020019081526020015f2081905550505b610cae6040518060400160405280600681526020017f534d45616d6200000000000000000000000000000000000000000000000000008152508051906020012061277e565b6004015f8481526020019081526020015f205f9055610d086040518060400160405280600681526020017f534d45616d6200000000000000000000000000000000000000000000000000008152508051906020012061277e565b6003015f8573ffffffffffffffffffffffffffffffffffffffff1673ffffffffffffffffffffffffffffffffffffffff1681526020019081526020015f205f8381526020019081526020015f205f905550505050565b80610da46040518060400160405280600681526020017f534d45616d6200000000000000000000000000000000000000000000000000008152508051906020012061277e565b6012015f8481526020019081526020015f205f015f6101000a81548173ffffffffffffffffffffffffffffffffffffffff021916908373ffffffffffffffffffffffffffffffffffffffff1602179055505050565b5f610e3f6040518060400160405280600681526020017f534d45616d6200000000000000000000000000000000000000000000000000008152508051906020012061277e565b60070154905090565b5f610e8e6040518060400160405280600681526020017f534d45616d6200000000000000000000000000000000000000000000000000008152508051906020012061277e565b6011015f8373ffffffffffffffffffffffffffffffffffffffff1673ffffffffffffffffffffffffffffffffffffffff1681526020019081526020015f20549050919050565b80610f1a6040518060400160405280600681526020017f534d45616d6200000000000000000000000000000000000000000000000000008152508051906020012061277e565b6009018190555050565b6001610f6b6040518060400160405280600681526020017f534d45616d6200000000000000000000000000000000000000000000000000008152508051906020012061277e565b6011015f8373ffffffffffffffffffffffffffffffffffffffff1673ffffffffffffffffffffffffffffffffffffffff1681526020019081526020015f2054610fb49190612f9e565b610ff96040518060400160405280600681526020017f534d45616d6200000000000000000000000000000000000000000000000000008152508051906020012061277e565b6011015f8373ffffffffffffffffffffffffffffffffffffffff1673ffffffffffffffffffffffffffffffffffffffff1681526020019081526020015f208190555050565b806110846040518060400160405280600681526020017f534d45616d6200000000000000000000000000000000000000000000000000008152508051906020012061277e565b6015018190555050565b5f6110d46040518060400160405280600681526020017f534d45616d6200000000000000000000000000000000000000000000000000008152508051906020012061277e565b60090154905090565b806111236040518060400160405280600681526020017f534d45616d6200000000000000000000000000000000000000000000000000008152508051906020012061277e565b600c018190555050565b806111736040518060400160405280600681526020017f534d45616d6200000000000000000000000000000000000000000000000000008152508051906020012061277e565b6007018190555050565b806111c36040518060400160405280600681526020017f534d45616d6200000000000000000000000000000000000000000000000000008152508051906020012061277e565b600a018190555050565b5f60016112156040518060400160405280600681526020017f534d45616d6200000000000000000000000000000000000000000000000000008152508051906020012061277e565b600501805490506112269190612f9e565b90505f61126e6040518060400160405280600681526020017f534d45616d6200000000000000000000000000000000000000000000000000008152508051906020012061277e565b6006015f8481526020019081526020015f205490505f6112c96040518060400160405280600681526020017f534d45616d6200000000000000000000000000000000000000000000000000008152508051906020012061277e565b60050183815481106112de576112dd612fd1565b5b905f5260205f20015490508061132f6040518060400160405280600681526020017f534d45616d6200000000000000000000000000000000000000000000000000008152508051906020012061277e565b600501838154811061134457611343612fd1565b5b905f5260205f200181905550816113966040518060400160405280600681526020017f534d45616d6200000000000000000000000000000000000000000000000000008152508051906020012061277e565b6006015f8381526020019081526020015f20819055506113f16040518060400160405280600681526020017f534d45616d6200000000000000000000000000000000000000000000000000008152508051906020012061277e565b6006015f8581526020019081526020015f205f905561144b6040518060400160405280600681526020017f534d45616d6200000000000000000000000000000000000000000000000000008152508051906020012061277e565b60050180548061145e5761145d612ffe565b5b600190038181905f5260205f20015f9055905550505050565b806114bd6040518060400160405280600681526020017f534d45616d6200000000000000000000000000000000000000000000000000008152508051906020012061277e565b600f0190816114cc91906131c8565b5050565b5f6115166040518060400160405280600681526020017f534d45616d6200000000000000000000000000000000000000000000000000008152508051906020012061277e565b600d0154905090565b5f6115656040518060400160405280600681526020017f534d45616d6200000000000000000000000000000000000000000000000000008152508051906020012061277e565b6010015f8381526020019081526020015f20549050919050565b806115c56040518060400160405280600681526020017f534d45616d6200000000000000000000000000000000000000000000000000008152508051906020012061277e565b6003015f8573ffffffffffffffffffffffffffffffffffffffff1673ffffffffffffffffffffffffffffffffffffffff1681526020019081526020015f205f8481526020019081526020015f2081905550505050565b816116616040518060400160405280600681526020017f534d45616d6200000000000000000000000000000000000000000000000000008152508051906020012061277e565b6003015f8573ffffffffffffffffffffffffffffffffffffffff1673ffffffffffffffffffffffffffffffffffffffff1681526020019081526020015f205f8381526020019081526020015f2081905550806116f86040518060400160405280600681526020017f534d45616d6200000000000000000000000000000000000000000000000000008152508051906020012061277e565b6004015f8481526020019081526020015f2081905550505050565b806117596040518060400160405280600681526020017f534d45616d6200000000000000000000000000000000000000000000000000008152508051906020012061277e565b600e01908161176891906131c8565b5050565b60606117b36040518060400160405280600681526020017f534d45616d6200000000000000000000000000000000000000000000000000008152508051906020012061277e565b6002015f8381526020019081526020015f2080546117d090612f41565b80601f01602080910402602001604051908101604052809291908181526020018280546117fc90612f41565b80156118475780601f1061181e57610100808354040283529160200191611847565b820191905f5260205f20905b81548152906001019060200180831161182a57829003601f168201915b50505050509050919050565b606061189a6040518060400160405280600681526020017f534d45616d6200000000000000000000000000000000000000000000000000008152508051906020012061277e565b6005018054806020026020016040519081016040528092919081815260200182805480156118e557602002820191905f5260205f20905b8154815260200190600101908083116118d1575b5050505050905090565b5f6119356040518060400160405280600681526020017f534d45616d6200000000000000000000000000000000000000000000000000008152508051906020012061277e565b6004015f8381526020019081526020015f20549050919050565b5f6119956040518060400160405280600681526020017f534d45616d6200000000000000000000000000000000000000000000000000008152508051906020012061277e565b6014015490506001816119a89190613297565b6119ed6040518060400160405280600681526020017f534d45616d6200000000000000000000000000000000000000000000000000008152508051906020012061277e565b6014018190555050565b80611a3d6040518060400160405280600681526020017f534d45616d6200000000000000000000000000000000000000000000000000008152508051906020012061277e565b6001019081611a4c91906131c8565b5050565b80611a966040518060400160405280600681526020017f534d45616d6200000000000000000000000000000000000000000000000000008152508051906020012061277e565b6013015f8573ffffffffffffffffffffffffffffffffffffffff1673ffffffffffffffffffffffffffffffffffffffff1681526020019081526020015f205f8473ffffffffffffffffffffffffffffffffffffffff1673ffffffffffffffffffffffffffffffffffffffff1681526020019081526020015f205f6101000a81548160ff021916908315150217905550505050565b80611b706040518060400160405280600681526020017f534d45616d6200000000000000000000000000000000000000000000000000008152508051906020012061277e565b6008018190555050565b80611bc06040518060400160405280600681526020017f534d45616d6200000000000000000000000000000000000000000000000000008152508051906020012061277e565b600d018190555050565b5f611c106040518060400160405280600681526020017f534d45616d6200000000000000000000000000000000000000000000000000008152508051906020012061277e565b600c0154905090565b6060611c606040518060400160405280600681526020017f534d45616d6200000000000000000000000000000000000000000000000000008152508051906020012061277e565b600f018054611c6e90612f41565b80601f0160208091040260200160405190810160405280929190818152602001828054611c9a90612f41565b8015611ce55780601f10611cbc57610100808354040283529160200191611ce5565b820191905f5260205f20905b815481529060010190602001808311611cc857829003601f168201915b5050505050905090565b6060611d366040518060400160405280600681526020017f534d45616d6200000000000000000000000000000000000000000000000000008152508051906020012061277e565b6001018054611d4490612f41565b80601f0160208091040260200160405190810160405280929190818152602001828054611d7090612f41565b8015611dbb5780601f10611d9257610100808354040283529160200191611dbb565b820191905f5260205f20905b815481529060010190602001808311611d9e57829003601f168201915b5050505050905090565b5f611e0b6040518060400160405280600681526020017f534d45616d6200000000000000000000000000000000000000000000000000008152508051906020012061277e565b60150154905090565b80611e5a6040518060400160405280600681526020017f534d45616d6200000000000000000000000000000000000000000000000000008152508051906020012061277e565b5f019081611e6891906131c8565b5050565b80611eb26040518060400160405280600681526020017f534d45616d6200000000000000000000000000000000000000000000000000008152508051906020012061277e565b6011015f8473ffffffffffffffffffffffffffffffffffffffff1673ffffffffffffffffffffffffffffffffffffffff1681526020019081526020015f20819055505050565b611f00612787565b611f456040518060400160405280600681526020017f534d45616d6200000000000000000000000000000000000000000000000000008152508051906020012061277e565b6012015f8381526020019081526020015f206040518060200160405290815f82015f9054906101000a900473ffffffffffffffffffffffffffffffffffffffff1673ffffffffffffffffffffffffffffffffffffffff1673ffffffffffffffffffffffffffffffffffffffff16815250509050919050565b806120036040518060400160405280600681526020017f534d45616d6200000000000000000000000000000000000000000000000000008152508051906020012061277e565b6004015f8481526020019081526020015f20819055505050565b806120636040518060400160405280600681526020017f534d45616d6200000000000000000000000000000000000000000000000000008152508051906020012061277e565b600b015f8473ffffffffffffffffffffffffffffffffffffffff1673ffffffffffffffffffffffffffffffffffffffff1681526020019081526020015f205f6101000a81548160ff0219169083151502179055505050565b5f6121016040518060400160405280600681526020017f534d45616d6200000000000000000000000000000000000000000000000000008152508051906020012061277e565b600b015f8373ffffffffffffffffffffffffffffffffffffffff1673ffffffffffffffffffffffffffffffffffffffff1681526020019081526020015f205f9054906101000a900460ff169050919050565b600161219a6040518060400160405280600681526020017f534d45616d6200000000000000000000000000000000000000000000000000008152508051906020012061277e565b6011015f8373ffffffffffffffffffffffffffffffffffffffff1673ffffffffffffffffffffffffffffffffffffffff1681526020019081526020015f20546121e39190613297565b6122286040518060400160405280600681526020017f534d45616d6200000000000000000000000000000000000000000000000000008152508051906020012061277e565b6011015f8373ffffffffffffffffffffffffffffffffffffffff1673ffffffffffffffffffffffffffffffffffffffff1681526020019081526020015f208190555050565b5f6122b36040518060400160405280600681526020017f534d45616d6200000000000000000000000000000000000000000000000000008152508051906020012061277e565b60140154905090565b60606123036040518060400160405280600681526020017f534d45616d6200000000000000000000000000000000000000000000000000008152508051906020012061277e565b5f01805461231090612f41565b80601f016020809104026020016040519081016040528092919081815260200182805461233c90612f41565b80156123875780601f1061235e57610100808354040283529160200191612387565b820191905f5260205f20905b81548152906001019060200180831161236a57829003601f168201915b5050505050905090565b6123d66040518060400160405280600681526020017f534d45616d6200000000000000000000000000000000000000000000000000008152508051906020012061277e565b600501805490506124226040518060400160405280600681526020017f534d45616d6200000000000000000000000000000000000000000000000000008152508051906020012061277e565b6006015f8381526020019081526020015f208190555061247d6040518060400160405280600681526020017f534d45616d6200000000000000000000000000000000000000000000000000008152508051906020012061277e565b60050181908060018154018082558091505060019003905f5260205f20015f909190919091505550565b5f6124ed6040518060400160405280600681526020017f534d45616d6200000000000000000000000000000000000000000000000000008152508051906020012061277e565b600a0154905090565b8161253c6040518060400160405280600681526020017f534d45616d6200000000000000000000000000000000000000000000000000008152508051906020012061277e565b6002015f8381526020019081526020015f20908161255a91906131c8565b505050565b5f6125a56040518060400160405280600681526020017f534d45616d6200000000000000000000000000000000000000000000000000008152508051906020012061277e565b6003015f8473ffffffffffffffffffffffffffffffffffffffff1673ffffffffffffffffffffffffffffffffffffffff1681526020019081526020015f205f8381526020019081526020015f2054905092915050565b806126416040518060400160405280600681526020017f534d45616d6200000000000000000000000000000000000000000000000000008152508051906020012061277e565b6010015f8481526020019081526020015f20819055505050565b5f6126a16040518060400160405280600681526020017f534d45616d6200000000000000000000000000000000000000000000000000008152508051906020012061277e565b6013015f8473ffffffffffffffffffffffffffffffffffffffff1673ffffffffffffffffffffffffffffffffffffffff1681526020019081526020015f205f8373ffffffffffffffffffffffffffffffffffffffff1673ffffffffffffffffffffffffffffffffffffffff1681526020019081526020015f205f9054906101000a900460ff16905092915050565b5f6127756040518060400160405280600681526020017f534d45616d6200000000000000000000000000000000000000000000000000008152508051906020012061277e565b60080154905090565b5f819050919050565b60405180602001604052805f73ffffffffffffffffffffffffffffffffffffffff1681525090565b5f81519050919050565b5f82825260208201905092915050565b5f5b838110156127e65780820151818401526020810190506127cb565b5f8484015250505050565b5f601f19601f8301169050919050565b5f61280b826127af565b61281581856127b9565b93506128258185602086016127c9565b61282e816127f1565b840191505092915050565b5f6020820190508181035f8301526128518184612801565b905092915050565b5f604051905090565b5f80fd5b5f80fd5b5f73ffffffffffffffffffffffffffffffffffffffff82169050919050565b5f6128938261286a565b9050919050565b6128a381612889565b81146128ad575f80fd5b50565b5f813590506128be8161289a565b92915050565b5f819050919050565b6128d6816128c4565b81146128e0575f80fd5b50565b5f813590506128f1816128cd565b92915050565b5f805f6060848603121561290e5761290d612862565b5b5f61291b868287016128b0565b935050602061292c868287016128e3565b925050604061293d868287016128e3565b9150509250925092565b5f806040838503121561295d5761295c612862565b5b5f61296a858286016128e3565b925050602061297b858286016128b0565b9150509250929050565b5f819050919050565b61299781612985565b82525050565b5f6020820190506129b05f83018461298e565b92915050565b5f602082840312156129cb576129ca612862565b5b5f6129d8848285016128b0565b91505092915050565b6129ea816128c4565b82525050565b5f602082019050612a035f8301846129e1565b92915050565b612a1281612985565b8114612a1c575f80fd5b50565b5f81359050612a2d81612a09565b92915050565b5f60208284031215612a4857612a47612862565b5b5f612a5584828501612a1f565b91505092915050565b5f60208284031215612a7357612a72612862565b5b5f612a80848285016128e3565b91505092915050565b5f80fd5b5f80fd5b7f4e487b71000000000000000000000000000000000000000000000000000000005f52604160045260245ffd5b612ac7826127f1565b810181811067ffffffffffffffff82111715612ae657612ae5612a91565b5b80604052505050565b5f612af8612859565b9050612b048282612abe565b919050565b5f67ffffffffffffffff821115612b2357612b22612a91565b5b612b2c826127f1565b9050602081019050919050565b828183375f83830152505050565b5f612b59612b5484612b09565b612aef565b905082815260208101848484011115612b7557612b74612a8d565b5b612b80848285612b39565b509392505050565b5f82601f830112612b9c57612b9b612a89565b5b8135612bac848260208601612b47565b91505092915050565b5f60208284031215612bca57612bc9612862565b5b5f82013567ffffffffffffffff811115612be757612be6612866565b5b612bf384828501612b88565b91505092915050565b5f81519050919050565b5f82825260208201905092915050565b5f819050602082019050919050565b612c2e816128c4565b82525050565b5f612c3f8383612c25565b60208301905092915050565b5f602082019050919050565b5f612c6182612bfc565b612c6b8185612c06565b9350612c7683612c16565b805f5b83811015612ca6578151612c8d8882612c34565b9750612c9883612c4b565b925050600181019050612c79565b5085935050505092915050565b5f6020820190508181035f830152612ccb8184612c57565b905092915050565b5f8115159050919050565b612ce781612cd3565b8114612cf1575f80fd5b50565b5f81359050612d0281612cde565b92915050565b5f805f60608486031215612d1f57612d1e612862565b5b5f612d2c868287016128b0565b9350506020612d3d868287016128b0565b9250506040612d4e86828701612cf4565b9150509250925092565b5f8060408385031215612d6e57612d6d612862565b5b5f612d7b858286016128b0565b9250506020612d8c858286016128e3565b9150509250929050565b612d9f81612889565b82525050565b602082015f820151612db95f850182612d96565b50505050565b5f602082019050612dd25f830184612da5565b92915050565b5f8060408385031215612dee57612ded612862565b5b5f612dfb858286016128e3565b9250506020612e0c858286016128e3565b9150509250929050565b5f8060408385031215612e2c57612e2b612862565b5b5f612e39858286016128b0565b9250506020612e4a85828601612cf4565b9150509250929050565b612e5d81612cd3565b82525050565b5f602082019050612e765f830184612e54565b92915050565b5f8060408385031215612e9257612e91612862565b5b5f83013567ffffffffffffffff811115612eaf57612eae612866565b5b612ebb85828601612b88565b9250506020612ecc858286016128e3565b9150509250929050565b5f8060408385031215612eec57612eeb612862565b5b5f612ef9858286016128b0565b9250506020612f0a858286016128b0565b9150509250929050565b7f4e487b71000000000000000000000000000000000000000000000000000000005f52602260045260245ffd5b5f6002820490506001821680612f5857607f821691505b602082108103612f6b57612f6a612f14565b5b50919050565b7f4e487b71000000000000000000000000000000000000000000000000000000005f52601160045260245ffd5b5f612fa8826128c4565b9150612fb3836128c4565b9250828203905081811115612fcb57612fca612f71565b5b92915050565b7f4e487b71000000000000000000000000000000000000000000000000000000005f52603260045260245ffd5b7f4e487b71000000000000000000000000000000000000000000000000000000005f52603160045260245ffd5b5f819050815f5260205f209050919050565b5f6020601f8301049050919050565b5f82821b905092915050565b5f600883026130877fffffffffffffffffffffffffffffffffffffffffffffffffffffffffffffffff8261304c565b613091868361304c565b95508019841693508086168417925050509392505050565b5f819050919050565b5f6130cc6130c76130c2846128c4565b6130a9565b6128c4565b9050919050565b5f819050919050565b6130e5836130b2565b6130f96130f1826130d3565b848454613058565b825550505050565b5f90565b61310d613101565b6131188184846130dc565b505050565b5b8181101561313b576131305f82613105565b60018101905061311e565b5050565b601f821115613180576131518161302b565b61315a8461303d565b81016020851015613169578190505b61317d6131758561303d565b83018261311d565b50505b505050565b5f82821c905092915050565b5f6131a05f1984600802613185565b1980831691505092915050565b5f6131b88383613191565b9150826002028217905092915050565b6131d1826127af565b67ffffffffffffffff8111156131ea576131e9612a91565b5b6131f48254612f41565b6131ff82828561313f565b5f60209050601f831160018114613230575f841561321e578287015190505b61322885826131ad565b86555061328f565b601f19841661323e8661302b565b5f5b8281101561326557848901518255600182019150602085019450602081019050613240565b86831015613282578489015161327e601f891682613191565b8355505b6001600288020188555050505b505050505050565b5f6132a1826128c4565b91506132ac836128c4565b92508282019050808211156132c4576132c3612f71565b5b9291505056fea26469706673582212204e4cbc30e37389e7e0bf8044ee16b0724f5c9b972ec5373a814542e854a65be064736f6c63430008170033",
					"opcodes": "PUSH2 0x3300 PUSH2 0x4E PUSH1 0xB DUP3 DUP3 DUP3 CODECOPY DUP1 MLOAD PUSH0 BYTE PUSH1 0x73 EQ PUSH2 0x42 JUMPI PUSH32 0x4E487B7100000000000000000000000000000000000000000000000000000000 PUSH0 MSTORE PUSH0 PUSH1 0x4 MSTORE PUSH1 0x24 PUSH0 REVERT JUMPDEST ADDRESS PUSH0 MSTORE PUSH1 0x73 DUP2 MSTORE8 DUP3 DUP2 RETURN INVALID PUSH20 0x0 ADDRESS EQ PUSH1 0x80 PUSH1 0x40 MSTORE PUSH1 0x4 CALLDATASIZE LT PUSH2 0x29E JUMPI PUSH0 CALLDATALOAD PUSH1 0xE0 SHR DUP1 PUSH4 0x821ABC2D GT PUSH2 0x170 JUMPI DUP1 PUSH4 0xB0D4CE25 GT PUSH2 0xD7 JUMPI DUP1 PUSH4 0xDDCA3F43 GT PUSH2 0x90 JUMPI DUP1 PUSH4 0xDDCA3F43 EQ PUSH2 0x8BA JUMPI DUP1 PUSH4 0xDEC84DB1 EQ PUSH2 0x8D8 JUMPI DUP1 PUSH4 0xE149F036 EQ PUSH2 0x900 JUMPI DUP1 PUSH4 0xE68FDEE1 EQ PUSH2 0x930 JUMPI DUP1 PUSH4 0xEDC3BC3F EQ PUSH2 0x958 JUMPI DUP1 PUSH4 0xF589B754 EQ PUSH2 0x988 JUMPI PUSH2 0x29E JUMP JUMPDEST DUP1 PUSH4 0xB0D4CE25 EQ PUSH2 0x7D6 JUMPI DUP1 PUSH4 0xB62D8B91 EQ PUSH2 0x7FE JUMPI DUP1 PUSH4 0xD0125152 EQ PUSH2 0x82E JUMPI DUP1 PUSH4 0xD20B6EE7 EQ PUSH2 0x856 JUMPI DUP1 PUSH4 0xD547CFB7 EQ PUSH2 0x874 JUMPI DUP1 PUSH4 0xDBE0B21C EQ PUSH2 0x892 JUMPI PUSH2 0x29E JUMP JUMPDEST DUP1 PUSH4 0x963BFE12 GT PUSH2 0x129 JUMPI DUP1 PUSH4 0x963BFE12 EQ PUSH2 0x6F2 JUMPI DUP1 PUSH4 0x98995F77 EQ PUSH2 0x710 JUMPI DUP1 PUSH4 0xA05CC559 EQ PUSH2 0x72E JUMPI DUP1 PUSH4 0xA3301173 EQ PUSH2 0x756 JUMPI DUP1 PUSH4 0xA7CC0136 EQ PUSH2 0x77E JUMPI DUP1 PUSH4 0xAD715F2E EQ PUSH2 0x7AE JUMPI PUSH2 0x29E JUMP JUMPDEST DUP1 PUSH4 0x821ABC2D EQ PUSH2 0x616 JUMPI DUP1 PUSH4 0x830D4091 EQ PUSH2 0x63E JUMPI DUP1 PUSH4 0x854F9DB9 EQ PUSH2 0x666 JUMPI DUP1 PUSH4 0x8FCA4DBE EQ PUSH2 0x68E JUMPI DUP1 PUSH4 0x9451C99A EQ PUSH2 0x6B6 JUMPI DUP1 PUSH4 0x95D89B41 EQ PUSH2 0x6D4 JUMPI PUSH2 0x29E JUMP JUMPDEST DUP1 PUSH4 0x39B37AB0 GT PUSH2 0x214 JUMPI DUP1 PUSH4 0x4F4979ED GT PUSH2 0x1CD JUMPI DUP1 PUSH4 0x4F4979ED EQ PUSH2 0x532 JUMPI DUP1 PUSH4 0x5B43BC99 EQ PUSH2 0x55A JUMPI DUP1 PUSH4 0x6C8B703F EQ PUSH2 0x582 JUMPI DUP1 PUSH4 0x6FF97F1D EQ PUSH2 0x5B2 JUMPI DUP1 PUSH4 0x74E24367 EQ PUSH2 0x5D0 JUMPI DUP1 PUSH4 0x810536EC EQ PUSH2 0x600 JUMPI PUSH2 0x29E JUMP JUMPDEST DUP1 PUSH4 0x39B37AB0 EQ PUSH2 0x444 JUMPI DUP1 PUSH4 0x40E02F5C EQ PUSH2 0x46C JUMPI DUP1 PUSH4 0x41BB0559 EQ PUSH2 0x494 JUMPI DUP1 PUSH4 0x44FAF255 EQ PUSH2 0x4BC JUMPI DUP1 PUSH4 0x47F69EBA EQ PUSH2 0x4DA JUMPI DUP1 PUSH4 0x49A0A50E EQ PUSH2 0x50A JUMPI PUSH2 0x29E JUMP JUMPDEST DUP1 PUSH4 0x247C6CE0 GT PUSH2 0x266 JUMPI DUP1 PUSH4 0x247C6CE0 EQ PUSH2 0x35E JUMPI DUP1 PUSH4 0x31413EFC EQ PUSH2 0x386 JUMPI DUP1 PUSH4 0x32B07B43 EQ PUSH2 0x3AE JUMPI DUP1 PUSH4 0x33171809 EQ PUSH2 0x3D6 JUMPI DUP1 PUSH4 0x345E7B28 EQ PUSH2 0x3F4 JUMPI DUP1 PUSH4 0x3802497B EQ PUSH2 0x41C JUMPI PUSH2 0x29E JUMP JUMPDEST DUP1 PUSH4 0x6FDDE03 EQ PUSH2 0x2A2 JUMPI DUP1 PUSH4 0x71BC71C EQ PUSH2 0x2C0 JUMPI DUP1 PUSH4 0x13C19FF6 EQ PUSH2 0x2E8 JUMPI DUP1 PUSH4 0x19F86200 EQ PUSH2 0x310 JUMPI DUP1 PUSH4 0x21B0ED7D EQ PUSH2 0x32E JUMPI JUMPDEST PUSH0 DUP1 REVERT JUMPDEST PUSH2 0x2AA PUSH2 0x9A6 JUMP JUMPDEST PUSH1 0x40 MLOAD PUSH2 0x2B7 SWAP2 SWAP1 PUSH2 0x2839 JUMP JUMPDEST PUSH1 0x40 MLOAD DUP1 SWAP2 SUB SWAP1 RETURN JUMPDEST DUP2 DUP1 ISZERO PUSH2 0x2CB JUMPI PUSH0 DUP1 REVERT JUMPDEST POP PUSH2 0x2E6 PUSH1 0x4 DUP1 CALLDATASIZE SUB DUP2 ADD SWAP1 PUSH2 0x2E1 SWAP2 SWAP1 PUSH2 0x28F7 JUMP JUMPDEST PUSH2 0xA7C JUMP JUMPDEST STOP JUMPDEST DUP2 DUP1 ISZERO PUSH2 0x2F3 JUMPI PUSH0 DUP1 REVERT JUMPDEST POP PUSH2 0x30E PUSH1 0x4 DUP1 CALLDATASIZE SUB DUP2 ADD SWAP1 PUSH2 0x309 SWAP2 SWAP1 PUSH2 0x2947 JUMP JUMPDEST PUSH2 0xD5E JUMP JUMPDEST STOP JUMPDEST PUSH2 0x318 PUSH2 0xDF9 JUMP JUMPDEST PUSH1 0x40 MLOAD PUSH2 0x325 SWAP2 SWAP1 PUSH2 0x299D JUMP JUMPDEST PUSH1 0x40 MLOAD DUP1 SWAP2 SUB SWAP1 RETURN JUMPDEST PUSH2 0x348 PUSH1 0x4 DUP1 CALLDATASIZE SUB DUP2 ADD SWAP1 PUSH2 0x343 SWAP2 SWAP1 PUSH2 0x29B6 JUMP JUMPDEST PUSH2 0xE48 JUMP JUMPDEST PUSH1 0x40 MLOAD PUSH2 0x355 SWAP2 SWAP1 PUSH2 0x29F0 JUMP JUMPDEST PUSH1 0x40 MLOAD DUP1 SWAP2 SUB SWAP1 RETURN JUMPDEST DUP2 DUP1 ISZERO PUSH2 0x369 JUMPI PUSH0 DUP1 REVERT JUMPDEST POP PUSH2 0x384 PUSH1 0x4 DUP1 CALLDATASIZE SUB DUP2 ADD SWAP1 PUSH2 0x37F SWAP2 SWAP1 PUSH2 0x2A33 JUMP JUMPDEST PUSH2 0xED4 JUMP JUMPDEST STOP JUMPDEST DUP2 DUP1 ISZERO PUSH2 0x391 JUMPI PUSH0 DUP1 REVERT JUMPDEST POP PUSH2 0x3AC PUSH1 0x4 DUP1 CALLDATASIZE SUB DUP2 ADD SWAP1 PUSH2 0x3A7 SWAP2 SWAP1 PUSH2 0x29B6 JUMP JUMPDEST PUSH2 0xF24 JUMP JUMPDEST STOP JUMPDEST DUP2 DUP1 ISZERO PUSH2 0x3B9 JUMPI PUSH0 DUP1 REVERT JUMPDEST POP PUSH2 0x3D4 PUSH1 0x4 DUP1 CALLDATASIZE SUB DUP2 ADD SWAP1 PUSH2 0x3CF SWAP2 SWAP1 PUSH2 0x2A5E JUMP JUMPDEST PUSH2 0x103E JUMP JUMPDEST STOP JUMPDEST PUSH2 0x3DE PUSH2 0x108E JUMP JUMPDEST PUSH1 0x40 MLOAD PUSH2 0x3EB SWAP2 SWAP1 PUSH2 0x299D JUMP JUMPDEST PUSH1 0x40 MLOAD DUP1 SWAP2 SUB SWAP1 RETURN JUMPDEST DUP2 DUP1 ISZERO PUSH2 0x3FF JUMPI PUSH0 DUP1 REVERT JUMPDEST POP PUSH2 0x41A PUSH1 0x4 DUP1 CALLDATASIZE SUB DUP2 ADD SWAP1 PUSH2 0x415 SWAP2 SWAP1 PUSH2 0x2A5E JUMP JUMPDEST PUSH2 0x10DD JUMP JUMPDEST STOP JUMPDEST DUP2 DUP1 ISZERO PUSH2 0x427 JUMPI PUSH0 DUP1 REVERT JUMPDEST POP PUSH2 0x442 PUSH1 0x4 DUP1 CALLDATASIZE SUB DUP2 ADD SWAP1 PUSH2 0x43D SWAP2 SWAP1 PUSH2 0x2A33 JUMP JUMPDEST PUSH2 0x112D JUMP JUMPDEST STOP JUMPDEST DUP2 DUP1 ISZERO PUSH2 0x44F JUMPI PUSH0 DUP1 REVERT JUMPDEST POP PUSH2 0x46A PUSH1 0x4 DUP1 CALLDATASIZE SUB DUP2 ADD SWAP1 PUSH2 0x465 SWAP2 SWAP1 PUSH2 0x2A5E JUMP JUMPDEST PUSH2 0x117D JUMP JUMPDEST STOP JUMPDEST DUP2 DUP1 ISZERO PUSH2 0x477 JUMPI PUSH0 DUP1 REVERT JUMPDEST POP PUSH2 0x492 PUSH1 0x4 DUP1 CALLDATASIZE SUB DUP2 ADD SWAP1 PUSH2 0x48D SWAP2 SWAP1 PUSH2 0x2A5E JUMP JUMPDEST PUSH2 0x11CD JUMP JUMPDEST STOP JUMPDEST DUP2 DUP1 ISZERO PUSH2 0x49F JUMPI PUSH0 DUP1 REVERT JUMPDEST POP PUSH2 0x4BA PUSH1 0x4 DUP1 CALLDATASIZE SUB DUP2 ADD SWAP1 PUSH2 0x4B5 SWAP2 SWAP1 PUSH2 0x2BB5 JUMP JUMPDEST PUSH2 0x1477 JUMP JUMPDEST STOP JUMPDEST PUSH2 0x4C4 PUSH2 0x14D0 JUMP JUMPDEST PUSH1 0x40 MLOAD PUSH2 0x4D1 SWAP2 SWAP1 PUSH2 0x29F0 JUMP JUMPDEST PUSH1 0x40 MLOAD DUP1 SWAP2 SUB SWAP1 RETURN JUMPDEST PUSH2 0x4F4 PUSH1 0x4 DUP1 CALLDATASIZE SUB DUP2 ADD SWAP1 PUSH2 0x4EF SWAP2 SWAP1 PUSH2 0x2A5E JUMP JUMPDEST PUSH2 0x151F JUMP JUMPDEST PUSH1 0x40 MLOAD PUSH2 0x501 SWAP2 SWAP1 PUSH2 0x29F0 JUMP JUMPDEST PUSH1 0x40 MLOAD DUP1 SWAP2 SUB SWAP1 RETURN JUMPDEST DUP2 DUP1 ISZERO PUSH2 0x515 JUMPI PUSH0 DUP1 REVERT JUMPDEST POP PUSH2 0x530 PUSH1 0x4 DUP1 CALLDATASIZE SUB DUP2 ADD SWAP1 PUSH2 0x52B SWAP2 SWAP1 PUSH2 0x28F7 JUMP JUMPDEST PUSH2 0x157F JUMP JUMPDEST STOP JUMPDEST DUP2 DUP1 ISZERO PUSH2 0x53D JUMPI PUSH0 DUP1 REVERT JUMPDEST POP PUSH2 0x558 PUSH1 0x4 DUP1 CALLDATASIZE SUB DUP2 ADD SWAP1 PUSH2 0x553 SWAP2 SWAP1 PUSH2 0x28F7 JUMP JUMPDEST PUSH2 0x161B JUMP JUMPDEST STOP JUMPDEST DUP2 DUP1 ISZERO PUSH2 0x565 JUMPI PUSH0 DUP1 REVERT JUMPDEST POP PUSH2 0x580 PUSH1 0x4 DUP1 CALLDATASIZE SUB DUP2 ADD SWAP1 PUSH2 0x57B SWAP2 SWAP1 PUSH2 0x2BB5 JUMP JUMPDEST PUSH2 0x1713 JUMP JUMPDEST STOP JUMPDEST PUSH2 0x59C PUSH1 0x4 DUP1 CALLDATASIZE SUB DUP2 ADD SWAP1 PUSH2 0x597 SWAP2 SWAP1 PUSH2 0x2A5E JUMP JUMPDEST PUSH2 0x176C JUMP JUMPDEST PUSH1 0x40 MLOAD PUSH2 0x5A9 SWAP2 SWAP1 PUSH2 0x2839 JUMP JUMPDEST PUSH1 0x40 MLOAD DUP1 SWAP2 SUB SWAP1 RETURN JUMPDEST PUSH2 0x5BA PUSH2 0x1853 JUMP JUMPDEST PUSH1 0x40 MLOAD PUSH2 0x5C7 SWAP2 SWAP1 PUSH2 0x2CB3 JUMP JUMPDEST PUSH1 0x40 MLOAD DUP1 SWAP2 SUB SWAP1 RETURN JUMPDEST PUSH2 0x5EA PUSH1 0x4 DUP1 CALLDATASIZE SUB DUP2 ADD SWAP1 PUSH2 0x5E5 SWAP2 SWAP1 PUSH2 0x2A5E JUMP JUMPDEST PUSH2 0x18EF JUMP JUMPDEST PUSH1 0x40 MLOAD PUSH2 0x5F7 SWAP2 SWAP1 PUSH2 0x29F0 JUMP JUMPDEST PUSH1 0x40 MLOAD DUP1 SWAP2 SUB SWAP1 RETURN JUMPDEST DUP2 DUP1 ISZERO PUSH2 0x60B JUMPI PUSH0 DUP1 REVERT JUMPDEST POP PUSH2 0x614 PUSH2 0x194F JUMP JUMPDEST STOP JUMPDEST DUP2 DUP1 ISZERO PUSH2 0x621 JUMPI PUSH0 DUP1 REVERT JUMPDEST POP PUSH2 0x63C PUSH1 0x4 DUP1 CALLDATASIZE SUB DUP2 ADD SWAP1 PUSH2 0x637 SWAP2 SWAP1 PUSH2 0x2BB5 JUMP JUMPDEST PUSH2 0x19F7 JUMP JUMPDEST STOP JUMPDEST DUP2 DUP1 ISZERO PUSH2 0x649 JUMPI PUSH0 DUP1 REVERT JUMPDEST POP PUSH2 0x664 PUSH1 0x4 DUP1 CALLDATASIZE SUB DUP2 ADD SWAP1 PUSH2 0x65F SWAP2 SWAP1 PUSH2 0x2D08 JUMP JUMPDEST PUSH2 0x1A50 JUMP JUMPDEST STOP JUMPDEST DUP2 DUP1 ISZERO PUSH2 0x671 JUMPI PUSH0 DUP1 REVERT JUMPDEST POP PUSH2 0x68C PUSH1 0x4 DUP1 CALLDATASIZE SUB DUP2 ADD SWAP1 PUSH2 0x687 SWAP2 SWAP1 PUSH2 0x2A33 JUMP JUMPDEST PUSH2 0x1B2A JUMP JUMPDEST STOP JUMPDEST DUP2 DUP1 ISZERO PUSH2 0x699 JUMPI PUSH0 DUP1 REVERT JUMPDEST POP PUSH2 0x6B4 PUSH1 0x4 DUP1 CALLDATASIZE SUB DUP2 ADD SWAP1 PUSH2 0x6AF SWAP2 SWAP1 PUSH2 0x2A5E JUMP JUMPDEST PUSH2 0x1B7A JUMP JUMPDEST STOP JUMPDEST PUSH2 0x6BE PUSH2 0x1BCA JUMP JUMPDEST PUSH1 0x40 MLOAD PUSH2 0x6CB SWAP2 SWAP1 PUSH2 0x29F0 JUMP JUMPDEST PUSH1 0x40 MLOAD DUP1 SWAP2 SUB SWAP1 RETURN JUMPDEST PUSH2 0x6DC PUSH2 0x1C19 JUMP JUMPDEST PUSH1 0x40 MLOAD PUSH2 0x6E9 SWAP2 SWAP1 PUSH2 0x2839 JUMP JUMPDEST PUSH1 0x40 MLOAD DUP1 SWAP2 SUB SWAP1 RETURN JUMPDEST PUSH2 0x6FA PUSH2 0x1CEF JUMP JUMPDEST PUSH1 0x40 MLOAD PUSH2 0x707 SWAP2 SWAP1 PUSH2 0x2839 JUMP JUMPDEST PUSH1 0x40 MLOAD DUP1 SWAP2 SUB SWAP1 RETURN JUMPDEST PUSH2 0x718 PUSH2 0x1DC5 JUMP JUMPDEST PUSH1 0x40 MLOAD PUSH2 0x725 SWAP2 SWAP1 PUSH2 0x29F0 JUMP JUMPDEST PUSH1 0x40 MLOAD DUP1 SWAP2 SUB SWAP1 RETURN JUMPDEST DUP2 DUP1 ISZERO PUSH2 0x739 JUMPI PUSH0 DUP1 REVERT JUMPDEST POP PUSH2 0x754 PUSH1 0x4 DUP1 CALLDATASIZE SUB DUP2 ADD SWAP1 PUSH2 0x74F SWAP2 SWAP1 PUSH2 0x2BB5 JUMP JUMPDEST PUSH2 0x1E14 JUMP JUMPDEST STOP JUMPDEST DUP2 DUP1 ISZERO PUSH2 0x761 JUMPI PUSH0 DUP1 REVERT JUMPDEST POP PUSH2 0x77C PUSH1 0x4 DUP1 CALLDATASIZE SUB DUP2 ADD SWAP1 PUSH2 0x777 SWAP2 SWAP1 PUSH2 0x2D58 JUMP JUMPDEST PUSH2 0x1E6C JUMP JUMPDEST STOP JUMPDEST PUSH2 0x798 PUSH1 0x4 DUP1 CALLDATASIZE SUB DUP2 ADD SWAP1 PUSH2 0x793 SWAP2 SWAP1 PUSH2 0x2A5E JUMP JUMPDEST PUSH2 0x1EF8 JUMP JUMPDEST PUSH1 0x40 MLOAD PUSH2 0x7A5 SWAP2 SWAP1 PUSH2 0x2DBF JUMP JUMPDEST PUSH1 0x40 MLOAD DUP1 SWAP2 SUB SWAP1 RETURN JUMPDEST DUP2 DUP1 ISZERO PUSH2 0x7B9 JUMPI PUSH0 DUP1 REVERT JUMPDEST POP PUSH2 0x7D4 PUSH1 0x4 DUP1 CALLDATASIZE SUB DUP2 ADD SWAP1 PUSH2 0x7CF SWAP2 SWAP1 PUSH2 0x2DD8 JUMP JUMPDEST PUSH2 0x1FBD JUMP JUMPDEST STOP JUMPDEST DUP2 DUP1 ISZERO PUSH2 0x7E1 JUMPI PUSH0 DUP1 REVERT JUMPDEST POP PUSH2 0x7FC PUSH1 0x4 DUP1 CALLDATASIZE SUB DUP2 ADD SWAP1 PUSH2 0x7F7 SWAP2 SWAP1 PUSH2 0x2E16 JUMP JUMPDEST PUSH2 0x201D JUMP JUMPDEST STOP JUMPDEST PUSH2 0x818 PUSH1 0x4 DUP1 CALLDATASIZE SUB DUP2 ADD SWAP1 PUSH2 0x813 SWAP2 SWAP1 PUSH2 0x29B6 JUMP JUMPDEST PUSH2 0x20BB JUMP JUMPDEST PUSH1 0x40 MLOAD PUSH2 0x825 SWAP2 SWAP1 PUSH2 0x2E63 JUMP JUMPDEST PUSH1 0x40 MLOAD DUP1 SWAP2 SUB SWAP1 RETURN JUMPDEST DUP2 DUP1 ISZERO PUSH2 0x839 JUMPI PUSH0 DUP1 REVERT JUMPDEST POP PUSH2 0x854 PUSH1 0x4 DUP1 CALLDATASIZE SUB DUP2 ADD SWAP1 PUSH2 0x84F SWAP2 SWAP1 PUSH2 0x29B6 JUMP JUMPDEST PUSH2 0x2153 JUMP JUMPDEST STOP JUMPDEST PUSH2 0x85E PUSH2 0x226D JUMP JUMPDEST PUSH1 0x40 MLOAD PUSH2 0x86B SWAP2 SWAP1 PUSH2 0x29F0 JUMP JUMPDEST PUSH1 0x40 MLOAD DUP1 SWAP2 SUB SWAP1 RETURN JUMPDEST PUSH2 0x87C PUSH2 0x22BC JUMP JUMPDEST PUSH1 0x40 MLOAD PUSH2 0x889 SWAP2 SWAP1 PUSH2 0x2839 JUMP JUMPDEST PUSH1 0x40 MLOAD DUP1 SWAP2 SUB SWAP1 RETURN JUMPDEST DUP2 DUP1 ISZERO PUSH2 0x89D JUMPI PUSH0 DUP1 REVERT JUMPDEST POP PUSH2 0x8B8 PUSH1 0x4 DUP1 CALLDATASIZE SUB DUP2 ADD SWAP1 PUSH2 0x8B3 SWAP2 SWAP1 PUSH2 0x2A5E JUMP JUMPDEST PUSH2 0x2391 JUMP JUMPDEST STOP JUMPDEST PUSH2 0x8C2 PUSH2 0x24A7 JUMP JUMPDEST PUSH1 0x40 MLOAD PUSH2 0x8CF SWAP2 SWAP1 PUSH2 0x29F0 JUMP JUMPDEST PUSH1 0x40 MLOAD DUP1 SWAP2 SUB SWAP1 RETURN JUMPDEST DUP2 DUP1 ISZERO PUSH2 0x8E3 JUMPI PUSH0 DUP1 REVERT JUMPDEST POP PUSH2 0x8FE PUSH1 0x4 DUP1 CALLDATASIZE SUB DUP2 ADD SWAP1 PUSH2 0x8F9 SWAP2 SWAP1 PUSH2 0x2E7C JUMP JUMPDEST PUSH2 0x24F6 JUMP JUMPDEST STOP JUMPDEST PUSH2 0x91A PUSH1 0x4 DUP1 CALLDATASIZE SUB DUP2 ADD SWAP1 PUSH2 0x915 SWAP2 SWAP1 PUSH2 0x2D58 JUMP JUMPDEST PUSH2 0x255F JUMP JUMPDEST PUSH1 0x40 MLOAD PUSH2 0x927 SWAP2 SWAP1 PUSH2 0x29F0 JUMP JUMPDEST PUSH1 0x40 MLOAD DUP1 SWAP2 SUB SWAP1 RETURN JUMPDEST DUP2 DUP1 ISZERO PUSH2 0x93B JUMPI PUSH0 DUP1 REVERT JUMPDEST POP PUSH2 0x956 PUSH1 0x4 DUP1 CALLDATASIZE SUB DUP2 ADD SWAP1 PUSH2 0x951 SWAP2 SWAP1 PUSH2 0x2DD8 JUMP JUMPDEST PUSH2 0x25FB JUMP JUMPDEST STOP JUMPDEST PUSH2 0x972 PUSH1 0x4 DUP1 CALLDATASIZE SUB DUP2 ADD SWAP1 PUSH2 0x96D SWAP2 SWAP1 PUSH2 0x2ED6 JUMP JUMPDEST PUSH2 0x265B JUMP JUMPDEST PUSH1 0x40 MLOAD PUSH2 0x97F SWAP2 SWAP1 PUSH2 0x2E63 JUMP JUMPDEST PUSH1 0x40 MLOAD DUP1 SWAP2 SUB SWAP1 RETURN JUMPDEST PUSH2 0x990 PUSH2 0x272F JUMP JUMPDEST PUSH1 0x40 MLOAD PUSH2 0x99D SWAP2 SWAP1 PUSH2 0x299D JUMP JUMPDEST PUSH1 0x40 MLOAD DUP1 SWAP2 SUB SWAP1 RETURN JUMPDEST PUSH1 0x60 PUSH2 0x9ED PUSH1 0x40 MLOAD DUP1 PUSH1 0x40 ADD PUSH1 0x40 MSTORE DUP1 PUSH1 0x6 DUP2 MSTORE PUSH1 0x20 ADD PUSH32 0x534D45616D620000000000000000000000000000000000000000000000000000 DUP2 MSTORE POP DUP1 MLOAD SWAP1 PUSH1 0x20 ADD KECCAK256 PUSH2 0x277E JUMP JUMPDEST PUSH1 0xE ADD DUP1 SLOAD PUSH2 0x9FB SWAP1 PUSH2 0x2F41 JUMP JUMPDEST DUP1 PUSH1 0x1F ADD PUSH1 0x20 DUP1 SWAP2 DIV MUL PUSH1 0x20 ADD PUSH1 0x40 MLOAD SWAP1 DUP2 ADD PUSH1 0x40 MSTORE DUP1 SWAP3 SWAP2 SWAP1 DUP2 DUP2 MSTORE PUSH1 0x20 ADD DUP3 DUP1 SLOAD PUSH2 0xA27 SWAP1 PUSH2 0x2F41 JUMP JUMPDEST DUP1 ISZERO PUSH2 0xA72 JUMPI DUP1 PUSH1 0x1F LT PUSH2 0xA49 JUMPI PUSH2 0x100 DUP1 DUP4 SLOAD DIV MUL DUP4 MSTORE SWAP2 PUSH1 0x20 ADD SWAP2 PUSH2 0xA72 JUMP JUMPDEST DUP3 ADD SWAP2 SWAP1 PUSH0 MSTORE PUSH1 0x20 PUSH0 KECCAK256 SWAP1 JUMPDEST DUP2 SLOAD DUP2 MSTORE SWAP1 PUSH1 0x1 ADD SWAP1 PUSH1 0x20 ADD DUP1 DUP4 GT PUSH2 0xA55 JUMPI DUP3 SWAP1 SUB PUSH1 0x1F AND DUP3 ADD SWAP2 JUMPDEST POP POP POP POP POP SWAP1 POP SWAP1 JUMP JUMPDEST PUSH0 PUSH2 0xAC2 PUSH1 0x40 MLOAD DUP1 PUSH1 0x40 ADD PUSH1 0x40 MSTORE DUP1 PUSH1 0x6 DUP2 MSTORE PUSH1 0x20 ADD PUSH32 0x534D45616D620000000000000000000000000000000000000000000000000000 DUP2 MSTORE POP DUP1 MLOAD SWAP1 PUSH1 0x20 ADD KECCAK256 PUSH2 0x277E JUMP JUMPDEST PUSH1 0x4 ADD PUSH0 DUP5 DUP2 MSTORE PUSH1 0x20 ADD SWAP1 DUP2 MSTORE PUSH1 0x20 ADD PUSH0 KECCAK256 SLOAD SWAP1 POP DUP2 DUP2 EQ PUSH2 0xC69 JUMPI PUSH0 PUSH2 0xB24 PUSH1 0x40 MLOAD DUP1 PUSH1 0x40 ADD PUSH1 0x40 MSTORE DUP1 PUSH1 0x6 DUP2 MSTORE PUSH1 0x20 ADD PUSH32 0x534D45616D620000000000000000000000000000000000000000000000000000 DUP2 MSTORE POP DUP1 MLOAD SWAP1 PUSH1 0x20 ADD KECCAK256 PUSH2 0x277E JUMP JUMPDEST PUSH1 0x3 ADD PUSH0 DUP7 PUSH20 0xFFFFFFFFFFFFFFFFFFFFFFFFFFFFFFFFFFFFFFFF AND PUSH20 0xFFFFFFFFFFFFFFFFFFFFFFFFFFFFFFFFFFFFFFFF AND DUP2 MSTORE PUSH1 0x20 ADD SWAP1 DUP2 MSTORE PUSH1 0x20 ADD PUSH0 KECCAK256 PUSH0 DUP5 DUP2 MSTORE PUSH1 0x20 ADD SWAP1 DUP2 MSTORE PUSH1 0x20 ADD PUSH0 KECCAK256 SLOAD SWAP1 POP DUP1 PUSH2 0xBBA PUSH1 0x40 MLOAD DUP1 PUSH1 0x40 ADD PUSH1 0x40 MSTORE DUP1 PUSH1 0x6 DUP2 MSTORE PUSH1 0x20 ADD PUSH32 0x534D45616D620000000000000000000000000000000000000000000000000000 DUP2 MSTORE POP DUP1 MLOAD SWAP1 PUSH1 0x20 ADD KECCAK256 PUSH2 0x277E JUMP JUMPDEST PUSH1 0x3 ADD PUSH0 DUP8 PUSH20 0xFFFFFFFFFFFFFFFFFFFFFFFFFFFFFFFFFFFFFFFF AND PUSH20 0xFFFFFFFFFFFFFFFFFFFFFFFFFFFFFFFFFFFFFFFF AND DUP2 MSTORE PUSH1 0x20 ADD SWAP1 DUP2 MSTORE PUSH1 0x20 ADD PUSH0 KECCAK256 PUSH0 DUP5 DUP2 MSTORE PUSH1 0x20 ADD SWAP1 DUP2 MSTORE PUSH1 0x20 ADD PUSH0 KECCAK256 DUP2 SWAP1 SSTORE POP DUP2 PUSH2 0xC51 PUSH1 0x40 MLOAD DUP1 PUSH1 0x40 ADD PUSH1 0x40 MSTORE DUP1 PUSH1 0x6 DUP2 MSTORE PUSH1 0x20 ADD PUSH32 0x534D45616D620000000000000000000000000000000000000000000000000000 DUP2 MSTORE POP DUP1 MLOAD SWAP1 PUSH1 0x20 ADD KECCAK256 PUSH2 0x277E JUMP JUMPDEST PUSH1 0x4 ADD PUSH0 DUP4 DUP2 MSTORE PUSH1 0x20 ADD SWAP1 DUP2 MSTORE PUSH1 0x20 ADD PUSH0 KECCAK256 DUP2 SWAP1 SSTORE POP POP JUMPDEST PUSH2 0xCAE PUSH1 0x40 MLOAD DUP1 PUSH1 0x40 ADD PUSH1 0x40 MSTORE DUP1 PUSH1 0x6 DUP2 MSTORE PUSH1 0x20 ADD PUSH32 0x534D45616D620000000000000000000000000000000000000000000000000000 DUP2 MSTORE POP DUP1 MLOAD SWAP1 PUSH1 0x20 ADD KECCAK256 PUSH2 0x277E JUMP JUMPDEST PUSH1 0x4 ADD PUSH0 DUP5 DUP2 MSTORE PUSH1 0x20 ADD SWAP1 DUP2 MSTORE PUSH1 0x20 ADD PUSH0 KECCAK256 PUSH0 SWAP1 SSTORE PUSH2 0xD08 PUSH1 0x40 MLOAD DUP1 PUSH1 0x40 ADD PUSH1 0x40 MSTORE DUP1 PUSH1 0x6 DUP2 MSTORE PUSH1 0x20 ADD PUSH32 0x534D45616D620000000000000000000000000000000000000000000000000000 DUP2 MSTORE POP DUP1 MLOAD SWAP1 PUSH1 0x20 ADD KECCAK256 PUSH2 0x277E JUMP JUMPDEST PUSH1 0x3 ADD PUSH0 DUP6 PUSH20 0xFFFFFFFFFFFFFFFFFFFFFFFFFFFFFFFFFFFFFFFF AND PUSH20 0xFFFFFFFFFFFFFFFFFFFFFFFFFFFFFFFFFFFFFFFF AND DUP2 MSTORE PUSH1 0x20 ADD SWAP1 DUP2 MSTORE PUSH1 0x20 ADD PUSH0 KECCAK256 PUSH0 DUP4 DUP2 MSTORE PUSH1 0x20 ADD SWAP1 DUP2 MSTORE PUSH1 0x20 ADD PUSH0 KECCAK256 PUSH0 SWAP1 SSTORE POP POP POP POP JUMP JUMPDEST DUP1 PUSH2 0xDA4 PUSH1 0x40 MLOAD DUP1 PUSH1 0x40 ADD PUSH1 0x40 MSTORE DUP1 PUSH1 0x6 DUP2 MSTORE PUSH1 0x20 ADD PUSH32 0x534D45616D620000000000000000000000000000000000000000000000000000 DUP2 MSTORE POP DUP1 MLOAD SWAP1 PUSH1 0x20 ADD KECCAK256 PUSH2 0x277E JUMP JUMPDEST PUSH1 0x12 ADD PUSH0 DUP5 DUP2 MSTORE PUSH1 0x20 ADD SWAP1 DUP2 MSTORE PUSH1 0x20 ADD PUSH0 KECCAK256 PUSH0 ADD PUSH0 PUSH2 0x100 EXP DUP2 SLOAD DUP2 PUSH20 0xFFFFFFFFFFFFFFFFFFFFFFFFFFFFFFFFFFFFFFFF MUL NOT AND SWAP1 DUP4 PUSH20 0xFFFFFFFFFFFFFFFFFFFFFFFFFFFFFFFFFFFFFFFF AND MUL OR SWAP1 SSTORE POP POP POP JUMP JUMPDEST PUSH0 PUSH2 0xE3F PUSH1 0x40 MLOAD DUP1 PUSH1 0x40 ADD PUSH1 0x40 MSTORE DUP1 PUSH1 0x6 DUP2 MSTORE PUSH1 0x20 ADD PUSH32 0x534D45616D620000000000000000000000000000000000000000000000000000 DUP2 MSTORE POP DUP1 MLOAD SWAP1 PUSH1 0x20 ADD KECCAK256 PUSH2 0x277E JUMP JUMPDEST PUSH1 0x7 ADD SLOAD SWAP1 POP SWAP1 JUMP JUMPDEST PUSH0 PUSH2 0xE8E PUSH1 0x40 MLOAD DUP1 PUSH1 0x40 ADD PUSH1 0x40 MSTORE DUP1 PUSH1 0x6 DUP2 MSTORE PUSH1 0x20 ADD PUSH32 0x534D45616D620000000000000000000000000000000000000000000000000000 DUP2 MSTORE POP DUP1 MLOAD SWAP1 PUSH1 0x20 ADD KECCAK256 PUSH2 0x277E JUMP JUMPDEST PUSH1 0x11 ADD PUSH0 DUP4 PUSH20 0xFFFFFFFFFFFFFFFFFFFFFFFFFFFFFFFFFFFFFFFF AND PUSH20 0xFFFFFFFFFFFFFFFFFFFFFFFFFFFFFFFFFFFFFFFF AND DUP2 MSTORE PUSH1 0x20 ADD SWAP1 DUP2 MSTORE PUSH1 0x20 ADD PUSH0 KECCAK256 SLOAD SWAP1 POP SWAP2 SWAP1 POP JUMP JUMPDEST DUP1 PUSH2 0xF1A PUSH1 0x40 MLOAD DUP1 PUSH1 0x40 ADD PUSH1 0x40 MSTORE DUP1 PUSH1 0x6 DUP2 MSTORE PUSH1 0x20 ADD PUSH32 0x534D45616D620000000000000000000000000000000000000000000000000000 DUP2 MSTORE POP DUP1 MLOAD SWAP1 PUSH1 0x20 ADD KECCAK256 PUSH2 0x277E JUMP JUMPDEST PUSH1 0x9 ADD DUP2 SWAP1 SSTORE POP POP JUMP JUMPDEST PUSH1 0x1 PUSH2 0xF6B PUSH1 0x40 MLOAD DUP1 PUSH1 0x40 ADD PUSH1 0x40 MSTORE DUP1 PUSH1 0x6 DUP2 MSTORE PUSH1 0x20 ADD PUSH32 0x534D45616D620000000000000000000000000000000000000000000000000000 DUP2 MSTORE POP DUP1 MLOAD SWAP1 PUSH1 0x20 ADD KECCAK256 PUSH2 0x277E JUMP JUMPDEST PUSH1 0x11 ADD PUSH0 DUP4 PUSH20 0xFFFFFFFFFFFFFFFFFFFFFFFFFFFFFFFFFFFFFFFF AND PUSH20 0xFFFFFFFFFFFFFFFFFFFFFFFFFFFFFFFFFFFFFFFF AND DUP2 MSTORE PUSH1 0x20 ADD SWAP1 DUP2 MSTORE PUSH1 0x20 ADD PUSH0 KECCAK256 SLOAD PUSH2 0xFB4 SWAP2 SWAP1 PUSH2 0x2F9E JUMP JUMPDEST PUSH2 0xFF9 PUSH1 0x40 MLOAD DUP1 PUSH1 0x40 ADD PUSH1 0x40 MSTORE DUP1 PUSH1 0x6 DUP2 MSTORE PUSH1 0x20 ADD PUSH32 0x534D45616D620000000000000000000000000000000000000000000000000000 DUP2 MSTORE POP DUP1 MLOAD SWAP1 PUSH1 0x20 ADD KECCAK256 PUSH2 0x277E JUMP JUMPDEST PUSH1 0x11 ADD PUSH0 DUP4 PUSH20 0xFFFFFFFFFFFFFFFFFFFFFFFFFFFFFFFFFFFFFFFF AND PUSH20 0xFFFFFFFFFFFFFFFFFFFFFFFFFFFFFFFFFFFFFFFF AND DUP2 MSTORE PUSH1 0x20 ADD SWAP1 DUP2 MSTORE PUSH1 0x20 ADD PUSH0 KECCAK256 DUP2 SWAP1 SSTORE POP POP JUMP JUMPDEST DUP1 PUSH2 0x1084 PUSH1 0x40 MLOAD DUP1 PUSH1 0x40 ADD PUSH1 0x40 MSTORE DUP1 PUSH1 0x6 DUP2 MSTORE PUSH1 0x20 ADD PUSH32 0x534D45616D620000000000000000000000000000000000000000000000000000 DUP2 MSTORE POP DUP1 MLOAD SWAP1 PUSH1 0x20 ADD KECCAK256 PUSH2 0x277E JUMP JUMPDEST PUSH1 0x15 ADD DUP2 SWAP1 SSTORE POP POP JUMP JUMPDEST PUSH0 PUSH2 0x10D4 PUSH1 0x40 MLOAD DUP1 PUSH1 0x40 ADD PUSH1 0x40 MSTORE DUP1 PUSH1 0x6 DUP2 MSTORE PUSH1 0x20 ADD PUSH32 0x534D45616D620000000000000000000000000000000000000000000000000000 DUP2 MSTORE POP DUP1 MLOAD SWAP1 PUSH1 0x20 ADD KECCAK256 PUSH2 0x277E JUMP JUMPDEST PUSH1 0x9 ADD SLOAD SWAP1 POP SWAP1 JUMP JUMPDEST DUP1 PUSH2 0x1123 PUSH1 0x40 MLOAD DUP1 PUSH1 0x40 ADD PUSH1 0x40 MSTORE DUP1 PUSH1 0x6 DUP2 MSTORE PUSH1 0x20 ADD PUSH32 0x534D45616D620000000000000000000000000000000000000000000000000000 DUP2 MSTORE POP DUP1 MLOAD SWAP1 PUSH1 0x20 ADD KECCAK256 PUSH2 0x277E JUMP JUMPDEST PUSH1 0xC ADD DUP2 SWAP1 SSTORE POP POP JUMP JUMPDEST DUP1 PUSH2 0x1173 PUSH1 0x40 MLOAD DUP1 PUSH1 0x40 ADD PUSH1 0x40 MSTORE DUP1 PUSH1 0x6 DUP2 MSTORE PUSH1 0x20 ADD PUSH32 0x534D45616D620000000000000000000000000000000000000000000000000000 DUP2 MSTORE POP DUP1 MLOAD SWAP1 PUSH1 0x20 ADD KECCAK256 PUSH2 0x277E JUMP JUMPDEST PUSH1 0x7 ADD DUP2 SWAP1 SSTORE POP POP JUMP JUMPDEST DUP1 PUSH2 0x11C3 PUSH1 0x40 MLOAD DUP1 PUSH1 0x40 ADD PUSH1 0x40 MSTORE DUP1 PUSH1 0x6 DUP2 MSTORE PUSH1 0x20 ADD PUSH32 0x534D45616D620000000000000000000000000000000000000000000000000000 DUP2 MSTORE POP DUP1 MLOAD SWAP1 PUSH1 0x20 ADD KECCAK256 PUSH2 0x277E JUMP JUMPDEST PUSH1 0xA ADD DUP2 SWAP1 SSTORE POP POP JUMP JUMPDEST PUSH0 PUSH1 0x1 PUSH2 0x1215 PUSH1 0x40 MLOAD DUP1 PUSH1 0x40 ADD PUSH1 0x40 MSTORE DUP1 PUSH1 0x6 DUP2 MSTORE PUSH1 0x20 ADD PUSH32 0x534D45616D620000000000000000000000000000000000000000000000000000 DUP2 MSTORE POP DUP1 MLOAD SWAP1 PUSH1 0x20 ADD KECCAK256 PUSH2 0x277E JUMP JUMPDEST PUSH1 0x5 ADD DUP1 SLOAD SWAP1 POP PUSH2 0x1226 SWAP2 SWAP1 PUSH2 0x2F9E JUMP JUMPDEST SWAP1 POP PUSH0 PUSH2 0x126E PUSH1 0x40 MLOAD DUP1 PUSH1 0x40 ADD PUSH1 0x40 MSTORE DUP1 PUSH1 0x6 DUP2 MSTORE PUSH1 0x20 ADD PUSH32 0x534D45616D620000000000000000000000000000000000000000000000000000 DUP2 MSTORE POP DUP1 MLOAD SWAP1 PUSH1 0x20 ADD KECCAK256 PUSH2 0x277E JUMP JUMPDEST PUSH1 0x6 ADD PUSH0 DUP5 DUP2 MSTORE PUSH1 0x20 ADD SWAP1 DUP2 MSTORE PUSH1 0x20 ADD PUSH0 KECCAK256 SLOAD SWAP1 POP PUSH0 PUSH2 0x12C9 PUSH1 0x40 MLOAD DUP1 PUSH1 0x40 ADD PUSH1 0x40 MSTORE DUP1 PUSH1 0x6 DUP2 MSTORE PUSH1 0x20 ADD PUSH32 0x534D45616D620000000000000000000000000000000000000000000000000000 DUP2 MSTORE POP DUP1 MLOAD SWAP1 PUSH1 0x20 ADD KECCAK256 PUSH2 0x277E JUMP JUMPDEST PUSH1 0x5 ADD DUP4 DUP2 SLOAD DUP2 LT PUSH2 0x12DE JUMPI PUSH2 0x12DD PUSH2 0x2FD1 JUMP JUMPDEST JUMPDEST SWAP1 PUSH0 MSTORE PUSH1 0x20 PUSH0 KECCAK256 ADD SLOAD SWAP1 POP DUP1 PUSH2 0x132F PUSH1 0x40 MLOAD DUP1 PUSH1 0x40 ADD PUSH1 0x40 MSTORE DUP1 PUSH1 0x6 DUP2 MSTORE PUSH1 0x20 ADD PUSH32 0x534D45616D620000000000000000000000000000000000000000000000000000 DUP2 MSTORE POP DUP1 MLOAD SWAP1 PUSH1 0x20 ADD KECCAK256 PUSH2 0x277E JUMP JUMPDEST PUSH1 0x5 ADD DUP4 DUP2 SLOAD DUP2 LT PUSH2 0x1344 JUMPI PUSH2 0x1343 PUSH2 0x2FD1 JUMP JUMPDEST JUMPDEST SWAP1 PUSH0 MSTORE PUSH1 0x20 PUSH0 KECCAK256 ADD DUP2 SWAP1 SSTORE POP DUP2 PUSH2 0x1396 PUSH1 0x40 MLOAD DUP1 PUSH1 0x40 ADD PUSH1 0x40 MSTORE DUP1 PUSH1 0x6 DUP2 MSTORE PUSH1 0x20 ADD PUSH32 0x534D45616D620000000000000000000000000000000000000000000000000000 DUP2 MSTORE POP DUP1 MLOAD SWAP1 PUSH1 0x20 ADD KECCAK256 PUSH2 0x277E JUMP JUMPDEST PUSH1 0x6 ADD PUSH0 DUP4 DUP2 MSTORE PUSH1 0x20 ADD SWAP1 DUP2 MSTORE PUSH1 0x20 ADD PUSH0 KECCAK256 DUP2 SWAP1 SSTORE POP PUSH2 0x13F1 PUSH1 0x40 MLOAD DUP1 PUSH1 0x40 ADD PUSH1 0x40 MSTORE DUP1 PUSH1 0x6 DUP2 MSTORE PUSH1 0x20 ADD PUSH32 0x534D45616D620000000000000000000000000000000000000000000000000000 DUP2 MSTORE POP DUP1 MLOAD SWAP1 PUSH1 0x20 ADD KECCAK256 PUSH2 0x277E JUMP JUMPDEST PUSH1 0x6 ADD PUSH0 DUP6 DUP2 MSTORE PUSH1 0x20 ADD SWAP1 DUP2 MSTORE PUSH1 0x20 ADD PUSH0 KECCAK256 PUSH0 SWAP1 SSTORE PUSH2 0x144B PUSH1 0x40 MLOAD DUP1 PUSH1 0x40 ADD PUSH1 0x40 MSTORE DUP1 PUSH1 0x6 DUP2 MSTORE PUSH1 0x20 ADD PUSH32 0x534D45616D620000000000000000000000000000000000000000000000000000 DUP2 MSTORE POP DUP1 MLOAD SWAP1 PUSH1 0x20 ADD KECCAK256 PUSH2 0x277E JUMP JUMPDEST PUSH1 0x5 ADD DUP1 SLOAD DUP1 PUSH2 0x145E JUMPI PUSH2 0x145D PUSH2 0x2FFE JUMP JUMPDEST JUMPDEST PUSH1 0x1 SWAP1 SUB DUP2 DUP2 SWAP1 PUSH0 MSTORE PUSH1 0x20 PUSH0 KECCAK256 ADD PUSH0 SWAP1 SSTORE SWAP1 SSTORE POP POP POP POP JUMP JUMPDEST DUP1 PUSH2 0x14BD PUSH1 0x40 MLOAD DUP1 PUSH1 0x40 ADD PUSH1 0x40 MSTORE DUP1 PUSH1 0x6 DUP2 MSTORE PUSH1 0x20 ADD PUSH32 0x534D45616D620000000000000000000000000000000000000000000000000000 DUP2 MSTORE POP DUP1 MLOAD SWAP1 PUSH1 0x20 ADD KECCAK256 PUSH2 0x277E JUMP JUMPDEST PUSH1 0xF ADD SWAP1 DUP2 PUSH2 0x14CC SWAP2 SWAP1 PUSH2 0x31C8 JUMP JUMPDEST POP POP JUMP JUMPDEST PUSH0 PUSH2 0x1516 PUSH1 0x40 MLOAD DUP1 PUSH1 0x40 ADD PUSH1 0x40 MSTORE DUP1 PUSH1 0x6 DUP2 MSTORE PUSH1 0x20 ADD PUSH32 0x534D45616D620000000000000000000000000000000000000000000000000000 DUP2 MSTORE POP DUP1 MLOAD SWAP1 PUSH1 0x20 ADD KECCAK256 PUSH2 0x277E JUMP JUMPDEST PUSH1 0xD ADD SLOAD SWAP1 POP SWAP1 JUMP JUMPDEST PUSH0 PUSH2 0x1565 PUSH1 0x40 MLOAD DUP1 PUSH1 0x40 ADD PUSH1 0x40 MSTORE DUP1 PUSH1 0x6 DUP2 MSTORE PUSH1 0x20 ADD PUSH32 0x534D45616D620000000000000000000000000000000000000000000000000000 DUP2 MSTORE POP DUP1 MLOAD SWAP1 PUSH1 0x20 ADD KECCAK256 PUSH2 0x277E JUMP JUMPDEST PUSH1 0x10 ADD PUSH0 DUP4 DUP2 MSTORE PUSH1 0x20 ADD SWAP1 DUP2 MSTORE PUSH1 0x20 ADD PUSH0 KECCAK256 SLOAD SWAP1 POP SWAP2 SWAP1 POP JUMP JUMPDEST DUP1 PUSH2 0x15C5 PUSH1 0x40 MLOAD DUP1 PUSH1 0x40 ADD PUSH1 0x40 MSTORE DUP1 PUSH1 0x6 DUP2 MSTORE PUSH1 0x20 ADD PUSH32 0x534D45616D620000000000000000000000000000000000000000000000000000 DUP2 MSTORE POP DUP1 MLOAD SWAP1 PUSH1 0x20 ADD KECCAK256 PUSH2 0x277E JUMP JUMPDEST PUSH1 0x3 ADD PUSH0 DUP6 PUSH20 0xFFFFFFFFFFFFFFFFFFFFFFFFFFFFFFFFFFFFFFFF AND PUSH20 0xFFFFFFFFFFFFFFFFFFFFFFFFFFFFFFFFFFFFFFFF AND DUP2 MSTORE PUSH1 0x20 ADD SWAP1 DUP2 MSTORE PUSH1 0x20 ADD PUSH0 KECCAK256 PUSH0 DUP5 DUP2 MSTORE PUSH1 0x20 ADD SWAP1 DUP2 MSTORE PUSH1 0x20 ADD PUSH0 KECCAK256 DUP2 SWAP1 SSTORE POP POP POP POP JUMP JUMPDEST DUP2 PUSH2 0x1661 PUSH1 0x40 MLOAD DUP1 PUSH1 0x40 ADD PUSH1 0x40 MSTORE DUP1 PUSH1 0x6 DUP2 MSTORE PUSH1 0x20 ADD PUSH32 0x534D45616D620000000000000000000000000000000000000000000000000000 DUP2 MSTORE POP DUP1 MLOAD SWAP1 PUSH1 0x20 ADD KECCAK256 PUSH2 0x277E JUMP JUMPDEST PUSH1 0x3 ADD PUSH0 DUP6 PUSH20 0xFFFFFFFFFFFFFFFFFFFFFFFFFFFFFFFFFFFFFFFF AND PUSH20 0xFFFFFFFFFFFFFFFFFFFFFFFFFFFFFFFFFFFFFFFF AND DUP2 MSTORE PUSH1 0x20 ADD SWAP1 DUP2 MSTORE PUSH1 0x20 ADD PUSH0 KECCAK256 PUSH0 DUP4 DUP2 MSTORE PUSH1 0x20 ADD SWAP1 DUP2 MSTORE PUSH1 0x20 ADD PUSH0 KECCAK256 DUP2 SWAP1 SSTORE POP DUP1 PUSH2 0x16F8 PUSH1 0x40 MLOAD DUP1 PUSH1 0x40 ADD PUSH1 0x40 MSTORE DUP1 PUSH1 0x6 DUP2 MSTORE PUSH1 0x20 ADD PUSH32 0x534D45616D620000000000000000000000000000000000000000000000000000 DUP2 MSTORE POP DUP1 MLOAD SWAP1 PUSH1 0x20 ADD KECCAK256 PUSH2 0x277E JUMP JUMPDEST PUSH1 0x4 ADD PUSH0 DUP5 DUP2 MSTORE PUSH1 0x20 ADD SWAP1 DUP2 MSTORE PUSH1 0x20 ADD PUSH0 KECCAK256 DUP2 SWAP1 SSTORE POP POP POP POP JUMP JUMPDEST DUP1 PUSH2 0x1759 PUSH1 0x40 MLOAD DUP1 PUSH1 0x40 ADD PUSH1 0x40 MSTORE DUP1 PUSH1 0x6 DUP2 MSTORE PUSH1 0x20 ADD PUSH32 0x534D45616D620000000000000000000000000000000000000000000000000000 DUP2 MSTORE POP DUP1 MLOAD SWAP1 PUSH1 0x20 ADD KECCAK256 PUSH2 0x277E JUMP JUMPDEST PUSH1 0xE ADD SWAP1 DUP2 PUSH2 0x1768 SWAP2 SWAP1 PUSH2 0x31C8 JUMP JUMPDEST POP POP JUMP JUMPDEST PUSH1 0x60 PUSH2 0x17B3 PUSH1 0x40 MLOAD DUP1 PUSH1 0x40 ADD PUSH1 0x40 MSTORE DUP1 PUSH1 0x6 DUP2 MSTORE PUSH1 0x20 ADD PUSH32 0x534D45616D620000000000000000000000000000000000000000000000000000 DUP2 MSTORE POP DUP1 MLOAD SWAP1 PUSH1 0x20 ADD KECCAK256 PUSH2 0x277E JUMP JUMPDEST PUSH1 0x2 ADD PUSH0 DUP4 DUP2 MSTORE PUSH1 0x20 ADD SWAP1 DUP2 MSTORE PUSH1 0x20 ADD PUSH0 KECCAK256 DUP1 SLOAD PUSH2 0x17D0 SWAP1 PUSH2 0x2F41 JUMP JUMPDEST DUP1 PUSH1 0x1F ADD PUSH1 0x20 DUP1 SWAP2 DIV MUL PUSH1 0x20 ADD PUSH1 0x40 MLOAD SWAP1 DUP2 ADD PUSH1 0x40 MSTORE DUP1 SWAP3 SWAP2 SWAP1 DUP2 DUP2 MSTORE PUSH1 0x20 ADD DUP3 DUP1 SLOAD PUSH2 0x17FC SWAP1 PUSH2 0x2F41 JUMP JUMPDEST DUP1 ISZERO PUSH2 0x1847 JUMPI DUP1 PUSH1 0x1F LT PUSH2 0x181E JUMPI PUSH2 0x100 DUP1 DUP4 SLOAD DIV MUL DUP4 MSTORE SWAP2 PUSH1 0x20 ADD SWAP2 PUSH2 0x1847 JUMP JUMPDEST DUP3 ADD SWAP2 SWAP1 PUSH0 MSTORE PUSH1 0x20 PUSH0 KECCAK256 SWAP1 JUMPDEST DUP2 SLOAD DUP2 MSTORE SWAP1 PUSH1 0x1 ADD SWAP1 PUSH1 0x20 ADD DUP1 DUP4 GT PUSH2 0x182A JUMPI DUP3 SWAP1 SUB PUSH1 0x1F AND DUP3 ADD SWAP2 JUMPDEST POP POP POP POP POP SWAP1 POP SWAP2 SWAP1 POP JUMP JUMPDEST PUSH1 0x60 PUSH2 0x189A PUSH1 0x40 MLOAD DUP1 PUSH1 0x40 ADD PUSH1 0x40 MSTORE DUP1 PUSH1 0x6 DUP2 MSTORE PUSH1 0x20 ADD PUSH32 0x534D45616D620000000000000000000000000000000000000000000000000000 DUP2 MSTORE POP DUP1 MLOAD SWAP1 PUSH1 0x20 ADD KECCAK256 PUSH2 0x277E JUMP JUMPDEST PUSH1 0x5 ADD DUP1 SLOAD DUP1 PUSH1 0x20 MUL PUSH1 0x20 ADD PUSH1 0x40 MLOAD SWAP1 DUP2 ADD PUSH1 0x40 MSTORE DUP1 SWAP3 SWAP2 SWAP1 DUP2 DUP2 MSTORE PUSH1 0x20 ADD DUP3 DUP1 SLOAD DUP1 ISZERO PUSH2 0x18E5 JUMPI PUSH1 0x20 MUL DUP3 ADD SWAP2 SWAP1 PUSH0 MSTORE PUSH1 0x20 PUSH0 KECCAK256 SWAP1 JUMPDEST DUP2 SLOAD DUP2 MSTORE PUSH1 0x20 ADD SWAP1 PUSH1 0x1 ADD SWAP1 DUP1 DUP4 GT PUSH2 0x18D1 JUMPI JUMPDEST POP POP POP POP POP SWAP1 POP SWAP1 JUMP JUMPDEST PUSH0 PUSH2 0x1935 PUSH1 0x40 MLOAD DUP1 PUSH1 0x40 ADD PUSH1 0x40 MSTORE DUP1 PUSH1 0x6 DUP2 MSTORE PUSH1 0x20 ADD PUSH32 0x534D45616D620000000000000000000000000000000000000000000000000000 DUP2 MSTORE POP DUP1 MLOAD SWAP1 PUSH1 0x20 ADD KECCAK256 PUSH2 0x277E JUMP JUMPDEST PUSH1 0x4 ADD PUSH0 DUP4 DUP2 MSTORE PUSH1 0x20 ADD SWAP1 DUP2 MSTORE PUSH1 0x20 ADD PUSH0 KECCAK256 SLOAD SWAP1 POP SWAP2 SWAP1 POP JUMP JUMPDEST PUSH0 PUSH2 0x1995 PUSH1 0x40 MLOAD DUP1 PUSH1 0x40 ADD PUSH1 0x40 MSTORE DUP1 PUSH1 0x6 DUP2 MSTORE PUSH1 0x20 ADD PUSH32 0x534D45616D620000000000000000000000000000000000000000000000000000 DUP2 MSTORE POP DUP1 MLOAD SWAP1 PUSH1 0x20 ADD KECCAK256 PUSH2 0x277E JUMP JUMPDEST PUSH1 0x14 ADD SLOAD SWAP1 POP PUSH1 0x1 DUP2 PUSH2 0x19A8 SWAP2 SWAP1 PUSH2 0x3297 JUMP JUMPDEST PUSH2 0x19ED PUSH1 0x40 MLOAD DUP1 PUSH1 0x40 ADD PUSH1 0x40 MSTORE DUP1 PUSH1 0x6 DUP2 MSTORE PUSH1 0x20 ADD PUSH32 0x534D45616D620000000000000000000000000000000000000000000000000000 DUP2 MSTORE POP DUP1 MLOAD SWAP1 PUSH1 0x20 ADD KECCAK256 PUSH2 0x277E JUMP JUMPDEST PUSH1 0x14 ADD DUP2 SWAP1 SSTORE POP POP JUMP JUMPDEST DUP1 PUSH2 0x1A3D PUSH1 0x40 MLOAD DUP1 PUSH1 0x40 ADD PUSH1 0x40 MSTORE DUP1 PUSH1 0x6 DUP2 MSTORE PUSH1 0x20 ADD PUSH32 0x534D45616D620000000000000000000000000000000000000000000000000000 DUP2 MSTORE POP DUP1 MLOAD SWAP1 PUSH1 0x20 ADD KECCAK256 PUSH2 0x277E JUMP JUMPDEST PUSH1 0x1 ADD SWAP1 DUP2 PUSH2 0x1A4C SWAP2 SWAP1 PUSH2 0x31C8 JUMP JUMPDEST POP POP JUMP JUMPDEST DUP1 PUSH2 0x1A96 PUSH1 0x40 MLOAD DUP1 PUSH1 0x40 ADD PUSH1 0x40 MSTORE DUP1 PUSH1 0x6 DUP2 MSTORE PUSH1 0x20 ADD PUSH32 0x534D45616D620000000000000000000000000000000000000000000000000000 DUP2 MSTORE POP DUP1 MLOAD SWAP1 PUSH1 0x20 ADD KECCAK256 PUSH2 0x277E JUMP JUMPDEST PUSH1 0x13 ADD PUSH0 DUP6 PUSH20 0xFFFFFFFFFFFFFFFFFFFFFFFFFFFFFFFFFFFFFFFF AND PUSH20 0xFFFFFFFFFFFFFFFFFFFFFFFFFFFFFFFFFFFFFFFF AND DUP2 MSTORE PUSH1 0x20 ADD SWAP1 DUP2 MSTORE PUSH1 0x20 ADD PUSH0 KECCAK256 PUSH0 DUP5 PUSH20 0xFFFFFFFFFFFFFFFFFFFFFFFFFFFFFFFFFFFFFFFF AND PUSH20 0xFFFFFFFFFFFFFFFFFFFFFFFFFFFFFFFFFFFFFFFF AND DUP2 MSTORE PUSH1 0x20 ADD SWAP1 DUP2 MSTORE PUSH1 0x20 ADD PUSH0 KECCAK256 PUSH0 PUSH2 0x100 EXP DUP2 SLOAD DUP2 PUSH1 0xFF MUL NOT AND SWAP1 DUP4 ISZERO ISZERO MUL OR SWAP1 SSTORE POP POP POP POP JUMP JUMPDEST DUP1 PUSH2 0x1B70 PUSH1 0x40 MLOAD DUP1 PUSH1 0x40 ADD PUSH1 0x40 MSTORE DUP1 PUSH1 0x6 DUP2 MSTORE PUSH1 0x20 ADD PUSH32 0x534D45616D620000000000000000000000000000000000000000000000000000 DUP2 MSTORE POP DUP1 MLOAD SWAP1 PUSH1 0x20 ADD KECCAK256 PUSH2 0x277E JUMP JUMPDEST PUSH1 0x8 ADD DUP2 SWAP1 SSTORE POP POP JUMP JUMPDEST DUP1 PUSH2 0x1BC0 PUSH1 0x40 MLOAD DUP1 PUSH1 0x40 ADD PUSH1 0x40 MSTORE DUP1 PUSH1 0x6 DUP2 MSTORE PUSH1 0x20 ADD PUSH32 0x534D45616D620000000000000000000000000000000000000000000000000000 DUP2 MSTORE POP DUP1 MLOAD SWAP1 PUSH1 0x20 ADD KECCAK256 PUSH2 0x277E JUMP JUMPDEST PUSH1 0xD ADD DUP2 SWAP1 SSTORE POP POP JUMP JUMPDEST PUSH0 PUSH2 0x1C10 PUSH1 0x40 MLOAD DUP1 PUSH1 0x40 ADD PUSH1 0x40 MSTORE DUP1 PUSH1 0x6 DUP2 MSTORE PUSH1 0x20 ADD PUSH32 0x534D45616D620000000000000000000000000000000000000000000000000000 DUP2 MSTORE POP DUP1 MLOAD SWAP1 PUSH1 0x20 ADD KECCAK256 PUSH2 0x277E JUMP JUMPDEST PUSH1 0xC ADD SLOAD SWAP1 POP SWAP1 JUMP JUMPDEST PUSH1 0x60 PUSH2 0x1C60 PUSH1 0x40 MLOAD DUP1 PUSH1 0x40 ADD PUSH1 0x40 MSTORE DUP1 PUSH1 0x6 DUP2 MSTORE PUSH1 0x20 ADD PUSH32 0x534D45616D620000000000000000000000000000000000000000000000000000 DUP2 MSTORE POP DUP1 MLOAD SWAP1 PUSH1 0x20 ADD KECCAK256 PUSH2 0x277E JUMP JUMPDEST PUSH1 0xF ADD DUP1 SLOAD PUSH2 0x1C6E SWAP1 PUSH2 0x2F41 JUMP JUMPDEST DUP1 PUSH1 0x1F ADD PUSH1 0x20 DUP1 SWAP2 DIV MUL PUSH1 0x20 ADD PUSH1 0x40 MLOAD SWAP1 DUP2 ADD PUSH1 0x40 MSTORE DUP1 SWAP3 SWAP2 SWAP1 DUP2 DUP2 MSTORE PUSH1 0x20 ADD DUP3 DUP1 SLOAD PUSH2 0x1C9A SWAP1 PUSH2 0x2F41 JUMP JUMPDEST DUP1 ISZERO PUSH2 0x1CE5 JUMPI DUP1 PUSH1 0x1F LT PUSH2 0x1CBC JUMPI PUSH2 0x100 DUP1 DUP4 SLOAD DIV MUL DUP4 MSTORE SWAP2 PUSH1 0x20 ADD SWAP2 PUSH2 0x1CE5 JUMP JUMPDEST DUP3 ADD SWAP2 SWAP1 PUSH0 MSTORE PUSH1 0x20 PUSH0 KECCAK256 SWAP1 JUMPDEST DUP2 SLOAD DUP2 MSTORE SWAP1 PUSH1 0x1 ADD SWAP1 PUSH1 0x20 ADD DUP1 DUP4 GT PUSH2 0x1CC8 JUMPI DUP3 SWAP1 SUB PUSH1 0x1F AND DUP3 ADD SWAP2 JUMPDEST POP POP POP POP POP SWAP1 POP SWAP1 JUMP JUMPDEST PUSH1 0x60 PUSH2 0x1D36 PUSH1 0x40 MLOAD DUP1 PUSH1 0x40 ADD PUSH1 0x40 MSTORE DUP1 PUSH1 0x6 DUP2 MSTORE PUSH1 0x20 ADD PUSH32 0x534D45616D620000000000000000000000000000000000000000000000000000 DUP2 MSTORE POP DUP1 MLOAD SWAP1 PUSH1 0x20 ADD KECCAK256 PUSH2 0x277E JUMP JUMPDEST PUSH1 0x1 ADD DUP1 SLOAD PUSH2 0x1D44 SWAP1 PUSH2 0x2F41 JUMP JUMPDEST DUP1 PUSH1 0x1F ADD PUSH1 0x20 DUP1 SWAP2 DIV MUL PUSH1 0x20 ADD PUSH1 0x40 MLOAD SWAP1 DUP2 ADD PUSH1 0x40 MSTORE DUP1 SWAP3 SWAP2 SWAP1 DUP2 DUP2 MSTORE PUSH1 0x20 ADD DUP3 DUP1 SLOAD PUSH2 0x1D70 SWAP1 PUSH2 0x2F41 JUMP JUMPDEST DUP1 ISZERO PUSH2 0x1DBB JUMPI DUP1 PUSH1 0x1F LT PUSH2 0x1D92 JUMPI PUSH2 0x100 DUP1 DUP4 SLOAD DIV MUL DUP4 MSTORE SWAP2 PUSH1 0x20 ADD SWAP2 PUSH2 0x1DBB JUMP JUMPDEST DUP3 ADD SWAP2 SWAP1 PUSH0 MSTORE PUSH1 0x20 PUSH0 KECCAK256 SWAP1 JUMPDEST DUP2 SLOAD DUP2 MSTORE SWAP1 PUSH1 0x1 ADD SWAP1 PUSH1 0x20 ADD DUP1 DUP4 GT PUSH2 0x1D9E JUMPI DUP3 SWAP1 SUB PUSH1 0x1F AND DUP3 ADD SWAP2 JUMPDEST POP POP POP POP POP SWAP1 POP SWAP1 JUMP JUMPDEST PUSH0 PUSH2 0x1E0B PUSH1 0x40 MLOAD DUP1 PUSH1 0x40 ADD PUSH1 0x40 MSTORE DUP1 PUSH1 0x6 DUP2 MSTORE PUSH1 0x20 ADD PUSH32 0x534D45616D620000000000000000000000000000000000000000000000000000 DUP2 MSTORE POP DUP1 MLOAD SWAP1 PUSH1 0x20 ADD KECCAK256 PUSH2 0x277E JUMP JUMPDEST PUSH1 0x15 ADD SLOAD SWAP1 POP SWAP1 JUMP JUMPDEST DUP1 PUSH2 0x1E5A PUSH1 0x40 MLOAD DUP1 PUSH1 0x40 ADD PUSH1 0x40 MSTORE DUP1 PUSH1 0x6 DUP2 MSTORE PUSH1 0x20 ADD PUSH32 0x534D45616D620000000000000000000000000000000000000000000000000000 DUP2 MSTORE POP DUP1 MLOAD SWAP1 PUSH1 0x20 ADD KECCAK256 PUSH2 0x277E JUMP JUMPDEST PUSH0 ADD SWAP1 DUP2 PUSH2 0x1E68 SWAP2 SWAP1 PUSH2 0x31C8 JUMP JUMPDEST POP POP JUMP JUMPDEST DUP1 PUSH2 0x1EB2 PUSH1 0x40 MLOAD DUP1 PUSH1 0x40 ADD PUSH1 0x40 MSTORE DUP1 PUSH1 0x6 DUP2 MSTORE PUSH1 0x20 ADD PUSH32 0x534D45616D620000000000000000000000000000000000000000000000000000 DUP2 MSTORE POP DUP1 MLOAD SWAP1 PUSH1 0x20 ADD KECCAK256 PUSH2 0x277E JUMP JUMPDEST PUSH1 0x11 ADD PUSH0 DUP5 PUSH20 0xFFFFFFFFFFFFFFFFFFFFFFFFFFFFFFFFFFFFFFFF AND PUSH20 0xFFFFFFFFFFFFFFFFFFFFFFFFFFFFFFFFFFFFFFFF AND DUP2 MSTORE PUSH1 0x20 ADD SWAP1 DUP2 MSTORE PUSH1 0x20 ADD PUSH0 KECCAK256 DUP2 SWAP1 SSTORE POP POP POP JUMP JUMPDEST PUSH2 0x1F00 PUSH2 0x2787 JUMP JUMPDEST PUSH2 0x1F45 PUSH1 0x40 MLOAD DUP1 PUSH1 0x40 ADD PUSH1 0x40 MSTORE DUP1 PUSH1 0x6 DUP2 MSTORE PUSH1 0x20 ADD PUSH32 0x534D45616D620000000000000000000000000000000000000000000000000000 DUP2 MSTORE POP DUP1 MLOAD SWAP1 PUSH1 0x20 ADD KECCAK256 PUSH2 0x277E JUMP JUMPDEST PUSH1 0x12 ADD PUSH0 DUP4 DUP2 MSTORE PUSH1 0x20 ADD SWAP1 DUP2 MSTORE PUSH1 0x20 ADD PUSH0 KECCAK256 PUSH1 0x40 MLOAD DUP1 PUSH1 0x20 ADD PUSH1 0x40 MSTORE SWAP1 DUP2 PUSH0 DUP3 ADD PUSH0 SWAP1 SLOAD SWAP1 PUSH2 0x100 EXP SWAP1 DIV PUSH20 0xFFFFFFFFFFFFFFFFFFFFFFFFFFFFFFFFFFFFFFFF AND PUSH20 0xFFFFFFFFFFFFFFFFFFFFFFFFFFFFFFFFFFFFFFFF AND PUSH20 0xFFFFFFFFFFFFFFFFFFFFFFFFFFFFFFFFFFFFFFFF AND DUP2 MSTORE POP POP SWAP1 POP SWAP2 SWAP1 POP JUMP JUMPDEST DUP1 PUSH2 0x2003 PUSH1 0x40 MLOAD DUP1 PUSH1 0x40 ADD PUSH1 0x40 MSTORE DUP1 PUSH1 0x6 DUP2 MSTORE PUSH1 0x20 ADD PUSH32 0x534D45616D620000000000000000000000000000000000000000000000000000 DUP2 MSTORE POP DUP1 MLOAD SWAP1 PUSH1 0x20 ADD KECCAK256 PUSH2 0x277E JUMP JUMPDEST PUSH1 0x4 ADD PUSH0 DUP5 DUP2 MSTORE PUSH1 0x20 ADD SWAP1 DUP2 MSTORE PUSH1 0x20 ADD PUSH0 KECCAK256 DUP2 SWAP1 SSTORE POP POP POP JUMP JUMPDEST DUP1 PUSH2 0x2063 PUSH1 0x40 MLOAD DUP1 PUSH1 0x40 ADD PUSH1 0x40 MSTORE DUP1 PUSH1 0x6 DUP2 MSTORE PUSH1 0x20 ADD PUSH32 0x534D45616D620000000000000000000000000000000000000000000000000000 DUP2 MSTORE POP DUP1 MLOAD SWAP1 PUSH1 0x20 ADD KECCAK256 PUSH2 0x277E JUMP JUMPDEST PUSH1 0xB ADD PUSH0 DUP5 PUSH20 0xFFFFFFFFFFFFFFFFFFFFFFFFFFFFFFFFFFFFFFFF AND PUSH20 0xFFFFFFFFFFFFFFFFFFFFFFFFFFFFFFFFFFFFFFFF AND DUP2 MSTORE PUSH1 0x20 ADD SWAP1 DUP2 MSTORE PUSH1 0x20 ADD PUSH0 KECCAK256 PUSH0 PUSH2 0x100 EXP DUP2 SLOAD DUP2 PUSH1 0xFF MUL NOT AND SWAP1 DUP4 ISZERO ISZERO MUL OR SWAP1 SSTORE POP POP POP JUMP JUMPDEST PUSH0 PUSH2 0x2101 PUSH1 0x40 MLOAD DUP1 PUSH1 0x40 ADD PUSH1 0x40 MSTORE DUP1 PUSH1 0x6 DUP2 MSTORE PUSH1 0x20 ADD PUSH32 0x534D45616D620000000000000000000000000000000000000000000000000000 DUP2 MSTORE POP DUP1 MLOAD SWAP1 PUSH1 0x20 ADD KECCAK256 PUSH2 0x277E JUMP JUMPDEST PUSH1 0xB ADD PUSH0 DUP4 PUSH20 0xFFFFFFFFFFFFFFFFFFFFFFFFFFFFFFFFFFFFFFFF AND PUSH20 0xFFFFFFFFFFFFFFFFFFFFFFFFFFFFFFFFFFFFFFFF AND DUP2 MSTORE PUSH1 0x20 ADD SWAP1 DUP2 MSTORE PUSH1 0x20 ADD PUSH0 KECCAK256 PUSH0 SWAP1 SLOAD SWAP1 PUSH2 0x100 EXP SWAP1 DIV PUSH1 0xFF AND SWAP1 POP SWAP2 SWAP1 POP JUMP JUMPDEST PUSH1 0x1 PUSH2 0x219A PUSH1 0x40 MLOAD DUP1 PUSH1 0x40 ADD PUSH1 0x40 MSTORE DUP1 PUSH1 0x6 DUP2 MSTORE PUSH1 0x20 ADD PUSH32 0x534D45616D620000000000000000000000000000000000000000000000000000 DUP2 MSTORE POP DUP1 MLOAD SWAP1 PUSH1 0x20 ADD KECCAK256 PUSH2 0x277E JUMP JUMPDEST PUSH1 0x11 ADD PUSH0 DUP4 PUSH20 0xFFFFFFFFFFFFFFFFFFFFFFFFFFFFFFFFFFFFFFFF AND PUSH20 0xFFFFFFFFFFFFFFFFFFFFFFFFFFFFFFFFFFFFFFFF AND DUP2 MSTORE PUSH1 0x20 ADD SWAP1 DUP2 MSTORE PUSH1 0x20 ADD PUSH0 KECCAK256 SLOAD PUSH2 0x21E3 SWAP2 SWAP1 PUSH2 0x3297 JUMP JUMPDEST PUSH2 0x2228 PUSH1 0x40 MLOAD DUP1 PUSH1 0x40 ADD PUSH1 0x40 MSTORE DUP1 PUSH1 0x6 DUP2 MSTORE PUSH1 0x20 ADD PUSH32 0x534D45616D620000000000000000000000000000000000000000000000000000 DUP2 MSTORE POP DUP1 MLOAD SWAP1 PUSH1 0x20 ADD KECCAK256 PUSH2 0x277E JUMP JUMPDEST PUSH1 0x11 ADD PUSH0 DUP4 PUSH20 0xFFFFFFFFFFFFFFFFFFFFFFFFFFFFFFFFFFFFFFFF AND PUSH20 0xFFFFFFFFFFFFFFFFFFFFFFFFFFFFFFFFFFFFFFFF AND DUP2 MSTORE PUSH1 0x20 ADD SWAP1 DUP2 MSTORE PUSH1 0x20 ADD PUSH0 KECCAK256 DUP2 SWAP1 SSTORE POP POP JUMP JUMPDEST PUSH0 PUSH2 0x22B3 PUSH1 0x40 MLOAD DUP1 PUSH1 0x40 ADD PUSH1 0x40 MSTORE DUP1 PUSH1 0x6 DUP2 MSTORE PUSH1 0x20 ADD PUSH32 0x534D45616D620000000000000000000000000000000000000000000000000000 DUP2 MSTORE POP DUP1 MLOAD SWAP1 PUSH1 0x20 ADD KECCAK256 PUSH2 0x277E JUMP JUMPDEST PUSH1 0x14 ADD SLOAD SWAP1 POP SWAP1 JUMP JUMPDEST PUSH1 0x60 PUSH2 0x2303 PUSH1 0x40 MLOAD DUP1 PUSH1 0x40 ADD PUSH1 0x40 MSTORE DUP1 PUSH1 0x6 DUP2 MSTORE PUSH1 0x20 ADD PUSH32 0x534D45616D620000000000000000000000000000000000000000000000000000 DUP2 MSTORE POP DUP1 MLOAD SWAP1 PUSH1 0x20 ADD KECCAK256 PUSH2 0x277E JUMP JUMPDEST PUSH0 ADD DUP1 SLOAD PUSH2 0x2310 SWAP1 PUSH2 0x2F41 JUMP JUMPDEST DUP1 PUSH1 0x1F ADD PUSH1 0x20 DUP1 SWAP2 DIV MUL PUSH1 0x20 ADD PUSH1 0x40 MLOAD SWAP1 DUP2 ADD PUSH1 0x40 MSTORE DUP1 SWAP3 SWAP2 SWAP1 DUP2 DUP2 MSTORE PUSH1 0x20 ADD DUP3 DUP1 SLOAD PUSH2 0x233C SWAP1 PUSH2 0x2F41 JUMP JUMPDEST DUP1 ISZERO PUSH2 0x2387 JUMPI DUP1 PUSH1 0x1F LT PUSH2 0x235E JUMPI PUSH2 0x100 DUP1 DUP4 SLOAD DIV MUL DUP4 MSTORE SWAP2 PUSH1 0x20 ADD SWAP2 PUSH2 0x2387 JUMP JUMPDEST DUP3 ADD SWAP2 SWAP1 PUSH0 MSTORE PUSH1 0x20 PUSH0 KECCAK256 SWAP1 JUMPDEST DUP2 SLOAD DUP2 MSTORE SWAP1 PUSH1 0x1 ADD SWAP1 PUSH1 0x20 ADD DUP1 DUP4 GT PUSH2 0x236A JUMPI DUP3 SWAP1 SUB PUSH1 0x1F AND DUP3 ADD SWAP2 JUMPDEST POP POP POP POP POP SWAP1 POP SWAP1 JUMP JUMPDEST PUSH2 0x23D6 PUSH1 0x40 MLOAD DUP1 PUSH1 0x40 ADD PUSH1 0x40 MSTORE DUP1 PUSH1 0x6 DUP2 MSTORE PUSH1 0x20 ADD PUSH32 0x534D45616D620000000000000000000000000000000000000000000000000000 DUP2 MSTORE POP DUP1 MLOAD SWAP1 PUSH1 0x20 ADD KECCAK256 PUSH2 0x277E JUMP JUMPDEST PUSH1 0x5 ADD DUP1 SLOAD SWAP1 POP PUSH2 0x2422 PUSH1 0x40 MLOAD DUP1 PUSH1 0x40 ADD PUSH1 0x40 MSTORE DUP1 PUSH1 0x6 DUP2 MSTORE PUSH1 0x20 ADD PUSH32 0x534D45616D620000000000000000000000000000000000000000000000000000 DUP2 MSTORE POP DUP1 MLOAD SWAP1 PUSH1 0x20 ADD KECCAK256 PUSH2 0x277E JUMP JUMPDEST PUSH1 0x6 ADD PUSH0 DUP4 DUP2 MSTORE PUSH1 0x20 ADD SWAP1 DUP2 MSTORE PUSH1 0x20 ADD PUSH0 KECCAK256 DUP2 SWAP1 SSTORE POP PUSH2 0x247D PUSH1 0x40 MLOAD DUP1 PUSH1 0x40 ADD PUSH1 0x40 MSTORE DUP1 PUSH1 0x6 DUP2 MSTORE PUSH1 0x20 ADD PUSH32 0x534D45616D620000000000000000000000000000000000000000000000000000 DUP2 MSTORE POP DUP1 MLOAD SWAP1 PUSH1 0x20 ADD KECCAK256 PUSH2 0x277E JUMP JUMPDEST PUSH1 0x5 ADD DUP2 SWAP1 DUP1 PUSH1 0x1 DUP2 SLOAD ADD DUP1 DUP3 SSTORE DUP1 SWAP2 POP POP PUSH1 0x1 SWAP1 SUB SWAP1 PUSH0 MSTORE PUSH1 0x20 PUSH0 KECCAK256 ADD PUSH0 SWAP1 SWAP2 SWAP1 SWAP2 SWAP1 SWAP2 POP SSTORE POP JUMP JUMPDEST PUSH0 PUSH2 0x24ED PUSH1 0x40 MLOAD DUP1 PUSH1 0x40 ADD PUSH1 0x40 MSTORE DUP1 PUSH1 0x6 DUP2 MSTORE PUSH1 0x20 ADD PUSH32 0x534D45616D620000000000000000000000000000000000000000000000000000 DUP2 MSTORE POP DUP1 MLOAD SWAP1 PUSH1 0x20 ADD KECCAK256 PUSH2 0x277E JUMP JUMPDEST PUSH1 0xA ADD SLOAD SWAP1 POP SWAP1 JUMP JUMPDEST DUP2 PUSH2 0x253C PUSH1 0x40 MLOAD DUP1 PUSH1 0x40 ADD PUSH1 0x40 MSTORE DUP1 PUSH1 0x6 DUP2 MSTORE PUSH1 0x20 ADD PUSH32 0x534D45616D620000000000000000000000000000000000000000000000000000 DUP2 MSTORE POP DUP1 MLOAD SWAP1 PUSH1 0x20 ADD KECCAK256 PUSH2 0x277E JUMP JUMPDEST PUSH1 0x2 ADD PUSH0 DUP4 DUP2 MSTORE PUSH1 0x20 ADD SWAP1 DUP2 MSTORE PUSH1 0x20 ADD PUSH0 KECCAK256 SWAP1 DUP2 PUSH2 0x255A SWAP2 SWAP1 PUSH2 0x31C8 JUMP JUMPDEST POP POP POP JUMP JUMPDEST PUSH0 PUSH2 0x25A5 PUSH1 0x40 MLOAD DUP1 PUSH1 0x40 ADD PUSH1 0x40 MSTORE DUP1 PUSH1 0x6 DUP2 MSTORE PUSH1 0x20 ADD PUSH32 0x534D45616D620000000000000000000000000000000000000000000000000000 DUP2 MSTORE POP DUP1 MLOAD SWAP1 PUSH1 0x20 ADD KECCAK256 PUSH2 0x277E JUMP JUMPDEST PUSH1 0x3 ADD PUSH0 DUP5 PUSH20 0xFFFFFFFFFFFFFFFFFFFFFFFFFFFFFFFFFFFFFFFF AND PUSH20 0xFFFFFFFFFFFFFFFFFFFFFFFFFFFFFFFFFFFFFFFF AND DUP2 MSTORE PUSH1 0x20 ADD SWAP1 DUP2 MSTORE PUSH1 0x20 ADD PUSH0 KECCAK256 PUSH0 DUP4 DUP2 MSTORE PUSH1 0x20 ADD SWAP1 DUP2 MSTORE PUSH1 0x20 ADD PUSH0 KECCAK256 SLOAD SWAP1 POP SWAP3 SWAP2 POP POP JUMP JUMPDEST DUP1 PUSH2 0x2641 PUSH1 0x40 MLOAD DUP1 PUSH1 0x40 ADD PUSH1 0x40 MSTORE DUP1 PUSH1 0x6 DUP2 MSTORE PUSH1 0x20 ADD PUSH32 0x534D45616D620000000000000000000000000000000000000000000000000000 DUP2 MSTORE POP DUP1 MLOAD SWAP1 PUSH1 0x20 ADD KECCAK256 PUSH2 0x277E JUMP JUMPDEST PUSH1 0x10 ADD PUSH0 DUP5 DUP2 MSTORE PUSH1 0x20 ADD SWAP1 DUP2 MSTORE PUSH1 0x20 ADD PUSH0 KECCAK256 DUP2 SWAP1 SSTORE POP POP POP JUMP JUMPDEST PUSH0 PUSH2 0x26A1 PUSH1 0x40 MLOAD DUP1 PUSH1 0x40 ADD PUSH1 0x40 MSTORE DUP1 PUSH1 0x6 DUP2 MSTORE PUSH1 0x20 ADD PUSH32 0x534D45616D620000000000000000000000000000000000000000000000000000 DUP2 MSTORE POP DUP1 MLOAD SWAP1 PUSH1 0x20 ADD KECCAK256 PUSH2 0x277E JUMP JUMPDEST PUSH1 0x13 ADD PUSH0 DUP5 PUSH20 0xFFFFFFFFFFFFFFFFFFFFFFFFFFFFFFFFFFFFFFFF AND PUSH20 0xFFFFFFFFFFFFFFFFFFFFFFFFFFFFFFFFFFFFFFFF AND DUP2 MSTORE PUSH1 0x20 ADD SWAP1 DUP2 MSTORE PUSH1 0x20 ADD PUSH0 KECCAK256 PUSH0 DUP4 PUSH20 0xFFFFFFFFFFFFFFFFFFFFFFFFFFFFFFFFFFFFFFFF AND PUSH20 0xFFFFFFFFFFFFFFFFFFFFFFFFFFFFFFFFFFFFFFFF AND DUP2 MSTORE PUSH1 0x20 ADD SWAP1 DUP2 MSTORE PUSH1 0x20 ADD PUSH0 KECCAK256 PUSH0 SWAP1 SLOAD SWAP1 PUSH2 0x100 EXP SWAP1 DIV PUSH1 0xFF AND SWAP1 POP SWAP3 SWAP2 POP POP JUMP JUMPDEST PUSH0 PUSH2 0x2775 PUSH1 0x40 MLOAD DUP1 PUSH1 0x40 ADD PUSH1 0x40 MSTORE DUP1 PUSH1 0x6 DUP2 MSTORE PUSH1 0x20 ADD PUSH32 0x534D45616D620000000000000000000000000000000000000000000000000000 DUP2 MSTORE POP DUP1 MLOAD SWAP1 PUSH1 0x20 ADD KECCAK256 PUSH2 0x277E JUMP JUMPDEST PUSH1 0x8 ADD SLOAD SWAP1 POP SWAP1 JUMP JUMPDEST PUSH0 DUP2 SWAP1 POP SWAP2 SWAP1 POP JUMP JUMPDEST PUSH1 0x40 MLOAD DUP1 PUSH1 0x20 ADD PUSH1 0x40 MSTORE DUP1 PUSH0 PUSH20 0xFFFFFFFFFFFFFFFFFFFFFFFFFFFFFFFFFFFFFFFF AND DUP2 MSTORE POP SWAP1 JUMP JUMPDEST PUSH0 DUP2 MLOAD SWAP1 POP SWAP2 SWAP1 POP JUMP JUMPDEST PUSH0 DUP3 DUP3 MSTORE PUSH1 0x20 DUP3 ADD SWAP1 POP SWAP3 SWAP2 POP POP JUMP JUMPDEST PUSH0 JUMPDEST DUP4 DUP2 LT ISZERO PUSH2 0x27E6 JUMPI DUP1 DUP3 ADD MLOAD DUP2 DUP5 ADD MSTORE PUSH1 0x20 DUP2 ADD SWAP1 POP PUSH2 0x27CB JUMP JUMPDEST PUSH0 DUP5 DUP5 ADD MSTORE POP POP POP POP JUMP JUMPDEST PUSH0 PUSH1 0x1F NOT PUSH1 0x1F DUP4 ADD AND SWAP1 POP SWAP2 SWAP1 POP JUMP JUMPDEST PUSH0 PUSH2 0x280B DUP3 PUSH2 0x27AF JUMP JUMPDEST PUSH2 0x2815 DUP2 DUP6 PUSH2 0x27B9 JUMP JUMPDEST SWAP4 POP PUSH2 0x2825 DUP2 DUP6 PUSH1 0x20 DUP7 ADD PUSH2 0x27C9 JUMP JUMPDEST PUSH2 0x282E DUP2 PUSH2 0x27F1 JUMP JUMPDEST DUP5 ADD SWAP2 POP POP SWAP3 SWAP2 POP POP JUMP JUMPDEST PUSH0 PUSH1 0x20 DUP3 ADD SWAP1 POP DUP2 DUP2 SUB PUSH0 DUP4 ADD MSTORE PUSH2 0x2851 DUP2 DUP5 PUSH2 0x2801 JUMP JUMPDEST SWAP1 POP SWAP3 SWAP2 POP POP JUMP JUMPDEST PUSH0 PUSH1 0x40 MLOAD SWAP1 POP SWAP1 JUMP JUMPDEST PUSH0 DUP1 REVERT JUMPDEST PUSH0 DUP1 REVERT JUMPDEST PUSH0 PUSH20 0xFFFFFFFFFFFFFFFFFFFFFFFFFFFFFFFFFFFFFFFF DUP3 AND SWAP1 POP SWAP2 SWAP1 POP JUMP JUMPDEST PUSH0 PUSH2 0x2893 DUP3 PUSH2 0x286A JUMP JUMPDEST SWAP1 POP SWAP2 SWAP1 POP JUMP JUMPDEST PUSH2 0x28A3 DUP2 PUSH2 0x2889 JUMP JUMPDEST DUP2 EQ PUSH2 0x28AD JUMPI PUSH0 DUP1 REVERT JUMPDEST POP JUMP JUMPDEST PUSH0 DUP2 CALLDATALOAD SWAP1 POP PUSH2 0x28BE DUP2 PUSH2 0x289A JUMP JUMPDEST SWAP3 SWAP2 POP POP JUMP JUMPDEST PUSH0 DUP2 SWAP1 POP SWAP2 SWAP1 POP JUMP JUMPDEST PUSH2 0x28D6 DUP2 PUSH2 0x28C4 JUMP JUMPDEST DUP2 EQ PUSH2 0x28E0 JUMPI PUSH0 DUP1 REVERT JUMPDEST POP JUMP JUMPDEST PUSH0 DUP2 CALLDATALOAD SWAP1 POP PUSH2 0x28F1 DUP2 PUSH2 0x28CD JUMP JUMPDEST SWAP3 SWAP2 POP POP JUMP JUMPDEST PUSH0 DUP1 PUSH0 PUSH1 0x60 DUP5 DUP7 SUB SLT ISZERO PUSH2 0x290E JUMPI PUSH2 0x290D PUSH2 0x2862 JUMP JUMPDEST JUMPDEST PUSH0 PUSH2 0x291B DUP7 DUP3 DUP8 ADD PUSH2 0x28B0 JUMP JUMPDEST SWAP4 POP POP PUSH1 0x20 PUSH2 0x292C DUP7 DUP3 DUP8 ADD PUSH2 0x28E3 JUMP JUMPDEST SWAP3 POP POP PUSH1 0x40 PUSH2 0x293D DUP7 DUP3 DUP8 ADD PUSH2 0x28E3 JUMP JUMPDEST SWAP2 POP POP SWAP3 POP SWAP3 POP SWAP3 JUMP JUMPDEST PUSH0 DUP1 PUSH1 0x40 DUP4 DUP6 SUB SLT ISZERO PUSH2 0x295D JUMPI PUSH2 0x295C PUSH2 0x2862 JUMP JUMPDEST JUMPDEST PUSH0 PUSH2 0x296A DUP6 DUP3 DUP7 ADD PUSH2 0x28E3 JUMP JUMPDEST SWAP3 POP POP PUSH1 0x20 PUSH2 0x297B DUP6 DUP3 DUP7 ADD PUSH2 0x28B0 JUMP JUMPDEST SWAP2 POP POP SWAP3 POP SWAP3 SWAP1 POP JUMP JUMPDEST PUSH0 DUP2 SWAP1 POP SWAP2 SWAP1 POP JUMP JUMPDEST PUSH2 0x2997 DUP2 PUSH2 0x2985 JUMP JUMPDEST DUP3 MSTORE POP POP JUMP JUMPDEST PUSH0 PUSH1 0x20 DUP3 ADD SWAP1 POP PUSH2 0x29B0 PUSH0 DUP4 ADD DUP5 PUSH2 0x298E JUMP JUMPDEST SWAP3 SWAP2 POP POP JUMP JUMPDEST PUSH0 PUSH1 0x20 DUP3 DUP5 SUB SLT ISZERO PUSH2 0x29CB JUMPI PUSH2 0x29CA PUSH2 0x2862 JUMP JUMPDEST JUMPDEST PUSH0 PUSH2 0x29D8 DUP5 DUP3 DUP6 ADD PUSH2 0x28B0 JUMP JUMPDEST SWAP2 POP POP SWAP3 SWAP2 POP POP JUMP JUMPDEST PUSH2 0x29EA DUP2 PUSH2 0x28C4 JUMP JUMPDEST DUP3 MSTORE POP POP JUMP JUMPDEST PUSH0 PUSH1 0x20 DUP3 ADD SWAP1 POP PUSH2 0x2A03 PUSH0 DUP4 ADD DUP5 PUSH2 0x29E1 JUMP JUMPDEST SWAP3 SWAP2 POP POP JUMP JUMPDEST PUSH2 0x2A12 DUP2 PUSH2 0x2985 JUMP JUMPDEST DUP2 EQ PUSH2 0x2A1C JUMPI PUSH0 DUP1 REVERT JUMPDEST POP JUMP JUMPDEST PUSH0 DUP2 CALLDATALOAD SWAP1 POP PUSH2 0x2A2D DUP2 PUSH2 0x2A09 JUMP JUMPDEST SWAP3 SWAP2 POP POP JUMP JUMPDEST PUSH0 PUSH1 0x20 DUP3 DUP5 SUB SLT ISZERO PUSH2 0x2A48 JUMPI PUSH2 0x2A47 PUSH2 0x2862 JUMP JUMPDEST JUMPDEST PUSH0 PUSH2 0x2A55 DUP5 DUP3 DUP6 ADD PUSH2 0x2A1F JUMP JUMPDEST SWAP2 POP POP SWAP3 SWAP2 POP POP JUMP JUMPDEST PUSH0 PUSH1 0x20 DUP3 DUP5 SUB SLT ISZERO PUSH2 0x2A73 JUMPI PUSH2 0x2A72 PUSH2 0x2862 JUMP JUMPDEST JUMPDEST PUSH0 PUSH2 0x2A80 DUP5 DUP3 DUP6 ADD PUSH2 0x28E3 JUMP JUMPDEST SWAP2 POP POP SWAP3 SWAP2 POP POP JUMP JUMPDEST PUSH0 DUP1 REVERT JUMPDEST PUSH0 DUP1 REVERT JUMPDEST PUSH32 0x4E487B7100000000000000000000000000000000000000000000000000000000 PUSH0 MSTORE PUSH1 0x41 PUSH1 0x4 MSTORE PUSH1 0x24 PUSH0 REVERT JUMPDEST PUSH2 0x2AC7 DUP3 PUSH2 0x27F1 JUMP JUMPDEST DUP2 ADD DUP2 DUP2 LT PUSH8 0xFFFFFFFFFFFFFFFF DUP3 GT OR ISZERO PUSH2 0x2AE6 JUMPI PUSH2 0x2AE5 PUSH2 0x2A91 JUMP JUMPDEST JUMPDEST DUP1 PUSH1 0x40 MSTORE POP POP POP JUMP JUMPDEST PUSH0 PUSH2 0x2AF8 PUSH2 0x2859 JUMP JUMPDEST SWAP1 POP PUSH2 0x2B04 DUP3 DUP3 PUSH2 0x2ABE JUMP JUMPDEST SWAP2 SWAP1 POP JUMP JUMPDEST PUSH0 PUSH8 0xFFFFFFFFFFFFFFFF DUP3 GT ISZERO PUSH2 0x2B23 JUMPI PUSH2 0x2B22 PUSH2 0x2A91 JUMP JUMPDEST JUMPDEST PUSH2 0x2B2C DUP3 PUSH2 0x27F1 JUMP JUMPDEST SWAP1 POP PUSH1 0x20 DUP2 ADD SWAP1 POP SWAP2 SWAP1 POP JUMP JUMPDEST DUP3 DUP2 DUP4 CALLDATACOPY PUSH0 DUP4 DUP4 ADD MSTORE POP POP POP JUMP JUMPDEST PUSH0 PUSH2 0x2B59 PUSH2 0x2B54 DUP5 PUSH2 0x2B09 JUMP JUMPDEST PUSH2 0x2AEF JUMP JUMPDEST SWAP1 POP DUP3 DUP2 MSTORE PUSH1 0x20 DUP2 ADD DUP5 DUP5 DUP5 ADD GT ISZERO PUSH2 0x2B75 JUMPI PUSH2 0x2B74 PUSH2 0x2A8D JUMP JUMPDEST JUMPDEST PUSH2 0x2B80 DUP5 DUP3 DUP6 PUSH2 0x2B39 JUMP JUMPDEST POP SWAP4 SWAP3 POP POP POP JUMP JUMPDEST PUSH0 DUP3 PUSH1 0x1F DUP4 ADD SLT PUSH2 0x2B9C JUMPI PUSH2 0x2B9B PUSH2 0x2A89 JUMP JUMPDEST JUMPDEST DUP2 CALLDATALOAD PUSH2 0x2BAC DUP5 DUP3 PUSH1 0x20 DUP7 ADD PUSH2 0x2B47 JUMP JUMPDEST SWAP2 POP POP SWAP3 SWAP2 POP POP JUMP JUMPDEST PUSH0 PUSH1 0x20 DUP3 DUP5 SUB SLT ISZERO PUSH2 0x2BCA JUMPI PUSH2 0x2BC9 PUSH2 0x2862 JUMP JUMPDEST JUMPDEST PUSH0 DUP3 ADD CALLDATALOAD PUSH8 0xFFFFFFFFFFFFFFFF DUP2 GT ISZERO PUSH2 0x2BE7 JUMPI PUSH2 0x2BE6 PUSH2 0x2866 JUMP JUMPDEST JUMPDEST PUSH2 0x2BF3 DUP5 DUP3 DUP6 ADD PUSH2 0x2B88 JUMP JUMPDEST SWAP2 POP POP SWAP3 SWAP2 POP POP JUMP JUMPDEST PUSH0 DUP2 MLOAD SWAP1 POP SWAP2 SWAP1 POP JUMP JUMPDEST PUSH0 DUP3 DUP3 MSTORE PUSH1 0x20 DUP3 ADD SWAP1 POP SWAP3 SWAP2 POP POP JUMP JUMPDEST PUSH0 DUP2 SWAP1 POP PUSH1 0x20 DUP3 ADD SWAP1 POP SWAP2 SWAP1 POP JUMP JUMPDEST PUSH2 0x2C2E DUP2 PUSH2 0x28C4 JUMP JUMPDEST DUP3 MSTORE POP POP JUMP JUMPDEST PUSH0 PUSH2 0x2C3F DUP4 DUP4 PUSH2 0x2C25 JUMP JUMPDEST PUSH1 0x20 DUP4 ADD SWAP1 POP SWAP3 SWAP2 POP POP JUMP JUMPDEST PUSH0 PUSH1 0x20 DUP3 ADD SWAP1 POP SWAP2 SWAP1 POP JUMP JUMPDEST PUSH0 PUSH2 0x2C61 DUP3 PUSH2 0x2BFC JUMP JUMPDEST PUSH2 0x2C6B DUP2 DUP6 PUSH2 0x2C06 JUMP JUMPDEST SWAP4 POP PUSH2 0x2C76 DUP4 PUSH2 0x2C16 JUMP JUMPDEST DUP1 PUSH0 JUMPDEST DUP4 DUP2 LT ISZERO PUSH2 0x2CA6 JUMPI DUP2 MLOAD PUSH2 0x2C8D DUP9 DUP3 PUSH2 0x2C34 JUMP JUMPDEST SWAP8 POP PUSH2 0x2C98 DUP4 PUSH2 0x2C4B JUMP JUMPDEST SWAP3 POP POP PUSH1 0x1 DUP2 ADD SWAP1 POP PUSH2 0x2C79 JUMP JUMPDEST POP DUP6 SWAP4 POP POP POP POP SWAP3 SWAP2 POP POP JUMP JUMPDEST PUSH0 PUSH1 0x20 DUP3 ADD SWAP1 POP DUP2 DUP2 SUB PUSH0 DUP4 ADD MSTORE PUSH2 0x2CCB DUP2 DUP5 PUSH2 0x2C57 JUMP JUMPDEST SWAP1 POP SWAP3 SWAP2 POP POP JUMP JUMPDEST PUSH0 DUP2 ISZERO ISZERO SWAP1 POP SWAP2 SWAP1 POP JUMP JUMPDEST PUSH2 0x2CE7 DUP2 PUSH2 0x2CD3 JUMP JUMPDEST DUP2 EQ PUSH2 0x2CF1 JUMPI PUSH0 DUP1 REVERT JUMPDEST POP JUMP JUMPDEST PUSH0 DUP2 CALLDATALOAD SWAP1 POP PUSH2 0x2D02 DUP2 PUSH2 0x2CDE JUMP JUMPDEST SWAP3 SWAP2 POP POP JUMP JUMPDEST PUSH0 DUP1 PUSH0 PUSH1 0x60 DUP5 DUP7 SUB SLT ISZERO PUSH2 0x2D1F JUMPI PUSH2 0x2D1E PUSH2 0x2862 JUMP JUMPDEST JUMPDEST PUSH0 PUSH2 0x2D2C DUP7 DUP3 DUP8 ADD PUSH2 0x28B0 JUMP JUMPDEST SWAP4 POP POP PUSH1 0x20 PUSH2 0x2D3D DUP7 DUP3 DUP8 ADD PUSH2 0x28B0 JUMP JUMPDEST SWAP3 POP POP PUSH1 0x40 PUSH2 0x2D4E DUP7 DUP3 DUP8 ADD PUSH2 0x2CF4 JUMP JUMPDEST SWAP2 POP POP SWAP3 POP SWAP3 POP SWAP3 JUMP JUMPDEST PUSH0 DUP1 PUSH1 0x40 DUP4 DUP6 SUB SLT ISZERO PUSH2 0x2D6E JUMPI PUSH2 0x2D6D PUSH2 0x2862 JUMP JUMPDEST JUMPDEST PUSH0 PUSH2 0x2D7B DUP6 DUP3 DUP7 ADD PUSH2 0x28B0 JUMP JUMPDEST SWAP3 POP POP PUSH1 0x20 PUSH2 0x2D8C DUP6 DUP3 DUP7 ADD PUSH2 0x28E3 JUMP JUMPDEST SWAP2 POP POP SWAP3 POP SWAP3 SWAP1 POP JUMP JUMPDEST PUSH2 0x2D9F DUP2 PUSH2 0x2889 JUMP JUMPDEST DUP3 MSTORE POP POP JUMP JUMPDEST PUSH1 0x20 DUP3 ADD PUSH0 DUP3 ADD MLOAD PUSH2 0x2DB9 PUSH0 DUP6 ADD DUP3 PUSH2 0x2D96 JUMP JUMPDEST POP POP POP POP JUMP JUMPDEST PUSH0 PUSH1 0x20 DUP3 ADD SWAP1 POP PUSH2 0x2DD2 PUSH0 DUP4 ADD DUP5 PUSH2 0x2DA5 JUMP JUMPDEST SWAP3 SWAP2 POP POP JUMP JUMPDEST PUSH0 DUP1 PUSH1 0x40 DUP4 DUP6 SUB SLT ISZERO PUSH2 0x2DEE JUMPI PUSH2 0x2DED PUSH2 0x2862 JUMP JUMPDEST JUMPDEST PUSH0 PUSH2 0x2DFB DUP6 DUP3 DUP7 ADD PUSH2 0x28E3 JUMP JUMPDEST SWAP3 POP POP PUSH1 0x20 PUSH2 0x2E0C DUP6 DUP3 DUP7 ADD PUSH2 0x28E3 JUMP JUMPDEST SWAP2 POP POP SWAP3 POP SWAP3 SWAP1 POP JUMP JUMPDEST PUSH0 DUP1 PUSH1 0x40 DUP4 DUP6 SUB SLT ISZERO PUSH2 0x2E2C JUMPI PUSH2 0x2E2B PUSH2 0x2862 JUMP JUMPDEST JUMPDEST PUSH0 PUSH2 0x2E39 DUP6 DUP3 DUP7 ADD PUSH2 0x28B0 JUMP JUMPDEST SWAP3 POP POP PUSH1 0x20 PUSH2 0x2E4A DUP6 DUP3 DUP7 ADD PUSH2 0x2CF4 JUMP JUMPDEST SWAP2 POP POP SWAP3 POP SWAP3 SWAP1 POP JUMP JUMPDEST PUSH2 0x2E5D DUP2 PUSH2 0x2CD3 JUMP JUMPDEST DUP3 MSTORE POP POP JUMP JUMPDEST PUSH0 PUSH1 0x20 DUP3 ADD SWAP1 POP PUSH2 0x2E76 PUSH0 DUP4 ADD DUP5 PUSH2 0x2E54 JUMP JUMPDEST SWAP3 SWAP2 POP POP JUMP JUMPDEST PUSH0 DUP1 PUSH1 0x40 DUP4 DUP6 SUB SLT ISZERO PUSH2 0x2E92 JUMPI PUSH2 0x2E91 PUSH2 0x2862 JUMP JUMPDEST JUMPDEST PUSH0 DUP4 ADD CALLDATALOAD PUSH8 0xFFFFFFFFFFFFFFFF DUP2 GT ISZERO PUSH2 0x2EAF JUMPI PUSH2 0x2EAE PUSH2 0x2866 JUMP JUMPDEST JUMPDEST PUSH2 0x2EBB DUP6 DUP3 DUP7 ADD PUSH2 0x2B88 JUMP JUMPDEST SWAP3 POP POP PUSH1 0x20 PUSH2 0x2ECC DUP6 DUP3 DUP7 ADD PUSH2 0x28E3 JUMP JUMPDEST SWAP2 POP POP SWAP3 POP SWAP3 SWAP1 POP JUMP JUMPDEST PUSH0 DUP1 PUSH1 0x40 DUP4 DUP6 SUB SLT ISZERO PUSH2 0x2EEC JUMPI PUSH2 0x2EEB PUSH2 0x2862 JUMP JUMPDEST JUMPDEST PUSH0 PUSH2 0x2EF9 DUP6 DUP3 DUP7 ADD PUSH2 0x28B0 JUMP JUMPDEST SWAP3 POP POP PUSH1 0x20 PUSH2 0x2F0A DUP6 DUP3 DUP7 ADD PUSH2 0x28B0 JUMP JUMPDEST SWAP2 POP POP SWAP3 POP SWAP3 SWAP1 POP JUMP JUMPDEST PUSH32 0x4E487B7100000000000000000000000000000000000000000000000000000000 PUSH0 MSTORE PUSH1 0x22 PUSH1 0x4 MSTORE PUSH1 0x24 PUSH0 REVERT JUMPDEST PUSH0 PUSH1 0x2 DUP3 DIV SWAP1 POP PUSH1 0x1 DUP3 AND DUP1 PUSH2 0x2F58 JUMPI PUSH1 0x7F DUP3 AND SWAP2 POP JUMPDEST PUSH1 0x20 DUP3 LT DUP2 SUB PUSH2 0x2F6B JUMPI PUSH2 0x2F6A PUSH2 0x2F14 JUMP JUMPDEST JUMPDEST POP SWAP2 SWAP1 POP JUMP JUMPDEST PUSH32 0x4E487B7100000000000000000000000000000000000000000000000000000000 PUSH0 MSTORE PUSH1 0x11 PUSH1 0x4 MSTORE PUSH1 0x24 PUSH0 REVERT JUMPDEST PUSH0 PUSH2 0x2FA8 DUP3 PUSH2 0x28C4 JUMP JUMPDEST SWAP2 POP PUSH2 0x2FB3 DUP4 PUSH2 0x28C4 JUMP JUMPDEST SWAP3 POP DUP3 DUP3 SUB SWAP1 POP DUP2 DUP2 GT ISZERO PUSH2 0x2FCB JUMPI PUSH2 0x2FCA PUSH2 0x2F71 JUMP JUMPDEST JUMPDEST SWAP3 SWAP2 POP POP JUMP JUMPDEST PUSH32 0x4E487B7100000000000000000000000000000000000000000000000000000000 PUSH0 MSTORE PUSH1 0x32 PUSH1 0x4 MSTORE PUSH1 0x24 PUSH0 REVERT JUMPDEST PUSH32 0x4E487B7100000000000000000000000000000000000000000000000000000000 PUSH0 MSTORE PUSH1 0x31 PUSH1 0x4 MSTORE PUSH1 0x24 PUSH0 REVERT JUMPDEST PUSH0 DUP2 SWAP1 POP DUP2 PUSH0 MSTORE PUSH1 0x20 PUSH0 KECCAK256 SWAP1 POP SWAP2 SWAP1 POP JUMP JUMPDEST PUSH0 PUSH1 0x20 PUSH1 0x1F DUP4 ADD DIV SWAP1 POP SWAP2 SWAP1 POP JUMP JUMPDEST PUSH0 DUP3 DUP3 SHL SWAP1 POP SWAP3 SWAP2 POP POP JUMP JUMPDEST PUSH0 PUSH1 0x8 DUP4 MUL PUSH2 0x3087 PUSH32 0xFFFFFFFFFFFFFFFFFFFFFFFFFFFFFFFFFFFFFFFFFFFFFFFFFFFFFFFFFFFFFFFF DUP3 PUSH2 0x304C JUMP JUMPDEST PUSH2 0x3091 DUP7 DUP4 PUSH2 0x304C JUMP JUMPDEST SWAP6 POP DUP1 NOT DUP5 AND SWAP4 POP DUP1 DUP7 AND DUP5 OR SWAP3 POP POP POP SWAP4 SWAP3 POP POP POP JUMP JUMPDEST PUSH0 DUP2 SWAP1 POP SWAP2 SWAP1 POP JUMP JUMPDEST PUSH0 PUSH2 0x30CC PUSH2 0x30C7 PUSH2 0x30C2 DUP5 PUSH2 0x28C4 JUMP JUMPDEST PUSH2 0x30A9 JUMP JUMPDEST PUSH2 0x28C4 JUMP JUMPDEST SWAP1 POP SWAP2 SWAP1 POP JUMP JUMPDEST PUSH0 DUP2 SWAP1 POP SWAP2 SWAP1 POP JUMP JUMPDEST PUSH2 0x30E5 DUP4 PUSH2 0x30B2 JUMP JUMPDEST PUSH2 0x30F9 PUSH2 0x30F1 DUP3 PUSH2 0x30D3 JUMP JUMPDEST DUP5 DUP5 SLOAD PUSH2 0x3058 JUMP JUMPDEST DUP3 SSTORE POP POP POP POP JUMP JUMPDEST PUSH0 SWAP1 JUMP JUMPDEST PUSH2 0x310D PUSH2 0x3101 JUMP JUMPDEST PUSH2 0x3118 DUP2 DUP5 DUP5 PUSH2 0x30DC JUMP JUMPDEST POP POP POP JUMP JUMPDEST JUMPDEST DUP2 DUP2 LT ISZERO PUSH2 0x313B JUMPI PUSH2 0x3130 PUSH0 DUP3 PUSH2 0x3105 JUMP JUMPDEST PUSH1 0x1 DUP2 ADD SWAP1 POP PUSH2 0x311E JUMP JUMPDEST POP POP JUMP JUMPDEST PUSH1 0x1F DUP3 GT ISZERO PUSH2 0x3180 JUMPI PUSH2 0x3151 DUP2 PUSH2 0x302B JUMP JUMPDEST PUSH2 0x315A DUP5 PUSH2 0x303D JUMP JUMPDEST DUP2 ADD PUSH1 0x20 DUP6 LT ISZERO PUSH2 0x3169 JUMPI DUP2 SWAP1 POP JUMPDEST PUSH2 0x317D PUSH2 0x3175 DUP6 PUSH2 0x303D JUMP JUMPDEST DUP4 ADD DUP3 PUSH2 0x311D JUMP JUMPDEST POP POP JUMPDEST POP POP POP JUMP JUMPDEST PUSH0 DUP3 DUP3 SHR SWAP1 POP SWAP3 SWAP2 POP POP JUMP JUMPDEST PUSH0 PUSH2 0x31A0 PUSH0 NOT DUP5 PUSH1 0x8 MUL PUSH2 0x3185 JUMP JUMPDEST NOT DUP1 DUP4 AND SWAP2 POP POP SWAP3 SWAP2 POP POP JUMP JUMPDEST PUSH0 PUSH2 0x31B8 DUP4 DUP4 PUSH2 0x3191 JUMP JUMPDEST SWAP2 POP DUP3 PUSH1 0x2 MUL DUP3 OR SWAP1 POP SWAP3 SWAP2 POP POP JUMP JUMPDEST PUSH2 0x31D1 DUP3 PUSH2 0x27AF JUMP JUMPDEST PUSH8 0xFFFFFFFFFFFFFFFF DUP2 GT ISZERO PUSH2 0x31EA JUMPI PUSH2 0x31E9 PUSH2 0x2A91 JUMP JUMPDEST JUMPDEST PUSH2 0x31F4 DUP3 SLOAD PUSH2 0x2F41 JUMP JUMPDEST PUSH2 0x31FF DUP3 DUP3 DUP6 PUSH2 0x313F JUMP JUMPDEST PUSH0 PUSH1 0x20 SWAP1 POP PUSH1 0x1F DUP4 GT PUSH1 0x1 DUP2 EQ PUSH2 0x3230 JUMPI PUSH0 DUP5 ISZERO PUSH2 0x321E JUMPI DUP3 DUP8 ADD MLOAD SWAP1 POP JUMPDEST PUSH2 0x3228 DUP6 DUP3 PUSH2 0x31AD JUMP JUMPDEST DUP7 SSTORE POP PUSH2 0x328F JUMP JUMPDEST PUSH1 0x1F NOT DUP5 AND PUSH2 0x323E DUP7 PUSH2 0x302B JUMP JUMPDEST PUSH0 JUMPDEST DUP3 DUP2 LT ISZERO PUSH2 0x3265 JUMPI DUP5 DUP10 ADD MLOAD DUP3 SSTORE PUSH1 0x1 DUP3 ADD SWAP2 POP PUSH1 0x20 DUP6 ADD SWAP5 POP PUSH1 0x20 DUP2 ADD SWAP1 POP PUSH2 0x3240 JUMP JUMPDEST DUP7 DUP4 LT ISZERO PUSH2 0x3282 JUMPI DUP5 DUP10 ADD MLOAD PUSH2 0x327E PUSH1 0x1F DUP10 AND DUP3 PUSH2 0x3191 JUMP JUMPDEST DUP4 SSTORE POP JUMPDEST PUSH1 0x1 PUSH1 0x2 DUP9 MUL ADD DUP9 SSTORE POP POP POP JUMPDEST POP POP POP POP POP POP JUMP JUMPDEST PUSH0 PUSH2 0x32A1 DUP3 PUSH2 0x28C4 JUMP JUMPDEST SWAP2 POP PUSH2 0x32AC DUP4 PUSH2 0x28C4 JUMP JUMPDEST SWAP3 POP DUP3 DUP3 ADD SWAP1 POP DUP1 DUP3 GT ISZERO PUSH2 0x32C4 JUMPI PUSH2 0x32C3 PUSH2 0x2F71 JUMP JUMPDEST JUMPDEST SWAP3 SWAP2 POP POP JUMP INVALID LOG2 PUSH5 0x6970667358 0x22 SLT KECCAK256 0x4E 0x4C 0xBC ADDRESS 0xE3 PUSH20 0x89E7E0BF8044EE16B0724F5C9B972EC5373A8145 TIMESTAMP 0xE8 SLOAD 0xA6 JUMPDEST 0xE0 PUSH5 0x736F6C6343 STOP ADDMOD OR STOP CALLER "
				},
				"gasEstimates": {
					"creation": {
						"codeDepositCost": "2611200",
						"executionCost": "2851",
						"totalCost": "2614051"
					},
					"external": {
						"_burnCounter()": "2680",
						"_burnCounter(uint256)": "22791",
						"_currentIndex()": "2702",
						"_currentIndex(uint256)": "22813",
						"_operatorApprovals(address,address)": "infinite",
						"_operatorApprovals(address,address,bool)": "infinite",
						"_packedAddressData(address)": "3100",
						"_packedAddressData(address,uint256)": "23097",
						"_packedAddressDataDecr(address)": "infinite",
						"_packedAddressDataIncr(address)": "infinite",
						"_packedOwnerships(uint256)": "infinite",
						"_packedOwnerships(uint256,uint256)": "infinite",
						"_spotMinted()": "2679",
						"_spotMintedIncr()": "infinite",
						"_startTokenId()": "2635",
						"_startTokenId(uint256)": "22769",
						"_tokenApprovals(uint256)": "3312",
						"_tokenApprovals(uint256,address)": "25222",
						"addTokenToAllTokensEnumeration(uint256)": "infinite",
						"addTokenToOwnerEnumeration(address,uint256,uint256)": "infinite",
						"allTokens()": "infinite",
						"baseTokenURI()": "infinite",
						"baseTokenURI(string)": "infinite",
						"defaultTokenURI()": "infinite",
						"defaultTokenURI(string)": "infinite",
						"epiclistRoot()": "2680",
						"epiclistRoot(bytes32)": "22725",
						"fee()": "2612",
						"fee(uint256)": "22725",
						"genesislistRoot()": "2681",
						"genesislistRoot(bytes32)": "22835",
						"guaranteed_minted(address)": "3073",
						"guaranteed_minted(address,bool)": "25189",
						"legendlistRoot()": "2722",
						"legendlistRoot(bytes32)": "22769",
						"name()": "infinite",
						"name(string)": "infinite",
						"ownedTokens(address,uint256)": "infinite",
						"ownedTokens(address,uint256,uint256)": "infinite",
						"ownedTokensIndex(uint256)": "infinite",
						"ownedTokensIndex(uint256,uint256)": "infinite",
						"removeTokenFromAllTokensEnumeration(uint256)": "infinite",
						"removeTokenFromOwnerEnumeration(address,uint256,uint256)": "infinite",
						"symbol()": "infinite",
						"symbol(string)": "infinite",
						"tokenURIs(string,uint256)": "infinite",
						"tokenURIs(uint256)": "infinite"
					},
					"internal": {
						"_getStorage(bytes32)": "27"
					}
				},
				"methodIdentifiers": {
					"_burnCounter()": "44faf255",
					"_burnCounter(uint256)": "8fca4dbe",
					"_currentIndex()": "9451c99a",
					"_currentIndex(uint256)": "345e7b28",
					"_operatorApprovals(address,address)": "edc3bc3f",
					"_operatorApprovals(address,address,bool)": "830d4091",
					"_packedAddressData(address)": "21b0ed7d",
					"_packedAddressData(address,uint256)": "a3301173",
					"_packedAddressDataDecr(address)": "31413efc",
					"_packedAddressDataIncr(address)": "d0125152",
					"_packedOwnerships(uint256)": "47f69eba",
					"_packedOwnerships(uint256,uint256)": "e68fdee1",
					"_spotMinted()": "d20b6ee7",
					"_spotMintedIncr()": "810536ec",
					"_startTokenId()": "98995f77",
					"_startTokenId(uint256)": "32b07b43",
					"_tokenApprovals(uint256)": "a7cc0136",
					"_tokenApprovals(uint256,address)": "13c19ff6",
					"addTokenToAllTokensEnumeration(uint256)": "dbe0b21c",
					"addTokenToOwnerEnumeration(address,uint256,uint256)": "4f4979ed",
					"allTokens()": "6ff97f1d",
					"baseTokenURI()": "d547cfb7",
					"baseTokenURI(string)": "a05cc559",
					"defaultTokenURI()": "963bfe12",
					"defaultTokenURI(string)": "821abc2d",
					"epiclistRoot()": "33171809",
					"epiclistRoot(bytes32)": "247c6ce0",
					"fee()": "ddca3f43",
					"fee(uint256)": "39b37ab0",
					"genesislistRoot()": "19f86200",
					"genesislistRoot(bytes32)": "3802497b",
					"guaranteed_minted(address)": "b62d8b91",
					"guaranteed_minted(address,bool)": "b0d4ce25",
					"legendlistRoot()": "f589b754",
					"legendlistRoot(bytes32)": "854f9db9",
					"name()": "06fdde03",
					"name(string)": "5b43bc99",
					"ownedTokens(address,uint256)": "e149f036",
					"ownedTokens(address,uint256,uint256)": "49a0a50e",
					"ownedTokensIndex(uint256)": "74e24367",
					"ownedTokensIndex(uint256,uint256)": "ad715f2e",
					"removeTokenFromAllTokensEnumeration(uint256)": "40e02f5c",
					"removeTokenFromOwnerEnumeration(address,uint256,uint256)": "071bc71c",
					"symbol()": "95d89b41",
					"symbol(string)": "41bb0559",
					"tokenURIs(string,uint256)": "dec84db1",
					"tokenURIs(uint256)": "6c8b703f"
				}
			},
			"storageLayout": {
				"storage": [],
				"types": null
			},
			"userdoc": {
				"kind": "user",
				"methods": {},
				"notice": "Библиотека хранилища амбассадорки*",
				"version": 1
			}
		}
	}
}