{
	"data": {
		"bytecode": {
			"linkReferences": {},
			"object": "6105df610035600b8282823980515f1a60731461002957634e487b7160e01b5f525f60045260245ffd5b305f52607381538281f3fe7300000000000000000000000000000000000000003014608060405260043610610090575f3560e01c8063893d20e811610063578063893d20e8146101d2578063dbd1838814610244578063f2f65960146102a0578063fdb0afee146102bf575f80fd5b806334b8160c146100945780633e2fe149146100b5578063592bd7051461014d57806361a9ab761461016c575b5f80fd5b81801561009f575f80fd5b506100b36100ae366004610558565b6102de565b005b60408051808201909152600781527f4f776e61626c65000000000000000000000000000000000000000000000000006020909101527f6df9baf4dc8c02086c72903e4bba587f1a261a8542aa45344809b4583161a59f5473ffffffffffffffffffffffffffffffffffffffff165b60405173ffffffffffffffffffffffffffffffffffffffff90911681526020015b60405180910390f35b818015610158575f80fd5b506100b3610167366004610558565b61039a565b60408051808201909152600781527f4f776e61626c65000000000000000000000000000000000000000000000000006020909101527f6df9baf4dc8c02086c72903e4bba587f1a261a8542aa45344809b4583161a5a0545b604051908152602001610144565b60408051808201909152600781527f4f776e61626c65000000000000000000000000000000000000000000000000006020909101527f6df9baf4dc8c02086c72903e4bba587f1a261a8542aa45344809b4583161a59e5473ffffffffffffffffffffffffffffffffffffffff16610123565b60408051808201909152600781527f4f776e61626c65000000000000000000000000000000000000000000000000006020909101527f6df9baf4dc8c02086c72903e4bba587f1a261a8542aa45344809b4583161a5a1546101c4565b8180156102ab575f80fd5b506100b36102ba366004610592565b610456565b8180156102ca575f80fd5b506100b36102d9366004610592565b6104d7565b604080518082018252600781527f4f776e61626c65000000000000000000000000000000000000000000000000006020909101527f6df9baf4dc8c02086c72903e4bba587f1a261a8542aa45344809b4583161a59f80547fffffffffffffffffffffffff00000000000000000000000000000000000000001673ffffffffffffffffffffffffffffffffffffffff8416179055517f6c31be61fab8aed8b12700f8e462b44f245be7a30a595e2375e73b3dff526f47905f90a150565b604080518082018252600781527f4f776e61626c65000000000000000000000000000000000000000000000000006020909101527f6df9baf4dc8c02086c72903e4bba587f1a261a8542aa45344809b4583161a59e80547fffffffffffffffffffffffff00000000000000000000000000000000000000001673ffffffffffffffffffffffffffffffffffffffff8416179055517f93fc5e2aa1a561e99691321da5f8c795fe4aaa464da57ed1140a509c655c5162905f90a150565b604080518082018252600781527f4f776e61626c65000000000000000000000000000000000000000000000000006020909101527f6df9baf4dc8c02086c72903e4bba587f1a261a8542aa45344809b4583161a5a1829055517fb8354dd789964e53225a14b9d04ce20bf43e1f4092f8899a8a33c4f311ec6f8a905f90a150565b604080518082018252600781527f4f776e61626c65000000000000000000000000000000000000000000000000006020909101527f6df9baf4dc8c02086c72903e4bba587f1a261a8542aa45344809b4583161a5a0829055517f7fbea1f5431af08c4fdba99e51d07f3234004d637ce24f23b3fd611b37a8420c905f90a150565b5f60208284031215610568575f80fd5b813573ffffffffffffffffffffffffffffffffffffffff8116811461058b575f80fd5b9392505050565b5f602082840312156105a2575f80fd5b503591905056fea26469706673582212209580675907a2e8c95179bb8d9cc51ff07bf6a9e8fd6c5ab02307bffc251c852764736f6c63430008170033",
			"opcodes": "PUSH2 0x5DF PUSH2 0x35 PUSH1 0xB DUP3 DUP3 DUP3 CODECOPY DUP1 MLOAD PUSH0 BYTE PUSH1 0x73 EQ PUSH2 0x29 JUMPI PUSH4 0x4E487B71 PUSH1 0xE0 SHL PUSH0 MSTORE PUSH0 PUSH1 0x4 MSTORE PUSH1 0x24 PUSH0 REVERT JUMPDEST ADDRESS PUSH0 MSTORE PUSH1 0x73 DUP2 MSTORE8 DUP3 DUP2 RETURN INVALID PUSH20 0x0 ADDRESS EQ PUSH1 0x80 PUSH1 0x40 MSTORE PUSH1 0x4 CALLDATASIZE LT PUSH2 0x90 JUMPI PUSH0 CALLDATALOAD PUSH1 0xE0 SHR DUP1 PUSH4 0x893D20E8 GT PUSH2 0x63 JUMPI DUP1 PUSH4 0x893D20E8 EQ PUSH2 0x1D2 JUMPI DUP1 PUSH4 0xDBD18388 EQ PUSH2 0x244 JUMPI DUP1 PUSH4 0xF2F65960 EQ PUSH2 0x2A0 JUMPI DUP1 PUSH4 0xFDB0AFEE EQ PUSH2 0x2BF JUMPI PUSH0 DUP1 REVERT JUMPDEST DUP1 PUSH4 0x34B8160C EQ PUSH2 0x94 JUMPI DUP1 PUSH4 0x3E2FE149 EQ PUSH2 0xB5 JUMPI DUP1 PUSH4 0x592BD705 EQ PUSH2 0x14D JUMPI DUP1 PUSH4 0x61A9AB76 EQ PUSH2 0x16C JUMPI JUMPDEST PUSH0 DUP1 REVERT JUMPDEST DUP2 DUP1 ISZERO PUSH2 0x9F JUMPI PUSH0 DUP1 REVERT JUMPDEST POP PUSH2 0xB3 PUSH2 0xAE CALLDATASIZE PUSH1 0x4 PUSH2 0x558 JUMP JUMPDEST PUSH2 0x2DE JUMP JUMPDEST STOP JUMPDEST PUSH1 0x40 DUP1 MLOAD DUP1 DUP3 ADD SWAP1 SWAP2 MSTORE PUSH1 0x7 DUP2 MSTORE PUSH32 0x4F776E61626C6500000000000000000000000000000000000000000000000000 PUSH1 0x20 SWAP1 SWAP2 ADD MSTORE PUSH32 0x6DF9BAF4DC8C02086C72903E4BBA587F1A261A8542AA45344809B4583161A59F SLOAD PUSH20 0xFFFFFFFFFFFFFFFFFFFFFFFFFFFFFFFFFFFFFFFF AND JUMPDEST PUSH1 0x40 MLOAD PUSH20 0xFFFFFFFFFFFFFFFFFFFFFFFFFFFFFFFFFFFFFFFF SWAP1 SWAP2 AND DUP2 MSTORE PUSH1 0x20 ADD JUMPDEST PUSH1 0x40 MLOAD DUP1 SWAP2 SUB SWAP1 RETURN JUMPDEST DUP2 DUP1 ISZERO PUSH2 0x158 JUMPI PUSH0 DUP1 REVERT JUMPDEST POP PUSH2 0xB3 PUSH2 0x167 CALLDATASIZE PUSH1 0x4 PUSH2 0x558 JUMP JUMPDEST PUSH2 0x39A JUMP JUMPDEST PUSH1 0x40 DUP1 MLOAD DUP1 DUP3 ADD SWAP1 SWAP2 MSTORE PUSH1 0x7 DUP2 MSTORE PUSH32 0x4F776E61626C6500000000000000000000000000000000000000000000000000 PUSH1 0x20 SWAP1 SWAP2 ADD MSTORE PUSH32 0x6DF9BAF4DC8C02086C72903E4BBA587F1A261A8542AA45344809B4583161A5A0 SLOAD JUMPDEST PUSH1 0x40 MLOAD SWAP1 DUP2 MSTORE PUSH1 0x20 ADD PUSH2 0x144 JUMP JUMPDEST PUSH1 0x40 DUP1 MLOAD DUP1 DUP3 ADD SWAP1 SWAP2 MSTORE PUSH1 0x7 DUP2 MSTORE PUSH32 0x4F776E61626C6500000000000000000000000000000000000000000000000000 PUSH1 0x20 SWAP1 SWAP2 ADD MSTORE PUSH32 0x6DF9BAF4DC8C02086C72903E4BBA587F1A261A8542AA45344809B4583161A59E SLOAD PUSH20 0xFFFFFFFFFFFFFFFFFFFFFFFFFFFFFFFFFFFFFFFF AND PUSH2 0x123 JUMP JUMPDEST PUSH1 0x40 DUP1 MLOAD DUP1 DUP3 ADD SWAP1 SWAP2 MSTORE PUSH1 0x7 DUP2 MSTORE PUSH32 0x4F776E61626C6500000000000000000000000000000000000000000000000000 PUSH1 0x20 SWAP1 SWAP2 ADD MSTORE PUSH32 0x6DF9BAF4DC8C02086C72903E4BBA587F1A261A8542AA45344809B4583161A5A1 SLOAD PUSH2 0x1C4 JUMP JUMPDEST DUP2 DUP1 ISZERO PUSH2 0x2AB JUMPI PUSH0 DUP1 REVERT JUMPDEST POP PUSH2 0xB3 PUSH2 0x2BA CALLDATASIZE PUSH1 0x4 PUSH2 0x592 JUMP JUMPDEST PUSH2 0x456 JUMP JUMPDEST DUP2 DUP1 ISZERO PUSH2 0x2CA JUMPI PUSH0 DUP1 REVERT JUMPDEST POP PUSH2 0xB3 PUSH2 0x2D9 CALLDATASIZE PUSH1 0x4 PUSH2 0x592 JUMP JUMPDEST PUSH2 0x4D7 JUMP JUMPDEST PUSH1 0x40 DUP1 MLOAD DUP1 DUP3 ADD DUP3 MSTORE PUSH1 0x7 DUP2 MSTORE PUSH32 0x4F776E61626C6500000000000000000000000000000000000000000000000000 PUSH1 0x20 SWAP1 SWAP2 ADD MSTORE PUSH32 0x6DF9BAF4DC8C02086C72903E4BBA587F1A261A8542AA45344809B4583161A59F DUP1 SLOAD PUSH32 0xFFFFFFFFFFFFFFFFFFFFFFFF0000000000000000000000000000000000000000 AND PUSH20 0xFFFFFFFFFFFFFFFFFFFFFFFFFFFFFFFFFFFFFFFF DUP5 AND OR SWAP1 SSTORE MLOAD PUSH32 0x6C31BE61FAB8AED8B12700F8E462B44F245BE7A30A595E2375E73B3DFF526F47 SWAP1 PUSH0 SWAP1 LOG1 POP JUMP JUMPDEST PUSH1 0x40 DUP1 MLOAD DUP1 DUP3 ADD DUP3 MSTORE PUSH1 0x7 DUP2 MSTORE PUSH32 0x4F776E61626C6500000000000000000000000000000000000000000000000000 PUSH1 0x20 SWAP1 SWAP2 ADD MSTORE PUSH32 0x6DF9BAF4DC8C02086C72903E4BBA587F1A261A8542AA45344809B4583161A59E DUP1 SLOAD PUSH32 0xFFFFFFFFFFFFFFFFFFFFFFFF0000000000000000000000000000000000000000 AND PUSH20 0xFFFFFFFFFFFFFFFFFFFFFFFFFFFFFFFFFFFFFFFF DUP5 AND OR SWAP1 SSTORE MLOAD PUSH32 0x93FC5E2AA1A561E99691321DA5F8C795FE4AAA464DA57ED1140A509C655C5162 SWAP1 PUSH0 SWAP1 LOG1 POP JUMP JUMPDEST PUSH1 0x40 DUP1 MLOAD DUP1 DUP3 ADD DUP3 MSTORE PUSH1 0x7 DUP2 MSTORE PUSH32 0x4F776E61626C6500000000000000000000000000000000000000000000000000 PUSH1 0x20 SWAP1 SWAP2 ADD MSTORE PUSH32 0x6DF9BAF4DC8C02086C72903E4BBA587F1A261A8542AA45344809B4583161A5A1 DUP3 SWAP1 SSTORE MLOAD PUSH32 0xB8354DD789964E53225A14B9D04CE20BF43E1F4092F8899A8A33C4F311EC6F8A SWAP1 PUSH0 SWAP1 LOG1 POP JUMP JUMPDEST PUSH1 0x40 DUP1 MLOAD DUP1 DUP3 ADD DUP3 MSTORE PUSH1 0x7 DUP2 MSTORE PUSH32 0x4F776E61626C6500000000000000000000000000000000000000000000000000 PUSH1 0x20 SWAP1 SWAP2 ADD MSTORE PUSH32 0x6DF9BAF4DC8C02086C72903E4BBA587F1A261A8542AA45344809B4583161A5A0 DUP3 SWAP1 SSTORE MLOAD PUSH32 0x7FBEA1F5431AF08C4FDBA99E51D07F3234004D637CE24F23B3FD611B37A8420C SWAP1 PUSH0 SWAP1 LOG1 POP JUMP JUMPDEST PUSH0 PUSH1 0x20 DUP3 DUP5 SUB SLT ISZERO PUSH2 0x568 JUMPI PUSH0 DUP1 REVERT JUMPDEST DUP2 CALLDATALOAD PUSH20 0xFFFFFFFFFFFFFFFFFFFFFFFFFFFFFFFFFFFFFFFF DUP2 AND DUP2 EQ PUSH2 0x58B JUMPI PUSH0 DUP1 REVERT JUMPDEST SWAP4 SWAP3 POP POP POP JUMP JUMPDEST PUSH0 PUSH1 0x20 DUP3 DUP5 SUB SLT ISZERO PUSH2 0x5A2 JUMPI PUSH0 DUP1 REVERT JUMPDEST POP CALLDATALOAD SWAP2 SWAP1 POP JUMP INVALID LOG2 PUSH5 0x6970667358 0x22 SLT KECCAK256 SWAP6 DUP1 PUSH8 0x5907A2E8C95179BB DUP14 SWAP13 0xC5 0x1F CREATE PUSH28 0xF6A9E8FD6C5AB02307BFFC251C852764736F6C634300081700330000 "
		},
		"gasEstimates": {
			"creation": {
				"codeDepositCost": "300600",
				"executionCost": "367",
				"totalCost": "300967"
			},
			"external": {
				"getGracePeriod()": "2357",
				"getNewOwner()": "2351",
				"getOwner()": "2339",
				"getTimestampExp()": "2391",
				"setGracePeriod(uint256)": "23207",
				"setTimestampExp(uint256)": "23229",
				"setnewOwner(address)": "25316",
				"setowner(address)": "25360"
			},
			"internal": {
				"_getStorage(bytes32)": "infinite"
			}
		},
		"methodIdentifiers": {
			"getGracePeriod()": "dbd18388",
			"getNewOwner()": "3e2fe149",
			"getOwner()": "893d20e8",
			"getTimestampExp()": "61a9ab76",
			"setGracePeriod(uint256)": "f2f65960",
			"setTimestampExp(uint256)": "fdb0afee",
			"setnewOwner(address)": "34b8160c",
			"setowner(address)": "592bd705"
		}
	},
	"abi": [
		{
			"anonymous": false,
			"inputs": [],
			"name": "SeTimestampExp",
			"type": "event"
		},
		{
			"anonymous": false,
			"inputs": [],
			"name": "SetGracePeriod",
			"type": "event"
		},
		{
			"anonymous": false,
			"inputs": [],
			"name": "SetNewOwner",
			"type": "event"
		},
		{
			"anonymous": false,
			"inputs": [],
			"name": "SetOwner",
			"type": "event"
		},
		{
			"inputs": [],
			"name": "getGracePeriod",
			"outputs": [
				{
					"internalType": "uint256",
					"name": "",
					"type": "uint256"
				}
			],
			"stateMutability": "view",
			"type": "function"
		},
		{
			"inputs": [],
			"name": "getNewOwner",
			"outputs": [
				{
					"internalType": "address",
					"name": "",
					"type": "address"
				}
			],
			"stateMutability": "view",
			"type": "function"
		},
		{
			"inputs": [],
			"name": "getOwner",
			"outputs": [
				{
					"internalType": "address",
					"name": "",
					"type": "address"
				}
			],
			"stateMutability": "view",
			"type": "function"
		},
		{
			"inputs": [],
			"name": "getTimestampExp",
			"outputs": [
				{
					"internalType": "uint256",
					"name": "",
					"type": "uint256"
				}
			],
			"stateMutability": "view",
			"type": "function"
		}
	]
}