{
  "_format": "hh-sol-artifact-1",
  "contractName": "UpdateProxy",
  "sourceName": "contracts/updateProxy/UpdateProxy.sol",
  "abi": [
    {
      "inputs": [],
      "stateMutability": "nonpayable",
      "type": "constructor"
    },
    {
      "inputs": [
        {
          "internalType": "address",
          "name": "",
          "type": "address"
        }
      ],
      "name": "AccessDenied",
      "type": "error"
    },
    {
      "inputs": [],
      "name": "EmptyAddress",
      "type": "error"
    },
    {
      "inputs": [
        {
          "internalType": "address",
          "name": "",
          "type": "address"
        }
      ],
      "name": "TimedOut",
      "type": "error"
    },
    {
      "inputs": [
        {
          "internalType": "uint256",
          "name": "",
          "type": "uint256"
        }
      ],
      "name": "ValueTooHigh",
      "type": "error"
    },
    {
      "anonymous": false,
      "inputs": [
        {
          "indexed": true,
          "internalType": "address",
          "name": "_to",
          "type": "address"
        },
        {
          "indexed": false,
          "internalType": "uint256",
          "name": "_timestamp",
          "type": "uint256"
        }
      ],
      "name": "AcceptTransferNewOwner",
      "type": "event"
    },
    {
      "anonymous": false,
      "inputs": [
        {
          "indexed": true,
          "internalType": "address",
          "name": "oldOwner",
          "type": "address"
        },
        {
          "indexed": true,
          "internalType": "address",
          "name": "newOwner",
          "type": "address"
        },
        {
          "indexed": false,
          "internalType": "uint256",
          "name": "timestamp",
          "type": "uint256"
        }
      ],
      "name": "InitialTransferOwner",
      "type": "event"
    },
    {
      "anonymous": false,
      "inputs": [
        {
          "indexed": true,
          "internalType": "address",
          "name": "_to",
          "type": "address"
        },
        {
          "indexed": false,
          "internalType": "uint256",
          "name": "_graceperiod",
          "type": "uint256"
        }
      ],
      "name": "SetNewGracePeriod",
      "type": "event"
    },
    {
      "inputs": [],
      "name": "getGracePeriod",
      "outputs": [
        {
          "internalType": "uint256",
          "name": "",
          "type": "uint256"
        }
      ],
      "stateMutability": "view",
      "type": "function"
    },
    {
      "inputs": [],
      "name": "getImpl",
      "outputs": [
        {
          "internalType": "address[]",
          "name": "_allImpl",
          "type": "address[]"
        }
      ],
      "stateMutability": "view",
      "type": "function"
    },
    {
      "inputs": [
        {
          "internalType": "bytes4",
          "name": "_selector",
          "type": "bytes4"
        }
      ],
      "name": "getModuleBySelector",
      "outputs": [
        {
          "internalType": "address",
          "name": "",
          "type": "address"
        }
      ],
      "stateMutability": "view",
      "type": "function"
    },
    {
      "inputs": [],
      "name": "getModules",
      "outputs": [
        {
          "components": [
            {
              "internalType": "bytes4",
              "name": "selector",
              "type": "bytes4"
            },
            {
              "internalType": "address",
              "name": "module",
              "type": "address"
            }
          ],
          "internalType": "struct modules[]",
          "name": "",
          "type": "tuple[]"
        }
      ],
      "stateMutability": "view",
      "type": "function"
    },
    {
      "inputs": [],
      "name": "getNewOwner",
      "outputs": [
        {
          "internalType": "address",
          "name": "",
          "type": "address"
        }
      ],
      "stateMutability": "view",
      "type": "function"
    },
    {
      "inputs": [],
      "name": "getOwner",
      "outputs": [
        {
          "internalType": "address",
          "name": "",
          "type": "address"
        }
      ],
      "stateMutability": "view",
      "type": "function"
    },
    {
      "inputs": [],
      "name": "getSelectors",
      "outputs": [
        {
          "internalType": "bytes4[]",
          "name": "",
          "type": "bytes4[]"
        }
      ],
      "stateMutability": "view",
      "type": "function"
    },
    {
      "inputs": [
        {
          "internalType": "address",
          "name": "_impl",
          "type": "address"
        }
      ],
      "name": "getSelectorsByImpl",
      "outputs": [
        {
          "internalType": "bytes4[]",
          "name": "",
          "type": "bytes4[]"
        }
      ],
      "stateMutability": "view",
      "type": "function"
    },
    {
      "inputs": [],
      "name": "getTimestampExp",
      "outputs": [
        {
          "internalType": "uint256",
          "name": "",
          "type": "uint256"
        }
      ],
      "stateMutability": "view",
      "type": "function"
    },
    {
      "inputs": [
        {
          "internalType": "uint256",
          "name": "_seconds",
          "type": "uint256"
        }
      ],
      "name": "setGracePeriod",
      "outputs": [],
      "stateMutability": "nonpayable",
      "type": "function"
    },
    {
      "inputs": [],
      "name": "transferNewOwnerAccept",
      "outputs": [],
      "stateMutability": "nonpayable",
      "type": "function"
    },
    {
      "inputs": [
        {
          "internalType": "address",
          "name": "_to",
          "type": "address"
        }
      ],
      "name": "transferOwner",
      "outputs": [],
      "stateMutability": "nonpayable",
      "type": "function"
    },
    {
      "inputs": [
        {
          "components": [
            {
              "internalType": "address",
              "name": "module",
              "type": "address"
            },
            {
              "internalType": "bytes4[]",
              "name": "selectors",
              "type": "bytes4[]"
            }
          ],
          "internalType": "struct moduleDefinition[]",
          "name": "_modules",
          "type": "tuple[]"
        }
      ],
      "name": "updateModules",
      "outputs": [],
      "stateMutability": "nonpayable",
      "type": "function"
    }
  ],
  "bytecode": "0x608060405234801561001057600080fd5b50600080546001600160a01b03191633179055620151806003556112c4806100396000396000f3fe608060405234801561001057600080fd5b50600436106100df5760003560e01c806363de14fc1161008c578063b2494df311610066578063b2494df314610207578063dbd183881461021c578063dfb8083114610224578063f2f659601461023957600080fd5b806363de14fc14610175578063893d20e8146101ec5780639f889b6e146101f457600080fd5b80634b503f0b116100bd5780634b503f0b146101445780634fb2e45d1461014c57806361a9ab761461015f57600080fd5b80630abe1796146100e457806318e3e87f1461010d5780633e2fe14914610117575b600080fd5b6100f76100f2366004610ce4565b61024c565b6040516101049190610d06565b60405180910390f35b6101156104ca565b005b61011f6105ba565b60405173ffffffffffffffffffffffffffffffffffffffff9091168152602001610104565b6100f76105ff565b61011561015a366004610ce4565b6106bb565b610167610783565b604051908152602001610104565b61011f610183366004610d9c565b7fffffffff000000000000000000000000000000000000000000000000000000001660009081527fcf86a19c93788adec792d7986af6c262f9432aa7d41f7ea28dd4163afc5ad94a602052604090205473ffffffffffffffffffffffffffffffffffffffff1690565b61011f6107b2565b610115610202366004610e82565b6107f7565b61020f6108a1565b6040516101049190610ff9565b610167610a74565b61022c610aa3565b6040516101049190611080565b6101156102473660046110ce565b610b33565b7fcf86a19c93788adec792d7986af6c262f9432aa7d41f7ea28dd4163afc5ad94b546060907fcf86a19c93788adec792d7986af6c262f9432aa7d41f7ea28dd4163afc5ad94a9060009067ffffffffffffffff8111156102ae576102ae610db7565b6040519080825280602002602001820160405280156102d7578160200160208202803683370190505b5090506000805b600184015481101561040857836000016000856001018381548110610305576103056110e7565b6000918252602080832060088304015460079092166004026101000a90910460e01b7fffffffff0000000000000000000000000000000000000000000000000000000016835282019290925260400190205473ffffffffffffffffffffffffffffffffffffffff908116908716036104005783600101818154811061038c5761038c6110e7565b90600052602060002090600891828204019190066004029054906101000a900460e01b8382815181106103c1576103c16110e7565b7fffffffff0000000000000000000000000000000000000000000000000000000090921660209283029190910190910152816103fc81611145565b9250505b6001016102de565b5060008167ffffffffffffffff81111561042457610424610db7565b60405190808252806020026020018201604052801561044d578160200160208202803683370190505b50905060005b828110156104c05783818151811061046d5761046d6110e7565b6020026020010151828281518110610487576104876110e7565b7fffffffff0000000000000000000000000000000000000000000000000000000090921660209283029190910190910152600101610453565b5095945050505050565b60015473ffffffffffffffffffffffffffffffffffffffff1633146104f1576104f1610bd7565b426002541115610534576040517fefabbdc60000000000000000000000000000000000000000000000000000000081523360048201526024015b60405180910390fd5b600180546000805473ffffffffffffffffffffffffffffffffffffffff83167fffffffffffffffffffffffff000000000000000000000000000000000000000091821617825590911690915560028190556040514281527fba63841a7533a3a83852e6bd791045210d9e961d32ec380162bcd5d1d6fe12129060200160405180910390a2565b6000805473ffffffffffffffffffffffffffffffffffffffff1633146105e2576105e2610bd7565b5060015473ffffffffffffffffffffffffffffffffffffffff1690565b60607fcf86a19c93788adec792d7986af6c262f9432aa7d41f7ea28dd4163afc5ad94a6001018054806020026020016040519081016040528092919081815260200182805480156106b157602002820191906000526020600020906000905b82829054906101000a900460e01b7bffffffffffffffffffffffffffffffffffffffffffffffffffffffff19168152602001906004019060208260030104928301926001038202915080841161065e5790505b5050505050905090565b60005473ffffffffffffffffffffffffffffffffffffffff1633146106e2576106e2610bd7565b6106eb81610c0b565b600180547fffffffffffffffffffffffff00000000000000000000000000000000000000001673ffffffffffffffffffffffffffffffffffffffff8316179055610733610c82565b60405142815273ffffffffffffffffffffffffffffffffffffffff82169033907f8dbb839c92a52a1b41b96c2376318a45b974066df935981e08419bd7a0ae15009060200160405180910390a350565b6000805473ffffffffffffffffffffffffffffffffffffffff1633146107ab576107ab610bd7565b5060025490565b6000805473ffffffffffffffffffffffffffffffffffffffff1633146107da576107da610bd7565b5060005473ffffffffffffffffffffffffffffffffffffffff1690565b60005473ffffffffffffffffffffffffffffffffffffffff16331461081e5761081e610bd7565b6040517fb3dde62600000000000000000000000000000000000000000000000000000000815273__$8a7090b3ef35448595ebf62e6ebfc20de9$__9063b3dde6269061086e90849060040161117d565b60006040518083038186803b15801561088657600080fd5b505af415801561089a573d6000803e3d6000fd5b5050505050565b7fcf86a19c93788adec792d7986af6c262f9432aa7d41f7ea28dd4163afc5ad94b546060907fcf86a19c93788adec792d7986af6c262f9432aa7d41f7ea28dd4163afc5ad94a9060009067ffffffffffffffff81111561090357610903610db7565b60405190808252806020026020018201604052801561094857816020015b60408051808201909152600080825260208201528152602001906001900390816109215790505b50905060005b6001830154811015610a6d57604051806040016040528084600101838154811061097a5761097a6110e7565b90600052602060002090600891828204019190066004029054906101000a900460e01b7bffffffffffffffffffffffffffffffffffffffffffffffffffffffff191681526020018460000160008660010185815481106109dc576109dc6110e7565b6000918252602080832060088304015460079092166004026101000a90910460e01b7fffffffff0000000000000000000000000000000000000000000000000000000016835282019290925260400190205473ffffffffffffffffffffffffffffffffffffffff1690528251839083908110610a5a57610a5a6110e7565b602090810291909101015260010161094e565b5092915050565b6000805473ffffffffffffffffffffffffffffffffffffffff163314610a9c57610a9c610bd7565b5060035490565b60607fcf86a19c93788adec792d7986af6c262f9432aa7d41f7ea28dd4163afc5ad94a6002018054806020026020016040519081016040528092919081815260200182805480156106b157602002820191906000526020600020905b815473ffffffffffffffffffffffffffffffffffffffff168152600190910190602001808311610aff575050505050905090565b60005473ffffffffffffffffffffffffffffffffffffffff163314610b5a57610b5a610bd7565b62093a80811115610b9a576040517fa253bc700000000000000000000000000000000000000000000000000000000081526004810182905260240161052b565b600381905560405181815233907fbb4e769c8bec1bf5b9cbb403afd41b6826b52ba0d1ad04b1d4a6f06eae96b5639060200160405180910390a250565b6040517f0504a20d00000000000000000000000000000000000000000000000000000000815233600482015260240161052b565b60005473ffffffffffffffffffffffffffffffffffffffff163314610c3257610c32610bd7565b73ffffffffffffffffffffffffffffffffffffffff8116610c7f576040517f7138356f00000000000000000000000000000000000000000000000000000000815260040160405180910390fd5b50565b60005473ffffffffffffffffffffffffffffffffffffffff163314610ca957610ca9610bd7565b600354610cb69042611275565b600255565b803573ffffffffffffffffffffffffffffffffffffffff81168114610cdf57600080fd5b919050565b600060208284031215610cf657600080fd5b610cff82610cbb565b9392505050565b6020808252825182820181905260009190848201906040850190845b81811015610d605783517fffffffff000000000000000000000000000000000000000000000000000000001683529284019291840191600101610d22565b50909695505050505050565b80357fffffffff0000000000000000000000000000000000000000000000000000000081168114610cdf57600080fd5b600060208284031215610dae57600080fd5b610cff82610d6c565b7f4e487b7100000000000000000000000000000000000000000000000000000000600052604160045260246000fd5b6040805190810167ffffffffffffffff81118282101715610e0957610e09610db7565b60405290565b604051601f82017fffffffffffffffffffffffffffffffffffffffffffffffffffffffffffffffe016810167ffffffffffffffff81118282101715610e5657610e56610db7565b604052919050565b600067ffffffffffffffff821115610e7857610e78610db7565b5060051b60200190565b60006020808385031215610e9557600080fd5b823567ffffffffffffffff80821115610ead57600080fd5b818501915085601f830112610ec157600080fd5b8135610ed4610ecf82610e5e565b610e0f565b81815260059190911b83018401908481019088831115610ef357600080fd5b8585015b83811015610fec57803585811115610f0f5760008081fd5b86016040818c037fffffffffffffffffffffffffffffffffffffffffffffffffffffffffffffffe001811315610f455760008081fd5b610f4d610de6565b610f588a8401610cbb565b81528183013588811115610f6c5760008081fd5b8084019350508c603f840112610f825760008081fd5b89830135610f92610ecf82610e5e565b81815260059190911b84018301908b8101908f831115610fb25760008081fd5b948401945b82861015610fd757610fc886610d6c565b8252948c0194908c0190610fb7565b838d0152505085525050918601918601610ef7565b5098975050505050505050565b602080825282518282018190526000919060409081850190868401855b8281101561107357815180517fffffffff0000000000000000000000000000000000000000000000000000000016855286015173ffffffffffffffffffffffffffffffffffffffff16868501529284019290850190600101611016565b5091979650505050505050565b6020808252825182820181905260009190848201906040850190845b81811015610d6057835173ffffffffffffffffffffffffffffffffffffffff168352928401929184019160010161109c565b6000602082840312156110e057600080fd5b5035919050565b7f4e487b7100000000000000000000000000000000000000000000000000000000600052603260045260246000fd5b7f4e487b7100000000000000000000000000000000000000000000000000000000600052601160045260246000fd5b60007fffffffffffffffffffffffffffffffffffffffffffffffffffffffffffffffff820361117657611176611116565b5060010190565b600060208083018184528085518083526040925060408601915060408160051b8701018488016000805b84811015611266578984037fffffffffffffffffffffffffffffffffffffffffffffffffffffffffffffffc00186528251805173ffffffffffffffffffffffffffffffffffffffff168552880151888501889052805188860181905290890190839060608701905b808310156112515783517fffffffff00000000000000000000000000000000000000000000000000000000168252928b019260019290920191908b019061120f565b50978a019795505050918701916001016111a7565b50919998505050505050505050565b8082018082111561128857611288611116565b9291505056fea2646970667358221220bdf6416297bbca7b556aabb8127007b85a283b55a55015c361d76dbf10a500d164736f6c63430008170033",
  "linkReferences": {
    "contracts/dynamicRouter/DynamicRouterStorage.sol": {
      "DynamicRouterStorage": [
        {
          "length": 20,
          "start": 2175
        }
      ]
    }
  },
  "deployedLinkReferences": {
    "contracts/dynamicRouter/DynamicRouterStorage.sol": {
      "DynamicRouterStorage": [
        {
          "length": 20,
          "start": 2118
        }
      ]
    }
  }
}