{
  "contracts/updateProxy/UpdateProxy.sol": {
    "UpdateProxy": {
      "abi": [
        {
          "inputs": [],
          "stateMutability": "nonpayable",
          "type": "constructor"
        },
        {
          "inputs": [
            {
              "internalType": "address",
              "name": "",
              "type": "address"
            }
          ],
          "name": "AccessDenied",
          "type": "error"
        },
        {
          "inputs": [],
          "name": "EmptyAddress",
          "type": "error"
        },
        {
          "inputs": [
            {
              "internalType": "address",
              "name": "",
              "type": "address"
            }
          ],
          "name": "TimedOut",
          "type": "error"
        },
        {
          "inputs": [
            {
              "internalType": "uint256",
              "name": "",
              "type": "uint256"
            }
          ],
          "name": "ValueTooHigh",
          "type": "error"
        },
        {
          "anonymous": false,
          "inputs": [
            {
              "indexed": true,
              "internalType": "address",
              "name": "_to",
              "type": "address"
            },
            {
              "indexed": false,
              "internalType": "uint256",
              "name": "_timestamp",
              "type": "uint256"
            }
          ],
          "name": "AcceptTransferNewOwner",
          "type": "event"
        },
        {
          "anonymous": false,
          "inputs": [
            {
              "indexed": true,
              "internalType": "address",
              "name": "oldOwner",
              "type": "address"
            },
            {
              "indexed": true,
              "internalType": "address",
              "name": "newOwner",
              "type": "address"
            },
            {
              "indexed": false,
              "internalType": "uint256",
              "name": "timestamp",
              "type": "uint256"
            }
          ],
          "name": "InitialTransferOwner",
          "type": "event"
        },
        {
          "anonymous": false,
          "inputs": [
            {
              "indexed": true,
              "internalType": "address",
              "name": "_to",
              "type": "address"
            },
            {
              "indexed": false,
              "internalType": "uint256",
              "name": "_graceperiod",
              "type": "uint256"
            }
          ],
          "name": "SetNewGracePeriod",
          "type": "event"
        },
        {
          "inputs": [],
          "name": "getGracePeriod",
          "outputs": [
            {
              "internalType": "uint256",
              "name": "",
              "type": "uint256"
            }
          ],
          "stateMutability": "view",
          "type": "function"
        },
        {
          "inputs": [],
          "name": "getImpl",
          "outputs": [
            {
              "internalType": "address[]",
              "name": "_allImpl",
              "type": "address[]"
            }
          ],
          "stateMutability": "view",
          "type": "function"
        },
        {
          "inputs": [
            {
              "internalType": "bytes4",
              "name": "_selector",
              "type": "bytes4"
            }
          ],
          "name": "getModuleBySelector",
          "outputs": [
            {
              "internalType": "address",
              "name": "",
              "type": "address"
            }
          ],
          "stateMutability": "view",
          "type": "function"
        },
        {
          "inputs": [],
          "name": "getModules",
          "outputs": [
            {
              "components": [
                {
                  "internalType": "bytes4",
                  "name": "selector",
                  "type": "bytes4"
                },
                {
                  "internalType": "address",
                  "name": "module",
                  "type": "address"
                }
              ],
              "internalType": "struct modules[]",
              "name": "",
              "type": "tuple[]"
            }
          ],
          "stateMutability": "view",
          "type": "function"
        },
        {
          "inputs": [],
          "name": "getNewOwner",
          "outputs": [
            {
              "internalType": "address",
              "name": "",
              "type": "address"
            }
          ],
          "stateMutability": "view",
          "type": "function"
        },
        {
          "inputs": [],
          "name": "getOwner",
          "outputs": [
            {
              "internalType": "address",
              "name": "",
              "type": "address"
            }
          ],
          "stateMutability": "view",
          "type": "function"
        },
        {
          "inputs": [],
          "name": "getSelectors",
          "outputs": [
            {
              "internalType": "bytes4[]",
              "name": "",
              "type": "bytes4[]"
            }
          ],
          "stateMutability": "view",
          "type": "function"
        },
        {
          "inputs": [
            {
              "internalType": "address",
              "name": "_impl",
              "type": "address"
            }
          ],
          "name": "getSelectorsByImpl",
          "outputs": [
            {
              "internalType": "bytes4[]",
              "name": "",
              "type": "bytes4[]"
            }
          ],
          "stateMutability": "view",
          "type": "function"
        },
        {
          "inputs": [],
          "name": "getTimestampExp",
          "outputs": [
            {
              "internalType": "uint256",
              "name": "",
              "type": "uint256"
            }
          ],
          "stateMutability": "view",
          "type": "function"
        },
        {
          "inputs": [
            {
              "internalType": "uint256",
              "name": "_seconds",
              "type": "uint256"
            }
          ],
          "name": "setGracePeriod",
          "outputs": [],
          "stateMutability": "nonpayable",
          "type": "function"
        },
        {
          "inputs": [],
          "name": "transferNewOwnerAccept",
          "outputs": [],
          "stateMutability": "nonpayable",
          "type": "function"
        },
        {
          "inputs": [
            {
              "internalType": "address",
              "name": "_to",
              "type": "address"
            }
          ],
          "name": "transferOwner",
          "outputs": [],
          "stateMutability": "nonpayable",
          "type": "function"
        },
        {
          "inputs": [
            {
              "components": [
                {
                  "internalType": "address",
                  "name": "module",
                  "type": "address"
                },
                {
                  "internalType": "bytes4[]",
                  "name": "selectors",
                  "type": "bytes4[]"
                }
              ],
              "internalType": "struct moduleDefinition[]",
              "name": "_modules",
              "type": "tuple[]"
            }
          ],
          "name": "updateModules",
          "outputs": [],
          "stateMutability": "nonpayable",
          "type": "function"
        }
      ],
      "evm": {
        "bytecode": {
          "linkReferences": {
            "contracts/dynamicRouter/DynamicRouterStorage.sol": {
              "DynamicRouterStorage": [
                {
                  "length": 20,
                  "start": 2175
                }
              ]
            }
          },
          "object": "608060405234801561001057600080fd5b50600080546001600160a01b03191633179055620151806003556112c4806100396000396000f3fe608060405234801561001057600080fd5b50600436106100df5760003560e01c806363de14fc1161008c578063b2494df311610066578063b2494df314610207578063dbd183881461021c578063dfb8083114610224578063f2f659601461023957600080fd5b806363de14fc14610175578063893d20e8146101ec5780639f889b6e146101f457600080fd5b80634b503f0b116100bd5780634b503f0b146101445780634fb2e45d1461014c57806361a9ab761461015f57600080fd5b80630abe1796146100e457806318e3e87f1461010d5780633e2fe14914610117575b600080fd5b6100f76100f2366004610ce4565b61024c565b6040516101049190610d06565b60405180910390f35b6101156104ca565b005b61011f6105ba565b60405173ffffffffffffffffffffffffffffffffffffffff9091168152602001610104565b6100f76105ff565b61011561015a366004610ce4565b6106bb565b610167610783565b604051908152602001610104565b61011f610183366004610d9c565b7fffffffff000000000000000000000000000000000000000000000000000000001660009081527fcf86a19c93788adec792d7986af6c262f9432aa7d41f7ea28dd4163afc5ad94a602052604090205473ffffffffffffffffffffffffffffffffffffffff1690565b61011f6107b2565b610115610202366004610e82565b6107f7565b61020f6108a1565b6040516101049190610ff9565b610167610a74565b61022c610aa3565b6040516101049190611080565b6101156102473660046110ce565b610b33565b7fcf86a19c93788adec792d7986af6c262f9432aa7d41f7ea28dd4163afc5ad94b546060907fcf86a19c93788adec792d7986af6c262f9432aa7d41f7ea28dd4163afc5ad94a9060009067ffffffffffffffff8111156102ae576102ae610db7565b6040519080825280602002602001820160405280156102d7578160200160208202803683370190505b5090506000805b600184015481101561040857836000016000856001018381548110610305576103056110e7565b6000918252602080832060088304015460079092166004026101000a90910460e01b7fffffffff0000000000000000000000000000000000000000000000000000000016835282019290925260400190205473ffffffffffffffffffffffffffffffffffffffff908116908716036104005783600101818154811061038c5761038c6110e7565b90600052602060002090600891828204019190066004029054906101000a900460e01b8382815181106103c1576103c16110e7565b7fffffffff0000000000000000000000000000000000000000000000000000000090921660209283029190910190910152816103fc81611145565b9250505b6001016102de565b5060008167ffffffffffffffff81111561042457610424610db7565b60405190808252806020026020018201604052801561044d578160200160208202803683370190505b50905060005b828110156104c05783818151811061046d5761046d6110e7565b6020026020010151828281518110610487576104876110e7565b7fffffffff0000000000000000000000000000000000000000000000000000000090921660209283029190910190910152600101610453565b5095945050505050565b60015473ffffffffffffffffffffffffffffffffffffffff1633146104f1576104f1610bd7565b426002541115610534576040517fefabbdc60000000000000000000000000000000000000000000000000000000081523360048201526024015b60405180910390fd5b600180546000805473ffffffffffffffffffffffffffffffffffffffff83167fffffffffffffffffffffffff000000000000000000000000000000000000000091821617825590911690915560028190556040514281527fba63841a7533a3a83852e6bd791045210d9e961d32ec380162bcd5d1d6fe12129060200160405180910390a2565b6000805473ffffffffffffffffffffffffffffffffffffffff1633146105e2576105e2610bd7565b5060015473ffffffffffffffffffffffffffffffffffffffff1690565b60607fcf86a19c93788adec792d7986af6c262f9432aa7d41f7ea28dd4163afc5ad94a6001018054806020026020016040519081016040528092919081815260200182805480156106b157602002820191906000526020600020906000905b82829054906101000a900460e01b7bffffffffffffffffffffffffffffffffffffffffffffffffffffffff19168152602001906004019060208260030104928301926001038202915080841161065e5790505b5050505050905090565b60005473ffffffffffffffffffffffffffffffffffffffff1633146106e2576106e2610bd7565b6106eb81610c0b565b600180547fffffffffffffffffffffffff00000000000000000000000000000000000000001673ffffffffffffffffffffffffffffffffffffffff8316179055610733610c82565b60405142815273ffffffffffffffffffffffffffffffffffffffff82169033907f8dbb839c92a52a1b41b96c2376318a45b974066df935981e08419bd7a0ae15009060200160405180910390a350565b6000805473ffffffffffffffffffffffffffffffffffffffff1633146107ab576107ab610bd7565b5060025490565b6000805473ffffffffffffffffffffffffffffffffffffffff1633146107da576107da610bd7565b5060005473ffffffffffffffffffffffffffffffffffffffff1690565b60005473ffffffffffffffffffffffffffffffffffffffff16331461081e5761081e610bd7565b6040517fb3dde62600000000000000000000000000000000000000000000000000000000815273__$8a7090b3ef35448595ebf62e6ebfc20de9$__9063b3dde6269061086e90849060040161117d565b60006040518083038186803b15801561088657600080fd5b505af415801561089a573d6000803e3d6000fd5b5050505050565b7fcf86a19c93788adec792d7986af6c262f9432aa7d41f7ea28dd4163afc5ad94b546060907fcf86a19c93788adec792d7986af6c262f9432aa7d41f7ea28dd4163afc5ad94a9060009067ffffffffffffffff81111561090357610903610db7565b60405190808252806020026020018201604052801561094857816020015b60408051808201909152600080825260208201528152602001906001900390816109215790505b50905060005b6001830154811015610a6d57604051806040016040528084600101838154811061097a5761097a6110e7565b90600052602060002090600891828204019190066004029054906101000a900460e01b7bffffffffffffffffffffffffffffffffffffffffffffffffffffffff191681526020018460000160008660010185815481106109dc576109dc6110e7565b6000918252602080832060088304015460079092166004026101000a90910460e01b7fffffffff0000000000000000000000000000000000000000000000000000000016835282019290925260400190205473ffffffffffffffffffffffffffffffffffffffff1690528251839083908110610a5a57610a5a6110e7565b602090810291909101015260010161094e565b5092915050565b6000805473ffffffffffffffffffffffffffffffffffffffff163314610a9c57610a9c610bd7565b5060035490565b60607fcf86a19c93788adec792d7986af6c262f9432aa7d41f7ea28dd4163afc5ad94a6002018054806020026020016040519081016040528092919081815260200182805480156106b157602002820191906000526020600020905b815473ffffffffffffffffffffffffffffffffffffffff168152600190910190602001808311610aff575050505050905090565b60005473ffffffffffffffffffffffffffffffffffffffff163314610b5a57610b5a610bd7565b62093a80811115610b9a576040517fa253bc700000000000000000000000000000000000000000000000000000000081526004810182905260240161052b565b600381905560405181815233907fbb4e769c8bec1bf5b9cbb403afd41b6826b52ba0d1ad04b1d4a6f06eae96b5639060200160405180910390a250565b6040517f0504a20d00000000000000000000000000000000000000000000000000000000815233600482015260240161052b565b60005473ffffffffffffffffffffffffffffffffffffffff163314610c3257610c32610bd7565b73ffffffffffffffffffffffffffffffffffffffff8116610c7f576040517f7138356f00000000000000000000000000000000000000000000000000000000815260040160405180910390fd5b50565b60005473ffffffffffffffffffffffffffffffffffffffff163314610ca957610ca9610bd7565b600354610cb69042611275565b600255565b803573ffffffffffffffffffffffffffffffffffffffff81168114610cdf57600080fd5b919050565b600060208284031215610cf657600080fd5b610cff82610cbb565b9392505050565b6020808252825182820181905260009190848201906040850190845b81811015610d605783517fffffffff000000000000000000000000000000000000000000000000000000001683529284019291840191600101610d22565b50909695505050505050565b80357fffffffff0000000000000000000000000000000000000000000000000000000081168114610cdf57600080fd5b600060208284031215610dae57600080fd5b610cff82610d6c565b7f4e487b7100000000000000000000000000000000000000000000000000000000600052604160045260246000fd5b6040805190810167ffffffffffffffff81118282101715610e0957610e09610db7565b60405290565b604051601f82017fffffffffffffffffffffffffffffffffffffffffffffffffffffffffffffffe016810167ffffffffffffffff81118282101715610e5657610e56610db7565b604052919050565b600067ffffffffffffffff821115610e7857610e78610db7565b5060051b60200190565b60006020808385031215610e9557600080fd5b823567ffffffffffffffff80821115610ead57600080fd5b818501915085601f830112610ec157600080fd5b8135610ed4610ecf82610e5e565b610e0f565b81815260059190911b83018401908481019088831115610ef357600080fd5b8585015b83811015610fec57803585811115610f0f5760008081fd5b86016040818c037fffffffffffffffffffffffffffffffffffffffffffffffffffffffffffffffe001811315610f455760008081fd5b610f4d610de6565b610f588a8401610cbb565b81528183013588811115610f6c5760008081fd5b8084019350508c603f840112610f825760008081fd5b89830135610f92610ecf82610e5e565b81815260059190911b84018301908b8101908f831115610fb25760008081fd5b948401945b82861015610fd757610fc886610d6c565b8252948c0194908c0190610fb7565b838d0152505085525050918601918601610ef7565b5098975050505050505050565b602080825282518282018190526000919060409081850190868401855b8281101561107357815180517fffffffff0000000000000000000000000000000000000000000000000000000016855286015173ffffffffffffffffffffffffffffffffffffffff16868501529284019290850190600101611016565b5091979650505050505050565b6020808252825182820181905260009190848201906040850190845b81811015610d6057835173ffffffffffffffffffffffffffffffffffffffff168352928401929184019160010161109c565b6000602082840312156110e057600080fd5b5035919050565b7f4e487b7100000000000000000000000000000000000000000000000000000000600052603260045260246000fd5b7f4e487b7100000000000000000000000000000000000000000000000000000000600052601160045260246000fd5b60007fffffffffffffffffffffffffffffffffffffffffffffffffffffffffffffffff820361117657611176611116565b5060010190565b600060208083018184528085518083526040925060408601915060408160051b8701018488016000805b84811015611266578984037fffffffffffffffffffffffffffffffffffffffffffffffffffffffffffffffc00186528251805173ffffffffffffffffffffffffffffffffffffffff168552880151888501889052805188860181905290890190839060608701905b808310156112515783517fffffffff00000000000000000000000000000000000000000000000000000000168252928b019260019290920191908b019061120f565b50978a019795505050918701916001016111a7565b50919998505050505050505050565b8082018082111561128857611288611116565b9291505056fea2646970667358221220bdf6416297bbca7b556aabb8127007b85a283b55a55015c361d76dbf10a500d164736f6c63430008170033",
          "opcodes": "PUSH1 0x80 PUSH1 0x40 MSTORE CALLVALUE DUP1 ISZERO PUSH2 0x10 JUMPI PUSH1 0x0 DUP1 REVERT JUMPDEST POP PUSH1 0x0 DUP1 SLOAD PUSH1 0x1 PUSH1 0x1 PUSH1 0xA0 SHL SUB NOT AND CALLER OR SWAP1 SSTORE PUSH3 0x15180 PUSH1 0x3 SSTORE PUSH2 0x12C4 DUP1 PUSH2 0x39 PUSH1 0x0 CODECOPY PUSH1 0x0 RETURN INVALID PUSH1 0x80 PUSH1 0x40 MSTORE CALLVALUE DUP1 ISZERO PUSH2 0x10 JUMPI PUSH1 0x0 DUP1 REVERT JUMPDEST POP PUSH1 0x4 CALLDATASIZE LT PUSH2 0xDF JUMPI PUSH1 0x0 CALLDATALOAD PUSH1 0xE0 SHR DUP1 PUSH4 0x63DE14FC GT PUSH2 0x8C JUMPI DUP1 PUSH4 0xB2494DF3 GT PUSH2 0x66 JUMPI DUP1 PUSH4 0xB2494DF3 EQ PUSH2 0x207 JUMPI DUP1 PUSH4 0xDBD18388 EQ PUSH2 0x21C JUMPI DUP1 PUSH4 0xDFB80831 EQ PUSH2 0x224 JUMPI DUP1 PUSH4 0xF2F65960 EQ PUSH2 0x239 JUMPI PUSH1 0x0 DUP1 REVERT JUMPDEST DUP1 PUSH4 0x63DE14FC EQ PUSH2 0x175 JUMPI DUP1 PUSH4 0x893D20E8 EQ PUSH2 0x1EC JUMPI DUP1 PUSH4 0x9F889B6E EQ PUSH2 0x1F4 JUMPI PUSH1 0x0 DUP1 REVERT JUMPDEST DUP1 PUSH4 0x4B503F0B GT PUSH2 0xBD JUMPI DUP1 PUSH4 0x4B503F0B EQ PUSH2 0x144 JUMPI DUP1 PUSH4 0x4FB2E45D EQ PUSH2 0x14C JUMPI DUP1 PUSH4 0x61A9AB76 EQ PUSH2 0x15F JUMPI PUSH1 0x0 DUP1 REVERT JUMPDEST DUP1 PUSH4 0xABE1796 EQ PUSH2 0xE4 JUMPI DUP1 PUSH4 0x18E3E87F EQ PUSH2 0x10D JUMPI DUP1 PUSH4 0x3E2FE149 EQ PUSH2 0x117 JUMPI JUMPDEST PUSH1 0x0 DUP1 REVERT JUMPDEST PUSH2 0xF7 PUSH2 0xF2 CALLDATASIZE PUSH1 0x4 PUSH2 0xCE4 JUMP JUMPDEST PUSH2 0x24C JUMP JUMPDEST PUSH1 0x40 MLOAD PUSH2 0x104 SWAP2 SWAP1 PUSH2 0xD06 JUMP JUMPDEST PUSH1 0x40 MLOAD DUP1 SWAP2 SUB SWAP1 RETURN JUMPDEST PUSH2 0x115 PUSH2 0x4CA JUMP JUMPDEST STOP JUMPDEST PUSH2 0x11F PUSH2 0x5BA JUMP JUMPDEST PUSH1 0x40 MLOAD PUSH20 0xFFFFFFFFFFFFFFFFFFFFFFFFFFFFFFFFFFFFFFFF SWAP1 SWAP2 AND DUP2 MSTORE PUSH1 0x20 ADD PUSH2 0x104 JUMP JUMPDEST PUSH2 0xF7 PUSH2 0x5FF JUMP JUMPDEST PUSH2 0x115 PUSH2 0x15A CALLDATASIZE PUSH1 0x4 PUSH2 0xCE4 JUMP JUMPDEST PUSH2 0x6BB JUMP JUMPDEST PUSH2 0x167 PUSH2 0x783 JUMP JUMPDEST PUSH1 0x40 MLOAD SWAP1 DUP2 MSTORE PUSH1 0x20 ADD PUSH2 0x104 JUMP JUMPDEST PUSH2 0x11F PUSH2 0x183 CALLDATASIZE PUSH1 0x4 PUSH2 0xD9C JUMP JUMPDEST PUSH32 0xFFFFFFFF00000000000000000000000000000000000000000000000000000000 AND PUSH1 0x0 SWAP1 DUP2 MSTORE PUSH32 0xCF86A19C93788ADEC792D7986AF6C262F9432AA7D41F7EA28DD4163AFC5AD94A PUSH1 0x20 MSTORE PUSH1 0x40 SWAP1 KECCAK256 SLOAD PUSH20 0xFFFFFFFFFFFFFFFFFFFFFFFFFFFFFFFFFFFFFFFF AND SWAP1 JUMP JUMPDEST PUSH2 0x11F PUSH2 0x7B2 JUMP JUMPDEST PUSH2 0x115 PUSH2 0x202 CALLDATASIZE PUSH1 0x4 PUSH2 0xE82 JUMP JUMPDEST PUSH2 0x7F7 JUMP JUMPDEST PUSH2 0x20F PUSH2 0x8A1 JUMP JUMPDEST PUSH1 0x40 MLOAD PUSH2 0x104 SWAP2 SWAP1 PUSH2 0xFF9 JUMP JUMPDEST PUSH2 0x167 PUSH2 0xA74 JUMP JUMPDEST PUSH2 0x22C PUSH2 0xAA3 JUMP JUMPDEST PUSH1 0x40 MLOAD PUSH2 0x104 SWAP2 SWAP1 PUSH2 0x1080 JUMP JUMPDEST PUSH2 0x115 PUSH2 0x247 CALLDATASIZE PUSH1 0x4 PUSH2 0x10CE JUMP JUMPDEST PUSH2 0xB33 JUMP JUMPDEST PUSH32 0xCF86A19C93788ADEC792D7986AF6C262F9432AA7D41F7EA28DD4163AFC5AD94B SLOAD PUSH1 0x60 SWAP1 PUSH32 0xCF86A19C93788ADEC792D7986AF6C262F9432AA7D41F7EA28DD4163AFC5AD94A SWAP1 PUSH1 0x0 SWAP1 PUSH8 0xFFFFFFFFFFFFFFFF DUP2 GT ISZERO PUSH2 0x2AE JUMPI PUSH2 0x2AE PUSH2 0xDB7 JUMP JUMPDEST PUSH1 0x40 MLOAD SWAP1 DUP1 DUP3 MSTORE DUP1 PUSH1 0x20 MUL PUSH1 0x20 ADD DUP3 ADD PUSH1 0x40 MSTORE DUP1 ISZERO PUSH2 0x2D7 JUMPI DUP2 PUSH1 0x20 ADD PUSH1 0x20 DUP3 MUL DUP1 CALLDATASIZE DUP4 CALLDATACOPY ADD SWAP1 POP JUMPDEST POP SWAP1 POP PUSH1 0x0 DUP1 JUMPDEST PUSH1 0x1 DUP5 ADD SLOAD DUP2 LT ISZERO PUSH2 0x408 JUMPI DUP4 PUSH1 0x0 ADD PUSH1 0x0 DUP6 PUSH1 0x1 ADD DUP4 DUP2 SLOAD DUP2 LT PUSH2 0x305 JUMPI PUSH2 0x305 PUSH2 0x10E7 JUMP JUMPDEST PUSH1 0x0 SWAP2 DUP3 MSTORE PUSH1 0x20 DUP1 DUP4 KECCAK256 PUSH1 0x8 DUP4 DIV ADD SLOAD PUSH1 0x7 SWAP1 SWAP3 AND PUSH1 0x4 MUL PUSH2 0x100 EXP SWAP1 SWAP2 DIV PUSH1 0xE0 SHL PUSH32 0xFFFFFFFF00000000000000000000000000000000000000000000000000000000 AND DUP4 MSTORE DUP3 ADD SWAP3 SWAP1 SWAP3 MSTORE PUSH1 0x40 ADD SWAP1 KECCAK256 SLOAD PUSH20 0xFFFFFFFFFFFFFFFFFFFFFFFFFFFFFFFFFFFFFFFF SWAP1 DUP2 AND SWAP1 DUP8 AND SUB PUSH2 0x400 JUMPI DUP4 PUSH1 0x1 ADD DUP2 DUP2 SLOAD DUP2 LT PUSH2 0x38C JUMPI PUSH2 0x38C PUSH2 0x10E7 JUMP JUMPDEST SWAP1 PUSH1 0x0 MSTORE PUSH1 0x20 PUSH1 0x0 KECCAK256 SWAP1 PUSH1 0x8 SWAP2 DUP3 DUP3 DIV ADD SWAP2 SWAP1 MOD PUSH1 0x4 MUL SWAP1 SLOAD SWAP1 PUSH2 0x100 EXP SWAP1 DIV PUSH1 0xE0 SHL DUP4 DUP3 DUP2 MLOAD DUP2 LT PUSH2 0x3C1 JUMPI PUSH2 0x3C1 PUSH2 0x10E7 JUMP JUMPDEST PUSH32 0xFFFFFFFF00000000000000000000000000000000000000000000000000000000 SWAP1 SWAP3 AND PUSH1 0x20 SWAP3 DUP4 MUL SWAP2 SWAP1 SWAP2 ADD SWAP1 SWAP2 ADD MSTORE DUP2 PUSH2 0x3FC DUP2 PUSH2 0x1145 JUMP JUMPDEST SWAP3 POP POP JUMPDEST PUSH1 0x1 ADD PUSH2 0x2DE JUMP JUMPDEST POP PUSH1 0x0 DUP2 PUSH8 0xFFFFFFFFFFFFFFFF DUP2 GT ISZERO PUSH2 0x424 JUMPI PUSH2 0x424 PUSH2 0xDB7 JUMP JUMPDEST PUSH1 0x40 MLOAD SWAP1 DUP1 DUP3 MSTORE DUP1 PUSH1 0x20 MUL PUSH1 0x20 ADD DUP3 ADD PUSH1 0x40 MSTORE DUP1 ISZERO PUSH2 0x44D JUMPI DUP2 PUSH1 0x20 ADD PUSH1 0x20 DUP3 MUL DUP1 CALLDATASIZE DUP4 CALLDATACOPY ADD SWAP1 POP JUMPDEST POP SWAP1 POP PUSH1 0x0 JUMPDEST DUP3 DUP2 LT ISZERO PUSH2 0x4C0 JUMPI DUP4 DUP2 DUP2 MLOAD DUP2 LT PUSH2 0x46D JUMPI PUSH2 0x46D PUSH2 0x10E7 JUMP JUMPDEST PUSH1 0x20 MUL PUSH1 0x20 ADD ADD MLOAD DUP3 DUP3 DUP2 MLOAD DUP2 LT PUSH2 0x487 JUMPI PUSH2 0x487 PUSH2 0x10E7 JUMP JUMPDEST PUSH32 0xFFFFFFFF00000000000000000000000000000000000000000000000000000000 SWAP1 SWAP3 AND PUSH1 0x20 SWAP3 DUP4 MUL SWAP2 SWAP1 SWAP2 ADD SWAP1 SWAP2 ADD MSTORE PUSH1 0x1 ADD PUSH2 0x453 JUMP JUMPDEST POP SWAP6 SWAP5 POP POP POP POP POP JUMP JUMPDEST PUSH1 0x1 SLOAD PUSH20 0xFFFFFFFFFFFFFFFFFFFFFFFFFFFFFFFFFFFFFFFF AND CALLER EQ PUSH2 0x4F1 JUMPI PUSH2 0x4F1 PUSH2 0xBD7 JUMP JUMPDEST TIMESTAMP PUSH1 0x2 SLOAD GT ISZERO PUSH2 0x534 JUMPI PUSH1 0x40 MLOAD PUSH32 0xEFABBDC600000000000000000000000000000000000000000000000000000000 DUP2 MSTORE CALLER PUSH1 0x4 DUP3 ADD MSTORE PUSH1 0x24 ADD JUMPDEST PUSH1 0x40 MLOAD DUP1 SWAP2 SUB SWAP1 REVERT JUMPDEST PUSH1 0x1 DUP1 SLOAD PUSH1 0x0 DUP1 SLOAD PUSH20 0xFFFFFFFFFFFFFFFFFFFFFFFFFFFFFFFFFFFFFFFF DUP4 AND PUSH32 0xFFFFFFFFFFFFFFFFFFFFFFFF0000000000000000000000000000000000000000 SWAP2 DUP3 AND OR DUP3 SSTORE SWAP1 SWAP2 AND SWAP1 SWAP2 SSTORE PUSH1 0x2 DUP2 SWAP1 SSTORE PUSH1 0x40 MLOAD TIMESTAMP DUP2 MSTORE PUSH32 0xBA63841A7533A3A83852E6BD791045210D9E961D32EC380162BCD5D1D6FE1212 SWAP1 PUSH1 0x20 ADD PUSH1 0x40 MLOAD DUP1 SWAP2 SUB SWAP1 LOG2 JUMP JUMPDEST PUSH1 0x0 DUP1 SLOAD PUSH20 0xFFFFFFFFFFFFFFFFFFFFFFFFFFFFFFFFFFFFFFFF AND CALLER EQ PUSH2 0x5E2 JUMPI PUSH2 0x5E2 PUSH2 0xBD7 JUMP JUMPDEST POP PUSH1 0x1 SLOAD PUSH20 0xFFFFFFFFFFFFFFFFFFFFFFFFFFFFFFFFFFFFFFFF AND SWAP1 JUMP JUMPDEST PUSH1 0x60 PUSH32 0xCF86A19C93788ADEC792D7986AF6C262F9432AA7D41F7EA28DD4163AFC5AD94A PUSH1 0x1 ADD DUP1 SLOAD DUP1 PUSH1 0x20 MUL PUSH1 0x20 ADD PUSH1 0x40 MLOAD SWAP1 DUP2 ADD PUSH1 0x40 MSTORE DUP1 SWAP3 SWAP2 SWAP1 DUP2 DUP2 MSTORE PUSH1 0x20 ADD DUP3 DUP1 SLOAD DUP1 ISZERO PUSH2 0x6B1 JUMPI PUSH1 0x20 MUL DUP3 ADD SWAP2 SWAP1 PUSH1 0x0 MSTORE PUSH1 0x20 PUSH1 0x0 KECCAK256 SWAP1 PUSH1 0x0 SWAP1 JUMPDEST DUP3 DUP3 SWAP1 SLOAD SWAP1 PUSH2 0x100 EXP SWAP1 DIV PUSH1 0xE0 SHL PUSH28 0xFFFFFFFFFFFFFFFFFFFFFFFFFFFFFFFFFFFFFFFFFFFFFFFFFFFFFFFF NOT AND DUP2 MSTORE PUSH1 0x20 ADD SWAP1 PUSH1 0x4 ADD SWAP1 PUSH1 0x20 DUP3 PUSH1 0x3 ADD DIV SWAP3 DUP4 ADD SWAP3 PUSH1 0x1 SUB DUP3 MUL SWAP2 POP DUP1 DUP5 GT PUSH2 0x65E JUMPI SWAP1 POP JUMPDEST POP POP POP POP POP SWAP1 POP SWAP1 JUMP JUMPDEST PUSH1 0x0 SLOAD PUSH20 0xFFFFFFFFFFFFFFFFFFFFFFFFFFFFFFFFFFFFFFFF AND CALLER EQ PUSH2 0x6E2 JUMPI PUSH2 0x6E2 PUSH2 0xBD7 JUMP JUMPDEST PUSH2 0x6EB DUP2 PUSH2 0xC0B JUMP JUMPDEST PUSH1 0x1 DUP1 SLOAD PUSH32 0xFFFFFFFFFFFFFFFFFFFFFFFF0000000000000000000000000000000000000000 AND PUSH20 0xFFFFFFFFFFFFFFFFFFFFFFFFFFFFFFFFFFFFFFFF DUP4 AND OR SWAP1 SSTORE PUSH2 0x733 PUSH2 0xC82 JUMP JUMPDEST PUSH1 0x40 MLOAD TIMESTAMP DUP2 MSTORE PUSH20 0xFFFFFFFFFFFFFFFFFFFFFFFFFFFFFFFFFFFFFFFF DUP3 AND SWAP1 CALLER SWAP1 PUSH32 0x8DBB839C92A52A1B41B96C2376318A45B974066DF935981E08419BD7A0AE1500 SWAP1 PUSH1 0x20 ADD PUSH1 0x40 MLOAD DUP1 SWAP2 SUB SWAP1 LOG3 POP JUMP JUMPDEST PUSH1 0x0 DUP1 SLOAD PUSH20 0xFFFFFFFFFFFFFFFFFFFFFFFFFFFFFFFFFFFFFFFF AND CALLER EQ PUSH2 0x7AB JUMPI PUSH2 0x7AB PUSH2 0xBD7 JUMP JUMPDEST POP PUSH1 0x2 SLOAD SWAP1 JUMP JUMPDEST PUSH1 0x0 DUP1 SLOAD PUSH20 0xFFFFFFFFFFFFFFFFFFFFFFFFFFFFFFFFFFFFFFFF AND CALLER EQ PUSH2 0x7DA JUMPI PUSH2 0x7DA PUSH2 0xBD7 JUMP JUMPDEST POP PUSH1 0x0 SLOAD PUSH20 0xFFFFFFFFFFFFFFFFFFFFFFFFFFFFFFFFFFFFFFFF AND SWAP1 JUMP JUMPDEST PUSH1 0x0 SLOAD PUSH20 0xFFFFFFFFFFFFFFFFFFFFFFFFFFFFFFFFFFFFFFFF AND CALLER EQ PUSH2 0x81E JUMPI PUSH2 0x81E PUSH2 0xBD7 JUMP JUMPDEST PUSH1 0x40 MLOAD PUSH32 0xB3DDE62600000000000000000000000000000000000000000000000000000000 DUP2 MSTORE PUSH20 0x0 SWAP1 PUSH4 0xB3DDE626 SWAP1 PUSH2 0x86E SWAP1 DUP5 SWAP1 PUSH1 0x4 ADD PUSH2 0x117D JUMP JUMPDEST PUSH1 0x0 PUSH1 0x40 MLOAD DUP1 DUP4 SUB DUP2 DUP7 DUP1 EXTCODESIZE ISZERO DUP1 ISZERO PUSH2 0x886 JUMPI PUSH1 0x0 DUP1 REVERT JUMPDEST POP GAS DELEGATECALL ISZERO DUP1 ISZERO PUSH2 0x89A JUMPI RETURNDATASIZE PUSH1 0x0 DUP1 RETURNDATACOPY RETURNDATASIZE PUSH1 0x0 REVERT JUMPDEST POP POP POP POP POP JUMP JUMPDEST PUSH32 0xCF86A19C93788ADEC792D7986AF6C262F9432AA7D41F7EA28DD4163AFC5AD94B SLOAD PUSH1 0x60 SWAP1 PUSH32 0xCF86A19C93788ADEC792D7986AF6C262F9432AA7D41F7EA28DD4163AFC5AD94A SWAP1 PUSH1 0x0 SWAP1 PUSH8 0xFFFFFFFFFFFFFFFF DUP2 GT ISZERO PUSH2 0x903 JUMPI PUSH2 0x903 PUSH2 0xDB7 JUMP JUMPDEST PUSH1 0x40 MLOAD SWAP1 DUP1 DUP3 MSTORE DUP1 PUSH1 0x20 MUL PUSH1 0x20 ADD DUP3 ADD PUSH1 0x40 MSTORE DUP1 ISZERO PUSH2 0x948 JUMPI DUP2 PUSH1 0x20 ADD JUMPDEST PUSH1 0x40 DUP1 MLOAD DUP1 DUP3 ADD SWAP1 SWAP2 MSTORE PUSH1 0x0 DUP1 DUP3 MSTORE PUSH1 0x20 DUP3 ADD MSTORE DUP2 MSTORE PUSH1 0x20 ADD SWAP1 PUSH1 0x1 SWAP1 SUB SWAP1 DUP2 PUSH2 0x921 JUMPI SWAP1 POP JUMPDEST POP SWAP1 POP PUSH1 0x0 JUMPDEST PUSH1 0x1 DUP4 ADD SLOAD DUP2 LT ISZERO PUSH2 0xA6D JUMPI PUSH1 0x40 MLOAD DUP1 PUSH1 0x40 ADD PUSH1 0x40 MSTORE DUP1 DUP5 PUSH1 0x1 ADD DUP4 DUP2 SLOAD DUP2 LT PUSH2 0x97A JUMPI PUSH2 0x97A PUSH2 0x10E7 JUMP JUMPDEST SWAP1 PUSH1 0x0 MSTORE PUSH1 0x20 PUSH1 0x0 KECCAK256 SWAP1 PUSH1 0x8 SWAP2 DUP3 DUP3 DIV ADD SWAP2 SWAP1 MOD PUSH1 0x4 MUL SWAP1 SLOAD SWAP1 PUSH2 0x100 EXP SWAP1 DIV PUSH1 0xE0 SHL PUSH28 0xFFFFFFFFFFFFFFFFFFFFFFFFFFFFFFFFFFFFFFFFFFFFFFFFFFFFFFFF NOT AND DUP2 MSTORE PUSH1 0x20 ADD DUP5 PUSH1 0x0 ADD PUSH1 0x0 DUP7 PUSH1 0x1 ADD DUP6 DUP2 SLOAD DUP2 LT PUSH2 0x9DC JUMPI PUSH2 0x9DC PUSH2 0x10E7 JUMP JUMPDEST PUSH1 0x0 SWAP2 DUP3 MSTORE PUSH1 0x20 DUP1 DUP4 KECCAK256 PUSH1 0x8 DUP4 DIV ADD SLOAD PUSH1 0x7 SWAP1 SWAP3 AND PUSH1 0x4 MUL PUSH2 0x100 EXP SWAP1 SWAP2 DIV PUSH1 0xE0 SHL PUSH32 0xFFFFFFFF00000000000000000000000000000000000000000000000000000000 AND DUP4 MSTORE DUP3 ADD SWAP3 SWAP1 SWAP3 MSTORE PUSH1 0x40 ADD SWAP1 KECCAK256 SLOAD PUSH20 0xFFFFFFFFFFFFFFFFFFFFFFFFFFFFFFFFFFFFFFFF AND SWAP1 MSTORE DUP3 MLOAD DUP4 SWAP1 DUP4 SWAP1 DUP2 LT PUSH2 0xA5A JUMPI PUSH2 0xA5A PUSH2 0x10E7 JUMP JUMPDEST PUSH1 0x20 SWAP1 DUP2 MUL SWAP2 SWAP1 SWAP2 ADD ADD MSTORE PUSH1 0x1 ADD PUSH2 0x94E JUMP JUMPDEST POP SWAP3 SWAP2 POP POP JUMP JUMPDEST PUSH1 0x0 DUP1 SLOAD PUSH20 0xFFFFFFFFFFFFFFFFFFFFFFFFFFFFFFFFFFFFFFFF AND CALLER EQ PUSH2 0xA9C JUMPI PUSH2 0xA9C PUSH2 0xBD7 JUMP JUMPDEST POP PUSH1 0x3 SLOAD SWAP1 JUMP JUMPDEST PUSH1 0x60 PUSH32 0xCF86A19C93788ADEC792D7986AF6C262F9432AA7D41F7EA28DD4163AFC5AD94A PUSH1 0x2 ADD DUP1 SLOAD DUP1 PUSH1 0x20 MUL PUSH1 0x20 ADD PUSH1 0x40 MLOAD SWAP1 DUP2 ADD PUSH1 0x40 MSTORE DUP1 SWAP3 SWAP2 SWAP1 DUP2 DUP2 MSTORE PUSH1 0x20 ADD DUP3 DUP1 SLOAD DUP1 ISZERO PUSH2 0x6B1 JUMPI PUSH1 0x20 MUL DUP3 ADD SWAP2 SWAP1 PUSH1 0x0 MSTORE PUSH1 0x20 PUSH1 0x0 KECCAK256 SWAP1 JUMPDEST DUP2 SLOAD PUSH20 0xFFFFFFFFFFFFFFFFFFFFFFFFFFFFFFFFFFFFFFFF AND DUP2 MSTORE PUSH1 0x1 SWAP1 SWAP2 ADD SWAP1 PUSH1 0x20 ADD DUP1 DUP4 GT PUSH2 0xAFF JUMPI POP POP POP POP POP SWAP1 POP SWAP1 JUMP JUMPDEST PUSH1 0x0 SLOAD PUSH20 0xFFFFFFFFFFFFFFFFFFFFFFFFFFFFFFFFFFFFFFFF AND CALLER EQ PUSH2 0xB5A JUMPI PUSH2 0xB5A PUSH2 0xBD7 JUMP JUMPDEST PUSH3 0x93A80 DUP2 GT ISZERO PUSH2 0xB9A JUMPI PUSH1 0x40 MLOAD PUSH32 0xA253BC7000000000000000000000000000000000000000000000000000000000 DUP2 MSTORE PUSH1 0x4 DUP2 ADD DUP3 SWAP1 MSTORE PUSH1 0x24 ADD PUSH2 0x52B JUMP JUMPDEST PUSH1 0x3 DUP2 SWAP1 SSTORE PUSH1 0x40 MLOAD DUP2 DUP2 MSTORE CALLER SWAP1 PUSH32 0xBB4E769C8BEC1BF5B9CBB403AFD41B6826B52BA0D1AD04B1D4A6F06EAE96B563 SWAP1 PUSH1 0x20 ADD PUSH1 0x40 MLOAD DUP1 SWAP2 SUB SWAP1 LOG2 POP JUMP JUMPDEST PUSH1 0x40 MLOAD PUSH32 0x504A20D00000000000000000000000000000000000000000000000000000000 DUP2 MSTORE CALLER PUSH1 0x4 DUP3 ADD MSTORE PUSH1 0x24 ADD PUSH2 0x52B JUMP JUMPDEST PUSH1 0x0 SLOAD PUSH20 0xFFFFFFFFFFFFFFFFFFFFFFFFFFFFFFFFFFFFFFFF AND CALLER EQ PUSH2 0xC32 JUMPI PUSH2 0xC32 PUSH2 0xBD7 JUMP JUMPDEST PUSH20 0xFFFFFFFFFFFFFFFFFFFFFFFFFFFFFFFFFFFFFFFF DUP2 AND PUSH2 0xC7F JUMPI PUSH1 0x40 MLOAD PUSH32 0x7138356F00000000000000000000000000000000000000000000000000000000 DUP2 MSTORE PUSH1 0x4 ADD PUSH1 0x40 MLOAD DUP1 SWAP2 SUB SWAP1 REVERT JUMPDEST POP JUMP JUMPDEST PUSH1 0x0 SLOAD PUSH20 0xFFFFFFFFFFFFFFFFFFFFFFFFFFFFFFFFFFFFFFFF AND CALLER EQ PUSH2 0xCA9 JUMPI PUSH2 0xCA9 PUSH2 0xBD7 JUMP JUMPDEST PUSH1 0x3 SLOAD PUSH2 0xCB6 SWAP1 TIMESTAMP PUSH2 0x1275 JUMP JUMPDEST PUSH1 0x2 SSTORE JUMP JUMPDEST DUP1 CALLDATALOAD PUSH20 0xFFFFFFFFFFFFFFFFFFFFFFFFFFFFFFFFFFFFFFFF DUP2 AND DUP2 EQ PUSH2 0xCDF JUMPI PUSH1 0x0 DUP1 REVERT JUMPDEST SWAP2 SWAP1 POP JUMP JUMPDEST PUSH1 0x0 PUSH1 0x20 DUP3 DUP5 SUB SLT ISZERO PUSH2 0xCF6 JUMPI PUSH1 0x0 DUP1 REVERT JUMPDEST PUSH2 0xCFF DUP3 PUSH2 0xCBB JUMP JUMPDEST SWAP4 SWAP3 POP POP POP JUMP JUMPDEST PUSH1 0x20 DUP1 DUP3 MSTORE DUP3 MLOAD DUP3 DUP3 ADD DUP2 SWAP1 MSTORE PUSH1 0x0 SWAP2 SWAP1 DUP5 DUP3 ADD SWAP1 PUSH1 0x40 DUP6 ADD SWAP1 DUP5 JUMPDEST DUP2 DUP2 LT ISZERO PUSH2 0xD60 JUMPI DUP4 MLOAD PUSH32 0xFFFFFFFF00000000000000000000000000000000000000000000000000000000 AND DUP4 MSTORE SWAP3 DUP5 ADD SWAP3 SWAP2 DUP5 ADD SWAP2 PUSH1 0x1 ADD PUSH2 0xD22 JUMP JUMPDEST POP SWAP1 SWAP7 SWAP6 POP POP POP POP POP POP JUMP JUMPDEST DUP1 CALLDATALOAD PUSH32 0xFFFFFFFF00000000000000000000000000000000000000000000000000000000 DUP2 AND DUP2 EQ PUSH2 0xCDF JUMPI PUSH1 0x0 DUP1 REVERT JUMPDEST PUSH1 0x0 PUSH1 0x20 DUP3 DUP5 SUB SLT ISZERO PUSH2 0xDAE JUMPI PUSH1 0x0 DUP1 REVERT JUMPDEST PUSH2 0xCFF DUP3 PUSH2 0xD6C JUMP JUMPDEST PUSH32 0x4E487B7100000000000000000000000000000000000000000000000000000000 PUSH1 0x0 MSTORE PUSH1 0x41 PUSH1 0x4 MSTORE PUSH1 0x24 PUSH1 0x0 REVERT JUMPDEST PUSH1 0x40 DUP1 MLOAD SWAP1 DUP2 ADD PUSH8 0xFFFFFFFFFFFFFFFF DUP2 GT DUP3 DUP3 LT OR ISZERO PUSH2 0xE09 JUMPI PUSH2 0xE09 PUSH2 0xDB7 JUMP JUMPDEST PUSH1 0x40 MSTORE SWAP1 JUMP JUMPDEST PUSH1 0x40 MLOAD PUSH1 0x1F DUP3 ADD PUSH32 0xFFFFFFFFFFFFFFFFFFFFFFFFFFFFFFFFFFFFFFFFFFFFFFFFFFFFFFFFFFFFFFE0 AND DUP2 ADD PUSH8 0xFFFFFFFFFFFFFFFF DUP2 GT DUP3 DUP3 LT OR ISZERO PUSH2 0xE56 JUMPI PUSH2 0xE56 PUSH2 0xDB7 JUMP JUMPDEST PUSH1 0x40 MSTORE SWAP2 SWAP1 POP JUMP JUMPDEST PUSH1 0x0 PUSH8 0xFFFFFFFFFFFFFFFF DUP3 GT ISZERO PUSH2 0xE78 JUMPI PUSH2 0xE78 PUSH2 0xDB7 JUMP JUMPDEST POP PUSH1 0x5 SHL PUSH1 0x20 ADD SWAP1 JUMP JUMPDEST PUSH1 0x0 PUSH1 0x20 DUP1 DUP4 DUP6 SUB SLT ISZERO PUSH2 0xE95 JUMPI PUSH1 0x0 DUP1 REVERT JUMPDEST DUP3 CALLDATALOAD PUSH8 0xFFFFFFFFFFFFFFFF DUP1 DUP3 GT ISZERO PUSH2 0xEAD JUMPI PUSH1 0x0 DUP1 REVERT JUMPDEST DUP2 DUP6 ADD SWAP2 POP DUP6 PUSH1 0x1F DUP4 ADD SLT PUSH2 0xEC1 JUMPI PUSH1 0x0 DUP1 REVERT JUMPDEST DUP2 CALLDATALOAD PUSH2 0xED4 PUSH2 0xECF DUP3 PUSH2 0xE5E JUMP JUMPDEST PUSH2 0xE0F JUMP JUMPDEST DUP2 DUP2 MSTORE PUSH1 0x5 SWAP2 SWAP1 SWAP2 SHL DUP4 ADD DUP5 ADD SWAP1 DUP5 DUP2 ADD SWAP1 DUP9 DUP4 GT ISZERO PUSH2 0xEF3 JUMPI PUSH1 0x0 DUP1 REVERT JUMPDEST DUP6 DUP6 ADD JUMPDEST DUP4 DUP2 LT ISZERO PUSH2 0xFEC JUMPI DUP1 CALLDATALOAD DUP6 DUP2 GT ISZERO PUSH2 0xF0F JUMPI PUSH1 0x0 DUP1 DUP2 REVERT JUMPDEST DUP7 ADD PUSH1 0x40 DUP2 DUP13 SUB PUSH32 0xFFFFFFFFFFFFFFFFFFFFFFFFFFFFFFFFFFFFFFFFFFFFFFFFFFFFFFFFFFFFFFE0 ADD DUP2 SGT ISZERO PUSH2 0xF45 JUMPI PUSH1 0x0 DUP1 DUP2 REVERT JUMPDEST PUSH2 0xF4D PUSH2 0xDE6 JUMP JUMPDEST PUSH2 0xF58 DUP11 DUP5 ADD PUSH2 0xCBB JUMP JUMPDEST DUP2 MSTORE DUP2 DUP4 ADD CALLDATALOAD DUP9 DUP2 GT ISZERO PUSH2 0xF6C JUMPI PUSH1 0x0 DUP1 DUP2 REVERT JUMPDEST DUP1 DUP5 ADD SWAP4 POP POP DUP13 PUSH1 0x3F DUP5 ADD SLT PUSH2 0xF82 JUMPI PUSH1 0x0 DUP1 DUP2 REVERT JUMPDEST DUP10 DUP4 ADD CALLDATALOAD PUSH2 0xF92 PUSH2 0xECF DUP3 PUSH2 0xE5E JUMP JUMPDEST DUP2 DUP2 MSTORE PUSH1 0x5 SWAP2 SWAP1 SWAP2 SHL DUP5 ADD DUP4 ADD SWAP1 DUP12 DUP2 ADD SWAP1 DUP16 DUP4 GT ISZERO PUSH2 0xFB2 JUMPI PUSH1 0x0 DUP1 DUP2 REVERT JUMPDEST SWAP5 DUP5 ADD SWAP5 JUMPDEST DUP3 DUP7 LT ISZERO PUSH2 0xFD7 JUMPI PUSH2 0xFC8 DUP7 PUSH2 0xD6C JUMP JUMPDEST DUP3 MSTORE SWAP5 DUP13 ADD SWAP5 SWAP1 DUP13 ADD SWAP1 PUSH2 0xFB7 JUMP JUMPDEST DUP4 DUP14 ADD MSTORE POP POP DUP6 MSTORE POP POP SWAP2 DUP7 ADD SWAP2 DUP7 ADD PUSH2 0xEF7 JUMP JUMPDEST POP SWAP9 SWAP8 POP POP POP POP POP POP POP POP JUMP JUMPDEST PUSH1 0x20 DUP1 DUP3 MSTORE DUP3 MLOAD DUP3 DUP3 ADD DUP2 SWAP1 MSTORE PUSH1 0x0 SWAP2 SWAP1 PUSH1 0x40 SWAP1 DUP2 DUP6 ADD SWAP1 DUP7 DUP5 ADD DUP6 JUMPDEST DUP3 DUP2 LT ISZERO PUSH2 0x1073 JUMPI DUP2 MLOAD DUP1 MLOAD PUSH32 0xFFFFFFFF00000000000000000000000000000000000000000000000000000000 AND DUP6 MSTORE DUP7 ADD MLOAD PUSH20 0xFFFFFFFFFFFFFFFFFFFFFFFFFFFFFFFFFFFFFFFF AND DUP7 DUP6 ADD MSTORE SWAP3 DUP5 ADD SWAP3 SWAP1 DUP6 ADD SWAP1 PUSH1 0x1 ADD PUSH2 0x1016 JUMP JUMPDEST POP SWAP2 SWAP8 SWAP7 POP POP POP POP POP POP POP JUMP JUMPDEST PUSH1 0x20 DUP1 DUP3 MSTORE DUP3 MLOAD DUP3 DUP3 ADD DUP2 SWAP1 MSTORE PUSH1 0x0 SWAP2 SWAP1 DUP5 DUP3 ADD SWAP1 PUSH1 0x40 DUP6 ADD SWAP1 DUP5 JUMPDEST DUP2 DUP2 LT ISZERO PUSH2 0xD60 JUMPI DUP4 MLOAD PUSH20 0xFFFFFFFFFFFFFFFFFFFFFFFFFFFFFFFFFFFFFFFF AND DUP4 MSTORE SWAP3 DUP5 ADD SWAP3 SWAP2 DUP5 ADD SWAP2 PUSH1 0x1 ADD PUSH2 0x109C JUMP JUMPDEST PUSH1 0x0 PUSH1 0x20 DUP3 DUP5 SUB SLT ISZERO PUSH2 0x10E0 JUMPI PUSH1 0x0 DUP1 REVERT JUMPDEST POP CALLDATALOAD SWAP2 SWAP1 POP JUMP JUMPDEST PUSH32 0x4E487B7100000000000000000000000000000000000000000000000000000000 PUSH1 0x0 MSTORE PUSH1 0x32 PUSH1 0x4 MSTORE PUSH1 0x24 PUSH1 0x0 REVERT JUMPDEST PUSH32 0x4E487B7100000000000000000000000000000000000000000000000000000000 PUSH1 0x0 MSTORE PUSH1 0x11 PUSH1 0x4 MSTORE PUSH1 0x24 PUSH1 0x0 REVERT JUMPDEST PUSH1 0x0 PUSH32 0xFFFFFFFFFFFFFFFFFFFFFFFFFFFFFFFFFFFFFFFFFFFFFFFFFFFFFFFFFFFFFFFF DUP3 SUB PUSH2 0x1176 JUMPI PUSH2 0x1176 PUSH2 0x1116 JUMP JUMPDEST POP PUSH1 0x1 ADD SWAP1 JUMP JUMPDEST PUSH1 0x0 PUSH1 0x20 DUP1 DUP4 ADD DUP2 DUP5 MSTORE DUP1 DUP6 MLOAD DUP1 DUP4 MSTORE PUSH1 0x40 SWAP3 POP PUSH1 0x40 DUP7 ADD SWAP2 POP PUSH1 0x40 DUP2 PUSH1 0x5 SHL DUP8 ADD ADD DUP5 DUP9 ADD PUSH1 0x0 DUP1 JUMPDEST DUP5 DUP2 LT ISZERO PUSH2 0x1266 JUMPI DUP10 DUP5 SUB PUSH32 0xFFFFFFFFFFFFFFFFFFFFFFFFFFFFFFFFFFFFFFFFFFFFFFFFFFFFFFFFFFFFFFC0 ADD DUP7 MSTORE DUP3 MLOAD DUP1 MLOAD PUSH20 0xFFFFFFFFFFFFFFFFFFFFFFFFFFFFFFFFFFFFFFFF AND DUP6 MSTORE DUP9 ADD MLOAD DUP9 DUP6 ADD DUP9 SWAP1 MSTORE DUP1 MLOAD DUP9 DUP7 ADD DUP2 SWAP1 MSTORE SWAP1 DUP10 ADD SWAP1 DUP4 SWAP1 PUSH1 0x60 DUP8 ADD SWAP1 JUMPDEST DUP1 DUP4 LT ISZERO PUSH2 0x1251 JUMPI DUP4 MLOAD PUSH32 0xFFFFFFFF00000000000000000000000000000000000000000000000000000000 AND DUP3 MSTORE SWAP3 DUP12 ADD SWAP3 PUSH1 0x1 SWAP3 SWAP1 SWAP3 ADD SWAP2 SWAP1 DUP12 ADD SWAP1 PUSH2 0x120F JUMP JUMPDEST POP SWAP8 DUP11 ADD SWAP8 SWAP6 POP POP POP SWAP2 DUP8 ADD SWAP2 PUSH1 0x1 ADD PUSH2 0x11A7 JUMP JUMPDEST POP SWAP2 SWAP10 SWAP9 POP POP POP POP POP POP POP POP POP JUMP JUMPDEST DUP1 DUP3 ADD DUP1 DUP3 GT ISZERO PUSH2 0x1288 JUMPI PUSH2 0x1288 PUSH2 0x1116 JUMP JUMPDEST SWAP3 SWAP2 POP POP JUMP INVALID LOG2 PUSH5 0x6970667358 0x22 SLT KECCAK256 0xBD 0xF6 COINBASE PUSH3 0x97BBCA PUSH28 0x556AABB8127007B85A283B55A55015C361D76DBF10A500D164736F6C PUSH4 0x43000817 STOP CALLER "
        },
        "methodIdentifiers": {
          "getGracePeriod()": "dbd18388",
          "getImpl()": "dfb80831",
          "getModuleBySelector(bytes4)": "63de14fc",
          "getModules()": "b2494df3",
          "getNewOwner()": "3e2fe149",
          "getOwner()": "893d20e8",
          "getSelectors()": "4b503f0b",
          "getSelectorsByImpl(address)": "0abe1796",
          "getTimestampExp()": "61a9ab76",
          "setGracePeriod(uint256)": "f2f65960",
          "transferNewOwnerAccept()": "18e3e87f",
          "transferOwner(address)": "4fb2e45d",
          "updateModules((address,bytes4[])[])": "9f889b6e"
        }
      }
    }
  }
}